:101000000000042089B60200CDB60200CFB602006F
:10101000D1B60200D3B60200D5B60200000000002F
:10102000000000000000000000000000D7B6020031
:10103000D9B6020000000000DBB60200DDB60200F7
:10104000A984020015EC0200DFB60200DFB6020040
:10105000DFB60200DFB60200DFB60200DFB6020034
:10106000DFB60200DFB60200DFB60200DFB6020024
:10107000DFB60200357E0200DFB60200DFB60200F6
:10108000DFB60200DFB60200DFB60200DFB6020004
:10109000DFB60200DFB60200DFB60200DFB60200F4
:1010A000DFB60200DFB60200DFB60200DFB60200E4
:1010B000DFB60200DFB60200000000000000000002
:1010C000DFB60200DFB60200DFB60200DFB60200C4
:1010D0001D6C0200DFB60200DFB60200C194020000
:1010E000DFB60200DFB60200DFB60200000000003B
:1010F00000000000DFB6020000000000DFB60200C2
:1011000000000000000000000000000000000000DF
:1011100000000000000000000000000000000000CF
:1011200000000000000000000000000000000000BF
:1011300000000000000000000000000000000000AF
:10114000000000000000000000000000000000009F
:10115000000000000000000000000000000000008F
:10116000000000000000000000000000000000007F
:10117000000000000000000000000000000000006F
:10118000000000000000000000000000000000005F
:10119000000000000000000000000000000000004F
:1011A000000000000000000000000000000000003F
:1011B000000000000000000000000000000000002F
:1011C000000000000000000000000000000000001F
:1011D000000000000000000000000000000000000F
:1011E00000000000000000000000000000000000FF
:1011F00000000000000000000000000000000000EF
:1012000010B5054C237833B9044B13B10448AFF340
:1012100000800123237010BDD802002000000000D0
:101220007C12050008B5034B1BB103490348AFF31B
:10123000008008BD00000000DC0200207C120500D8
:10124000154B002B08BF134B9D46A3F5803A002198
:101250008B460F461348144A121A47F0F6FC0F4B00
:10126000002B00D098470E4B002B00D09847002051
:10127000002104000D000D48002802D00C48AFF3F7
:10128000008047F06DFC2000290000F015F847F0C1
:1012900041FC00BF00000800000004200000000026
:1012A00000000000D8020020801301200000000090
:1012B000000000007047000070B505460E4631463C
:1012C000284626F02BF805F0E1F9044628B90B4B27
:1012D0000B4A0C48672147F0FFFB00F047F826F067
:1012E00051F818B1204605F0D7F9E8E7204605F097
:1012F0003AFC204626F04CF8F1E700BF21A3040099
:101300001CA304002AA304004FF0FF307047B0F87C
:101310001E3BB0F8202BC3F500618A42CCBFA0F879
:10132000221BA0F8222BB0F8221B21B100F21E30A4
:10133000184426F0B9B9704710B50A4B044640F876
:10134000043B00F0EDF9084B23600023A4F81C33A4
:10135000A4F81E3BA4F8203BA4F8223B26F09CF9FD
:10136000204610BD78A3040084A3040010B5044CEB
:1013700001462046FFF7E0FF024B1C6010BD00BF96
:10138000F8020020880E002010B500210446B4F8B1
:101390001C23A31893F81B310A2B01D00D2B07D166
:1013A000013A92B2A4F81C23224482F81C11EEE701
:1013B0002AB1234604F58E71201D03F0FFF80020AA
:1013C000A4F81C0310BD00002DE9F8432A4FDFF8F4
:1013D000AC80DFF8AC9004460D468E18B54249D279
:1013E0002B780A2B19D014D8082B2ED0B4F81C3324
:1013F000B3F5FF7F27D8236801221B6829462046C2
:101400009847B4F81C335A1CA4F81C232A782344A8
:101410002DE00D2B01D07F2BE7E7236802221B680C
:10142000394620469847B4F81C3333B12344002290
:1014300083F81C212046FFF7A7FF236802221B68C0
:101440004146204698470135C8E7B4F81C33002BC5
:10145000F9D0236803221B68494620469847B4F810
:101460001C33013B9BB2A4F81C330022234483F8B5
:101470001C21E8E7BDE8F8838DA304008BA30400DA
:1014800088A30400024B0A4601461868FFF79CBF78
:10149000880E0020B0F8223B0BB9FFF738BF704729
:1014A000B0F8221BB0F81E2B0A44C2F30A02A0F8BF
:1014B0001E2BB0F8202B521AA0F8202B0022A0F8E7
:1014C000222BFFF724BF2DE9F04105460E4690463A
:1014D0000027B8F1000F30D0B5F8204BC4F50064F8
:1014E000A4B2444528BF444631468B1B9BB2A3425D
:1014F0000FD2B5F8202BB5F81E3B11F8010B1344A1
:10150000C3F30A032B44013283F81E03A5F8202BF2
:10151000EBE7A8EB0408264428463C441FFA88F869
:10152000FFF7B8FFA7B2B8F1000F06D026F0DCF83D
:1015300018B92846FFF7B4FFCBE73846BDE8F0817D
:10154000014B1868FFF7ACBF880E00202DE9F04171
:101550000F4F104E054600244FF00C0808FB04F313
:101560003146DA59A868013404F055FD402CF5D114
:10157000084E00242B79A34208D92B68A86853F899
:101580003420314604F047FD0134F3E7BDE8F08133
:1015900034AF04003EB20400D0F8140105F080B866
:1015A000D0F8140105F07AB838B504468568D0F84B
:1015B000140105F0B6FB05490246284604F02BFD50
:1015C000A0680349BDE8384004F025BDF4A4040038
:1015D000E7A504000149806804F01DBDE7A50400EB
:1015E00010B504468AB06946D0F8140105F002FA35
:1015F000BDF800202B49A06804F00DFDBDF80220C5
:101600002949A06804F007FDBDF80630BDF80420A4
:101610002649A06804F0FFFCBDF80A30BDF8082098
:101620002349A06804F0F7FCBDF80E30BDF80C208B
:101630002049A06804F0EFFCBDF81230BDF810207E
:101640001D49A06804F0E7FCBDF81630BDF8142071
:101650001A49A06804F0DFFCBDF81A30BDF8182064
:101660001749A06804F0D7FCBDF81E30BDF81C2057
:101670001449A06804F0CFFCBDF82230BDF820204A
:101680001149A06804F0C7FCBDF82630BDF824203D
:101690000E49A06804F0BFFC2046FFF79BFF0AB08C
:1016A00010BD00BF21AD04002DAD040038AD040015
:1016B0004AAD04005CAD040069AD040076AD0400E1
:1016C00083AD0400B1AD040090AD0400A5AD0400ED
:1016D00010B5044604F0E6FF04490246A06804F091
:1016E0009AFC2046BDE81040FFF774BF3EB20400EC
:1016F00010B50446D0F8140105F07BFB40B1054954
:10170000A06804F088FC2046BDE81040FFF762BFE7
:101710000149F5E7C0AC0400C7AC040000BA70474B
:1017200070B5002504460E460560057185602946A2
:101730002C220C3047F089FA194A4FF47A73C4E925
:101740000E232346174A43F8402F2146A36484F80A
:10175000585004F1980004F0D3FC2146C4F8D4405A
:1017600004F1D80003F0FEF822463046C4F80C41DC
:10177000C4F81041C4F814610B4905F019FB0B4B78
:10178000D4F81401C4E9133404F14C0104F074FFDB
:101790003E22294604F1590047F057FA204670BD11
:1017A0000800010005390000094700009D370000CE
:1017B0002DE9F04107460C461546984647F05AFE7B
:1017C000391800F00106B8F1000F19D000203A4690
:1017D000074691421AD912F8013BA3F1410CBCF122
:1017E000050F15D8373B3B43DBB2F6B101308542DC
:1017F00004F1010C237009D0002637466446E8E75F
:101800000130B5EB500FE1D24FF0FF30BDE8F08171
:10181000A3F1610CBCF1050F01D8573BE3E7303B66
:10182000DBB2092BF0D83B43DFE71B01DFB2A44654
:101830000126E3E770B50C4619B9BDE87040FFF723
:10184000C9BE8568084606F0C3FC22460346034924
:101850002846BDE8704004F0DEBB00BF34B204008F
:1018600010B50446D83003F0C3F801462046BDE861
:101870001040FFF7DFBF00002DE9F04104460F469E
:1018800071B98B49806804F0C6FB8A49A06804F0EE
:10189000C2FB3D4629462046BDE8F041FFF7CABFDE
:1018A000D2F800808449404647F0BDFD0646002836
:1018B00040F0B380012F40F0A280D4F8140105F06D
:1018C00054F8054602687D49A06804F0A4FB6A68E4
:1018D0007B49A06804F09FFBAA687A49A06804F0DD
:1018E0009AFBEA687849A06804F095FB2A69774971
:1018F000A06804F090FB6A697549A06804F08BFB4E
:10190000AA697449A06804F086FBEA697249A06874
:1019100004F081FB2A6A7149A06804F07CFB6A6AC2
:101920006F49A06804F077FBAA6A6E49A06804F0CA
:1019300072FBEA6A6C49A06804F06DFB2A6B6B4984
:10194000A06804F068FBAA6B6949A06804F063FB17
:10195000EA6B6849A06804F05EFB2A6C6649A068DF
:1019600004F059FB6A6C6549A06804F054FBAA6C4A
:101970006349A06804F04FFBEA6C6249A06804F078
:101980004AFB2A6D6049A06804F045FB6A6D5F4917
:10199000A06804F040FBAA6D5D49A06804F03BFB21
:1019A000EA6D5C49A06804F036FB2A6E5A49A068CB
:1019B00004F031FB6A6E5949A06804F02CFBAA6E52
:1019C0005749A06804F027FBEA6E5649A06804F066
:1019D00022FB2A6F5449A06804F01DFB6A6F53492B
:1019E000A06804F018FBAA6F5149A06804F013FB2B
:1019F000EA6F5049A06804F00EFB35464AE7022F13
:101A000054D14D49404647F00EFD054600284DD1C2
:101A1000D4F8140104F0ADFF3CE74849404647F0D4
:101A200002FD0546002841D1012F32D1D4F814011E
:101A300005F0F8F9064602884149A06804F0EBFA7F
:101A400072884049A06804F0E6FAB2883E49A0686E
:101A500004F0E1FAF2883D49A06804F0DCFA32892A
:101A60003B49A06804F0D7FA72893A49A06804F0AB
:101A7000D2FAB2893849A06804F0CDFAF289374920
:101A8000A06804F0C8FA328A3549A06804F0C3FAA5
:101A900000E7022F0AD12849404647F0C4FC05461A
:101AA00020B9D4F8140105F0C1F9F3E60725F1E6F1
:101AB000B6A70400BCA70400C2A70400C6A7040080
:101AC000D4A70400E8A70400FEA7040017A8040098
:101AD00029A8040044A8040055A804006AA804002A
:101AE0007DA8040097A80400A9A80400BBA80400CE
:101AF000CEA80400E9A80400F7A804000BA904007C
:101B000021A9040032A9040047A904005AA904002D
:101B100074A9040086A90400A2A90400BFA90400B6
:101B2000D6A90400EDA904000EAA04002CAA040002
:101B30003FAA040052AA040003B3040067AA0400E9
:101B40006BAA04007FAA040093AA0400A4AA0400BC
:101B5000B6AA0400F4AA0400C8AA0400E3AA040078
:101B60000AAB040070B505460E46B1B9D0F81401B1
:101B700004F0A8FD044650B11249A86804F04BFADD
:101B8000304601462846BDE87040FFF753BE0E4977
:101B9000A86804F040FA2046F3E714680B49204691
:101BA00047F041FC28B90121D5F8140104F07EFD6D
:101BB000E7E70749204647F036FC01460028F3D006
:101BC0000720DEE7D1AB0400D6AB0400DDAB040098
:101BD000E0AB040037B504466946D0F8140105F0BF
:101BE00099F80546E0B9009A1049A06804F013FA84
:101BF0009DF804200E49A06804F00DFA9DF8052018
:101C00000C49A06804F007FA9DF806200A49A0686C
:101C100004F001FA9DF807200849A06804F0FBF9D8
:101C200029462046FFF706FE03B030BDBFAD0400D5
:101C3000D2AD0400E9AD0400E2AD0400FCAD040047
:101C4000F0B5044685B01046C9B9D4F81401144F54
:101C500005F0A0F9461E00F10F0516F8012FA06847
:101C6000394604F0D8F9AE42F7D10E49A06804F025
:101C7000D2F900212046FFF7DDFD05B0F0BD0023BD
:101C8000102269460068FFF793FD102806D16946C7
:101C9000D4F8140105F082F90146EBE70621E9E7E3
:101CA000EFA304007DA70400F0B5044685B01046FC
:101CB000C9B9D4F81401144F04F0BAFF461E00F15C
:101CC0000F0516F8012FA068394604F0A4F9AE42BA
:101CD000F7D10E49A06804F09EF900212046FFF7D5
:101CE000A9FD05B0F0BD0023102269460068FFF78A
:101CF0005FFD102806D16946D4F8140104F09CFF5A
:101D00000146EBE70621E9E7EFA304007DA7040005
:101D1000F7B5002304468DF8043071BBD0F81401E8
:101D200004F065FF8DF80400C00703D54249A068A0
:101D300004F071F99DF80430990703D53F49A06874
:101D400004F069F99DF804305A0703D53C49A068AE
:101D500004F061F99DF804301B0703D53949A068E8
:101D600004F059F93849A06804F055F900212046DB
:101D700003B0BDE8F040FFF75DBD15689E46013D2C
:101D800019461E4618461F469C4615F8012F6AB391
:101D90006E2A25D01AD8642A1FD0BCF1000F05D0B6
:101DA0009DF8043043F001038DF8043028B19DF80C
:101DB000043067F341038DF8043029B19DF80430F5
:101DC00066F382038DF804300621D0E7722A0AD028
:101DD000732AE2D101200746D7E701210E46D4E756
:101DE00001239E46D1E74FF0010CCEE7BCF1000F76
:101DF00005D09DF8042042F001028DF8042028B19E
:101E00009DF8042067F341028DF8042029B19DF864
:101E1000042066F382028DF804202BB19DF8043073
:101E20006EF3C3038DF804309DF80410D4F8140148
:101E300004F0ECFE01469AE722C5040060C10400EC
:101E400014AD04002DC204007DA704002DE9F04F5D
:101E500000238BB099420446ADF802300BDD1568C3
:101E60004649284647F0DFFA064630B1444928463D
:101E700047F0D9FA48B107217AE04249A06804F056
:101E8000CAF84149A06804F0C6F8DFF81C81DFF801
:101E90001C91DFF81CA1D4F8140101AF3A460DF1F2
:101EA000020104F02BFF00285DD1A068002E54D160
:101EB0009DF82430DFF8FCB013F0100F0CBF522255
:101EC0004322494604F0A7F8BDF81020A068514607
:101ED00004F0A1F8039A2D49A06804F09CF89DF93C
:101EE0001D202B49A06804F096F89DF91E20294971
:101EF000A06804F090F89DF824202749A06802F01B
:101F0000010204F088F89DF824202349A068C2F358
:101F1000400204F080F89DF824201F49A068C2F315
:101F2000800204F078F89DF824201B49A068C2F3D1
:101F3000C00204F070F81949A06804F06CF8354646
:101F40007A5DA0685946013504F065F8082DF7D18F
:101F50001349A06804F05FF89DE7BDF810204146E2
:101F600004F059F897E70F49A06804F054F80021ED
:101F70002046FFF75FFC0BB0BDE8F08FE5AB040037
:101F800009AF0400EBAB040037AC040095AC0400CF
:101F90009CAC0400A3AC0400AAAC0400D3AE0400C3
:101FA0003CA604007DA704008DAC040083AC0400B3
:101FB0008BAC0400EFA3040010B50446D0F8140164
:101FC00004F059FA01462046BDE81040FFF732BC44
:101FD00038B505460C46D0F8140169B904F054FE32
:101FE000084903461022A86804F015F8214628463F
:101FF000BDE83840FFF71EBC116804F049FE0146F9
:10200000F5E700BF56AE04002DE9F04186B001AF00
:1020100004463946D0F8140104F088FE064650BB49
:102020001849A068DFF8748003F0F5FF35467A5D43
:10203000A0684146013503F0EEFF082DF7D11249A3
:10204000A06803F0E8FFBDF80C201049A06803F079
:10205000E2FF9DF811200E49A06803F0DCFF9DF817
:1020600012200C49A06803F0D6FF9DF813200A49FE
:10207000A06803F0D0FF31462046FFF7DBFB06B037
:10208000BDE8F0819AA504007DA70400A5A5040081
:10209000B0A50400C6A50400DDA50400EFA304005C
:1020A00038B50446B1B9D0F8140104F03AFC78B15F
:1020B000D4F8140124F00CFF50B11749A06803F0C4
:1020C000AAFF002001462046BDE83840FFF7B2BB1A
:1020D0001249F3E715681249284647F0A4F958B9A0
:1020E0001049D4F81401224604F016FC0121D4F85A
:1020F000140104F01DFCE5E728460B4947F093F96D
:10210000054638B901460246D4F8140104F004FC2F
:102110002946ECE70720D5E75DAE0400EFA60400F2
:1021200067AE0400253A00006EAE040070B50546A7
:102130000E46B1B9D0F8140104F088FE044650B13F
:102140001249A86803F067FF304601462846BDE8FB
:102150007040FFF76FBB0E49A86803F05CFF204694
:10216000F3E714680B49204647F05DF928B90121CF
:10217000D5F8140104F06FFEE7E70749204647F061
:1021800052F901460028F3D00720DEE75DAE0400D7
:10219000EFA6040067AE04006EAE040038B5044636
:1021A000F9B9D0F8140104F0B1FD042817D8DFE81C
:1021B00000F0030E101214001F49A06803F02BFF5B
:1021C000002001462046BDE83840FFF733BB1B49DD
:1021D000F3E71B49F1E71B49EFE71B49EDE71B4913
:1021E000EBE715681A49284647F01DF920B9D4F8DD
:1021F000140104F078FDE4E71649284647F013F986
:1022000020B9D4F8140104F073FDDAE71249284626
:1022100047F009F920B9D4F8140104F061FED0E7C1
:102220000E49284647F0FFF820B9D4F8140104F00D
:1022300069FEC6E70720C4E72AA5040035A5040007
:1022400040A5040048A5040051A504005AA50400B7
:102250006AA50400EBC4040073A504007AA5040079
:10226000002970B5054627DD14681449204647F05B
:10227000DAF850B90121D5F8140104F0A8FD01469F
:102280002846BDE87040FFF7D5BA0D49204647F013
:10229000CAF801460028EED020460A4947F0C3F8A4
:1022A000044648B9AE6804F0A2FD0749024630462C
:1022B00003F0B1FE2046E2E70720E0E7CEA60400E7
:1022C000D4A60400D9A60400CDAD040010B5044680
:1022D000D43003F0A3FD01462046BDE81040FFF7CF
:1022E000A9BA10B50446983003F0F0FF0146204625
:1022F000BDE81040FFF79EBA10B5044600F58670A1
:1023000002F03EFF01462046BDE81040FFF792BABA
:1023100010B5044600F5887003F018FE014620460B
:10232000BDE81040FFF786BA2DE9F041084F064698
:102330000D4690460C46631B984506DD14F8012BAC
:10234000B068394603F067FEF5E7BDE8F08100BFED
:10235000EFA3040037B505460C4699B96946D0F895
:10236000140104F049FA082269462846FFF7DCFF09
:102370000549A86803F04FFE21462846FFF75AFAA0
:1023800003B030BD0721F8E77DA7040037B5054647
:102390000C46104691B9D5F8140104F013FA08223E
:1023A00001462846FFF7C0FF0D49A86803F033FE39
:1023B00021462846FFF73EFA03B030BD002308222D
:1023C00069460068FFF7F4F9002801DA0621F0E712
:1023D0006946D5F8140104F0F9F90146E9E700BFB0
:1023E0007DA7040037B505460C46104691B9D5F8CF
:1023F000140104F0CCFB082201462846FFF794FFA5
:102400000D49A86803F007FE21462846FFF712FA97
:1024100003B030BD0023082269460068FFF7C8F901
:10242000002801DA0621F0E76946D5F8140104F026
:10243000B2FB0146E9E700BF7DA7040030B5C3B099
:10244000FF238DF8073004460DF1070302AA00218F
:10245000D0F8140104F05FFB054648B902A92046F4
:102460009DF80720FFF760FF0449A06803F0D3FD43
:1024700029462046FFF7DEF943B030BD7DA70400B2
:1024800010B5CC894B880A8886B064BAA4B205948A
:102490008C8964BAA4B204944C8964BAA4B203943B
:1024A0000C8964BAA4B20294CC8864BAA4B2019430
:1024B000898849BA89B200915BBA52BA9BB292B28A
:1024C0000249806803F0A7FD06B010BD43B20400C6
:1024D0002DE9F04704468EB00D46A9BBD0F8140193
:1024E000DFF87C801D4F04F0A8FCAA468146AEB2FE
:1024F0004E4530D206AA3146D4F81401ADF806A0F4
:1025000004F01DFDF0B99DF83430C3F30013CBB9CE
:10251000ADF8063002AB0DF106023146D4F81401D5
:1025200004F014FD70B9BDF82820A068414603F0FE
:1025300072FD02A92046FFF7A3FF3946A06803F009
:102540006AFDE7E70135D2E707212046FFF772F978
:102550000EB0BDE8F0870021F7E700BF7DA70400BB
:102560009BA7040070B5104E86B00446002501AA52
:10257000E9B2D4F8140104F006FD78B99DF81730DB
:10258000DB0709D501A92046FFF77AFFBDF8142023
:10259000A068314603F03FFD0135E8E72046FFF72C
:1025A00019F806B070BD00BFF3A4040013B50022F3
:1025B0000C4601A947F000F8019B20601B78002B16
:1025C00014BF0620002002B010BD000073B5054600
:1025D0000C4681B98668D0F8140104F0D4F81A4981
:1025E0000246304603F017FD204601462846FFF715
:1025F00021F902B070BD16681449304646F013FF49
:10260000044638B9D5F81401AE6811F0C3F8024693
:102610000F49E6E70F49304646F005FF044628B962
:10262000D5F81401AE6811F0B9F8F0E701A9304609
:10263000FFF7BCFF0028D8D19DF80410D5F814018D
:1026400004F0A5F8D1E700BFE9A4040080A70400C6
:102650008AA7040091A704002DE9F04F00298DB04E
:10266000044640F3138115688949284646F0DBFE8D
:10267000074600287DD08749284646F0D4FE00282A
:102680007FD0284603A9FFF791FF0546002840F0B8
:10269000F68004AF3A46BDF80C10D4F8140104F0EB
:1026A00047FC0546002840F0EA80BDF822207A4920
:1026B000A068DFF8388203F0AEFCBDF8202077492F
:1026C000A06803F0A8FC7649A06803F0A4FC2E469D
:1026D000BA5DA0684146013603F09DFC082EF7D193
:1026E0007049A06803F097FC6F49A06803F093FC61
:1026F0009DF82C30D80703D56C49A06803F08BFCFB
:102700009DF82C30990703D56949A06803F083FC34
:102710009DF82C305A0703D56649A06803F07BFC6E
:102720009DF82C301B0703D56349A06803F073FCA8
:102730005C49A06803F06FFC9DF824205F49A06805
:1027400003F069FC069A5E49A06803F064FC079AEE
:102750005C49A06803F05FFC9DF825205A49A068F9
:1027600003F059FC9DF926205849A06803F053FC5A
:1027700085E05749A06803F04EFC5649A06803F075
:102780004AFCD4F81401DFF870A1DFF870B104F04E
:1027900054FB00268146B1B249456BD20DF11008B9
:1027A0004246D4F8140104F0CAFB00285CD19DF81D
:1027B0002C30DD0658D4A068BDF82220002F55D15A
:1027C000514603F028FCBDF82020A068594603F0CC
:1027D00022FC069A4049A06803F01DFC079A3E4976
:1027E000A06803F018FC9DF825203C49A06803F080
:1027F00012FC9DF824203A49A06803F00CFC9DF8D7
:102800002C203849A06802F0010203F004FC9DF876
:102810002C203449A068C2F3400203F0FCFB9DF871
:102820002C203049A068C2F3800203F0F4FB9DF82D
:102830002C202C49A068C2F3C00203F0ECFB2A490B
:10284000A06803F0E8FB294B3D4618F80520A06876
:1028500001931946013503F0DEFB082D019BF4D1ED
:102860002349A06803F0D7FB013694E7214903F020
:10287000D2FBF9E70B49A06803F0CDFB0025294600
:102880002046FEF7D7FF0DB0BDE8F08F0725F6E72D
:10289000E5AB040009AF0400DFA40400EEA40400CB
:1028A0009AA504007DA70400FBA4040022C504002F
:1028B00060C1040014AD04002DC2040002A5040090
:1028C00011A50400DDA50400B0A504001FA50400A7
:1028D0001BA4040072A40400C9A40400D1A4040031
:1028E000D8A40400AAAC0400D3AE0400EFA30400F3
:1028F0003CA60400BFAE040095AC04008BAC040001
:1029000073B505460C4681B98668D0F8140104F009
:1029100094FA0C490246304603F07DFB20460146FE
:102920002846FEF787FF02B070BD01A91068FFF7C7
:102930003DFE0028F3D1BDF80410D5F8140104F0D1
:1029400080FAECE7E9A4040073B505460C4679B9B2
:102950008668D0F8140104F011F90C49024630469B
:1029600003F059FB21462846FEF764FF02B070BD14
:1029700001A91068FFF71AFE04460028F2D1019958
:10298000D5F8140104F0FEF8ECE700BFE9A4040058
:1029900037B5044671B98568D0F8140104F07DFAA2
:1029A0000A490246284603F036FB2046FEF712FE8F
:1029B00003B030BD01A91068FFF7F8FD0028F4D17D
:1029C0000199D4F8140104F06DFAEEE7E9A40400CB
:1029D00010B5002986B004461FDD05A91068FFF771
:1029E000E5FDE8B9059B1F2B19D8012199400F4B34
:1029F00001930023029400934FF6FF72D4F8140160
:102A000004F0FCF960B90A49A06803F004FB094925
:102A1000A06803F000FB06B010BD0021E7E7072027
:102A200001462046FEF706FFF5E700BF1D40000007
:102A30001FAB040078AB04002DE9F04391B00DF119
:102A400014080E4635230446154600212C22404624
:102A5000019346F0FAF8002E47DD2549286846F034
:102A6000E2FC002841D194F85830002B37D1012ED8
:102A70003BD0D5F80490484646F0FCFC3D2834D8BD
:102A800004F159074946384646F0D7FC022E0BD0D0
:102A9000A96809A80FF049FE10BB032E09D001A9AF
:102AA000E868FFF783FD03E0124909A80FF03DFE37
:102AB000B0B9019BADF8363000238DF810300E4AC6
:102AC000D4F81401234602A9CDE9027803F0CFFD22
:102AD00030B9012384F8583011B0BDE8F0830520E7
:102AE00001462046FEF7A6FEF6E70720F8E700BFFE
:102AF0008FA3040097A30400913400004B1E012B08
:102B00002DE9F34105460F46164641D8D2F800801C
:102B10002049404646F087FC0446F0B9012F0AD10F
:102B2000D5F81401AE6804F0CDF802461A493046D3
:102B300003F071FA0AE001A97068FFF737FD044657
:102B400020B90199D5F8140104F0C0F821462846AF
:102B5000FEF770FE02B0BDE8F0811049404646F035
:102B600062FC0446A0B9012F05D1D5F81401AE6866
:102B700004F0B1F8D9E701A97068FFF717FD044622
:102B80000028E3D10199D5F8140104F0A8F8DDE795
:102B90000724DBE744AE0400E9A404004CAE0400C3
:102BA00073B505460C4679B98668D0F8140104F06F
:102BB00057F90C490246304603F02DFA21462846C3
:102BC000FEF738FE02B070BD01A91068FFF7EEFCF9
:102BD00004460028F2D19DF80410D5F8140104F041
:102BE00043F9EBE7E9A40400F0B50E1EADF5037D53
:102BF0000546144657DD17682C49384646F013FC45
:102C0000B8BB032E4FDD69466068FFF7CFFC48B9BB
:102C1000A668009B0293304646F02CFCFC28024636
:102C200007D9032001462846FEF704FE0DF5037D73
:102C3000F0BD8DF80C0031460DF10D0045F0E1FFBF
:102C4000E468204646F016FCF8280246E9D88DF8DC
:102C50000B01214643A845F0D4FF9DF80A31D5F871
:102C6000140143F0010301A98DF80A3103F05EFF5E
:102C7000D8E70F49384646F0D6FBA0B9022E01909E
:102C800011DD01A96068FFF791FC0028CAD1A46892
:102C9000204646F0EFFB2246C3B20199D5F8140155
:102CA00003F05CFFBEE70720BCE700BFA2A704005B
:102CB000A6A7040073B505460C4679B98668D0F816
:102CC000140104F0F4F80C490246304603F0A3F96D
:102CD00021462846FEF7AEFD02B070BD01A910687E
:102CE000FFF764FC04460028F2D19DF80410D5F8E3
:102CF000140104F0E0F8EBE7E9A4040073B505461D
:102D00000C4681B98668D0F8140103F07BFD0C49AC
:102D10000246304603F07FF9204601462846FEF77A
:102D200089FD02B070BD01A91068FFF73FFC0028C3
:102D3000F3D1BDF80410D5F8140103F067FDECE7FA
:102D400044B8040073B505460C4681B98668D0F8CE
:102D5000140104F03CF90C490246304603F05BF9DB
:102D6000204601462846FEF765FD02B070BD01A968
:102D70001068FFF71BFC0028F3D19DF90410D5F86B
:102D8000140104F028F9ECE7E9A4040073B5054642
:102D90000C4681B98668D0F8140103F050FD0C4947
:102DA0000246304603F037F9204601462846FEF732
:102DB00041FD02B070BD01A91068FFF7F7FB0028C4
:102DC000F3D10199D5F8140103F03EFDEDE700BF02
:102DD000E9A40400002913B5044610DD01A9106818
:102DE000FFF7E4FB28B99DF80410D4F8140104F0AF
:102DF0006EF801462046FEF71DFD02B010BD07200B
:102E0000F7E700002DE9F04F002989B0044640F3B0
:102E1000EE8015687749284646F005FB07460028EE
:102E200072D07549284646F0FEFA002874D028462C
:102E300002A9FFF7BBFB0546002840F0CC8003AF9A
:102E40003A46BDF80810D4F8140104F095F8054688
:102E5000002840F0C0809DF81C206849A06802F05E
:102E6000010203F0D8F89DF81C30DA0740F1B38076
:102E70009DF816206249A06803F0CDF8BDF8142033
:102E80006049A06803F0C7F89DF817205E49A06864
:102E9000920203F0C0F89DF81C205C49A068C2F3C0
:102EA000400203F0B8F89DF81C309B0740F1938076
:102EB0005749A068DFF8908103F0ADF82E46BA5D5F
:102EC000A0684146013603F0A6F8082EF7D1514913
:102ED000A06803F0A0F89DF818204F49A06803F0FF
:102EE0009AF89DF819204D49A06803F094F89DF8D0
:102EF0001A204B49A06803F08EF89DF81B20494921
:102F0000A06803F088F866E04749A06803F083F8FA
:102F10004649A06803F07FF8D4F81401DFF834A123
:102F2000DFF834B104F026F8002581460DF10C08D5
:102F3000EEB242463146D4F8140104F01DF80028E0
:102F400040D1A068002F4DD19DF81620514603F0C6
:102F500062F8BDF81420A068594603F05CF89DF8AB
:102F600017203349A06803F056F89DF8182031491E
:102F7000A06803F050F89DF819202F49A06803F0CD
:102F80004AF89DF81A202D49A06803F044F89DF8EE
:102F90001B202B49A06803F03EF82A49A06803F0E3
:102FA0003AF8294B3E4618F80620A06801931946C6
:102FB000013603F030F8082E019BF4D12349A068B4
:102FC00003F029F80135EBB29945AFD21149A06859
:102FD00003F021F8002529462046FEF72BFC09B016
:102FE000BDE8F08F32461A4903F015F8EAE70725E5
:102FF000F1E700BFE5AB040009AF04009BA60400A5
:1030000003AE0400EEA40400A7A60400B8A60400C2
:103010009AA504007DA70400C3A60400B0A504007F
:10302000C6A50400DDA50400EEA5040041A6040029
:103030009CAC0400A3AC0400D1A4040094A604003A
:1030400095AC0400D3AE0400EFA304003CA604003A
:10305000BFAE0400D7AE04008BAC040073B50546C8
:103060000C4679B98668D0F8140103F050FF0C497A
:103070000246304602F0CFFF21462846FEF7DAFB33
:1030800002B070BD01A91068FFF790FA044600284D
:10309000F2D19DF80410D5F8140103F03CFFEBE7E2
:1030A000E9A4040073B505460C4679B98668D0F8E2
:1030B000140103F034FF0F490246304602F0ABFF23
:1030C00021462846FEF7B6FB02B070BD01A9106884
:1030D000FFF76CFA04460028F2D101994B1EFE2B33
:1030E00005D8C9B2D5F8140103F01DFFE8E707249D
:1030F000E6E700BFE9A4040073B505460C4679B9BC
:103100008668D0F8140103F0DAFE0C490246304616
:1031100002F081FF21462846FEF78CFB02B070BD0D
:1031200001A91068FFF742FA04460028F2D19DF881
:103130000410D5F8140103F0C6FEEBE7E9A404007F
:10314000F0B50F1E85B00446164644DD15682349C8
:10315000284646F068F9D0B9012F3AD003A9706823
:10316000FFF724FA78BBBDF80C501D49A06802F0A7
:1031700052FF1C49A06802F04EFF00941A4BD4F88D
:1031800014012A46002103F00FFC00B31BE003A941
:103190002846FFF70BFAB0B9039B1F2B12D8012565
:1031A0009D401249A06802F036FF1149A06802F064
:1031B00032FF00940F4BD4F814010022294603F08B
:1031C000DFFBE2E7072001462046FEF733FB05B0B0
:1031D000F0BD0546C9E70025E3E700BFF4A30400FE
:1031E000FBA304000BA40400494000001FAB040033
:1031F00078AB04001D40000037B5054691B901A920
:10320000D0F8140123F0C6FE044628B99DF9042025
:103210000C49A86802F0FFFE21462846FEF70AFB8B
:1032200003B030BD01A91068FFF7C0F904460028BB
:10323000F2D19DF90410D5F8140123F0B5FE04462F
:10324000EAE700BFADA7040073B505460C4681B997
:103250008668D0F8140103F013FE0C49024630468C
:1032600002F0D9FE204601462846FEF7E3FA02B0F6
:1032700070BD01A91068FFF799F90028F3D1BDF8D6
:103280000410D5F8140103F000FEECE7E9A40400F3
:103290002DE9F04702298AB005460E4690463DDDED
:1032A00001A9506803F043FA002838D108F1040955
:1032B000023E04460DF1140AB442E7B20DD0132CBD
:1032C0000AD0694659F8040FFFF770F938BB009B24
:1032D00004F80A300134EFE72746D8F800401249D5
:1032E000204646F0A0F848B93B4605AA01A9D5F802
:1032F000140103F062FD0AB0BDE8F0870B492046D7
:1033000046F091F850B93B4605AA01A9D5F8140139
:1033100003F058FD2846FEF75DF9ECE7072001466B
:103320002846FEF787FAE6E73DB7040003B304003A
:1033300013B500220C4601A946F0CEF9019B20608E
:103340001B78002B14BF0620002002B010BD000027
:1033500073B505460C4699B98668D0F8140103F098
:103360007CF94FF47A721049B0FBF2F2304602F069
:1033700052FE204601462846FEF75CFA02B070BDB8
:1033800001290ED101A91068FFF7D2FF0028F1D161
:10339000019BD5F814014FF47A71594303F062F997
:1033A000E8E70720E6E700BFE9A4040073B5054697
:1033B0000C4679B98668D0F8140103F059FD0C4920
:1033C0000246304602F027FE21462846FEF732FA32
:1033D00002B070BD01A91068FFF7AAFF04460028DB
:1033E000F2D10199D5F8140103F046FDECE700BFD6
:1033F000CDAD0400002330B5136001394FF47A736A
:103400000A2411F8010FE8B1A0F13005092D11D8F7
:10341000B3F57A7F02BF10686043106008781568C2
:10342000303803FB0050B3F57A7F1060E9D0B3FB6E
:10343000F4F3E6E72E2804D1B3F57A7F01D16423B3
:10344000DFE7062030BD0000F8B59DF818500446AF
:10345000164680680A460C491F4602F0DCFD6DB92D
:103460001EB131462046FFF70BF83A460749A068DF
:1034700002F0D1FD002384F85830F8BD29462046DB
:10348000FEF7D8F9F6E700BFCFAC0400E6AC0400C5
:1034900010B49DF8044001945DF8044BFFF7D4BFCD
:1034A00010B5002986B0044614DD6946106803F0A3
:1034B0003EF968B940238DF810309DF81130D4F8EA
:1034C000140143F0030369468DF8113003F002F94B
:1034D00006B010BD0720FBE700291FB504460BDD31
:1034E0006946106803F023F920B96946D4F814013D
:1034F00003F0F5F804B010BD0720FBE7F8B505466A
:1035000017460C4681B9D0F814012B4E03F0DEF8B3
:103510000446BCB321462846FEF7B2FF3146A868F0
:1035200002F079FD6469F4E716682449304645F0F5
:103530007AFF50B93A1D611E2846FFF7B1FF0146D8
:103540002846BDE8F840FEF775B91D49304645F0FC
:103550006AFF28B93A1D611E2846FFF7BDFFEEE756
:103560001849304645F05FFF044668B9D5F81401A4
:1035700003F086FB01462846FEF782FF0E49A86845
:1035800002F049FD2046DAE70F49304645F04BFF8F
:10359000044620B9D5F8140103F06AFBEAE70B49A9
:1035A000304645F040FF044620B9D5F8140103F039
:1035B00063FBDFE70720C2E77DA70400A2A70400A2
:1035C00081A5040085A504008FA5040094A504002E
:1035D00000291FB504460BDD6946106803F0A7F803
:1035E00020B96946D4F8140103F082F804B010BD84
:1035F0000720FBE700291FB504460BDD694610686C
:1036000003F095F820B96946D4F8140103F075F871
:1036100004B010BD0720FBE770B505460E4689B91A
:10362000D0F8140103F06EF8044630B11149A868CF
:1036300002F0F1FC3446204670BD0F49A86802F044
:10364000EAFCF8E716680D49304645F0ECFE044602
:1036500028B90121D5F8140103F058F8EBE708491F
:10366000304645F0E0FE044608B90146F2E707247B
:10367000E1E700BF5DAE0400EFA6040067AE040002
:103680006EAE0400F8B5054616460C4681B9D0F872
:1036900014011D4E03F028F8044684B32146284641
:1036A000FEF7EEFE3146A86802F0B5FC2469F4E7A7
:1036B00017681649384645F0B6FE50B9321D611EEE
:1036C0002846FFF785FF01462846BDE8F840FEF78B
:1036D000B1B80F49384645F0A6FE28B9321D611E23
:1036E0002846FFF787FFEEE70A49384645F09BFE7C
:1036F00038B9321D611E2846FFF78EFFE3E72046EA
:10370000E1E70720DFE700BF7DA70400A2A70400D0
:1037100081A50400F8AE0400F7B51F46002301930D
:103720003B78812B04460D4616462DD18B8B4A8B58
:1037300080681649D21A083202F06DFC06F11001B9
:103740002046FEF79DFEFA8896F828301049A068BA
:1037500052BA92B202F05FFC01AB0422A98B284658
:1037600004F035FE03280BD9A56823F076F9064648
:103770000198FDF7D3FF0749321A284602F04BFCA7
:103780000549A06802F047FC03B0F0BDF1AC0400AD
:1037900000AD040016AD04007DA70400FFF7BCBF18
:1037A00037B5044623F059F9FDF7B8FF0021019021
:1037B000D4F8140102F0AEFF054698B104220DEBD7
:1037C000020103F00DF9C8B9218F284603F004F96E
:1037D000A0B9012304F10C022946D4F8140102F027
:1037E00050FF58B9638F013B9BB2638723B1E16BF4
:1037F00004F1400005F0DEFB03B030BD284603F0C5
:10380000E7F8EFE7F0B50F1E8DB00546164673DDFD
:1038100010683A4945F007FE05F14003AA6C0446DA
:1038200050B9934264D0184605F080FB204601460B
:103830002846FDF7FFFF59E093425BD12C2200217F
:1038400001A845F002FA00212C2205F10C0045F0F8
:10385000FCF9316805F11C000EF067FF0028E6D185
:10386000274A4FF47A73C5E90E230124BC423ADAA1
:10387000631E032B40D8DFE803F0020D16226946D1
:103880007068FEF793FE0028D1D1009B2B8701348E
:10389000E4B2EBE76946B068FEF788FE0028C6D1BF
:1038A000009B6B87F3E701AAF1682846FFF7A2FDAA
:1038B0000028BCD1019B002B1EDDEB63E7E76946C6
:1038C0003069FEF773FE0028B1D1009BFF2B13D89F
:1038D00085F83430002BDAD195F8353043F0020307
:1038E00085F83530D3E72846FFF75AFF0DB0F0BD15
:1038F0000D209CE705209AE7072098E7D4A604004E
:1039000008000100024B18680430FFF749BF00BFF0
:10391000880E00202DE9F84F04460E46806836498F
:10392000364F02F078FB2C253946A06802F073FB75
:10393000013DF9D1B2883249A068304F02F06BFBEB
:103940001C253946A06802F066FB013DF9D12A49E1
:10395000A068DFF8C08002F05EFBB388A068AB42CD
:103960003CD9414602F057FB0027B288A068EB190A
:10397000934229D232682349D25C02F04CFB0137D2
:10398000102FF2D14146A068DFF88C90DFF88CA0B0
:10399000DFF88CB002F03FFB0027B288A068EB197B
:1039A000934219D23268D25CA2F120035E2B0FD869
:1039B000594602F030FB0137102FEED11249A068B2
:1039C00002F029FB1035C8E7104902F024FBD6E7C6
:1039D000514602F020FBEEE74946FAE70C4E53252C
:1039E0003146A06802F017FB013DF9D1A0680249F9
:1039F000BDE8F84F02F00FBB7DA7040099AE0400AC
:103A00009BAE0400A9AE04003DA60400AFAE0400C6
:103A100053EF0400A7AE0400BAAE0400B7AE040032
:103A2000B3AE040013460A4601461846FFF772BFBC
:103A30002DE9F04F0F1E89B00646154640F39180E0
:103A40001822002102A845F000F92F21286845F02E
:103A5000DDFC044600287FD00023037002A92868FB
:103A600002F065FE002877D1024601A9601C45F0EE
:103A7000A3FD019B8DF818001B78002B6FD14FF030
:103A80000108DFF8E890DFF8E8A0C34647455ED0BC
:103A900055F828403449204645F0C5FC40B99DF80A
:103AA00019206BF301028DF8192008F10108EDE7E8
:103AB0004946204645F0B7FC20B99DF8192060F32F
:103AC0000102F0E75146204645F0ADFC98B1013CBB
:103AD00014F8012F002AE8D0613A122A3FD8DFE813
:103AE00002F0163E201B3E3E3E3E3E3E3E3E3E3EE9
:103AF0002A0F3E252F009DF8192042F00302D2E73D
:103B00009DF8192042F004028DF81920E0E79DF895
:103B1000192042F00802F7E79DF8192042F0100240
:103B2000F2E79DF8192042F02002EDE79DF81920F8
:103B300042F04002E8E79DF8192042F08002E3E7F6
:103B40009DF81A2042F001028DF81A20C0E702A960
:103B5000D6F8140102F030FC09B0BDE8F08F062061
:103B6000FAE70720F8E700BFB3AC0400B8AC0400E4
:103B7000BCAC040070B5002986B00646154624DDAD
:103B80001122002101A845F060F82F21286845F096
:103B90003DFC0446A8B10023037001A9286802F087
:103BA000C6FD70B902466946601C45F005FD009BE4
:103BB0008DF814001B7833B901A9D6F8140102F06E
:103BC00028FC06B070BD0620FBE70720F9E70000DF
:103BD000F0B58DB000233A4D3A4E3B4F0593044665
:103BE00006AA05A9D4F8140102F01BFC002863D131
:103BF0009DF828100291BDF81E10BDF81A30BDF8CE
:103C00001820A06849BA89B20191BDF81C1049BAC0
:103C100089B25BBA52BA00919BB292B2294602F0C5
:103C2000FAF99DF829305A0703D53146A06802F009
:103C3000F2F99DF829301B0703D53946A06802F038
:103C4000EAF99DF82930D80603D52049A06802F08A
:103C5000E2F99DF82930990603D51D49A06802F0C4
:103C6000DAF99DF829305A0603D51A49A06802F0FE
:103C7000D2F99DF82930DB0903D01749A06802F07A
:103C8000CAF99DF82A30DB0703D51449A06802F071
:103C9000C2F99DF8293043F301035BB2002B07D032
:103CA00008DC01339CD10E49A06802F0B4F997E713
:103CB0000C49F9E70C49F7E700200DB0F0BD00BF53
:103CC0001CAE04008FB20400EBC0040014AD04006D
:103CD000B5AE040022C5040064B2040060C1040053
:103CE0002EAE040035AE04003CAE0400F8B5044628
:103CF00016460D4639B9FFF76BFF01462046BDE871
:103D0000F840FDF797BD17680B49384645F08BFB27
:103D100028B9321D691E2046FFF78AFEEDE70749E4
:103D2000384645F080FB28B9321D691E2046FFF752
:103D300021FFE2E70720E0E7A2A70400A6A704000E
:103D40002DE9F04F89B00F46804616460021182213
:103D500002A844F07AFF002F56DD2F21306845F08D
:103D600055FB044688B10023037002A9306802F0B5
:103D7000DEFC50B9024601A9601C45F01DFC019B08
:103D80008DF818001B781BB1062009B0BDE8F08F34
:103D90000124DFF88090DFF880A0A346BC422DD03C
:103DA00056F824501949284645F03DFB38B99DF88E
:103DB0001C3043F004038DF81C300134EEE7144945
:103DC000284645F030FB20B99DF81C306BF3010309
:103DD000F1E74946284645F026FB20B99DF81C30FE
:103DE00060F30103E7E75146284645F01CFB002835
:103DF000CAD19DF81C3043F00303DCE702A9D8F8D0
:103E0000140102F016FBC0E70720BEE760C1040002
:103E1000B3AC0400B8AC0400BCAC040070B586B010
:103E20000C46064615460021112201A844F00DFF5C
:103E3000002C1DDD2F21286845F0E8FA0446A8B1C2
:103E40000023037001A9286802F071FC70B90246D2
:103E50006946601C45F0B0FB009B8DF814001B7890
:103E600043B901A9D6F8140102F0F5FA06B070BD05
:103E70000720FBE70620F9E7F0B58DB00023224DBF
:103E8000224E234F0593044606AA05A9D4F814012F
:103E900002F0E9FA002833D19DF828100291BDF80C
:103EA0001E10BDF81A30BDF81820A06849BA89B2B2
:103EB0000191BDF81C1049BA89B25BBA52BA00919F
:103EC0009BB292B2294602F0A6F89DF82C305B070F
:103ED00003D53146A06802F09EF89DF82C3043F3DC
:103EE00001035BB2002B07D008DC0133CCD10949B8
:103EF000A06802F090F8C7E73946F9E70649F7E706
:103F000000200DB0F0BD00BF1CAE040060C1040075
:103F100035AE04002EAE04003CAE0400F8B50446F5
:103F200016460D4639B9FFF7A7FF01462046BDE802
:103F3000F840FDF77FBC17680B49384645F073FA27
:103F400028B9321D691E2046FFF7FAFEEDE7074942
:103F5000384645F068FA28B9321D691E2046FFF739
:103F60005DFFE2E70720E0E7A2A70400A6A70400A0
:103F700038B504460D46806821B91F49BDE8384070
:103F800002F049B891F839201C49C2F3401202F0FE
:103F900042F805F108021A49A06802F03CF81949F4
:103FA000A06802F038F8082205F119012046FEF752
:103FB000BBF91549A06802F02EF86A8E1349A06873
:103FC00002F029F8294620460822FEF7ADF995F8B7
:103FD00036200F49A06802F01EF895F937200D49E8
:103FE000A06802F018F895F83820A0680A49BDE8E2
:103FF000384002F010B800BFE7A50400BDAE0400D1
:10400000C3AE0400D3AE040089AC0400CCAE0400FF
:10401000D6AE040095AC0400DEAE04000B460146AB
:104020001846FFF7A5BF0000806811B9044901F0E8
:10403000F2BF91F901300A78024901F0ECBF00BFEC
:10404000E7A50400E8AE04000B4601461846FFF75A
:10405000EBBF00002DE9F04385B004460023D0F803
:1040600014018DF8033002F004FC50BB3749A068FE
:1040700001F0D1FFDFF8EC80354F01AD2A460DF19C
:104080000301D4F8140102F010FC10BB08222946E9
:104090002046FEF749F99DF90C607F2E0CD0314681
:1040A000D4F81401D4F8089002F01EFC32460346FE
:1040B0004146484601F0AFFF3946A06801F0ABFF2A
:1040C000DCE7012801D12349D1E70228D2D12249D6
:1040D000CDE700232149A0688DF8033001F09BFF54
:1040E000DFF884801E4FD4F814012A460DF1030135
:1040F00002F0F2FB38BB2B5CFF2B0FD101300828FC
:10410000F9D19DF90C60D4F81401D4F80890314627
:1041100002F0EAFB32460346394610E008222946FF
:104120002046FEF701F99DF90C60D4F81401D4F88B
:104130000890314602F0D8FB3246034641464846D5
:1041400001F069FFCFE705B0BDE8F083E1A6040008
:104150007DA70400FAA6040014A7040041A70400E8
:1041600064A704002EA704004FA704002DE9F04126
:1041700086B005460E460023D0F814018DF80730AE
:10418000174602F076FB9EBB50BB5249A86801F06F
:1041900042FF514F514ED5F8140103AA0DF107010A
:1041A00002F083FB002840F09280082203A92846F1
:1041B000FEF7BAF89DF914407F2C0CD02146D5F8B3
:1041C0001401D5F8088002F08FFB224603463946D9
:1041D000404601F020FF3146A86801F01CFFDAE7F5
:1041E000012801D13E49D1E70228D2D13D49CDE78E
:1041F0003C683D49204645F016F9014628B9012E94
:104200000BD0072006B0BDE8F0813849204645F0C4
:104210000AF938B9012EF4D13146D5F8140102F06B
:104220002CFBEFE73249204645F0FDF818B9012E86
:10423000E7D10221F1E72F49204645F0F4F8034683
:1042400020BB012EDDDD082203A97868FDF7B0FA56
:10425000082801D00620D5E703A9D5F8140102F0FB
:1042600011FB08B11828CDD1022ECBD0032EC8D116
:1042700002A9B868FEF79AF90028C3D19DF9082071
:10428000D5F8140103A902F018FBBBE71A49204630
:1042900045F0C9F8034670B9022EB2D1082203A92D
:1042A0007868FDF785FA0828D4D103A9D5F8140158
:1042B00002F0EFFAA6E71149204645F0B4F80028CD
:1042C0009FD1012E9DD1D5F8140102F0E9FA00200A
:1042D00098E700BFEFA604002EA704007DA7040006
:1042E00008A7040022A704006EAE040004AF040077
:1042F0000EAF0400A2A70400A6A7040018AF040094
:104300002DE9F04387B00023054616468DF80730A7
:104310000F4621BB544FDFF8688103AC22460DF1F4
:104320000701D5F8140102F0D7FA002840F0868082
:10433000235CFF2B40F0868001300828F8D19DF9DE
:104340001460D5F81401D5F80890314602F0CCFA83
:10435000324603464146484601F05DFEDEE71468FA
:104360004249204645F05FF870BB032F68D102A98F
:10437000B068FEF71BF9044620B99DF80810032920
:1043800004D90624204607B0BDE8F083D5F814010F
:1043900002F0B6FA074676683549304645F043F8EC
:1043A00010B93A46214609E02346082203A93046BF
:1043B000FDF7FEF90828E4D13A4603A9D5F814011F
:1043C00002F07BFA0446DDE72A49204645F02BF847
:1043D00058B9032F34D102A9B068FEF7E7F80446B4
:1043E0000028CFD19DF90870D5E72349204645F034
:1043F0001AF88046B8B9022F22D174681C492046A9
:1044000045F011F8014620B9D5F8140102F05AFA26
:10441000D8E74346082203A92046FDF7C9F9082832
:10442000AFD103A9F0E72046144944F0FCFF04464D
:1044300030B9D5F8140102F04AFAA3E70024A1E745
:1044400007249FE7082221462846FDF76DFF9DF9C6
:104450001460D5F81401D5F80890314602F044FAFA
:1044600032460346394676E74FA7040076AE04008D
:1044700049EE0400A2A70400A6A7040018AF040098
:104480007EAE0400F8B5054616460C4641B9FFF766
:10449000E1FD204601462846BDE8F840FDF7CAB9CF
:1044A00017680C49384644F0BEFF28B9321D611E1A
:1044B0002846FFF75BFEEDE70749384644F0B3FFB7
:1044C00028B9321D611E2846FFF71AFFE2E70720D0
:1044D000E0E700BF21B30400AFAC04004B1E012B8A
:1044E0002DE9F34105460F46164644D8D2F8008020
:1044F0002249404644F097FF0446F0B9012F0AD103
:10450000D5F81401AE6802F0A4F902461C49304601
:1045100001F081FD0DE001A97068FEF709FF044676
:1045200038B90199FF2926D8C9B2D5F8140102F08B
:1045300094F9204602B0BDE8F0811249404644F0AB
:1045400072FF0446B8B9012F05D1D5F81401AE6841
:1045500002F087F9D9E701A97068FEF7E9FE044681
:104560000028E6D10199FF2905D8C9B2D5F8140170
:1045700002F07BF9DDE70724DBE700BF15AE04009E
:10458000E9A4040013AE040070B50E1E04461546DF
:104590000FDD0949106844F046FF50B9711E2A1D0D
:1045A0002046FFF79BFF01462046BDE87040FDF71F
:1045B00041B90721F8E700BFACA304002DE9F0479B
:1045C000A2B004460D4616460021802202A81F46CE
:1045D00044F03BFB00238DF80730A76095B1711CB8
:1045E000284644F061FFB0420CD8202302AA0DF106
:1045F000070128461EF0AEFB38B120222649A068EC
:1046000001F009FD22B0BDE8F0879DF8077027B9D9
:104610002249A06801F0FFFCF4E7DDF80880204E95
:1046200005464FF00C0A0AFB05F9404659F80610FA
:1046300044F0F9FE78B94E44B16873684A10C9076E
:1046400004EB020048BFA25807F1FF3148BFD3581E
:1046500003AA9847D6E70135402DE4D194F804A089
:104660000025EEB2B2450FD92368404653F8351005
:1046700003EBC50944F0D7FE01350028F1D1D9F884
:10468000043003A9781E98472379B342BAD1062192
:104690002046FDF7CFF8B5E7B4A30400D4A3040087
:1046A00034AF04002DE9FF414C8B8B8B07460E463F
:1046B00080681349E41A01F0AEFCA4B20025C4B12D
:1046C000B18B102CA046294428BF4FF010086B4630
:1046D000424689B2304603F07AFEA4EB08045FFA42
:1046E00088F2694638464544FDF71EFEA4B2ADB2D5
:1046F000E5E70449B86801F08EFC04B0BDE8F0813C
:104700001EAF04007DA7040013460A460146184662
:10471000FFF7C8BF2DE9F041094E0A4D07460024B6
:104720004FF00C0808FB04F23B6892599868294640
:10473000013401F070FC082CF4D10020BDE8F081B8
:1047400074B504003EB20400036841F23361D3F84B
:10475000140101F0D3BE10B503680446011DD3F85F
:10476000140101F0DAFE2368BDE81040D3F814010B
:1047700001F0C9BE2DE9F04F5F4B9BB0834618682E
:10478000079089461B798DF82030164600211B22A0
:104790000DF1210044F059FAB9F1000F04DC0724AF
:1047A00020461BB0BDE8F08F34685449204644F0E1
:1047B0003AFE002800F092805149204644F033FE32
:1047C000002800F08D804F49204644F02CFE002840
:1047D00000F088804C49204644F025FE0028DED1B8
:1047E0000427B9F1010FDAD00DF10C0841467068C9
:1047F00001F09DFF04460028D2D1B9F1020FCED0BE
:10480000B468204644F036FE1F28C8D8202221462E
:1048100007A844F01AFEB9F1030F65D03B49F068D0
:1048200044F001FE002814BF4FF0100A4FF0000AB8
:10483000DBF800300021D3F8140101F021FE054619
:10484000002857D03A46514601F025FE022128465D
:1048500001F03DFE07A9284601F03BFE0446002872
:1048600038D1B9F1040F13DD306944F003FE1FFAAB
:1048700080F9B9F1000F0BD0284601F02CFE044658
:1048800040BB4A463169284602F0AAF8044608BBF4
:104890002C2200210FA844F0D8F998E80F0013AC9F
:1048A00084E80F0041F23363ADF85E30DBF800308E
:1048B000D3F81401BAF1000F01D0012F17D1144B16
:1048C000CDF800B00FAA294601F013FE04460028D7
:1048D0003FF466AF284602F07BF861E7012780E7E6
:1048E00002277EE703277CE74FF0100AA0E70023AA
:1048F0000093E7E7032453E79DB404003DB70400A9
:1049000060B5040065B5040069B5040070B5040025
:10491000E54B0000012938B50446154616DD506800
:1049200044F0A8FD1F280FD80C4BA36004F114001D
:104930006060E4606968202244F087FD2368211DDF
:10494000D3F8140101F0E4FD002038BDD0E90032B5
:104950000349986801F05FFBF6E700BF914B000048
:104960003EB2040010B51022044640F8041B00219A
:1049700044F06BF9204610BD2DE9FF41074608467B
:104980000E4602F027F80446304602F027F8241AB3
:10499000A4B20CB33B681449986801F03CFB0025B5
:1049A000102C3046A04628BF4FF0100802F016F831
:1049B000411943466A4689B23046A4EB080402F026
:1049C00011F845445FFA88F269463868A4B2FDF7E9
:1049D000ABFCADB2002CE3D13B680449986801F010
:1049E0001AFB04B0BDE8F081D4B504007DA7040033
:1049F0002DE9F14FB1F100080646174607DC002209
:104A00001146FFF787FE072001B0BDE8F08FD2F80E
:104A100000A0104C00254FF00C0B0BFB05F9504685
:104A200059F8041044F0FFFC78B94C44A16863685D
:104A30004A10C90706EB020044BFB258D35841469A
:104A40003A4601B0BDE8F04F18470135082DE4D1D2
:104A50000620D9E774B504002DE9F34130238DF821
:104A6000073003680446904698680E463F4901F0B7
:104A7000D2FA08F110012068FDF702FD23683C49D5
:104A8000986801F0C8FA304601F02EFD013823681D
:104A9000032828D8DFE800F002252321354998684B
:104AA00001F0B9FA20463146FFF766FF304601F0C3
:104AB00014FDE8B9304601F017FD236801284FF0D6
:104AC0000001D3F814010CBF4525432501F0D8FCA3
:104AD000074698B902B0BDE8F0812749DFE72749CA
:104AE000DDE72749DBE72749986801F094FAF1E709
:104AF000304601F0F9FC0128ECD1DBE72B462022FF
:104B0000314601F0CAFC054670B9304601F0ECFCB4
:104B10000128064617D0236842463946D3F81401C7
:104B200001F000FD0546F0B1236828469C6803F0BB
:104B30004FFB2A4603461449204601F06CFA3846DA
:104B400001F046FFC6E7384601F0C5FC05460028DF
:104B5000EAD132460DF10701384601F041FF054622
:104B60000028D8D0E0E723680849BDE7BDB40400B9
:104B700089AC0400D0B40400D4B40400DBB4040055
:104B8000DFB40400E4B40400F0B4040012B504007F
:104B9000FFF762BF2DE9F0419046026804460F46D8
:104BA00096681D4653B1184603F012FB2A46034689
:104BB0000A493046BDE8F04101F02DBA08493046B7
:104BC00001F029FA08F110012068FDF759FC394677
:104BD0002046BDE8F041FFF7CFBE00BF27B5040077
:104BE0004CB50400FFF7D6BF2DE9F041094E0A4D40
:104BF000074600244FF00C0808FB04F23B6892596A
:104C000098682946013401F006FA0B2CF4D10020F3
:104C1000BDE8F081ACB604003EB204002DE9F04FCF
:104C2000DFF8E4B08BB082460F46904601250024A1
:104C3000BD4250DA1F2C5BDC58F825602E49304607
:104C400044F0F1FB48B90AAB661C1C44092304F884
:104C5000203C0135EDB23446EAE72849304644F0BD
:104C6000E2FB20B90AAB661C1C440B23EFE7594654
:104C7000304644F0D8FB20B90AAB661C1C4408231C
:104C8000E5E71F49304644F0CEFB20B90AAB661C6D
:104C90001C441223DBE71B49304644F0C4FB01905F
:104CA00020BB0135EDB2BD4220DA58F825904846C8
:104CB00044F0E0FB01304610C4F12002B24217D3A9
:104CC00002A9019BB2B221444846FCF771FD0028BD
:104CD00010DB2644BDE7DAF80030E2B202A9D3F8CF
:104CE000140101F077FC0BB0BDE8F08F0720FAE764
:104CF0000320F8E70620F6E7EDB50400F5B504005B
:104D00000CB604001AB60400FFB5040003680129BC
:104D1000D3F81401CCBF5168002101F041BC000060
:104D200010B50368D3F814019C6801F05DFC0349D9
:104D30000246204601F06FF9002010BDE9A40400EE
:104D400003460068024A0349D0F8140101F0F5BB9C
:104D500075510000F15000000368D3F8140101F010
:104D600004BC70B504298AB00646144621DD03A9A7
:104D70005068FDF71BFCD0B904A9A068FDF716FC2C
:104D8000A8B905A9E068FDF711FC80B906AD294670
:104D9000206901F0CCFC50B930680095BDF81430A2
:104DA0009DF810200399D0F8140101F0FEFB0AB021
:104DB00070BD0720FBE7000070B505298CB00646E2
:104DC00014462CDD04A95068FDF7F0FB28BB05A9AB
:104DD000A068FDF7EBFB00BB06A9E068FDF7E6FB6A
:104DE000D8B907A92069FDF7E1FBB0B908AD29469C
:104DF000606901F09CFC80B90A4930680396CDE9EE
:104E00000151BDF81C100091BDF818309DF8142018
:104E10000499D0F8140101F0CDFB0CB070BD07204F
:104E2000FBE700BF2D52000002292DE9FF4180461B
:104E30000D4617463FDD94682049204644F0F3FABA
:104E400008B3082200230DEB02012046FCF7B0FC5A
:104E500008282ED102AC7E681949304644F0E3FAA6
:104E6000D0B9032D27D07823042D01930DD1D8F884
:104E70000000019BFA68D0F81401214601F085FB7F
:104E800004B0BDE8F0810446E5E701A93869FEF702
:104E90004FFA0028EBD0F3E70A49304644F0C3FA52
:104EA00048B9D8F800302146D3F8140101F072FB5C
:104EB000E6E70620E4E70720E2E700BF49EE04004A
:104EC000A2A70400A6A704002DE9F04F0E1E91B082
:104ED0008246174640F3B4801A22002101A843F00D
:104EE000B4FEDFF870B101240025A64240F39E8095
:104EF0001F2D03DD032011B0BDE8F08F57F824808B
:104F00005049404644F08FFAB8B9631CDBB29E4268
:104F100040F396809DF81C2057F8230042F00102D0
:104F200069468DF81C20FDF741FB0028E3D1009B6A
:104F3000ADF804300234E4B2D7E74349404644F0C8
:104F400072FAA0B9631CDBB29E4279DD9DF81C2089
:104F500057F8230042F0020269468DF81C20FDF745
:104F600025FB0028C7D1009BADF80630E2E7594683
:104F7000404644F058FA814608BB631CDBB29E42AF
:104F80005EDD9DF81C2057F8238042F00402404665
:104F90008DF81C2044F06EFA01304508102DA9D878
:104FA0004B46AAB20DF109014046FCF701FC00286E
:104FB00001DA06209FE78DF808504D46BAE72349ED
:104FC000404644F030FAA0B9631CDBB29E4237DDA4
:104FD0009DF81C2057F8230042F0080269468DF81E
:104FE0001C20FDF7E3FA002885D1009BADF81A30AC
:104FF000A0E71749404644F016FA814600BB621C00
:10500000D2B296421CDD57F82280404644F032FA74
:1050100001304508202D3FF66DAF4B46AAB208A9D6
:105020004046FCF7C5FB002884DAC2E7DAF8000046
:10503000EBB208AA01A9D0F8140101F0D0FA5AE79E
:10504000072058E7EDB50400F5B504000CB60400E0
:105050001AB60400FFB5040030B5032989B005462F
:1050600014461CDD02A95068FDF7A0FAA8B903A9EF
:10507000A068FDF79BFA80B904A9E06801F057FB2E
:1050800058B9084B286800930195BDF80810039A99
:10509000D0F8140104AB01F098FA09B030BD072034
:1050A000FBE700BF5552000038B503680D460446C3
:1050B0000B49986800F0AFFF012D0AD002D3022DF2
:1050C0000AD038BD236807499868BDE8384000F029
:1050D000A2BF23680449F7E723680449F4E700BF47
:1050E0006CB604002AA504007BB6040089B604004F
:1050F0000B4601461846FFF7D7BF000070B503689E
:105100000D46044614499868164600F084FF042DA5
:1051100009D8DFE805F00314171A1D0023680F49AA
:10512000986800F078FF314620680822FDF7FCF807
:1051300023680B499868BDE8704000F06CBF236895
:105140000849EDE723680849EAE723680749E7E7E4
:1051500023680749E4E700BF21B6040037B604001E
:105160007DA704003EB6040047B6040051B6040013
:1051700056B6040013460A4601461846FFF7BEBF5E
:105180002DE9F14FB1F100080646174607DC002271
:105190001146FFF729FD072001B0BDE8F08FD2F8D6
:1051A00000A0104C00254FF00C0B0BFB05F95046EE
:1051B00059F8041044F037F978B94C44A168636891
:1051C0004A10C90706EB020044BFB258D358414603
:1051D0003A4601B0BDE8F04F184701350B2DE4D138
:1051E000D9E700BFACB60400F8B51D4603680C4F04
:1051F000144606460A4698680A4900F00CFF013C2E
:1052000025443368AC42986805D014F9012F39461B
:1052100000F001FFF5E70449BDE8F84000F0FBBEEF
:10522000BFAE04005EB604007DA7040010B41C46A7
:1052300013460A46014620465DF8044BFFF7D4BFEB
:105240000068134680680A46014900F0E4BE00BFCA
:1052500092B6040013460A4601461846FFF7F0BF0F
:105260002DE9F041094E0A4D074600244FF00C0885
:1052700008FB04F23B68925998682946013400F013
:10528000CAFE142CF4D10020BDE8F0816CB80400F3
:105290003EB2040008B568220021024843F0D5FC64
:1052A000002008BD200E0020002970B51ADD166808
:1052B000304644F0DFF8441C6408A2B2102A13D828
:1052C0000B4DA91A00235C3130461446FCF770FAE6
:1052D000A0420BD195F8653043F0020385F86530A4
:1052E000002070BD0720FCE70320FAE70620F8E75E
:1052F000200E0020002970B515461ADD106844F014
:10530000B9F81028064616D80C4C1122002104F1D9
:10531000200043F09AFC3246296804F1200043F053
:1053200070FC94F8643043F0080384F86430002083
:1053300070BD0720FCE70620FAE700BF200E002022
:10534000002938B5044627DD15681449284644F07D
:105350006AF838B923681249D3F81401BDE8384017
:1053600001F046B90F49284644F05DF838B9236882
:105370000B49D3F81401BDE8384001F047B90A4998
:10538000284644F050F838B923680549D3F8140189
:10539000BDE8384001F05CB9072038BDCAD304002D
:1053A000200E002059B7040061B70400002937B56A
:1053B00011DD01A91068FDF7F9F850B9074B019C00
:1053C00093F86420E517C3E9004542F0010283F831
:1053D000642003B030BD0720FBE700BF200E002093
:1053E000002907B511DD01A91068FDF7DFF848B9FC
:1053F000074B019AA3F84A2093F8652042F0010276
:1054000083F8652003B05DF804FB0720FAE700BFCE
:10541000200E0020002907B510DD01A91068FDF756
:10542000C5F840B9064B019A1A6693F8652042F018
:10543000080283F8652003B05DF804FB0720FAE753
:10544000200E0020002907B510DD01A91068FDF726
:10545000ADF840B9064B019A5A6493F8642042F0C3
:10546000400283F8642003B05DF804FB0720FAE7EC
:10547000200E0020002907B511DD01A91068FDF7F5
:1054800095F848B9074B019AA3F8482093F864208F
:1054900042F0800283F8642003B05DF804FB07202B
:1054A000FAE700BF200E0020002937B511DD01A961
:1054B0001068FDF77BF850B9074B019C93F8642006
:1054C000E517C3E9024542F0020283F8642003B005
:1054D00030BD0720FBE700BF200E002037B50D1EB2
:1054E000144641DD01A91068FDF760F8D0BB1F4BE1
:1054F000019AA3F85C20012D83F85E002CD061682E
:10550000013911F8012F3AB36E2A16D005D8622A54
:105510001DD0632A16D0062024E06F2A06D0722AF6
:10552000F9D193F85E2042F0200203E093F85E2068
:1055300062F07F0283F85E20E3E793F85E2042F09A
:105540004002F7E793F85E2042F01002F2E793F88A
:105550005E2042F00802EDE793F8652042F0040275
:1055600083F8652003B030BD0720FBE7200E002044
:10557000002938B504461ADD15680E49284643F05F
:1055800052FF38B923680C49D3F81401BDE83840FC
:1055900001F035B80949284643F045FF38B923687A
:1055A0000549D3F81401BDE8384001F036B80720AA
:1055B00038BD00BFCAD30400200E002059B7040034
:1055C000002907B510461ADD002308226946006845
:1055D000FCF7EEF8002810DB0A4A6B4603CB92F882
:1055E0006430C2F8310043F01003C2F8351082F87D
:1055F0006430002003B05DF804FB0620FAE70720C2
:10560000F8E700BF200E002000297FB510461ADD04
:105610006C460023102221460068FCF7C9F81028C8
:105620000FD194E80F00094E06F1100585E80F0030
:1056300096F8643043F0040386F86430002004B028
:1056400070BD0620FBE70720F9E700BF200E002011
:1056500000291FB515DD6946106801F068F8044699
:1056600060B9094A6B4603CB92F86430C2F839003E
:1056700043F02003C2F83D1082F86430204604B0A5
:1056800010BD0724FAE700BF200E00202DE9F04FDF
:105690000E1EC1B08246154640F36E81682200217D
:1056A00006A843F0D2FADFF804B301244FF0000853
:1056B000A64240F33C8155F82470B049384643F087
:1056C000B2FEC8B9631CDBB29E4240F355819DF81F
:1056D0007C2055F8230042F0010201A98DF87C20BE
:1056E000FCF764FF002840F03281019AD317CDE91E
:1056F00006230234E4B2DBE7A149384643F093FEC7
:10570000B8B9631CDBB29E4240F336819DF87C2021
:1057100055F8230042F0020201A98DF87C20FCF725
:1057200045FF002840F01381019AD317CDE90823E3
:10573000DFE75946384643F076FE8146A8B9601C3B
:10574000C0B2864240F318819DF87C3055F82000A5
:1057500043F004038DF87C3010224B460AA9FCF775
:1057600027F8102824D00620F1E08649384643F077
:105770005AFE8146F0B9631CDBB29E4240F3FC80C6
:105780009DF87C2055F8237042F0080238468DF8C9
:105790007C2043F06FFE10288046E4D81122494651
:1057A0000EA843F052FA424639460EA843F029FAB1
:1057B000C8469EE77449384643F035FE0346A0B913
:1057C000671CFFB2BE4240F3D7809DF87C2055F89D
:1057D000270042F010028DF87C200DF149010822CB
:1057E000FBF7E6FF002884DABDE76849384643F056
:1057F0001AFEC8B9631CDBB29E4240F3BD809DF81F
:105800007C2055F8230042F0200202A98DF87C206C
:1058100000F08DFF002840F09A8002AB03CBCDF85A
:105820005100CDF8551064E75949384643F0FBFD67
:10583000A0B9631CDBB29E4240F39E809DF87C20A1
:1058400055F8230042F0400201A98DF87C20FCF7B6
:10585000ADFE00287BD1019B17934AE74D4938469E
:1058600043F0E1FDA8B9631CDBB29E4240F38480A3
:105870009DF87C2055F8230042F0800201A98DF8A4
:105880007C20FCF793FE002861D1019BADF86030CD
:105890002FE74149384643F0C6FDA0B9631CDBB28F
:1058A0009E4269DD9DF87D2055F8230042F00102FB
:1058B00001A98DF87D20FCF779FE002847D1019BD6
:1058C000ADF8623015E73549384643F0ACFD90B984
:1058D000631CDBB29E424FDD9DF87D2055F823000E
:1058E00042F0080201A98DF87D20FCF75FFE70BB35
:1058F000019B1E93FDE62A49384643F094FD8146FC
:10590000002839D1621CD2B2964235DD55F822709A
:10591000384643F0AFFD01304FEA5008B8F1800F30
:1059200028D84B461FFA88F220A9384658E72C6839
:105930001C49204643F077FD60B9DAF800005FFAB1
:1059400088F320AA06A9D0F8140100F072FE41B035
:10595000BDE8F08F1449204643F065FD60B9DAF8E0
:1059600000005FFA88F320AA06A9D0F8140100F01D
:105970006AFEECE70320EAE70720E8E765B70400E2
:1059800075B70400CFB30400F3B204006CB904008F
:1059900086B70400F6B2040066B2040091B70400B2
:1059A0001AB60400CAD3040059B7040078B304003F
:1059B0002DE9F04FB1F1000993B08246904640F3D3
:1059C000CB800025ADF8145001242E46A14540F3AC
:1059D00097801F2E00F3BC8058F824705F4938462A
:1059E00043F021FD40B99DF8143043F001038DF8D8
:1059F00014300134E4B2E9E75949384643F013FD65
:105A000020B99DF8143043F00203F0E755493846B9
:105A100043F009FD20B99DF8143043F00403E6E794
:105A20005149384643F0FFFC20B99DF8143043F04B
:105A30000803DCE74D49384643F0F5FC20B99DF8F2
:105A4000143043F01003D2E74949384643F0EBFCE9
:105A500020B99DF8143043F02003C8E74549384683
:105A600043F0E1FC20B99DF8143043F04003BEE759
:105A70004149384643F0D7FC20B99DF8143043F033
:105A80008003B4E73D49384643F0CDFC30B99DF87A
:105A9000153043F001038DF81530AAE73849384630
:105AA00043F0C1FC0390C8B90134E4B2A14553DD11
:105AB00058F824B0584643F0DDFC01304710C6F1D9
:105AC0002002BA4244D30AA9039BBAB231445846D1
:105AD000FBF76EFE00283DDB3E448AE72949384645
:105AE00043F0A1FC002837D10134E4B2A14533DDF5
:105AF00006A958F8240000F01AFEA0B9012578E79D
:105B0000D8F800402049204643F08DFC70B9DAF8FF
:105B10000030D3F81401F3B205B106AD00950AAA1E
:105B200005A900F081FD13B0BDE8F08F17492046AC
:105B300043F079FC80B9DAF80030D3F81401F3B2FD
:105B400005B106AD00950AAA05A900F077FDEAE7C0
:105B50000320E8E70620E6E70720E4E765B704004E
:105B600075B7040078B30400CFB30400F3B20400A7
:105B70006CB9040086B70400F6B2040066B20400F3
:105B80001AB6040001EE0400CAD3040059B7040099
:105B90002DE9F041084E07460D4690460C46631B22
:105BA000984507DD3B6814F8012B9868314600F0F2
:105BB00032FAF4E7BDE8F081EFA3040037B591F8BD
:105BC00064300C469907054606D500687049806820
:105BD000D4E9022300F01FFA94F86430DA0706D5FE
:105BE00028686C498068D4E9002300F014FA94F81E
:105BF0006530DB0706D52B68B4F84A2066499868FB
:105C000000F009FA94F86530180705D52B68226E64
:105C10006249986800F0FFF994F86430590605D598
:105C20002B68626C5E49986800F0F5F994F864306E
:105C3000DA060FD52B685B49986800F0ECF904F19F
:105C4000310128460822FFF7A3FF2B6856499868C0
:105C500000F0E1F994F864309B0616D5B4F83F10D3
:105C6000B4F83B30B4F83920286849BA89B20191B8
:105C7000B4F83D1049BA89B200915BBA52BA9BB2EE
:105C800092B24A49806800F0C6F994F86430580727
:105C90000ED52B684649986800F0BDF91022A1186E
:105CA0002846FFF775FF2B683F49986800F0B3F965
:105CB00094F8643019070CD52B683E49986800F0B9
:105CC000AAF928683C49806804F12003112200F0F9
:105CD000A2F994F86430DB0906D02B68B4F84820A8
:105CE0003649986800F097F994F865309A070FD50F
:105CF0002B683349986800F08EF904F14C0128466E
:105D00001022FFF745FF2B682749986800F083F9B8
:105D100094F865305B0738D52B68B4F85C20986838
:105D2000284900F078F994F95E30002B04DA2B68EA
:105D30002549986800F06FF994F85E30580604D54C
:105D40002B682249986800F066F994F85E3099064D
:105D500004D52B681E49986800F05DF994F85E3010
:105D6000DA0604D52B681B49986800F054F994F8BA
:105D70005E301B0704D52B681749986800F04BF973
:105D80002B680949986800F046F9002003B030BD3F
:105D90009DB70400B6B70400DBA80400CEB704002A
:105DA000E3B70400EFB704007DA70400FCB70400CC
:105DB00020B804002DB8040056AE04003CB804001E
:105DC0004DB8040054B8040064B204002DC20400AD
:105DD00022C50400B5AE0400D0C0040010B50368AD
:105DE0009AB004466946D3F8140100F001FC18B9D2
:105DF00069462046FFF7E2FE1AB010BD10B50368F1
:105E00009AB004466946D3F8140100F0FFFB18B9B4
:105E100069462046FFF7D2FE1AB010BD2DE9F14FBA
:105E2000064690460F4629B9154901B0BDE8F04F26
:105E3000FFF7C4BED2F800A0124C00254FF00C0BA7
:105E40000BFB05F9504659F8041043F0ECFA80B901
:105E50004C44A16863684A10C90706EB020044BFBE
:105E6000B258D358791E08F1040201B0BDE8F04FD2
:105E700018470135142DE3D1062001B0BDE8F08F9D
:105E8000200E00206CB804002DE9F041094E0A4DA7
:105E9000074600244FF00C0808FB04F23B689259B7
:105EA00098682946013400F0B6F8042CF4D100209B
:105EB000BDE8F081F4B904003EB2040013B50368F4
:105EC00004466946D3F8140100F045FC08226946EF
:105ED0002068FCF729FA23680349986800F09BF8CA
:105EE000002002B010BD00BF7DA7040030B501291D
:105EF00087B0144617DD02290C4B056818BF92685D
:105F000003934FF000030293094B0193094B009355
:105F1000049008BF0022084B6168D5F8140100F016
:105F200010FC07B030BD0720FBE700BFE55F0000B5
:105F3000B0B90400C9B90400A5B9040008B50368E4
:105F4000D3F8140100F002FC002008BD2DE9F14F48
:105F5000B1F100080646174607DC00221146FFF79C
:105F600093FF072001B0BDE8F08FD2F800A0104CDD
:105F700000254FF00C0B0BFB05F9504659F80410A7
:105F800043F051FA78B94C44A16863684A10C907D4
:105F900006EB020044BFB258D35841463A4601B01E
:105FA000BDE8F04F18470135042DE4D1D9E700BF13
:105FB000F4B9040010B503689C6829B92046074964
:105FC000BDE8104000F027B8084602F001F9044986
:105FD00002462046BDE8104000F01DB8D2B90400CA
:105FE000E1B904000B4601461846FFF7E3BF10B5C0
:105FF000A0B00446134668460A46802143F0AEFB33
:10600000684643F037FA236882B21B686946204627
:10601000984720B010BD0EB403B503AA52F8041B74
:106020000192FFF7E4FF02B05DF804EB03B07047A4
:106030002DE9F041094E0A4D074600244FF00C08A7
:1060400008FB04F23B689259986829460134FFF72F
:10605000E2FF062CF4D10020BDE8F0813CBA040038
:106060003EB20400043000F0DABF000003460068CE
:10607000024AD0F81401191D00F0BFBFB56300003B
:1060800030B5022987B00546144617D100211422E5
:1060900001A842F0DAFD01A9206800F048FB58B9D8
:1060A00069466068FCF782FA30B9009BADF814309D
:1060B00001A9281D00F0B5FF07B030BD0720FBE7A0
:1060C00030B5022987B00546144617D100211422A5
:1060D00001A842F0BAFD01A9206800F028FB58B9D8
:1060E00069466068FCF762FA30B9009BADF814307D
:1060F00001A9281D00F097FF07B030BD0720FBE77E
:1061000010B53822044640F8041B002142F09DFDE2
:10611000204610BD2DE9F34102AD302305F8013DC5
:106120000E46174600244FF06108BC4219D00122E8
:106130002946304600F054FCA0B99DF807300133E1
:10614000DBB25B2B07D07B2B09D03A2B08BF412356
:106150008DF8073001E08DF807800134E5E7302342
:10616000F6E7002002B0BDE8F08100002DE9F04321
:1061700099B00D460646174600212C22684642F08B
:1061800064FD6B1E032B00F29880022D50DD04A9E4
:10619000386800F0CCFA0446002845D10BA978688D
:1061A000FCF704FA044600283ED10B9BADF82230E0
:1061B0004FF00209042D4ED14B4657F82350414968
:1061C000284603F101099C0043F02DF9002835D140
:1061D0003C440BA96068FDF7ABF8044620BBBDF852
:1061E0002C80012433680021D3F8140100F0F8FE5C
:1061F0000546002863D0012C30D0022C34D057F84B
:106200002940204643F036F9214682B2284600F064
:10621000E7FB044600284AD16A462946301D00F0B3
:1062200004FF0446002842D1204619B0BDE8F0839F
:1062300002D04FF00009BDE70023BEE722492846FF
:1062400043F0F1F838B93C44606843F013F9022494
:106250001FFA80F8C6E70024A046C3E7014642467D
:106260003046FFF757FFD4E757F82970B8F1000F11
:10627000D2D0012332220BA93846FBF799FA03B298
:10628000002B18DD82B253009BB218F0010F1CBF27
:1062900003F1FF339BB21F440BA9A8EB030328466D
:1062A0001FFA83F800F09CFB04460028DED0284645
:1062B00000F08EFBB8E70724F9E70724B4E70324CE
:1062C000B2E700BF24BA040027BA04002DE9F14F59
:1062D000B1F100080646174607DC00221146FFF719
:1062E000A7FE072001B0BDE8F08FD2F800A0114D45
:1062F00000244FF00C0B0BFB04F9504659F8051025
:1063000043F091F880B94D44A9686B684A10C907F9
:1063100006EB020044BFB258D35808F1FF313A1DD2
:1063200001B0BDE8F04F18470134062CE3D12046F8
:10633000D8E700BF3CBA04002DE9F0410368ADF591
:10634000BC6D044608460D469F68164600F042FBA9
:106350008046284600F042FB1349A8EB000238466D
:10636000FFF759FE06F110012068FCF789F8236851
:10637000728C0E499868FFF74EFE284600F02EFBFF
:1063800001AE3246014640F2DB53284600F02AFBBC
:10639000002333542368064998683246FFF73BFED2
:1063A0000DF5BC6DBDE8F0812ABA0400BEAE040054
:1063B0003EB20400FFF7C0BF37B501B9FEE74B7C22
:1063C00013F0040F14BF202400241D0748BF44F01D
:1063D0001004DA0648BF44F008049D0648BF44F0A4
:1063E00004048D7C5A0648BF44F00204DA0918BF41
:1063F00044F0010405F0010543F3010300F53240C8
:106400000A7CCDE900455BB248301AF077FD03B055
:1064100030BD01B9FEE700F532400A7C48301AF081
:1064200053BD01B102B9FEE700F53240483018F023
:1064300078BA13B501B9FEE70C7D0A7C44F3010379
:1064400000F53240C4F3800400945BB248301AF087
:10645000D5FD02B010BD01B9FEE700F532400A7C5F
:1064600048301AF0B1BD01B102B9FEE700F5324083
:10647000483018F0FDBA00F5324048301AF07ABFC3
:1064800011B14B78022B04D800F54140403000F0A8
:1064900055BE0020704701F0B7BB38B50C46114619
:1064A0001A46054601F0B0FB04F12D0121F001016F
:1064B00005F12D0323F001034A885A8011F8042BBB
:1064C000284602F00F02BDE8384001F050BD01F04F
:1064D00069BD01F04FBC01F0FEBC2D3020F0010081
:1064E000007800F0300070472D3020F00100407837
:1064F000704700F54140403001F05CB900F5414083
:10650000403001F031BB00F54140403001F04EBB5E
:1065100000F54140403000F0EFBD00F54140403013
:1065200000F0F7BD07B5002300F54140009340306F
:1065300001F040F903B05DF804FB2DE9F041044699
:1065400000F5354028300D4616461F4606F048F83F
:1065500048B904F536403B46324629463830BDE856
:10656000F04106F067BCBDE8F08110B5044600F5C7
:106570003640383006F080FD30B904F5354028301B
:10658000BDE8104005F0CABF10BD00F536403830F8
:1065900006F096BB00F536400022383006F01CBBF2
:1065A00000F53640383006F046B900F53640F03098
:1065B00005F016BA10B400F53640BDF80440019459
:1065C000F4305DF8044B08F0EBBF00F537400C30B9
:1065D0000AF03EBC00F53640383006F071B900F5DF
:1065E0003640383006F0CEB94BF2A463C05A70473B
:1065F00001B9FEE700F51340143007F08FB801B978
:10660000FEE700F51340103007F0CAB901B9FEE704
:1066100000F51340683007F081B801B9FEE700F5D6
:106620001340643007F028BF00F51340103007F026
:1066300053BD00F51340103007F064BB00F5134064
:10664000643007F049BD00F51340643007F05ABBD1
:1066500000F51340103007F09BBF00F53B401C30A5
:106660000AF04EB900F53B401C300AF03FB900F586
:106670001240C4300AF01ABE00F510407C300BF016
:1066800065B800F510407C300BF06EB801F040BDED
:106690004CF2BC13C05C704701F04ABD01F024BD50
:1066A00001F066BD00487047A1BA040000F5114032
:1066B00008B5383019B11BF0D9FF002008BD1CF017
:1066C00009F8FAE74BF22453C05C704749F23813DB
:1066D000C058704700F5114038300CF01FBD00F570
:1066E000114038300CF062BD49F23C13C05870477D
:1066F00000F5114038300CF047BC00F5114038303F
:106700000CF07EBC49F24013C05C704749F2401364
:10671000C15470470A4611B14B78022B05D800F5D9
:106720001040002158300BF0C1B9002070470B46D3
:10673000014618460BF0F9BF00B101B9FEE70BF0B6
:10674000E9BF00F53A40683009F0F8B900F53A4081
:10675000683009F08DBA00F53A40683009F04AB85F
:1067600010B5044690B019B901F015FD10B010BD78
:1067700000F5144001AA783003F014F801A920466E
:10678000F2E701F01ABD49F28043C05C704738B5AA
:1067900049F2AB730446C35C93B900F514407830FA
:1067A00003F0CEF9054648B904F51340103007F060
:1067B00097F804F51340643007F0FCFD284638BD17
:1067C0000D25FBE700F51440B630704738B5054697
:1067D00001B9FEE749F2AB73C45C5CB900F5144043
:1067E000B03004F0E1FE05F51740A03010F086FA55
:1067F000204638BD0D20FCE7014820F0A7BA00BFB5
:10680000900E002049F27E43C05A704738B549F2D5
:10681000AB730546C45C84B900F51440783003F0CE
:1068200079F805F51340103007F05AF805F51340D4
:10683000643007F0BFFD204638BD0D20FCE700F5B1
:106840001740803002F0ECBD00F51740803002F0B8
:106850004DBE49F2A843C05C704749F2A843C154F9
:10686000704749F2A943C05C704749F2A943C1543B
:10687000704749F28053C05C704700F51540803086
:1068800004F04AB901B9FEE700F51540803004F084
:1068900049B901B9FEE700F51540803004F05CB954
:1068A00000F51540803004F063B901B102B9FEE78C
:1068B00000F51540803004F065B900F515408030D2
:1068C00004F07CB900F51540803004F090B900F573
:1068D0001540803004F099B901B102B9FEE700F526
:1068E0001540803004F09CB910B500F514400C46FA
:1068F000783004F0D3F82146BDE810400EF08DB892
:1069000010B500F514400C46783004F0C7F8214665
:10691000BDE810400EF03AB800F51440B03004F075
:1069200057BE00F5144078304078C0F3C00070477F
:1069300010B54BF22453C45C34B900F514407830E0
:1069400004F094F8204610BD0D20FCE710B54BF282
:106950002453C35C3BB949F27842845C61F3000480
:106960008454184610BD0D20FCE700F51440F830A3
:10697000704700F5144080220021F83042F065B9DC
:1069800070B504460D4616461946049A01F0FCFB04
:1069900004F5144032462946024B7830BDE8704079
:1069A00003F037B96167000070B504460D4616461E
:1069B0001946049A01F0FAFB04F5144032462946C0
:1069C000024B7830BDE8704003F042B983670000A5
:1069D00001F087BC408B704701F087BC808B70470B
:1069E00001F0CCBD10B41C46134622465DF8044BA2
:1069F00001F0EDBC73B5A023054600F580400B8087
:106A000040300C4601F04BFC05F516466080A21D97
:106A1000211D06F1E00002F031F804F10A0204F150
:106A2000080106F1F00001F01FFF04F11A0204F161
:106A3000180106F5B87001F017FF05F5104004F1D4
:106A40000E0204F10C01643002F018F805F5114053
:106A500004F1120204F11001303001F005FF05F5D8
:106A6000184004F1160204F11401043001F0FCFE98
:106A700005F5114004F11E0204F11C01D83001F0AB
:106A8000F3FE05F511400DF1060201A9FC3001F0FD
:106A9000EBFEA38BBDF804201344A383BDF80620AE
:106AA000E38B05F537401344E38304F1220204F13C
:106AB0002001903001F0D8FE05F537400DF10602B7
:106AC00001A9B43001F0D0FE238CBDF8042013449A
:106AD0002384BDF80620638C05F54140134463848C
