:101000000000042011DE020039DE02003BDE020097
:101010003DDE02003FDE020041DE02000000000073
:1010200000000000000000000000000043DE02009D
:1010300045DE02000000000047DE020049DE02003B
:10104000C9DC0200598B02004BDE0200F5F1020000
:101050004BDE02004BDE02004BDE02004BDE0200E4
:101060004BDE02004BDE02004BDE02004BDE0200D4
:101070004BDE02005D6702004BDE02004BDE020029
:101080004BDE02004BDE02004BDE02004BDE0200B4
:101090004BDE02004BDE02004BDE02004BDE0200A4
:1010A0004BDE02004BDE02004BDE02004BDE020094
:1010B0004BDE02004BDE02000000000000000000DA
:1010C0004BDE02004BDE02004BDE02004BDE020074
:1010D000956002004BDE02004BDE02002DB90200DB
:1010E0004BDE02004BDE0200511603000000000040
:1010F000000000004BDE0200000000004BDE02009A
:1011000000000000000000000000000000000000DF
:1011100000000000000000000000000000000000CF
:1011200000000000000000000000000000000000BF
:1011300000000000000000000000000000000000AF
:10114000000000000000000000000000000000009F
:10115000000000000000000000000000000000008F
:10116000000000000000000000000000000000007F
:10117000000000000000000000000000000000006F
:10118000000000000000000000000000000000005F
:10119000000000000000000000000000000000004F
:1011A000000000000000000000000000000000003F
:1011B000000000000000000000000000000000002F
:1011C000000000000000000000000000000000001F
:1011D000000000000000000000000000000000000F
:1011E00000000000000000000000000000000000FF
:1011F00000000000000000000000000000000000EF
:1012000010B5054C237833B9044B13B10448AFF340
:1012100000800123237010BD600200200000000048
:10122000EC5A040008B5034B1BB103490348AFF364
:10123000008008BD0000000064020020EC5A040099
:10124000154B002B08BF134B9D46A3F5803A002198
:101250008B460F461348144A121A3BF0A4FC0F4B5E
:10126000002B00D098470E4B002B00D09847002051
:10127000002104000D000D48002802D00C48AFF3F7
:1012800000803BF01BFC2000290000F015F83BF02B
:10129000EFFB00BF00000800000004200000000079
:1012A0000000000060020020B0DD0020000000000F
:1012B000000000007047000070B505460E4631463C
:1012C000284625F041FB05F067F8044628B90C4B89
:1012D0000C4A0D4867213BF0ADFB00F05FF820465B
:1012E00037F017FB25F05AFB18B1204605F05AF8E5
:1012F000E5E7204605F0BFFA204625F055FBF1E76B
:10130000F1E20300ECE20300FAE203000EB410B5D0
:10131000A3B025AB044653F8042B0193802102A807
:101320003CF0FEF902A83CF087F8236882B21B6803
:1013300002A92046984723B0BDE8104003B070478B
:10134000B0F80636B0F80826C3F580618A42CCBFF3
:10135000A0F80A16A0F80A26B0F80A1621B100F281
:101360000620184425F048BC7047000010B50A4B11
:101370000360044600F20C6000F07AFA0023A4F83F
:101380000432A4F80636A4F80836A4F80A3625F084
:101390002BFC204610BD00BF44E3030010B5044CF5
:1013A00001462046FFF7E2FF024B1C6010BD00BF64
:1013B000800200207C02002010B5B0F80432013B0E
:1013C000C218044612790A2A01BFA0F8043210FAA2
:1013D00083F300221A71B0F80432013BC21812796B
:1013E0000D2A01BFA0F8043210FA83F300221A710B
:1013F000B0F804222AB10346011D00F20C6003F08C
:101400000FFC0020A4F8040210BD00002DE9F843F1
:10141000294FDFF8A880DFF8A89004460D468E1803
:10142000B54247D22B780A2B19D014D8082B2DD0CF
:10143000B4F80432B3F5007F26D2236801221B687A
:10144000294620469847B4F804325A1CA4F80422CE
:101450002A7823442CE00D2B01D07F2BE7E723686B
:1014600002221B68394620469847B4F804322BB153
:10147000234400221A712046FFF79EFF23680222B0
:101480001B684146204698470135C9E7B4F8043245
:10149000002BF9D0236803221B6849462046984751
:1014A000B4F80432013B9BB2A4F804320022234476
:1014B0001A71E9E7BDE8F88351E303004FE3030045
:1014C0004CE30300024B0A4601461868FFF79EBF33
:1014D0007C020020B0F80A360BB9FFF731BF704725
:1014E00070B5B0F80846C4F58064A4B2944228BF31
:1014F00014460D466B1A9C420FDDB0F80826B0F872
:10150000063615F8016B1344C3F309030344013293
:1015100083F80662A0F80826ECE7FFF7DBFF204619
:1015200070BDB0F80A16B0F806260A44C2F30902E4
:10153000A0F80626B0F80826521AA0F808260022BD
:10154000A0F80A26FFF7FCBE014B1868FFF7E9BFB9
:101550007C0200202DE9F041104F114E0546002479
:101560004FF00C08A86808FB04F20368D2595B68C6
:10157000314601349847412CF4D1094E00242B798F
:10158000A34209D9A8682A68036852F834205B6826
:10159000314698470134F2E7BDE8F08174EF03006B
:1015A000E8F50300D0F8340104F003BFD0F83401AB
:1015B00004F0FABE70B585682B680446D0F8340193
:1015C0005E6805F048FA054902462846B047A0681B
:1015D00003490368BDE870405B68184706E50300EF
:1015E0002BE6030010B5C0B00446002308468DF872
:1015F000FF301146FF236A4637F08DF9A068034992
:1016000003686A465B68984740B010BD48590400BB
:1016100070B58468236808460D465E6806F0A6FC2F
:101620002A460346B44620460149BDE8704060475B
:10163000DEF5030070B5044659B98068694903684E
:101640005B689847A06868490368BDE870405B68BC
:101650001847664910683BF0C8FE002840F0C1807A
:10166000D4F8340104F0FBFF0546A0682A6803683B
:101670005F495B689847A0686A6803685D495B6872
:101680009847A068AA6803685B495B689847A068A8
:10169000EA68036859495B689847A0682A69036843
:1016A00057495B689847A0686A69036855495B6851
:1016B0009847A068AA69036853495B689847A0687F
:1016C000EA69036851495B689847A0682A6A036819
:1016D0004F495B689847A0686A6A03684D495B6830
:1016E0009847A068AA6A03684B495B689847A06856
:1016F000EA6A036849495B689847A0682A6B0368EF
:1017000047495B689847A068AA6B036845495B68CE
:101710009847A068EA6B036843495B689847A068EC
:101720002A6C036841495B689847A0686A6C036843
:101730003F495B689847A068AA6C03683D495B68AD
:101740009847A068EA6C03683B495B689847A068C3
:101750002A6D036839495B689847A0686A6D036819
:1017600037495B689847A068AA6D036835495B688C
:101770009847A068EA6D036833495B689847A0689A
:101780002A6E036831495B689847A0686A6E0368EF
:101790002F495B689847A068AA6E03682D495B686B
:1017A0009847A068EA6E03682B495B689847A06871
:1017B0002A6F036829495B689847A0686A6F0368C5
:1017C00027495B689847A068AA6F036825495B684A
:1017D0009847A068EA6F036823495B68BDE87040DA
:1017E000184770BDC1E703002BE60300C7E70300FD
:1017F000CBE70300D9E70300EDE7030003E80300AC
:101800001CE803002EE8030049E803005AE803003F
:101810006FE8030082E803009CE80300AEE80300E1
:10182000C0E80300D3E80300EEE80300FCE803008F
:1018300010E9030026E9030037E903004CE903003F
:101840005FE9030079E903008BE90300A7E90300DE
:10185000C4E90300DBE90300F2E9030013EA030033
:1018600031EA030044EA030057EA030000BA704774
:1018700070B5002504460E46056005718560294651
:101880002C220C303BF08FF91D4A84F8B8504FF4ED
:101890007A73C4E90E231B4BC4E9103504F14003ED
:1018A000A364214604F1F80004F080FB2146C4F84B
:1018B000346104F59C7003F08DFA2946602204F12E
:1018C0004C003BF070F922460F49D4F8340104F083
:1018D0006DFD2246D4F834010C4905F0FEF80C4B9E
:1018E000D4F83401C4E92B3404F1AC0104F04AFD0E
:1018F0003E22294604F1B9003BF055F9204670BD5F
:1019000008000100FD3E0000594D0000C94D0000D7
:10191000D93D00002DE9F041074690460C463BF0CA
:101920008BFD3D1800F001060130B8EB500F12D3CB
:10193000384621460022854221D910F8013BA3F107
:101940004107052F0BD8373B1343DBB29EB10B7019
:1019500000260131EEE74FF0FF30BDE8F081A3F142
:101960006107052F01D8573BEEE7303BDBB2092B6F
:10197000F1D81343EAE71B01DAB20126DBE7081BC3
:10198000EBE7000021B98068024903685B681847EB
:10199000FFF73EBE2BE6030070B505460E46A9B91B
:1019A000D0F8340105F0BFF80446A86803685B6806
:1019B00044B111499847304601462846BDE8704079
:1019C000FFF7E0BF0D4998472046F5E714680C493A
:1019D00020463BF00AFD28B90121D5F8340105F075
:1019E000B6F8E9E7074920463BF0FFFC014600282E
:1019F000F3D00720E0E700BF1BEC030025E703005E
:101A000025EC03002CEC030030B504468BB069468E
:101A1000D0F8340104F065FEA068BDF8002003682A
:101A200030495B689847A068BDF8022003682E49DA
:101A30005B689847A068BDF8042003682B495D687F
:101A4000BDF80630A847A068BDF8082003682849FB
:101A50005D68BDF80A30A847A068BDF80C2003688F
:101A600024495D68BDF80E30A847A068BDF8102075
:101A7000036821495D68BDF81230A847A068BDF829
:101A8000142003681D495D68BDF81630A847A0689A
:101A9000BDF8182003681A495D68BDF81A30A847D8
:101AA000A068BDF81C20036816495D68BDF81E30AB
:101AB000A847A068BDF82020036813495D68BDF8F9
:101AC0002230A847A068BDF8242003680F495D684C
:101AD000BDF82630A84700212046FFF753FF0BB082
:101AE00030BD00BFD7EC0300E3EC0300EEEC0300D5
:101AF00000ED030012ED03001FED03002CED0300C9
:101B000039ED030067ED030046ED03005BED0300D4
:101B100010B5044600F59C7003F052FB01462046C8
:101B2000BDE81040FFF72EBF10B504468368D0F81B
:101B3000340104F055F901462046BDE81040FFF796
:101B400021BF0000F0B5234E8FB00446002509AA3E
:101B5000E9B2D4F8340105F0ADF8002833D19DF88E
:101B60003730DB072DD5A068BDF834100768069123
:101B7000BDF83210BDF82630BDF8242049BA89B22C
:101B80000591BDF8301049BA89B20491BDF82E1004
:101B900049BA89B20391BDF82C1049BA89B20291B1
:101BA000BDF82A1049BA89B20191BDF8281049BA86
:101BB00089B200915BBA52BA7F689BB292B2314649
:101BC000B8470135C3E700212046FFF7DBFE0FB021
:101BD000F0BD00BF1EEB030070B505460E46A9B967
:101BE000D0F8340104F0F4FB0446A86803685B688D
:101BF00044B111499847304601462846BDE8704037
:101C0000FFF7C0BE0D4998472046F5E714680C4918
:101C100020463BF0EAFB28B90121D5F8340104F055
:101C2000CFFBE9E7074920463BF0DFFB01460028F0
:101C3000F3D00720E0E700BF3DEB030042EB0300D9
:101C400049EB03004CEB030037B504466946D0F876
:101C5000340104F0F8FE054608BBA068009A03684A
:101C600012495B689847A0689DF8042003681049F2
:101C70005B689847A0689DF8052003680D495B687C
:101C80009847A0689DF8062003680B495B68984751
:101C9000A0689DF80720036808495B6898472946B3
:101CA0002046FFF76FFE03B030BD00BF75ED0300A7
:101CB00088ED03009FED030098ED0300B2ED0300F3
:101CC000F0B5134685B00446D9B9D0F83401154FA4
:101CD00004F0F8FF461E00F10F05A06816F8012F6A
:101CE000036839465B689847B542F6D1A0680E494B
:101CF00003685B68984700212046FFF743FE05B064
:101D0000F0BD102269461868FFF704FE102806D1BE
:101D10006946D4F8340104F0DAFF0146ECE7062105
:101D2000EAE700BF01E403000DF60300F7B5002366
:101D300004468DF80430002933D1D0F8340104F082
:101D4000DEFD8DF80400C00704D5A068444903688F
:101D50005B6898479DF80430990704D5A06841490D
:101D600003685B6898479DF804305A0704D5A0685B
:101D70003D4903685B6898479DF804301B0704D50C
:101D8000A0683A4903685B689847A06838490368C7
:101D90005B6898470021204603B0BDE8F040FFF79C
:101DA000F1BD15689E46013D19461E4618461F4660
:101DB0009C4615F8012F6AB36E2A25D01AD8642ADA
:101DC0001FD0BCF1000F05D09DF8043043F0010393
:101DD0008DF8043028B19DF8043067F341038DF885
:101DE000043029B19DF8043066F382038DF8043085
:101DF0000621D0E7722A0AD0732AE2D101200746D1
:101E0000D7E701210E46D4E701239E46D1E74FF0E4
:101E1000010CCEE7BCF1000F05D09DF8042042F084
:101E200001028DF8042028B19DF8042067F34102D7
:101E30008DF8042029B19DF8042066F382028DF804
:101E400004202BB19DF804306EF3C3038DF80430E9
:101E50009DF80410D4F8340104F079FD01469AE7A6
:101E60008E030400B6FF0300CAEC030099000400CF
:101E70000DF603002DE9F04F00238BB09942044684
:101E8000ADF802300BDD15684E4928463BF0ADFA3F
:101E9000064630B14C4928463BF0A7FA58B1072115
:101EA00089E0A068494903685B689847A068484989
:101EB00003685B689847DFF83881DFF83891DFF80E
:101EC00038A1D4F8340101AF3A460DF1020104F013
:101ED000ADFDA3681A68002868D15568002E5FD14F
:101EE0009DF82420DFF814B112F0100F0CBF52221D
:101EF000432249461846A847A068BDF81020036849
:101F000051465B689847A068039A036831495B684B
:101F10009847A0689DF91D2003682F495B68984782
:101F2000A0689DF91E2003682C495B689847A0684B
:101F30009DF8242003682A495B6802F00102984753
:101F4000A0689DF82420036825495B68C2F340021D
:101F50009847A0689DF82420036821495B68C2F374
:101F600080029847A0689DF8242003681C495B689C
:101F7000C2F3C0029847A0681A4903685B68984793
:101F80003546A0687A5D036859465B680135984715
:101F9000082DF6D1A068144903685B68984790E75C
:101FA000BDF8102041461846A8478AE70F495268F5
:101FB0001846904700212046FFF7E4FC0BB0BDE82F
:101FC000F08F00BF51EB03004CEF030057EB030011
:101FD000A3EB030001EC030008EC03000FEC03008B
:101FE00016EC030016EF030080E603000DF6030075
:101FF000F9EB0300EFEB0300F7EB030001E4030050
:1020000010B50446D0F8340104F0C7F80146204664
:10201000BDE81040FFF7B6BC2DE9F04186B001AF36
:1020200004463946D0F8340104F01AFD064600286B
:1020300031D1A0681B490368DFF880805B6898474E
:102040003546A0687A5D036841465B68013598476C
:10205000082DF6D1A068144903685B689847A0680A
:10206000BDF80C20036811495B689847A0689DF88B
:10207000112003680E495B689847A0689DF81220FC
:1020800003680C495B689847A0689DF813200368B3
:1020900009495B68984731462046FFF773FC06B054
:1020A000BDE8F081DEE503000DF60300E9E503007D
:1020B000F4E503000AE6030021E6030001E403005F
:1020C00038B50446D1B9D0F8340104F0A8FA80B18B
:1020D000D4F8340124F02CF958B1A06818490368E9
:1020E0005B689847002001462046BDE83840FFF76E
:1020F00049BCA068134903685B68F2E71568124998
:1021000028463BF072F958B91049D4F834012246F8
:1021100004F080FA0121D4F8340104F087FAE2E7F0
:1021200028460B493BF061F9054638B9014602469D
:10213000D4F8340104F06EFA2946ECE70720D2E720
:102140001BEC030025E7030025EC030035400000ED
:102150002CEC030070B505460E46A1B9D0F8340149
:1021600004F023FD0446A86803685B6844B1114984
:102170009847344621462846BDE87040FFF702BC28
:102180000D499847F6E716680C4930463BF02DF9A3
:10219000044628B90121D5F8340104F00BFDE9E724
:1021A000074930463BF021F9044608B90146F2E7F9
:1021B0000724DFE71BEC030025E7030025EC030001
:1021C0002CEC030010B50446D0F8340104F0CBFC2D
:1021D000A3681A68526840B10549184690472046DE
:1021E0000021BDE81040FFF7CDBB0249F5E700BF75
:1021F00045EC03004CEC030038B5044600292BD114
:10220000D0F8340104F01BFCA368042820D8DFE8D0
:1022100000F0030F13171B001A682549526818466F
:102220009047002001462046BDE83840FFF7AABB92
:102230001A6820495268F2E71A681F495268EEE7A7
:102240001A681E495268EAE71A681D495268E6E7AB
:102250001A681C495268E2E715681B4928463BF09A
:10226000C4F820B9D4F8340104F0D5FBDAE71749F3
:1022700028463BF0BAF820B9D4F8340104F0D0FB7A
:10228000D0E7134928463BF0B0F820B9D4F8340120
:1022900004F0CEFCC6E70F4928463BF0A6F820B96B
:1022A000D4F8340104F0D6FCBCE70720BAE700BF3D
:1022B0003CE5030047E5030052E503005AE503004F
:1022C00063E503006CE503007CE5030057030400AD
:1022D00085E503008CE50300002938B5044617DDC9
:1022E00015680C4928463BF080F850B90121D4F814
:1022F000340104F001FC01462046BDE83840FFF7F8
:1023000041BB054928463BF070F801460028EED055
:102310000720F0E789F2030012E7030010B5044636
:10232000F83003F04DFE01462046BDE81040FFF7AF
:1023300029BB0000F0B50F1E87B0054616462DDDFF
:102340001468174920463BF050F8E0B9012F25D01A
:10235000144B0393144B0193022F144B00934FF033
:1023600000040CBF0246B26804950294104B7168D9
:10237000D5F8340104F071F82146284607B0BDE8CD
:10238000F040FFF7FFBA20460A493BF02EF804461A
:1023900020B9D5F8340104F065F8EDE70721ECE742
:1023A00089F203005D470000BCE50300D5E50300AA
:1023B000B1E5030012E70300F0B5134685B004460B
:1023C000D9B9D0F83401154F04F0D8FA461E00F1FF
:1023D0000F05A06816F8012F036839465B68984717
:1023E000B542F6D1A0680E4903685B6898470021A2
:1023F0002046FFF7C7FA05B0F0BD102269461868FD
:10240000FFF788FA102806D16946D4F8340104F0A1
:10241000BAFA0146ECE70621EAE700BF01E403004F
:102420000DF60300F8B505460C46D0F8340179B92D
:1024300004F0C4FAAE680949336810225F680346A5
:102440003046B84721462846BDE8F840FFF79ABA1B
:10245000116804F0B7FA0146F5E700BF11EE03007A
:1024600038B5044603F0A8FFA36806491A68556802
:1024700002461846A84720460021BDE83840FFF72D
:1024800081BA00BFE8F503002DE9F041084E074688
:102490000D4690460C46631B984507DDB86814F856
:1024A000012B036831465B689847F4E7BDE8F0818B
:1024B00001E4030037B505460C46A1B96946D0F8DA
:1024C000340104F028F8082269462846FFF7DCFFAB
:1024D000A868064903685B68984721462846FFF7C5
:1024E00051FA03B030BD0721F8E700BF0DF6030035
:1024F00030B5C3B0FF238DF8073004460DF1070354
:1025000002AA0021D0F8340104F081F9054650B93F
:1025100002A920469DF80720FFF7B6FFA0680549ED
:1025200003685B68984729462046FFF72BFA43B0BB
:1025300030BD00BF0DF6030037B505460C46A1B906
:102540006946D0F8340103F092FF08226946284614
:10255000FFF79AFFA868064903685B689847214619
:102560002846FFF70FFA03B030BD0721F8E700BF98
:102570000DF6030037B5134605460C4699B9D0F859
:10258000340103F0ADFF082201462846FFF77CFF27
:10259000A8680D4903685B68984721462846FFF7FD
:1025A000F1F903B030BD082269461868FFF7B2F9A7
:1025B000002801DA0621F1E76946D5F8340103F075
:1025C00093FF0146EAE700BF0DF6030037B5134657
:1025D00005460C4699B9D0F8340104F061F9082297
:1025E00001462846FFF750FFA8680D4903685B685D
:1025F000984721462846FFF7C5F903B030BD0822A9
:1026000069461868FFF786F9002801DA0621F1E724
:102610006946D5F8340104F047F90146EAE700BFFE
:102620000DF6030013B500220C4601A93AF0A6FFEF
:10263000019B20601B78002B14BF0620002002B0F5
:1026400010BD0000F7B505460C4689B98668D0F87C
:10265000340133685F6803F025FF0C4902463046B9
:10266000B847204601462846FFF78CF903B0F0BD75
:1026700001A91068FFF7D6FF0028F3D19DF80410D8
:10268000D5F8340103F012FFECE700BFFBE40300D0
:102690002DE9F04F00298BB0044640F331811568D5
:1026A000984928463AF0A1FE0746002800F08F809E
:1026B000954928463AF099FE002800F09280284675
:1026C00001A9FFF7AFFF0546002840F0128102AFD5
:1026D0003A46BDF80410D4F8340104F0D1FA0546A6
:1026E000002840F00681A068BDF81A2003688749D9
:1026F0005B68DFF878829847A068BDF81820036807
:1027000083495B689847A068824903685B6898477B
:102710002E46A068BA5D036841465B68013698475B
:10272000082EF6D1A0687C4903685B689847A068CA
:102730007A4903685B6898479DF82430D80704D528
:10274000A068774903685B6898479DF8243099072B
:1027500004D5A068734903685B6898479DF82430E6
:102760005A0704D5A068704903685B6898479DF8CC
:1027700024301B0704D5A0686C4903685B68984740
:10278000A068654903685B689847A0689DF81C20AD
:10279000036867495B689847A068049A03686549BD
:1027A0005B689847A068059A036863495B68984727
:1027B000A0689DF81D20036860495B689847A06881
:1027C0009DF91E2003685E495B68984791E0A06808
:1027D0005C4903685B689847A0685B4903685B686D
:1027E0009847D4F83401DFF888A104F0D5F9002621
:1027F0008146F1B2494576D20DF108084246D4F837
:10280000340104F045FA002868D19DF82430DD0633
:1028100064D4A068BDF81A2003685B68002F5FD1FC
:102820004A49DFF848B19847A068BDF81820036806
:1028300051465B689847A068049A036844495B68FE
:102840009847A068059A036841495B689847A06863
:102850009DF81D2003683F495B689847A0689DF874
:102860001C2003683C495B689847A0689DF82420B9
:1028700003683A495B6802F001029847A0689DF836
:102880002420036835495B68C2F340029847A0687A
:102890009DF82420036831495B68C2F380029847A1
:1028A000A0689DF8242003682C495B68C2F3C0022D
:1028B0009847A0682A4903685B6898473D46A06826
:1028C00018F80520036859465B6801359847082DBC
:1028D000F5D1A068234903685B689847013688E70B
:1028E00021499847FAE7A0680B4903685B68984755
:1028F000002529462046FFF745F80BB0BDE8F08FCC
:102900000725F6E751EB03004CEF0300F1E4030069
:1029100000E50300DEE503000DF603000DE503000E
:102920008E030400B6FF0300CAEC03009900040004
:1029300014E5030023E5030021E60300F4E50300AA
:1029400031E503002DE4030084E4030001EC0300FF
:10295000DBE40300E3E40300EAE4030016EC030015
:1029600016EF030080E6030084F8030001E403008F
:10297000F7EB0300F7B505460C4689B98668D0F831
:10298000340133685F6804F007F90C4902463046A9
:10299000B847204601462846FEF7F4FF03B0F0BDD5
:1029A00001A91068FFF73EFE0028F3D19DF804103E
:1029B000D5F8340104F0F4F8ECE700BFFBE40300C1
:1029C000F7B505460C4681B98668D0F834013368FE
:1029D0005F6803F05CFF0B4902463046B84721466A
:1029E0002846FEF7CFFF03B0F0BD01A91068FFF73E
:1029F00019FE04460028F2D10199D5F8340103F0FC
:102A00004AFFECE7FBE4030073B5044681B985682F
:102A1000D0F834012B685E6804F0EBF80A490246EE
:102A20002846B04700212046FEF7ACFF02B070BD3B
:102A300001A91068FFF7F6FD0028F3D10199D4F839
:102A4000340104F0DBF8EDE7FBE4030010B50029E6
:102A500086B004461FDD05A91068FFF7E3FDE0B965
:102A6000059B012199400F4B019300230294009391
:102A70004FF6FF72D4F8340104F07AF868B9A06810
:102A8000094903685B689847A068084903685B6860
:102A9000984706B010BD0021E5E701462046FEF745
:102AA00071FFF6E7654600006CEA0300C5EA030023
:102AB0002DE9F04391B00DF114080E46352304467C
:102AC000154600212C22404601933AF06CF8002E66
:102AD0004ADD264928683AF088FC002844D194F859
:102AE000B830002B3AD1012E3ED0D5F8049048469C
:102AF0003AF0A2FC3D2837D804F1B90749463846D8
:102B00003AF07DFC0123022E8DF838300BD0A968F5
:102B100009A80FF096F910BB032E09D001A9E868A7
:102B2000FFF780FD03E0124909A80FF08AF9B0B958
:102B3000019BADF8363000238DF810300D4AD4F8E3
:102B40003401234602A9CDE9027803F016FC30B91E
:102B5000012384F8B83011B0BDE8F08305200146A8
:102B60002046FEF70FFFF6E70720F8E753E30300E0
:102B70005BE303005D3A00004B1E012B2DE9F3419E
:102B800005460F46164644D8D2F8008022494046F2
:102B90003AF02BFC0446F8B9012F0BD1AE68D5F8FA
:102BA000340133685F6803F025FF02461B49304655
:102BB000B8470AE001A97068FFF734FD044620B960
:102BC0000199D5F8340103F019FF21462846FEF794
:102BD000D9FE02B0BDE8F081114940463AF005FC4B
:102BE0000446B0B9012F07D1AE68D5F83401336877
:102BF0005F6803F008FFD8E701A97068FFF712FDCE
:102C000004460028E1D10199D5F8340103F0FFFE14
:102C1000DBE70724D9E700BFFFED0300FBE4030077
:102C200007EE0300F7B505460C4681B98668D0F873
:102C3000340133685F6803F0C2FF0C490246304636
:102C4000B84721462846FEF79DFE03B0F0BD01A916
:102C50001068FFF7E7FC04460028F2D19DF8041045
:102C6000D5F8340103F0AFFFEBE700BFFBE403004E
:102C7000F0B50E1EADF5037D0546144652DD17680E
:102C8000294938463AF0B1FB90BB032E009049DD4C
:102C900069466068FFF7C6FC18BBA66830463AF084
:102CA000CBFB3146C2B28DF80C000DF10D0039F0AE
:102CB00056FF009BE46802939DF80A31204643F0DA
:102CC00001038DF80A313AF0B7FB21468DF80B016C
:102CD000C2B243A839F043FF01A9D5F8340103F08B
:102CE000ADFD01462846FEF74DFE0DF5037DF0BD16
:102CF0000E4938463AF079FBA0B9022E019011DD59
:102D000001A96068FFF78EFC0028EAD1A46820467C
:102D10003AF092FB2246C3B20199D5F8340103F090
:102D2000A5FDDEE70720DCE7B6E70300BAE703000E
:102D3000F7B505460C4681B98668D0F8340133688A
:102D40005F6803F060FF0C4902463046B8472146F1
:102D50002846FEF717FE03B0F0BD01A91068FFF783
:102D600061FC04460028F2D19DF80410D5F8340126
:102D700003F04DFFEBE700BFFBE40300F7B50546AA
:102D80000C4689B98668D0F8340133685F6803F06F
:102D9000C4FB0C4902463046B84720460146284647
:102DA000FEF7F0FD03B0F0BD01A91068FFF73AFC93
:102DB0000028F3D1BDF80410D5F8340103F0B1FBBD
:102DC000ECE700BF06E50300F7B505460C4689B9F8
:102DD0008668D0F8340133685F6803F08FFF0C49D0
:102DE00002463046B847204601462846FEF7CAFD4F
:102DF00003B0F0BD01A91068FFF714FC0028F3D15F
:102E00009DF90410D5F8340103F07CFFECE700BF16
:102E1000FBE40300F7B505460C4699B98668D0F87F
:102E2000340133685F6803F094FB4FF47A720D4904
:102E3000B0FBF2F23046B84721462846FEF7A2FD25
:102E400003B0F0BD01A91068FFF7ECFB04460028B1
:102E5000F2D1019BD5F834014FF47A71594303F054
:102E60007DFBE9E7FBE40300002913B5044610DD10
:102E700001A91068FFF7D6FB28B99DF80410D4F813
:102E8000340103F0D0FE01462046FEF77BFD02B080
:102E900010BD0720F7E700002DE9F04F002987B0AB
:102EA000044640F304811568824928463AF09DFAA9
:102EB000074600287FD0804928463AF096FA002835
:102EC00000F0838028466946FFF7ACFB05460028E2
:102ED00040F0E28001AF3A46BDF80010D4F834016A
:102EE00003F0E0FE0546002840F0D680A0689DF87B
:102EF0001420036871495B6802F0010298479DF84D
:102F00001430DA0740F1C880A0689DF80E200368ED
:102F10006B495B689847A068BDF80C200368694955
:102F20005B689847A0689DF80F20036866495B6856
:102F300092029847A0689DF81420036863495B6873
:102F4000C2F3400298479DF814309B0740F1A480DB
:102F5000A0685F490368DFF8BC815B6898472E462C
:102F6000A068BA5D036841465B6801369847082E41
:102F7000F6D1A068574903685B689847A0689DF838
:102F80001020036854495B689847A0689DF8112099
:102F9000036852495B689847A0689DF8122003684F
:102FA0004F495B689847A0689DF8132003684D4916
:102FB0005B68984770E0A0684B4903685B68984776
:102FC000A0684A4903685B689847D4F83401DFF881
:102FD00048A103F065FE002581460DF10408EEB21C
:102FE00042463146D4F8340103F05CFE002849D152
:102FF000A06803685B68002F55D19DF80E203C49FE
:10300000DFF810B19847A068BDF80C20036851465E
:103010005B689847A0689DF80F20036835495B6896
:103020009847A0689DF81020036833495B6898476B
:10303000A0689DF81120036830495B689847A06834
:103040009DF8122003682E495B689847A0689DF898
:10305000132003682B495B689847A0682A490368D6
:103060005B6898473E46A06818F8062003685946F2
:103070005B6801369847082EF5D1A068234903689C
:103080005B6898470135EBB24B45A6D9A06811495A
:1030900003685B689847002529462046FEF772FCC6
:1030A00007B0BDE8F08F324619499847EAE707258F
:1030B000F2E700BF51EB03004CEF0300DFE6030033
:1030C000B9ED030000E50300EBE60300FCE60300B6
:1030D000DEE503000DF6030007E70300F4E5030057
:1030E0000AE6030021E6030032E6030085E603005A
:1030F0001AEF030008EC03000FEC0300E3E4030005
:10310000D8E6030001EC030016EF030080E603009D
:1031100084F8030001E40300F7EB0300F7B505466C
:103120000C4681B98668D0F8340133685F6803F0D3
:1031300096FD0C4902463046B84721462846FEF720
:1031400021FC03B0F0BD01A91068FFF76BFA04463B
:103150000028F2D19DF80410D5F8340103F083FD66
:10316000EBE700BFFBE40300F7B505460C4681B969
:103170008668D0F8340133685F6803F078FD0E4943
:1031800002463046B84721462846FEF7FBFB03B00F
:10319000F0BD01A91068FFF745FA04460028F2D1F6
:1031A00001994B1EFE2B05D8C9B2D5F8340103F0A6
:1031B00062FDE8E70724E6E7FBE40300F7B5054610
:1031C0000C4681B98668D0F8340133685F6803F033
:1031D00022FD0C4902463046B84721462846FEF7F4
:1031E000D1FB03B0F0BD01A91068FFF71BFA04463C
:1031F0000028F2D19DF80410D5F8340103F00FFD3A
:10320000EBE700BFFBE40300F0B50F1E85B00446FA
:10321000164645DD1568234928463AF0E6F808BB0E
:10322000012F3BD003A97068FFF7FCF9A0B9BDF8E6
:103230000C50A0681C4903685B689847A0681B494C
:1032400003685B6898470094194BD4F834012A4608
:10325000002103F01FFA18B101462046FEF792FB49
:1032600005B0F0BD03A92846FFF7DCF90028F3D12B
:10327000039B01259D40A0680E4903685B68984741
:10328000A0680D4903685B68984700940B4BD4F81D
:1032900034010022294603F0E7F9DCE70546C8E7D8
:1032A0000025E8E706E403000DE403001DE4030045
:1032B0009D4600006CEA0300C5EA03006546000075
:1032C00037B5054699B901A9D0F8340123F092F831
:1032D000044630B9A8689DF9042003680B495B686F
:1032E000984721462846FEF74DFB03B030BD01A9A3
:1032F0001068FFF797F904460028F2D19DF90410F1
:10330000D5F8340123F080F80446EAE7AE3604002D
:10331000F7B505460C4689B98668D0F8340133689C
:103320005F6803F05CFC0C4902463046B847204613
:1033300001462846FEF726FB03B0F0BD01A9106840
:10334000FFF770F90028F3D1BDF80410D5F8340167
:1033500003F04AFCECE700BFFBE403002DE9F04773
:1033600002298AB005460E4690463FDD01A9506805
:1033700003F068F800283AD108F10409023E044637
:103380000DF1140AB442E7B20DD0132C0AD06946ED
:1033900059F8040FFFF746F948BB009B04F80A30C0
:1033A0000134EFE72746D8F80040124920463AF0AA
:1033B0001CF848B93B4605AA01A9D5F8340103F029
:1033C00091FB0AB0BDE8F08720460B493AF00DF8B2
:1033D000044658B901A93B4605AAD5F8340103F0C3
:1033E00086FB21462846FEF7CDFAEAE7072001468C
:1033F000F8E700BF55EE030026F3030013B50022E3
:103400000C4601A93AF04AF9019B20601B78002B79
:1034100014BF0620002002B010BD0000F7B505461D
:103420000C46A1B98668D0F8340133685F6802F0B1
:103430009AFF4FF47A720F49B0FBF2F23046B84768
:10344000204601462846FEF79DFA03B0F0BD01294B
:103450000ED101A91068FFF7D1FF0028F1D1019B1F
:10346000D5F834014FF47A71594302F081FFE8E74F
:103470000720E6E7FBE40300F7B505460C4681B9F3
:103480008668D0F8340133685F6803F0A0FB0B490D
:1034900002463046B84721462846FEF773FA03B085
:1034A000F0BD01A91068FFF7A9FF04460028F2D17A
:1034B0000199D5F8340103F08EFBECE783ED0300AE
:1034C0002DE9F04F0F1E99B00646144640F3718265
:1034D000D2F80090A549484639F087FF50B9D6F890
:1034E000340102F0BEFE01463046FEF74BFA19B039
:1034F000BDE8F08F9E49484639F077FF20B9D6F8ED
:10350000340102F0BDFEEEE79A49484639F06DFFFE
:1035100000283FD1022F40F34C82A56896492846E7
:1035200039F063FF08B3082210A92846FEF7F2F924
:10353000082840F0E38110ADD4F804808F4940465C
:1035400039F053FFD0B9032F00F033827823042FD2
:1035500009930CD1099BE268D6F83401294602F0A0
:10356000A0FE0028BFD10020BDE70546E4E709A979
:103570002069FFF743FF0028B5D1EBE780494046BB
:1035800039F033FF0028EED12946D6F8340102F095
:103590008CFEE6E77B49484639F027FF014638B9FB
:1035A000012FD6F8340118BF616802F083FE9AE754
:1035B0007549484639F019FF38BB042F40F3F981AB
:1035C00007A96068FFF72EF800288CD108A9A06829
:1035D000FFF728F8002886D109A9E068FFF722F84C
:1035E000002880D110AD2946206902F02BFF002869
:1035F0007FF479AFBDF824309DF82020009507991D
:10360000D6F8340102F05AFE6DE76049484639F0B9
:10361000ECFE002837D1052F40F3CB8106A9606866
:10362000FFF700F800287FF45EAF07A9A068FEF757
:10363000F9FF00287FF457AF08A9E068FEF7F2FF12
:1036400000287FF450AF09A92069FEF7EBFF00289E
:103650007FF449AF10AD2946606902F0F3FE0028FF
:103660007FF441AF4A49BDF820309DF81C200396F5
:10367000CDE90151BDF824100091D6F83401069926
:1036800002F021FE2FE74349484639F0AEFE18BB51
:10369000032F40F38E8108A96068FEF7C3FF00285E
:1036A0007FF421AF09A9A068FEF7BCFF00287FF4D2
:1036B0001AAF10A9E06802F0C5FE00287FF413AF2E
:1036C000354B0093BDF82010019610AB099AD6F83F
:1036D000340102F003FE06E73049484639F085FE22
:1036E0000546002840F09380DFF8BCA0DFF8BCB0AE
:1036F0004FF00108B84580F283801F2D00F346810A
:1037000054F828902649484639F06FFE60B918AB46
:1037100005F101091D44092305F8203C08F10108C1
:103720005FFA88F84D46E5E75146484639F05DFEB8
:1037300028B918AB05F101091D440B23ECE75946E4
:10374000484639F052FE28B918AB05F101091D446D
:103750000823E1E71349484639F047FE40BB18AB60
:1037600005F101091D441223D6E700BF89F20300C9
:1037700012E703002FEE030036EE0300B6E7030066
:10378000BAE7030038EE030048EE030006E4030046
:10379000ED46000019F303001D47000051EE030041
:1037A00059EE030078EE030061EE03006BEE0300B8
:1037B0008149484639F019FE002840F0FA8008F1A6
:1037C00001085FFA88F8B84580F2F38054F8283091
:1037D0000593184639F030FE01304FEA6009C5F113
:1037E00020024A45C0F0D28010AB5919059B1FFA40
:1037F00089F21846FEF78EF800287FDBA9448DE792
:10380000EAB210A9D6F8340102F06DFD6BE66B49FF
:10381000484639F0EAFD8046002840F0B9801A2277
:10382000002109A839F0BFF9DFF8A4B10125BD4294
:1038300080F2A380B8F11F0F00F3A88054F8259000
:103840005F49484639F0D1FDC0B96B1CDBB2BB42C1
:1038500080F2AF809DF83C2054F8230042F0010232
:1038600008A98DF83C20FEF7DDFE00287FF43BAE72
:10387000089BADF824300235EDB2D8E751494846EF
:1038800039F0B3FDB0B96B1CDBB2BB4280F2918062
:103890009DF83C2054F8230042F0020208A98DF85C
:1038A0003C20FEF7BFFE00287FF41DAE089BADF85C
:1038B0002630E0E75946484639F097FD824618BB66
:1038C0006B1CDBB2BB4274DA9DF83C2054F82390A9
:1038D00042F0040248468DF83C2039F0ADFD01303D
:1038E0004FEA5008B8F1100F50D81FFA88F20DF1C6
:1038F00029014846FEF70EF8002801DA0620F2E515
:103900008DF82880D046B6E72F49484639F06DFD3E
:10391000A8B96B1CDBB2BB424BDA9DF83C2054F8D3
:10392000230042F0080208A98DF83C20FEF77AFE39
:1039300000287FF4D8AD089BADF83A309BE71E49CC
:10394000484639F052FDA0BB6B1CDBB2BB4230DAFB
:1039500054F82390484639F06FFD01304FEA500883
:10396000B8F1200F12D81FFA88F210A94846FDF7C7
:10397000D1FF0028BFF67FAFC0E75FFA88F310AA37
:1039800009A9D6F8340102F0B2FCACE50320AAE59F
:103990000C49484639F029FD58B9B568D6F83401C4
:1039A0002B685F6802F0A7FC084902462846B84722
:1039B000D9E5072097E500BF86EE03008DEE0300F2
:1039C00059EE030061EE030078EE0300FBE4030010
:1039D0006BEE03002DE9F0410546806888B09846FB
:1039E00003689DF838605B6814460A461949984791
:1039F00056BBA868668822880768CDF81880E389D6
:103A00005BBA9BB20593A3895BBA9BB204936389AB
:103A10005BBA9BB20393218949BA89B20291E188CA
:103A200049BA89B20191A18849BA89B2009176BA9E
:103A300052BA7C680849B3B292B2A047002385F815
:103A4000B83008B0BDE8F08131462846FDF79AFF4E
:103A5000F4E700BF54EC03006BEC030010B49DF8D6
:103A6000044001945DF8044BFFF7B4BF10B5002982
:103A700086B0044614DD6946106802F0E3FC68B9BC
:103A800040238DF810309DF81130D4F8340143F004
:103A9000030369468DF8113002F0A2FC06B010BD98
:103AA0000720FBE700291FB504460BDD69461068B7
:103AB00002F0C8FC20B96946D4F8340102F095FC44
:103AC00004B010BD0720FBE7F0B5054687B01646E9
:103AD0000C4600292CD1D0F83401264E02F07CFC93
:103AE0000446002C41D0E189A868638822880768D1
:103AF00049BA89B20591A18949BA89B2049161890B
:103B000049BA89B20391218949BA89B20291E188FF
:103B100049BA89B20191A18849BA89B200915BBAC8
:103B200052BA7F689BB292B23146B8476469D8E70F
:103B300017681149384639F058FC58B9321D611ED2
:103B40002846FFF793FF0146284607B0BDE8F0403E
:103B5000FDF718BF0949384639F047FC38B9321D1E
:103B6000611E2846FFF79EFFEDE72046EBE70720A2
:103B7000E9E700BF93E50300B6E70300ADE5030006
:103B800000291FB504460BDD6946106802F05AFC97
:103B900020B96946D4F8340102F030FC04B010BDFD
:103BA0000720FBE700291FB504460BDD69461068B6
:103BB00002F048FC20B96946D4F8340102F023FC35
:103BC00004B010BD0720FBE770B505460E4681B96D
:103BD000D0F8340102F01CFC0446A86803685B6856
:103BE00024B10F4998473446204670BD0D49984787
:103BF000FAE716680C49304639F0F7FB044628B955
:103C00000121D5F8340102F007FCEDE70749304601
:103C100039F0EBFB044608B90146F2E70724E3E775
:103C20001BEC030025E7030025EC03002CEC03004C
:103C3000F0B5054687B016460C4600292CD1D0F8C1
:103C400034012B4E02F0D6FB0446002C4CD0E18907
:103C5000A86863882288076849BA89B20591A18952
:103C600049BA89B20491618949BA89B2039121891B
:103C700049BA89B20291E18849BA89B20191A18811
:103C800049BA89B200915BBA52BA7F689BB292B2CC
:103C90003146B8472469D8E717681649384639F0DD
:103CA000A4FB58B9321D611E2846FFF769FF014683
:103CB000284607B0BDE8F040FDF764BE0E4938461F
:103CC00039F093FB28B9321D611E2846FFF76AFFC1
:103CD000EDE70A49384639F088FB38B9321D611ED4
:103CE0002846FFF771FFE2E72046E0E70720DEE71E
:103CF00093E50300B6E70300ADE503003BEF0300E7
:103D00002DE9F0411F4688B0002307933B78812BB3
:103D100005460E46144651D10B8CCA8B8068294942
:103D2000D21A036808325B689847E18BA868638AF7
:103D3000D0F800C0228A49BA89B20591A18B49BA4C
:103D400089B20491618B49BA89B20391218B49BA36
:103D500089B20291E18A49BA89B20191A18A49BA2C
:103D600089B200915BBA52BADCF8048016499BB262
:103D700092B2C047A868FA88036814495F6894F84B
:103D8000253052BA92B2B84707AB0422318C304684
:103D900004F0D1F903280CD9AC6823685E6822F0DE
:103DA00098F807460798FDF761FD09493A1A204639
:103DB000B047A868074903685B68984708B0BDE842
:103DC000F08100BF8FEC03009EEC0300B6EC030013
:103DD000CCEC03000DF60300FFF792BF37B50446A5
:103DE00022F077F8FDF742FD00210190D4F834016C
:103DF00002F01AFB0546B0B104220DEB020102F0FD
:103E000067FCE8B9218F284602F05EFCC0B90123A7
:103E100004F10C022946D4F8340102F0B8FA78B95A
:103E2000638F013B6387638F43B1E56B22F051F8E9
:103E30002A46014604F1400004F092FF03B030BD71
:103E4000284602F03DFCEEE72DE9F3410F1E054642
:103E500016464DDDD2F800802649404639F0C5FAB5
:103E600005F14003AA6C044650B99A423CD018466A
:103E700004F03EFF204601462846FDF783FD30E072
:103E80009A4233D1414605F11C000DF0DAFF0028BB
:103E9000F1D1194A4FF47A73C5E90E23012485F84C
:103EA00030409846BC4219DA01A956F82400FEF7C2
:103EB000B9FB0028DFD1022C08D0032C09D0012C3B
:103EC00016D1019B2B870134E4B2EBE7019B6B8792
:103ED000F9E7019B08FB03F3EB63F4E72846FFF7E0
:103EE0007DFF02B0BDE8F0810D20C4E70520C2E7E8
:103EF0000720C0E712E7030008000100024B186822
:103F000000F20C60FFF76ABF7C0200202DE9F14F40
:103F1000044680683C4F03680E465B683B499847FF
:103F20002C25A068036839465B689847013DF8D1A5
:103F3000A0683279036836495B68334F98471C257F
:103F4000A068036839465B689847013DF8D1A068CE
:103F50002E490368DFF8CC805B689847A068327907
:103F60000368AA425B683DD9414698470027A0688C
:103F700031790368EA198A425B682BD231688A5C1E
:103F8000244998470137102FF1D1A068DFF89890A5
:103F90000368DFF898A05B68DFF894B04146984763
:103FA0000027A06831790368EA198A425B6817D252
:103FB00031688A5CA2F120015E290ED859469847E3
:103FC0000137102FEDD1A068134903685B6898474B
:103FD0001035C3E711499847D4E751469847EFE7B2
:103FE0004946FBE70E4E5325A068036831465B68DF
:103FF0009847013DF8D1A068044903685B6801B0A7
:10400000BDE8F04F184700BFDAEE03000DF60300DD
:10401000DCEE0300EAEE030081E60300F0EE0300AD
:10402000FEEE0300E8EE0300FBEE0300F8EE0300F3
:10403000F4EE03000B4601461846FFF767BF000089
:104040002DE9F04F154689B0182206460F4602A802
:10405000002138F0A8FD2F21286839F0B9F904466D
:1040600000287FD00023037002A9286802F0EAF933
:10407000002877D1024601A9601C39F07FFA019B24
:104080008DF818001B78002B6FD14FF00108DFF876
:10409000E490DFF8E4A0C346B8455EDA55F828405E
:1040A0003349204639F0A1F940B99DF819206BF346
:1040B00001028DF8192008F10108EDE74946204674
:1040C00039F093F920B99DF8192060F30102F0E767
:1040D0005146204639F089F998B1013C14F8012F76
:1040E000002AE8D0613A122A3FD8DFE802F0163EF3
:1040F000201B3E3E3E3E3E3E3E3E3E3E2A0F3E257D
:104100002F009DF8192042F00302D2E79DF81920F4
:1041100042F004028DF81920E0E79DF8192042F0E2
:104120000802F7E79DF8192042F01002F2E79DF827
:10413000192042F02002EDE79DF8192042F04002DC
:10414000E8E79DF8192042F08002E3E79DF81A2085
:1041500042F001028DF81A20C0E702A9D6F8340116
:1041600001F0C2FF09B0BDE8F08F0620FAE700BFFA
:1041700038EC03003DEC030041EC030070B515463C
:1041800086B011220021064601A838F00CFD2F212F
:10419000286839F01DF90446A8B10023037001A96D
:1041A000286802F04FF970B902466946601C39F080
:1041B000E5F9009B8DF814001B7833B901A9D6F8F6
:1041C000340101F0BCFF06B070BD0620FBE7000023
:1041D0002DE9F0418CB00023424D434E434F0593EF
:1041E000044606AA05A9D4F8340101F0AEFF002860
:1041F00074D1A0689DF82810D0F800C00291BDF8D5
:104200001E10BDF81A30BDF8182049BA89B20191C4
:10421000BDF81C1049BA89B200915BBA52BA9BB280
:1042200092B2DCF804802946C0479DF829305A072D
:1042300004D5A068036831465B6898479DF829302B
:104240001B0704D5A068036839465B6898479DF84A
:104250002930D80604D5A068254903685B689847CB
:104260009DF82930990604D5A068224903685B6847
:1042700098479DF829305A0604D5A0681E4903685E
:104280005B6898479DF82930DB0904D0A0681B497A
:1042900003685B6898479DF82A30DB0704D5A0685F
:1042A000174903685B6898479DF8293043F3010379
:1042B0005BB2002B08D00CDC013392D1A06811490D
:1042C00003685B6898478CE7A0680F4903685B68E0
:1042D000F8E7A0680D4903685B68F3E700200CB0BD
:1042E000BDE8F081C9ED0300BBF2030057FF0300F6
:1042F000CAEC0300F6EE03008E03040098F20300FC
:10430000B6FF0300DBED0300E2ED0300E9ED03007F
:10431000F8B5044616460D4639B9FFF759FF014670
:104320002046BDE8F840FDF72DBB17680B4938461D
:1043300039F05BF828B9321D691E2046FFF780FE70
:10434000EDE70749384639F050F828B9321D691EA3
:104350002046FFF713FFE2E70720E0E7B6E7030098
:10436000BAE703002DE9F04F89B00F4680461646A4
:104370000021182202A838F016FC002F56DD2F214C
:10438000306839F025F8044688B10023037002A98B
:10439000306802F057F850B9024601A9601C39F0A4
:1043A000EDF8019B8DF818001B781BB1062009B0B1
:1043B000BDE8F08F0124DFF88090DFF880A0A346ED
:1043C000BC422DD056F824501949284639F00DF832
:1043D00038B99DF81C3043F004038DF81C300134CB
:1043E000EEE71449284639F000F820B99DF81C3052
:1043F0006BF30103F1E74946284638F0F6FF20B990
:104400009DF81C3060F30103E7E75146284638F079
:10441000ECFF0028CAD19DF81C3043F00303DCE711
:1044200002A9D8F8340101F099FEC0E70720BEE7E1
:10443000B6FF030038EC03003DEC030041EC030041
:1044400070B586B00C46064615460021112201A81B
:1044500038F0A9FB002C1DDD2F21286838F0B8FFAB
:104460000446A8B10023037001A9286801F0EAFFFF
:1044700070B902466946601C39F080F8009B8DF8DF
:1044800014001B7843B901A9D6F8340101F076FE77
:1044900006B070BD0720FBE70620F9E72DE9F041E3
:1044A0008CB00023274D284E284F0593044606AABA
:1044B00005A9D4F8340101F067FE00283ED1A068B8
:1044C0009DF82810D0F800C00291BDF81E10BDF86C
:1044D0001A30BDF8182049BA89B20191BDF81C10F4
:1044E00049BA89B200915BBA52BA9BB2DCF8048037
:1044F00092B22946C0479DF82C305B0704D5A068CE
:10450000036831465B6898479DF82C3043F30103FC
:104510005BB2002B08D00CDC0133C8D1A0680C4979
:1045200003685B689847C2E7A068036839465B6820
:10453000F8E7A068074903685B68F3E700200CB060
:10454000BDE8F081C9ED0300B6FF0300E2ED030012
:10455000DBED0300E9ED0300F8B5044616460D4611
:1045600039B9FFF79BFF01462046BDE8F840FDF74B
:1045700009BA17680B49384638F037FF28B9321D99
:10458000691E2046FFF7EEFEEDE70749384638F092
:104590002CFF28B9321D691E2046FFF751FFE2E7C4
:1045A0000720E0E7B6E70300BAE7030070B504466A
:1045B000806803680D465B6819B92149BDE8704001
:1045C000184791F839201F49C2F340129847A06854
:1045D0001D49036805F108025B689847A0681B49FC
:1045E00003685B689847082205F119012046FDF72A
:1045F0004BFFA068164903685B689847A0686A8EFD
:10460000036814495B689847294620460822FDF74D
:104610003BFFA06895F8362003680F495B68984710
:10462000A06895F9372003680C495B689847A06833
:1046300095F8382003680A495B68BDE87040184760
:104640002BE6030000EF030006EF030016EF030064
:10465000F5EB03000FEF030019EF030001EC03007B
:1046600021EF03000B4601461846FFF79FBF0000ED
:1046700010B4806803685C6821B9234605495DF879
:10468000044B184791F901300A780349A4465DF8B4
:10469000044B60472BE603002BEF03000B4601465B
:1046A0001846FFF7E5BF00002DE9F0410646806897
:1046B0000B4F1D46036814465B680A460949984734
:1046C000013C2544B0680368A5425B6804D014F837
:1046D000012F39469847F5E70349BDE8F0411847EF
:1046E00084F80300F1ED03000DF6030010B41C463E
:1046F00013460A46014620465DF8044BFFF7D4BF37
:1047000010B4806803685C681346A4460A465DF8E6
:10471000044B0149604700BF18EE030013460A46E8
:1047200001461846FFF7ECBF70B5846823685D68E2
:1047300029B920462B460749BDE87040184708466E
:1047400003F014FC2B46024603492046BDE87040A6
:10475000184700BFB8EE0300C7EE03000B46014642
:104760001846FFF7E1BF00002DE9FF47044600238C
:10477000D0F834018DF8033001F0F5FE70BBA0686D
:104780003E4903685B689847DFF80091DFF80081D5
:1047900001AD2A460DF10301D4F8340101F001FF07
:1047A00050BB082229462046FDF76EFE9DF90C609D
:1047B0007F2E0DD0A768D4F834013B683146D3F87A
:1047C00004A001F00FFF3246034649463846D04761
:1047D000A068036841465B689847DAE7012804D17E
:1047E000A068274903685B68CDE70228CCD1A068A0
:1047F000244903685B68C6E70023A0688DF803308E
:10480000036821495B68DFF88C90DFF88C8098475B
:104810002A460DF10301D4F8340101F0DAFE50BB51
:104820002B5CFF2B11D101300828F9D1A6689DF926
:104830000C703368D4F83401D3F804A0394601F081
:10484000D1FE3A460346414612E008222946204658
:10485000FDF71AFEA6689DF90C703368D4F8340190
:10486000D3F804A0394601F0BDFE3A460346494656
:104870003046D047CCE704B0BDE8F08717E7030027
:1048800030E703004AE7030077E7030064E703002B
:104890000DF6030085E703009AE703002DE9F043D6
:1048A00087B005460E460023D0F834018DF8073056
:1048B000174601F058FE002E3DD170BBA86855493F
:1048C00003685B689847DFF87481534FD5F834016B
:1048D00003AA0DF1070101F064FE002840F0988062
:1048E000082203A92846FDF7CFFD9DF914407F2C2F
:1048F0000DD0AE68D5F8340133682146D3F8049062
:1049000001F070FE2246034641463046C847A8687B
:10491000036839465B689847D8E7012804D1A8683E
:104920003E4903685B68CDE70228CCD1A8683C49C2
:1049300003685B68C6E73C683A49204638F055FD95
:10494000014628B9012E0BD0072007B0BDE8F0833F
:104950003549204638F049FD38B9012EF4D13146A9
:10496000D5F8340101F003FEEFE73049204638F076
:104970003CFD18B9012EE7D10221F1E72C49204670
:1049800038F033FD20BB012EDEDD082203A9786854
:10499000FCF7C0FF082801D00620D6E703A9D5F808
:1049A000340101F0E9FD08B11828CED1022ECCD097
:1049B000032EC9D102A9B868FDF734FE0028C4D17E
:1049C0009DF90820D5F8340103A901F0F3FDBCE7F7
:1049D0001849204638F009FD70B9022EB4D10822DA
:1049E00003A97868FCF796FF0828D5D103A9D5F864
:1049F000340101F0C9FDA8E70F49204638F0F5FC65
:104A00000028A1D1012E9FD1D5F8340101F0C4FDB9
:104A100000209AE725E703000DF603003EE70300B8
:104A200058E703002CEC030047EF030051EF0300AD
:104A3000B6E70300BAE703005BEF030064E7030097
:104A40002DE9F04786B00023054616468DF807305D
:104A50000F4631BBDFF86881DFF8689103AC22466E
:104A60000DF10701D5F8340101F0B3FD002840F045
:104A70008480235CFF2B40F0848001300828F8D12B
:104A8000AE689DF914703368D5F83401D3F804A0EA
:104A9000394601F0A7FD3A46034649463046D0471D
:104AA000DDE714684149204638F09FFC68BB032FBE
:104AB00065D102A9B068FDF7B5FD044620B99DF89F
:104AC0000810032904D90624204606B0BDE8F08763
:104AD000D5F8340101F092FD074676683449304636
:104AE00038F083FC10B93A46214608E0082203A9B1
:104AF0003046FCF70FFF0828E5D13A4603A9D5F860
:104B0000340101F057FD0446DEE72A49204638F01B
:104B10006CFC58B9032F32D102A9B068FDF782FDB1
:104B200004460028D0D19DF90870D6E722492046D6
:104B300038F05BFCB0B9022F21D174681C492046C3
:104B400038F053FC014620B9D5F8340101F037FDA7
:104B5000D9E7082203A92046FCF7DCFE0828B2D1D9
:104B600003A9F1E72046154938F03FFC044630B967
:104B7000D5F8340101F028FDA6E70024A4E70724B6
:104B8000A2E7082221462846FDF77EFCAE689DF983
:104B900014703368D5F83401D3F804A0394601F015
:104BA00021FD3A460346414678E700BF95EE0300F3
:104BB00036EE0300B6E70300BAE703005BEF03003D
:104BC00085E703009DEE0300F8B5054616460C4642
:104BD00041B9FFF7C9FD204601462846BDE8F84027
:104BE000FCF7D0BE17680C49384638F0FEFB28B9F0
:104BF000321D611E2846FFF751FEEDE70749384692
:104C000038F0F3FB28B9321D611E2846FFF718FF64
:104C1000E2E70720E0E700BF3FF3030034EC0300C6
:104C20002DE9F043A3B005460C461646002180222C
:104C300002A81F4637F0B7FF00238DF80730AF609A
:104C40009CB1711C204638F011FCB0420DD82023D5
:104C500002AA0DF1070120461EF03CF840B1A868F9
:104C60002F49036820225B68984723B0BDE8F08392
:104C70009DF807302BB9A8682A4903685B689847F4
:104C8000F3E7029F33F049FE48B12749384638F030
:104C9000ACFB20B1A868254903685B68EFE7244EA8
:104CA00004464FF00C0909FB04F8384658F8061082
:104CB00038F09BFB88B94644B16873684A10C9074D
:104CC00005EB02009DF8071048BFAA5801F1FF311B
:104CD00048BFD35803AA9847C7E70134412CE2D113
:104CE00095F804900024E6B2B14511D92B683846F6
:104CF00053F8341003EBC40838F077FB0134002874
:104D0000F1D19DF80700D8F8043003A9013898477D
:104D10002B79B342A9D106212846FCF779FCA4E7F8
:104D200070E3030090E30300ABE30300B0E3030090
:104D300074EF03008B0507B509D50023009300F13C
:104D40004C01044BD0F83401042201F069FB03B09C
:104D50005DF804FB256400000B4601461846FFF78A
:104D6000E9BF00002DE9FF4180460B8CCC8B8068A9
:104D7000E41A03680F465B6811499847A4B20025FE
:104D8000ACB1398C102C2646294428BF10266B461E
:104D9000324689B2384603F0CEF9A41BF2B2694616
:104DA00040463544FDF770FBA4B2ADB2E8E7D8F851
:104DB0000800044903685B68984704B0BDE8F081C7
:104DC00061EF03000DF6030013460A46014618463C
:104DD000FFF7C8BF08B510220163002137F0E3FEDA
:104DE00008BD00002DE9FF41804608460F4601F04E
:104DF00069FC0446384601F069FC241AA4B20CB3DD
:104E0000D8F830301449986803685B6898470025E3
:104E1000102C3846264628BF102601F057FC4119B1
:104E200033466A4689B23846A41B01F053FC354428
:104E3000F2B26946D8F83000A4B2FDF725FBADB256
:104E4000002CE5D1D8F830300449986803685B68D5
:104E5000984704B0BDE8F0815FF603000DF603004B
:104E60002DE9F0411C46ADF50C7D30238DF81F3047
:104E70000D46036BE18B064649BA9868638AD0F801
:104E800000C089B21746228A0591A18B49BA89B21E
:104E90000491618B49BA89B20391218B49BA89B2D5
:104EA0000291E18A49BA89B20191A18A49BA89B2CB
:104EB00000915BBA52BA9BB2DCF804804C4992B2C2
:104EC000C047284601F091F90138336B032871D8A7
:104ED000DFE800F0026B66619868464903685B682A
:104EE000984730463946FFF77DFF284601F079F9AB
:104EF000002865D1284601F078F9202101280CBF4F
:104F0000452243220DEB010001F04CF9284601F047
:104F10006EF9014608A801F061F9284601F06FF921
:104F20000746284601F067F93946024608A801F00D
:104F30003BF9284601F059F9012802D108A801F0EF
:104F40004BF9336B002208A9D3F8340101F059F969
:104F50000746002839D0284601F047F901280246C3
:104F600037D0336B22463946D3F8340101F06EF95D
:104F70000546002836D0336B9C68236828465E6857
:104F800002F0F4FF2A4603461B492046B047384644
:104F900001F096FB19E09868184903685B689FE781
:104FA0009868174903685B689AE798681549036829
:104FB0005B6895E79868144903685B68984704E064
:104FC000284601F012F9012894D00DF50C7DBDE8BA
:104FD000F0810DF11F01384601F07AFB05460028EB
:104FE000BFD0C8E7336B0949986803685B68E5E799
:104FF00064F503009BF50300BBF503009FF5030078
:10500000A6F50300AAF50300AFF50300EDF50300D4
:10501000FFF726BF2DE9F047614BADF51E7D8146B8
:105020001868079088461B798DF8203015460021B6
:105030001B220DF1210037F0B6FDB8F1000F05DCA1
:10504000072420460DF51E7DBDE8F0872C685549E4
:10505000204638F0CAF9002800F0868052492046E0
:1050600038F0C3F9002800F081805049204638F01C
:10507000BCF900287CD04E49204638F0B6F900280B
:10508000DED10426B8F1010FDAD003AF39466868E3
:1050900001F0D8F904460028D3D1B8F1020FCFD0DF
:1050A0002022A96807A838F0B2F9B8F1030F61D03F
:1050B0004049E86838F099F9002814BF4FF0100A09
:1050C0004FF0000A324651461AA801F06BF802214F
:1050D0001AA801F07DF807A91AA801F07BF8044688
:1050E0000028AED1B8F1040F07DD286938F0A4F923
:1050F00084B214B11AA801F06FF8D9F83030002248
:105100001AA9D3F8340101F07CF88046002844D075
:105110009CBB2C2200210FA837F045FD97E80F001B
:1051200013AC84E80F0041F23363ADF85E30012325
:105130008DF86030D9F83030D3F83401BAF1000F6F
:1051400026D11D4BCDF8009041460FAA01F065F81D
:10515000D9F8303019490446986803685B68984765
:10516000002C3FF46EAF0FE001268BE7022689E7A3
:10517000032687E74FF0100AA4E72246296901F0C9
:10518000A7FA04460028C4D0404601F099FA58E72F
:10519000012ED6D000230093D6E7032451E700BFA9
:1051A000CCF4030055EE0300ECF40300F1F403002B
:1051B000F5F40300FCF40300E952000000F50300DD
:1051C000F8B50F1E044615465ADD16682D493046BF
:1051D00038F00BF980B9236B41F23361D3F8340115
:1051E00001F020F8054628B9236B27499868036821
:1051F0005B6898472846F8BD2449304638F0F5F8F2
:1052000098B9236B2146D3F8340101F01AF8236BC7
:10521000D3F8340101F00BF805460028EAD1236BDE
:105220001B49986803685B68E3E71A49304638F021
:10523000DCF8F0B904F11000174B2060012FA460D6
:10524000636008D1236B22689868144903685B681F
:1052500098470025CEE76968202238F0D8F8236BFC
:105260002146D3F8340100F0E7FF05460028C1D1FC
:10527000E8E72A4639462046BDE8F840FFF7CABEAF
:105280000725B7E789F2030010F6030012E70300D1
:1052900027F603003EF603001150000047F6030016
:1052A0002DE9F041036B9DF818509C682368064671
:1052B00090465F6855B1284602F058FE2A460346DC
:1052C000BC4620460649BDE8F041604705492046F6
:1052D000B84741463046BDE8F041FFF783BD00BF07
:1052E00017F503004DF5030010B49DF80440019438
:1052F0005DF8044BFFF7D4BFF8B5084F084E094DD1
:105300000024386856F83420036829465B68013465
:105310009847132CF5D10020F8BD00BFF8090020F4
:1053200090F70300E8F5030008B568220021024861
:1053300037F039FC002008BD000A0020002970B5B4
:1053400019DD1668304638F077F8441C6408A2B2BC
:10535000102A12D80B4DA91A5C3130461446FCF7BE
:10536000D9FAA0420BD195F8653043F0020385F8D5
:105370006530002070BD0720FCE70320FAE7062017
:10538000F8E700BF000A0020002970B515461ADDB5
:10539000106838F051F81028064616D80C4C112227
:1053A000002104F1200037F0FEFB3246296804F1A9
:1053B000200037F0D4FB94F8643043F0080384F8FD
:1053C0006430002070BD0720FCE70620FAE700BF2C
:1053D000000A0020002937B511DD01A91068FDF78A
:1053E00021F950B9074B019C93F86420E517C3E9F4
:1053F000004542F0010283F8642003B030BD07206D
:10540000FBE700BF000A0020002907B511DD01A954
:105410001068FDF707F948B9074B019AA3F84A202D
:1054200093F8652042F0010283F8652003B05DF82F
:1054300004FB0720FAE700BF000A0020002907B597
:1054400010DD01A91068FDF7EDF840B9064B019A8F
:105450001A6693F8652042F0080283F8652003B0CD
:105460005DF804FB0720FAE7000A0020002907B5D1
:1054700010DD01A91068FDF7D5F840B9064B019A77
:105480005A6493F8642042F0400283F8642003B029
:105490005DF804FB0720FAE7000A0020002907B5A1
:1054A00011DD01A91068FDF7BDF848B9074B019A55
:1054B000A3F8482093F8642042F0800283F8642027
:1054C00003B05DF804FB0720FAE700BF000A0020E4
:1054D000002937B511DD01A91068FDF7A3F850B90F
:1054E000074B019C93F86420E517C3E9024542F09D
:1054F000020283F8642003B030BD0720FBE700BF41
:10550000000A002037B50D1E144641DD01A91068C0
:10551000FDF788F8D0BB1F4B019AA3F85C20012D42
:1055200083F85E002CD06168013911F8012F3AB37D
:105530006E2A16D005D8622A1DD0632A16D00620FE
:1055400024E06F2A06D0722AF9D193F85E2042F047
:10555000200203E093F85E2062F07F0283F85E2071
:10556000E3E793F85E2042F04002F7E793F85E200D
:1055700042F01002F2E793F85E2042F00802EDE7F5
:1055800093F8652042F0040283F8652003B030BD33
:105590000720FBE7000A0020002938B5044616DD85
:1055A00015680C49284637F020FF28B920460A49DB
:1055B000BDE8384000F0ABBE0849284637F015FF7B
:1055C00028B920460449BDE8384000F0B0BE0720A5
:1055D00038BD00BF6FF60300000A002076F6030016
:1055E000002907B5134619DD082269461868FCF73B
:1055F00091F9002810DB0A4A6B4603CB92F864301D
:10560000C2F8310043F01003C2F8351082F864305C
:10561000002003B05DF804FB0620FAE70720F8E756
:10562000000A002000297FB5134619DD6C461022C0
:1056300021461868FCF76EF910280FD194E80F0086
:10564000084E06F1100585E80F0096F8643043F027
:10565000040386F86430002004B070BD0620FBE728
:105660000720F9E7000A002000291FB515DD69466B
:10567000106800F0E7FE044660B9094A6B4603CBA8
:1056800092F86430C2F8390043F02003C2F83D10AC
:1056900082F86430204604B010BD0724FAE700BF4A
:1056A000000A00202DE9F04FB1F10009C3B0804697
:1056B000154640F345816822002108A837F073FAA7
:1056C000DFF8B0B201240027A14540F31E8155F850
:1056D00024609C49304637F088FEA8B99DF8843094
:1056E00043F001038DF88430631CDBB203A955F845
:1056F0002300FCF797FF002837D1039AD317CDE991
:1057000008230234E4B2DFE78F49304637F06DFEFC
:1057100090B99DF8843043F002038DF88430631C07
:10572000DBB203A955F82300FCF77CFFE8B9039A24
:10573000D317CDE90A23E4E75946304637F055FE42
:10574000B0B99DF884200190601CC0B242F0040200
:105750008DF884200CA9102255F82000FCF7DAF807
:105760001028019B00F0CF80062043B0BDE8F08FE9
:105770007649304637F039FE8246D8B99DF8842004
:1057800042F008028DF88420621CD2B255F82260E3
:10579000304637F051FE10280746E5D81122514611
:1057A00010A837F000FA3A46314610A837F0D7F97A
:1057B0005746A6E76649304637F017FE88B99DF888
:1057C000843043F010038DF88430631CDBB2082270
:1057D00055F823000DF15101FCF79CF8002890DAF0
:1057E000C2E75C49304637F000FEA8B99DF8843026
:1057F00043F020038DF88430631CDBB204A955F814
:10580000230000F01FFE0028AFD104AB03CBCDF87E
:105810005900CDF85D1074E74F49304637F0E5FD8B
:1058200088B99DF8843043F040038DF88430631CC0
:10583000DBB203A955F82300FCF7F4FE002894D14D
:10584000039B19935DE74549304637F0CEFD98B983
:105850009DF8843043F080038DF88430631CDBB204
:1058600003A955F82300FCF7DDFE00287FF47DAF87
:10587000039BADF8683044E73949304637F0B5FD51
:1058800098B99DF8853043F001038DF88530631C8D
:10589000DBB203A955F82300FCF7C4FE00287FF40F
:1058A00064AF039BADF86A302BE72E49304637F0E2
:1058B0009CFD90B99DF8853043F008038DF8853044
:1058C000631CDBB203A955F82300FCF7ABFE0028EC
:1058D0007FF44BAF039B209313E72349304637F007
:1058E00084FD68BB631C99452ADDDBB255F8236053
:1058F000304637F0A1FD01304708802F1ED8BAB2DC
:1059000022A9304668E71F46FBE62C681749204667
:1059100037F06BFD30B9FBB222AA08A9404600F06F
:1059200013FD22E71249204637F05FFD40B9FBB274
:1059300022AA08A9404600F011FD16E7032014E74B
:10594000072012E786F6030096F60300EFF3030044
:1059500016F3030033F80300A7F6030019F303005E
:105960009AF20300B2F6030086EE03006FF603001E
:1059700076F6030098F303002DE9F04FB1F1000A29
:1059800093B08146904640F3C4800025DFF8B8B15B
:10599000ADF8145001242E46A24540F394801F2EEA
:1059A00000F3B38058F824705B49384637F01DFD8A
:1059B00040B99DF8143043F001038DF814300134E0
:1059C000E4B2E9E75549384637F00FFD20B99DF8B4
:1059D000143043F00203F0E75946384637F005FD2E
:1059E00020B99DF8143043F00403E6E74C493846EB
:1059F00037F0FBFC20B99DF8143043F00803DCE7D6
:105A00004849384637F0F1FC20B99DF8143043F08E
:105A10001003D2E74449384637F0E7FC20B99DF837
:105A2000143043F02003C8E74049384637F0DDFC26
:105A300020B99DF8143043F04003BEE73C49384696
:105A400037F0D3FC20B99DF8143043F08003B4E75D
:105A50003849384637F0C9FC30B99DF8153043F065
:105A600001038DF81530AAE73349384637F0BDFCFD
:105A7000D0B90134A2454CDDE4B258F82430039388
:105A8000184637F0D9FC01304710C6F12002BA425F
:105A90003BD30AAB9919039BBAB21846FBF73AFFFE
:105AA000002834DB3E448AE72449384637F09DFC21
:105AB00078BB0134E4B206A958F8240000F0C2FC17
:105AC00088B901257BE7D8F800401D49204637F00A
:105AD0008CFC58B9F3B205B106AD00950AAA05A928
:105AE000484600F02CFC13B0BDE8F08F1549204665
:105AF00037F07BFC68B9F3B205B106AD00950AAA90
:105B000005A9484600F025FCEDE70320EBE7062059
:105B1000E9E70720E7E700BF86F6030096F60300F3
:105B2000EFF3030016F3030033F80300A7F60300B6
:105B300019F303009AF2030086EE03007EF60300D9
:105B40006FF6030076F6030098F303002DE9F041A9
:105B5000084F094E054688460446631B984507DDF5
:105B6000386814F8012B036831465B689847F4E7FE
:105B7000BDE8F081F809002001E4030037B590F892
:105B800064309D07044607D5754B7649186803684D
:105B90005D68D4E90223A84794F86430D80707D594
:105BA0006F4B7149186803685D68D4E90023A84702
:105BB00094F86530D90707D5694BB4F84A201868BE
:105BC0006A4903685B68984794F865301A0706D5F8
:105BD000634B226E1868664903685B68984794F8BF
:105BE00064305B0606D55E4B626C186861490368D9
:105BF0005B68984794F86430DD060FD5584D5E49D0
:105C0000286803685B689847082104F13100FFF7B2
:105C10009DFF2868594903685B68984794F8643089
:105C2000980617D54E4BB4F83F101868B4F83920D1
:105C30000568B4F83B3049BA89B20191B4F83D1017
:105C400049BA89B200915BBA52BA6D684C499BB2AD
:105C500092B2A84794F8643059070ED5404D49498F
:105C6000286803685B68984710216018FFF76EFF8B
:105C70002868424903685B68984794F864301A07BB
:105C80000DD5374D4049286803685B6898472868F8
:105C90003E49036811225D6804F12003A84794F887
:105CA0006430DB0907D02E4BB4F848201868384917
:105CB00003685B68984794F865309B070FD5284DBB
:105CC0003449286803685B689847102104F14C0048
:105CD000FFF73CFF2868294903685B68984794F8F8
:105CE00065305D0739D51E4DB4F85C2028682A4917
:105CF00003685B68984794F95E30002B04DA2868E3
:105D0000264903685B68984794F85E30580604D5C6
:105D10002868234903685B68984794F85E309906C1
:105D200004D528681F4903685B68984794F85E307B
:105D3000DA0604D528681C4903685B68984794F81C
:105D40005E301B0704D52868184903685B689847CC
:105D500028680A4903685B689847002003B030BD93
:105D6000F8090020BEF60300D6F60300E0E80300C1
:105D7000EDF6030009F7030015F703000DF6030025
:105D800022F7030046F7030053F7030011EE030068
:105D900062F7030073F703007AF7030098F2030039
:105DA000990004008E030400F6EE03003CFF03009C
:105DB00000B59BB0694600F0A2FA10B96846FFF73B
:105DC000DDFE1BB05DF804FB00B59BB0694600F03A
:105DD000A6FA10B96846FFF7D1FE1BB05DF804FBC8
:105DE0002DE9F0471746124A814613600E4621B945
:105DF0001048BDE8F047FFF7C1BED7F800800E4D50
:105E0000002455F8341040464FEAC40A37F0EDFA42
:105E100038B955443A1D6B68711E4846BDE8F047D5
:105E200018470134132CECD10620BDE8F08700BFE1
:105E3000F8090020000A002090F703002DE9F04146
:105E40000A4E0B4D804600240C27D8F80030986885
:105E500007FB04F2036892595B68294601349847AE
:105E6000062CF2D10020BDE8F08100BF88F80300C5
:105E7000E8F50300043000F06ABF00000346006844
:105E8000024AD0F83401191D00F04FBFE560000050
:105E9000F0B58DB00C460746164600212C2201A80D
:105EA00036F081FE012C35D0032C35D105A93068A0
:105EB00000F0C8FA044650BB69467068FCF7B2FBB4
:105EC000044620BB009BADF8263001238DF8283016
:105ED00002243B680021D3F8340100F018FF054686
:105EE000E0B156F82440204637F0A6FA214682B2A7
:105EF000284600F0EDFB044630B901AA2946381DBA
:105F000000F02BFF044610B1284600F0D9FB2046D4
:105F10000DB0F0BD0024DCE70724F8E70324F6E722
:105F200030B5022987B0054614461AD10021142243
:105F300001A836F038FE01A9206800F083FA70B994
:105F400069466068FCF76EFB48B9009BADF81430F9
:105F500001A90123281D8DF8163000F0FAFE07B0C4
:105F600030BD0720FBE730B5022987B0054614464F
:105F70001AD10021142201A836F015FE01A92068CB
:105F800000F060FA70B969466068FCF74BFB48B9ED
:105F9000009BADF8143001A90123281D8DF816309F
:105FA00000F0D9FE07B030BD0720FBE710B538225E
:105FB000044640F8041B002136F0F5FD204610BDD4
:105FC0002DE9F14FB1F100080646174607DC002223
:105FD0001146FFF733FF072001B0BDE8F08FD2F87C
:105FE00000A0114D00244FF00C0B0BFB04F95046A0
:105FF00059F8051037F0F9F980B94D44A9686B6874
:106000004A10C90706EB020044BFB258D35808F142
:10601000FF313A1D01B0BDE8F04F18470134062C9E
:10602000E3D12046D8E700BF88F803002DE9F0430C
:1060300003689F683B68ADF2046D06460846144647
:106040000D46D3F8048000F03DFB8146284600F061
:106050003DFB2149A9EB00023846C0473368618CFB
:106060009868228A638A07680691E18B49BA89B2E7
:106070000591A18B49BA89B20491618B49BA89B261
:106080000391218B49BA89B20291E18A49BA89B256
:106090000191A18A49BA89B200915BBA52BA7C686F
:1060A0000E499BB292B2A047284600F00FFB09AC04
:1060B0002246014640F2DB53284600F00BFB00234A
:1060C0002354336806499868036822465B689847FA
:1060D0000DF2046DBDE8F0838FEC03006CF8030053
:1060E000E8F50300FFF7A2BF4B7C13F0040F37B5B0
:1060F00014BF202400241D0748BF44F01004DA0612
:1061000048BF44F008049D0648BF44F004048D7C59
:106110005A0648BF44F00204DA0918BF44F00104EB
:1061200005F0010543F3010300F5A7400A7CCDE922
:1061300000455BB210301AF0B2FD03B030BD00F57F
:10614000A7400A7C10301AF090BD29B122B100F5A9
:10615000A740103018F0C4BA0720704713B50C7D63
:106160000A7C44F3010300F5A740C4F380040094C3
:106170005BB210301AF003FE02B010BD00F5A7406C
:106180000A7C10301AF0E1BD29B122B100F5A74018
:10619000103018F04DBB0720704700F5A7401030B5
:1061A0001AF095BF01F0F3BB38B50378044623F02D
:1061B0000F0302F00F0003432046154600F8043B8E
:1061C00036F0CDFCB4F800321D44A4F8005238BDBE
:1061D00001F0D0BD01F03FBD01F0BEBD49BA418024
:1061E0007047007800F03000704740787047408872
:1061F00040BA80B27047007800F00F00704704305A
:10620000704741B112B15378022B04D800F5C64053
:10621000483000F055BE0020704700F5C6404830B9
:1062200001F0CAB900F5C640483000F011BE00F5D3
:10623000C640483001F039BB00F5C640483000F098
:1062400021BE00F5C640483000F029BE07B5002346
:1062500000F5C6400093483001F0AEF903B05DF898
:1062600004FB10B5044600F5AC40703005F05FFD4E
:1062700028B904F5AF40BDE8104006F079B910BD6B
:1062800010B500F5824400F5AF40383406F07AFAD4
:1062900030B904F5A9501830BDE8104005F0F6BC3F
:1062A00010BD00F5AF4006F096B8002200F5AF40F3
:1062B00006F015B800F5AF4005F02ABE00F5B04075
:1062C000383004F0B1BE10B400F5B040BDF8044061
:1062D00001943C305DF8044B08F00CBC00F5B04074
:1062E00054300AF0D9B800F5AF4005F057BE00F5BC
:1062F000AF4005F0BFBE00F5AF4005F028BE21B1AC
:1063000000F58540283006F0CBBD0720704721B14D
:1063100000F58540243007F0C7BB0720704721B146
:1063200000F585407C3006F0BBBD0720704721B1E9
:1063300000F58540783007F04CBC0720704700F529
:106340008540243007F0A4BA00F58540243007F0DA
:10635000D3B800F58540783007F09ABA00F585404B
:10636000783007F0C9B800F5BD40583009F098BE44
:1063700000F5BD40583009F089BE00F58440583022
:106380000AF0B2BA00F580407C300AF009BD00F591
:1063900080407C300AF011BD01F08EBD4AF2DC3342
:1063A000C05C704701F098BD01F060BD203002F084
:1063B000DDBA01F0A7BD000000487047EDF803000A
:1063C00000F58240383009B11CF02EB91CF05DB9DF
:1063D00045F26C63C05C704744F23C13C058704790
:1063E00000F5824038300CF05EBA00F5824038305B
:1063F0000CF09FBA44F24013C058704700F5824039
:1064000038300CF09BB900F5824038300CF0C4B93C
:1064100044F24513C05C704744F24513C1547047C1
:106420001CF092BC1CF028BD0B4611B14A78022A20
:1064300006D8002200F5C7401146443002F00ABADF
:10644000002070470B46014618460BF0FABC10B10D
:1064500009B10BF0E3BC0020704700F5BC401430DC
:1064600008F0B4BC00F5BC40143008F060BD08B5BD
:1064700000F5BC40143008F09BFC002008BD10B5AE
:10648000044690B019B901F04AFD10B010BD00F5F6
:10649000884001AA083002F00DFD01A92046F2E76C
:1064A00001F047BD44F21043C05C704738B544F278
:1064B0004373C35C93B900F5824404F5427002F063
:1064C000A6FE3834054638B904F5B67007F0EAFA86
:1064D00004F5E07007F03CFB284638BD0D25FBE7CE
:1064E00000F588404630704710B5044679B144F253
:1064F0004373C35C6BB900F58840403004F035FB52
:1065000004F58E403830BDE8104010F0D0BA0720B6
:1065100010BD0D20FCE71FF053BE44F20E43C05ADD
:10652000704738B544F24373C35C83B900F58244C5
:1065300004F5427002F0A3FD054604F5D27007F0A1
:10654000B1FA04F5FC7007F003FB284638BD0D25B1
:10655000FBE700F58E4018300DF0C5BA00F58E400F
:1065600018300DF0BBBB44F25063C05C704700F5BF
:106570008A40103003F028BE21B100F58A40103067
:1065800003F029BE0720704721B100F58A40103082
:1065900003F039BE0720704700F58A40103003F041
:1065A0003EBE29B122B100F58A40103003F03FBE53
:1065B0000720704700F58A40103003F057BE00F501
:1065C0008A40103003F06ABE00F58A40103003F0B4
:1065D00074BE29B122B100F58A40103003F077BEB5
:1065E0000720704710B500F588400C46083003F0CE
:1065F00084FB2146BDE810400DF04FBE10B500F5FC
:1066000088400C46083003F078FB2146BDE8104076
:106610000DF0FCBD00F58840083003F047BB00F5E5
:1066200088400830407800F00100704710B545F20E
:106630006C63C45C34B900F58840083003F039FB62
:10664000204610BD0D20FCE745F26C63C35C23B906
:1066500000F58840083003F045BB0D20704700F579
:10666000894008307047000070B504460D46164654
:106670001946049A01F050FC04F58840049432460F
:106680002946034B0830BDE8704002F04BBE00BF06
:106690007F64000070B504460D4616461946049AFC
:1066A00001F044FC04F58840049432462946034B2B
:1066B0000830BDE8704002F058BE00BFA164000081
:1066C00001F0C9BCC08B704701F0C9BC008C704799
:1066D00001F0CCBD10B51C461346224601F02BFD3F
:1066E00010BD73B58023054600F5C7400B804430CC
:1066F0000C4601F08EFC05F58C466080A21D211D24
:1067000006F1700002F0F7F804F10A0204F1080142
:1067100005F58D4001F05CFF06F5827005F58246B7
:1067200004F11A0204F11801383601F051FF304625
:1067300001F008FC04F10E0204F10C01103002F02B
:10674000DAF8304601F0FEFB04F1120204F1100108
:10675000E03001F03DFF05F58F4004F1160204F131
:106760001401203001F034FF05F5844004F11E02CD
:1067700004F11C01183001F02BFF05F584400DF1E8
:10678000060201A93C3001F023FFA38BBDF80420D1
:106790001344A383BDF80620E38B05F5BB401344E7
:1067A000E38304F1220204F12001043001F010FF20
:1067B00005F5BB400DF1060201A9283001F008FFE4
:1067C000238CBDF8042013442384BDF80620638C79
:1067D00005F5C7401344638404F1260204F1240143
:1067E000043001F0F5FE05F5C7400DF1060201A9E0
:1067F000283001F0EDFEA38CBDF804201344A384DF
:10680000BDF80620E38C1344E38402B070BD10B4DD
:106810003AB133B100F5A9401C305DF8044B18F0D3
:1068200077BB07205DF8044B704729B122B100F512
:10683000A9401C3017F054BF072070471FB591F8CE
:1068400007210B7A029201F58472019291F80621D8
:1068500002F00102009200F5A74001F10902103098
:1068600049681AF0DEFA05B05DF804FB00F5A740B0
:1068700010301AF0C3BA10B50446FFF78FFD28B1E7
:1068800004F10800BDE8104002F0DAB910BD44F68A
:106890002C03C058704700F58E40383012F0C0BF4E
:1068A00000F5884018307047F7B544F24373064648
:1068B000C45C0F460CBB00F5824505F5427002F042
:1068C000F7FB02A9FD2301F8083D06F58E403B6861
:1068D000CDF8013038303B798DF80530ADF8064001
:1068E00010F076F905F5D27007F0DCF805F5FC70CC
:1068F00007F02EF9204603B0F0BD0D20FBE744F26F
:106900006C7382B0C35C002218078DF8042044BF6A
:1069100001228DF80420590742BF9DF8042042F05F
:1069200002028DF804209A0742BF9DF8042042F02D
:1069300004028DF80420DB0742BF9DF8043043F0C9
:1069400008038DF804309DF8040002B0704711F080
:10695000010F0CBF002308238A0748BF43F004033C
:106960004A0748BF43F002030A0748BF43F0010348
:1069700000F58E401946383012F06BBF00F58640A6
:106980005C300DF048BA38B5A1B144F24373C35C32
:1069900093B900F5824404F517700DF09FFA05468F
:1069A00004F5D27007F07EF804F5FC7007F0D0F81B
:1069B000284638BD0725FBE70D25F9E700F5884097
:1069C0002030704738B544F24373C35C83B900F597
:1069D000824404F5427002F04FFB054604F5D27084
:1069E00007F060F804F5FC7007F0B2F8284638BDEF
:1069F0000D25FBE744F26C33C058704700F5864024
:106A00005C300DF03ABB44F2C833C058704744F2D2
:106A1000C833C150704700F58E40383011F0EABCE1
:106A200000F58E400021383011F083BC2AB121B12D
:106A300000F58E40383014F03CBC0720704744F21B
:106A40004373C05C704721B100F58E40383010F0C0
:106A500021BC0720704700F58E40383010F06ABA2C
:106A600038B50C46002936D000F58E40383013F08A
:106A7000FDFA0368236043686360038B2381038B03
:106A80009B12A37290F82430E37290F82530C3F380
:106A900083032373837F637390F82530C3F301036B
:106AA0000546A3731FF015FAAB68C01A4FF47A734A
:106AB000B0FBF3F0237CE07343F001032374AB7E5F
:106AC00003F00703DA1F53425341227C63F3410270
:106AD0002274002038BD0720FCE700F5AC402430CC
