:1010000000000420F1B8020035B9020037B902002F
:1010100039B902003BB902003DB9020000000000EE
:101020000000000000000000000000003FB90200C6
:1010300041B902000000000043B9020045B90200B6
:10104000858802007DEE020047B9020047B9020020
:1010500047B9020047B9020047B9020047B9020088
:1010600047B9020047B9020047B9020047B9020078
:1010700047B90200A17F020047B9020047B9020048
:1010800047B9020047B9020047B9020047B9020058
:1010900047B9020047B9020047B9020047B9020048
:1010A00047B9020047B9020047B9020047B9020038
:1010B00047B9020047B9020000000000000000002C
:1010C00047B9020047B9020047B9020047B9020018
:1010D0006173020047B9020047B90200419802005B
:1010E00047B9020047B9020047B9020000000000FA
:1010F0000000000047B902000000000047B90200EC
:1011000000000000000000000000000000000000DF
:1011100000000000000000000000000000000000CF
:1011200000000000000000000000000000000000BF
:1011300000000000000000000000000000000000AF
:10114000000000000000000000000000000000009F
:10115000000000000000000000000000000000008F
:10116000000000000000000000000000000000007F
:10117000000000000000000000000000000000006F
:10118000000000000000000000000000000000005F
:10119000000000000000000000000000000000004F
:1011A000000000000000000000000000000000003F
:1011B000000000000000000000000000000000002F
:1011C000000000000000000000000000000000001F
:1011D000000000000000000000000000000000000F
:1011E00000000000000000000000000000000000FF
:1011F00000000000000000000000000000000000EF
:1012000010B5054C237833B9044B13B10448AFF340
:1012100000800123237010BD780100200000000031
:101220001C4F050008B5034B1BB103490348AFF33E
:10123000008008BD000000007C0100201C4F05005C
:10124000A3F5803A704700BF174B002B08BF134B24
:101250009D46FFF7F5FF00218B460F461348144AC1
:10126000121A4AF0DFFA0E4B002B00D098470D4BB4
:10127000002B00D098470020002104000D000D48ED
:10128000002802D00C48AFF300804AF069FA200031
:10129000290000F015F84AF03DFA00BF00000800F0
:1012A0000000000000000000000004207801002081
:1012B00060190320000000000000000070470000DB
:1012C00070B505460E463146284626F065FC05F009
:1012D000C4FE044628B90B4B0B4A0C486B214AF05C
:1012E000FBF900F043F826F089FC18B1204605F020
:1012F000BBFEE8E7204606F020F9204626F084FCF5
:10130000F1E700BFC4CF040022D00400CDCF040019
:101310004FF0FF307047B0F82A3BB0F82C1BC3F5F4
:1013200000629142C8BF91B2A0F82E1B21B100F219
:101330002A30184426F0EABF7047000010B5094B68
:10134000044640F8043B00F009F9074B23600023F2
:10135000A4F82833A4F82A3BC4F82C3B26F0CEFF8F
:10136000204610BD30D004003CD0040010B5044C21
:1013700001462046FFF7E2FF024B1C6010BD00BF94
:1013800098010020300D002010B504460020B4F86C
:101390002823531EE11891F828110A2901D00D299C
:1013A00006D1A4F8283314FA83F383F82801EEE772
:1013B0002AB1234604F59471201D03F067F900203B
:1013C000A4F8280310BD00002DE9F8432A4FDFF8E8
:1013D000AC80DFF8AC9004460D468E18B54248D27A
:1013E0002B780D2B2DD016D8082B16D00A2B28D0F1
:1013F000B4F82833B3F5FF7F39D8236801221B687E
:10140000294620469847B4F828335A1CA4F82823C4
:101410002A78234412E07F2BEAD1B4F8283333B37F
:10142000236803221B68494620469847B4F82833AE
:10143000013B9BB2A4F828330022234483F82821DF
:1014400015E0236802221B68394620469847B4F805
:10145000283333B12344002283F828212046FFF7A4
:1014600093FF236802221B684146204698470135B6
:10147000B4E7BDE8F88300BF45D0040043D00400C2
:1014800040D00400024B0A4601461868FFF79CBF93
:10149000300D0020B0F82E3B0BB9FFF73CBF704772
:1014A000B0F82E1BB0F82A2B0A44C2F30A02A0F8A7
:1014B0002A2BB0F82C2B521AA0F82C2B0022A0F8C3
:1014C0002E2BFFF728BF2DE9F04105460E4690462A
:1014D0000027B8F1000F2DD0B5F82C4BC4F50064EF
:1014E000A4B2444528BF4446301986420FD0B5F80F
:1014F0002C2BB5F82A3B16F8011B1344C3F30A033F
:101500002B44013283F82A13A5F82C2BEDE7A8EB26
:10151000040828463C441FFA88F8FFF7BBFFA7B22F
:10152000B8F1000F06D026F011FF18B92846FFF7D2
:10153000B7FFCEE73846BDE8F0810000014B1868E0
:10154000FFF7AEBF300D0020D0F8200105F090BDB0
:10155000D0F8200105F08ABD00BA70471C4A4FF44C
:101560007A7370B5C0E9032303460025194A056064
:1015700005718560456143F8282F044603630E46D4
:1015800080F840500146803005F05AFA2146C4F8F0
:10159000BC4004F1C00003F033FE22463046C4E9EB
:1015A00046440D49C4F8206105F096FF0B4BD4F872
:1015B0002001C4E90D3404F1340105F044FD3E225C
:1015C000294604F141004AF02DF9204670BD00BFC4
:1015D00008000100CD3900003D4E000049380000F0
:1015E0002DE9F84380460C46154699464AF04BFDD6
:1015F00008EB000600F00107B9F1000F17D000203A
:1016000042460146B24218D212F8013BA3F1410C06
:10161000BCF1050F13D8373B0B43DBB2E7B1013008
:10162000854204F8013B08D000273946EAE7431C0D
:10163000B5EB530FE3D24FF0FF30BDE8F883A3F1D1
:10164000610CBCF1050F01D8573BE5E7303BDBB23D
:10165000092BF0D80B43E1E71B01D9B20127D1E7F1
:1016600013B5846831B90A49204602B0BDE810407C
:1016700005F06DB90846019107F038FB019A05495C
:101680000346204602B0BDE8104005F060B900BF37
:1016900047D004004ED004002DE9F041124F134E04
:1016A000044600254FF00C0808FB05F3A068DA5942
:1016B0003146013505F04BF9412DF5D10B4E002592
:1016C0002279EBB29A4208D92268A06852F83320F6
:1016D000314605F03CF90135F2E720460021BDE82E
:1016E000F041FFF7BDBF00BFCCE1040058D00400BB
:1016F00010B504468AB06946D0F8200105F051FEC5
:10170000BDF800202B49A06805F021F9BDF80220A2
:101710002949A06805F01BF9BDF80630BDF8042082
:101720002649A06805F013F9BDF80A30BDF8082075
:101730002349A06805F00BF9BDF80E30BDF80C2068
:101740002049A06805F003F9BDF81230BDF810205B
:101750001D49A06805F0FBF8BDF81630BDF814204F
:101760001A49A06805F0F3F8BDF81A30BDF8182042
:101770001749A06805F0EBF8BDF81E30BDF81C2035
:101780001449A06805F0E3F8BDF82230BDF8202028
:101790001149A06805F0DBF8BDF82630BDF824201B
:1017A0000E49A06805F0D3F800212046FFF758FF46
:1017B0000AB010BD5DD0040069D0040074D00400EC
:1017C00086D0040098D00400A5D00400B2D0040054
:1017D000BFD00400EDD00400CCD00400E1D0040060
:1017E00010B50446C03003F063FD01462046BDE855
:1017F0001040FFF735BF0000F8B504460D4669B943
:101800008949806805F0A3F88849A06805F09FF829
:1018100029462046BDE8F840FFF722BF16688449F4
:1018200030464AF01EFC0746002840F0B580012DE6
:1018300040F0A480D4F8200105F08CFD0546026834
:101840007C49A06805F083F86A687B49A06805F0C8
:101850007EF8AA687949A06805F079F8EA687849BD
:10186000A06805F074F82A697649A06805F06FF859
:101870006A697549A06805F06AF8AA697349A068A1
:1018800005F065F8EA697249A06805F060F82A6A0F
:101890007049A06805F05BF86A6A6F49A06805F0B6
:1018A00056F8AA6A6D49A06805F051F8EA6A6C49D1
:1018B000A06805F04CF8AA6B6A49A06805F047F8E3
:1018C0002A6C6949A06805F042F86A6C6749A0680B
:1018D00005F03DF8AA6C6649A06805F038F8EA6C96
:1018E0006449A06805F033F82A6D6349A06805F0E3
:1018F0002EF86A6D6149A06805F029F8AA6D604963
:10190000A06805F024F8EA6D5E49A06805F01FF8AC
:101910002A6E5D49A06805F01AF86A6E5B49A068F6
:1019200005F015F8AA6E5A49A06805F010F8EA6E9D
:101930005849A06805F00BF82A6F5749A06805F0D0
:1019400006F86A6F5549A06805F001F8AA6F544976
:10195000A06804F0FCFFEA6F5249A06804F0F7FFAA
:10196000D5F880205049A06804F0F1FFD5F8842014
:101970004E49A06804F0EBFF3D4649E7022D51D1E6
:101980004B4930464AF06DFB054600284AD1D4F851
:10199000200105F0E3FC3BE7464930464AF061FB95
:1019A000074600283ED1012D2FD1D4F8200105F0A3
:1019B00028FF054602884049A06804F0C8FF6A88ED
:1019C0003E49A06804F0C3FFAA883D49A06804F01E
:1019D000BEFFEA883B49A06804F0B9FF2A893A496A
:1019E000A06804F0B4FF6A893849A06804F0AFFF2A
:1019F000AA893749A06804F0AAFFEA893549A06896
:101A000004F0A5FF2A8A3449B3E7022D0AD12849F8
:101A100030464AF026FB054620B9D4F8200105F0EF
:101A2000F5FEF5E60725F3E6FBD0040001D104003E
:101A300007D104000BD1040019D104002DD10400FA
:101A400043D104005CD104006ED1040089D10400AC
:101A50009AD10400AFD10400C2D10400DCD104004B
:101A6000EED1040000D2040013D204002ED20400F0
:101A70003CD2040050D2040066D2040077D20400A5
:101A80008CD204009FD20400B9D20400CBD204004F
:101A9000E7D2040004D304001BD3040032D30400B3
:101AA00053D3040071D3040084D3040097D30400FB
:101AB00023E00400ACD30400B0D30400C4D304007A
:101AC000D8D30400E9D30400FBD3040039D40400C4
:101AD0000DD4040028D404004FD4040038B50546C2
:101AE0000C4681B9D0F8200105F0D5FA48B111496A
:101AF000A86804F02CFF21462846BDE83840FFF7CF
:101B0000AFBD0D49F4E714680C4920464AF0A9FA24
:101B100030B90121D5F8200105F0B0FA0446EAE712
:101B2000074920464AF09DFA01460028F2D00724D2
:101B3000E1E700BF64D4040069D4040070D4040059
:101B400073D4040037B504466946D0F8200105F087
:101B5000CEFD0546E0B9009A1049A06804F0F7FEF2
:101B60009DF804200E49A06804F0F1FE9DF80520C0
:101B70000C49A06804F0EBFE9DF806200A49A06815
:101B800004F0E5FE9DF807200849A06804F0DFFE98
:101B900029462046FFF764FD03B030BD78D4040029
:101BA0008BD40400A2D404009BD40400B5D4040058
:101BB0002DE9F041054686B016460C46D9B9D0F855
:101BC0002001DFF8908005F0FAFE471E00F10F06B5
:101BD00017F8012FA868414604F0B9FEB742F7D1C3
:101BE0001A49A86804F0B3FE21462846FFF738FDDD
:101BF00006B0BDE8F081012910680DD10023102244
:101C000002A9FFF7EDFC10281ED1D5F8200102A98A
:101C100005F0D9FE0446E7E70D494AF022FA98B9E3
:101C2000D5F82001746805F017FD0190D5F8200162
:101C300005F099FC0199024602AB204605F0E9F94E
:101C400004460028E1D0CFE70724CDE729DF0400D0
:101C5000D1D40400CCD404002DE9FF4105460C4644
:101C60001046D9B9D5F82001DFF8588005F0C5FC39
:101C7000471E00F10F0617F8012FA868414604F02F
:101C800066FEB742F7D10E49A86804F060FE21460F
:101C90002846FFF7E5FC04B0BDE8F08100680023AA
:101CA00010226946FFF79CFC102806D1D5F82001C8
:101CB000694605F0A7FC0446E9E70724E7E700BF0B
:101CC00029DF0400CCD4040073B5002304468DF84A
:101CD00004300D4671BBD0F8200105F06CFC8DF886
:101CE0000400C00703D53349A06804F030FE9DF816
:101CF0000430990703D53049A06804F028FE9DF808
:101D000004305A0703D52D49A06804F020FE9DF841
:101D100004301B0703D52A49A06804F018FE29499E
:101D2000A06804F014FE2946204602B0BDE87040C9
:101D3000FFF796BC1168184601391D461E4611F87A
:101D4000012F92B1722A0AD005D8642A09D06E2ACE
:101D500009D00725E7E7732AFBD10125EFE7012624
:101D6000EDE70120EBE70123E9E72EB19DF8042020
:101D700042F001028DF804202DB19DF8042042F0BC
:101D800002028DF8042028B19DF8042042F00402DC
:101D90008DF804202BB19DF8043043F008038DF832
:101DA00004309DF80410D4F8200105F014FC054619
:101DB000B9E700BF0CF0040008EF040033DA0400B8
:101DC000DDEF040029DF04002DE9F04F8BB0002384
:101DD0000446ADF8023059B11668474930464AF01A
:101DE00040F9054630B1454930464AF03AF948B124
:101DF00007217BE04249A06804F0A9FD4149A068A1
:101E000004F0A5FDDFF81C81DFF81C91DFF81CA1B0
:101E1000D4F8200101AA0DF1020105F05AFC0028B6
:101E20005FD1A068002D56D19DF82430DFF800B1B5
:101E300013F0100F14BF43225222494604F087FDCD
:101E4000BDF81020A068514604F081FD039A2E4988
:101E5000A06804F07CFD9DF91D202C49A06804F0C9
:101E600076FD9DF91E202A49A06804F070FD9DF8BA
:101E700024202849A06802F0010204F068FD9DF8C2
:101E800024202449A068C2F3400204F060FD9DF8BC
:101E900024202049A068C2F3800204F058FD9DF878
:101EA00024201C49A068C2F3C00204F050FD1A4966
:101EB000A06804F04CFD01AE2F4616F8012BA06877
:101EC0005946013704F043FD082FF6D11349A068A5
:101ED00004F03DFD9CE7BDF81020414604F037FDBD
:101EE00096E70F49A06804F032FD00212046FFF775
:101EF000B7FB0BB0BDE8F08FD4D4040078DB04004E
:101F0000DAD4040026D5040084D504008BD504005F
:101F100092D5040099D50400AFDA040007D9040073
:101F200029DF04007CD5040072D504007AD50400B2
:101F3000CCD4040010B50446D0F8200104F041FFD1
:101F400001462046BDE81040FFF78ABB38B505467C
:101F50000C46D0F8200169B905F07EFB084903461C
:101F60001022A86804F0F3FC21462846BDE838405A
:101F7000FFF776BB116805F073FB0446F4E700BF7A
:101F80009ED504002DE9F04186B0044601A9D0F8A1
:101F9000200105F0C8FB054660BB1A49A068DFF8C0
:101FA0007C8004F0D4FC01AE2F4616F8012BA0680B
:101FB0004146013704F0CBFC082FF6D11249A06846
:101FC00004F0C5FCBDF80C201049A06804F0BFFC6B
:101FD0009DF811200E49A06804F0B9FC9DF812206C
:101FE0000C49A06804F0B3FC9DF813200A49A068CE
:101FF00004F0ADFC29462046FFF732FB06B0BDE8F1
:10200000F08100BFA5D5040029DF0400B0D504008D
:10201000BBD50400D1D50400E8D50400CCD404001D
:1020200037B504460D46B1B9D0F8200105F06BF97B
:1020300078B1D4F8200125F091FB50B11749A06880
:1020400004F085FC2946204603B0BDE83040FFF788
:1020500007BB1349F3E71568124928464AF001F80F
:1020600060B91149D4F82001224605F047F9012151
:10207000D4F8200105F04EF90546E3E70B49284660
:1020800049F0EFFF014638B902460190D4F820012B
:1020900005F034F90199EBE70725D3E7F2D5040001
:1020A000E2DA0400FCD50400F13A000003D6040093
:1020B00038B585680446D0F8200105F02EFB0549A7
:1020C0000246284604F043FC20460021BDE8384083
:1020D000FFF7C6BA97D7040038B505460C4681B954
:1020E000D0F8200105F0ABFB48B11149A86804F015
:1020F0002EFC21462846BDE83840FFF7B1BA0D490D
:10210000F4E714680C49204649F0ABFF30B90121CF
:10211000D5F8200105F099FB0446EAE70749204677
:1021200049F09FFF01460028F2D00724E1E700BFF5
:10213000F2D50400E2DA0400FCD5040003D6040062
:1021400010B50446D0F8200105F042FB48B106491D
:10215000A06804F0FCFB20460021BDE81040FFF71A
:102160007FBA0249F4E700BF0BD6040012D6040080
:1021700070B505460C4619BBD0F8200105F0B2FA3F
:10218000064604281AD8DFE800F0030E13151700DE
:102190002149A86804F0DBFB344621462846BDE807
:1021A0007040FFF75DBA1D49A86804F0D0FBF4E762
:1021B0001B49F9E71B49F7E71B49F5E71B49F3E71B
:1021C00014681B49204649F04CFF28B9D5F8200176
:1021D00005F072FA0446E0E71649204649F041FF4F
:1021E00020B9D5F8200105F06DFAF3E71249204631
:1021F00049F037FF20B9D5F8200105F07DFBE9E76C
:102200000E49204649F02DFF20B9D5F8200105F0F0
:1022100084FBDFE70724C0E71AD6040025D60400B4
:1022200030D6040038D6040041D604004AD6040053
:102230005AD6040086F2040063D604006AD604006D
:1022400070B5054639B314681549204649F009FFB1
:1022500050B90121D5F8200105F0A7FA014628461A
:10226000BDE87040FFF7FCB90E49204649F0F9FE81
:1022700001460028EED020460B4949F0F2FE044604
:1022800058B9AE6805F0A2FA08490246304604F093
:102290005EFB2046E2E70720E0E72320DEE700BF01
:1022A00071D6040077D604007CD6040098DC0400C4
:1022B00010B50446BC3004F04BFA01462046BDE898
:1022C0001040FFF7CDB910B50446803004F09EFCF5
:1022D00001462046BDE81040FFF7C2B910B50446DC
:1022E00004F0C8FE05490246A06804F030FB204611
:1022F0000021BDE81040FFF7B3B900BF58D004007B
:1023000010B5044600F58C7003F0AEFB0146204684
:10231000BDE81040FFF7A4B910B5044600F58E7073
:1023200004F0B2FA01462046BDE81040FFF798B924
:102330002DE9F041DFF8208005460E4617460024BF
:10234000A74206DD325DA868414604F000FB013477
:10235000F6E7BDE8F08100BFCCD4040037B50446F1
:102360000D4699B9D0F82001694604F025FF694669
:1023700020460822FFF7DCFF0549A06804F0E7FAD1
:1023800029462046FFF76CF903B030BD0725F7E773
:1023900029DF040037B505460C46104691B9D5F83B
:1023A000200104F0F1FE082201462846FFF7C0FF95
:1023B0000D49A86804F0CBFA21462846FFF750F9EA
:1023C00003B030BD0068002308226946FFF708F912
:1023D000002801DA0724EFE7D5F82001694604F068
:1023E000D7FE0446E8E700BF29DF040037B50546FD
:1023F0000C46104691B9D5F8200105F0B4F8082232
:1024000001462846FFF794FF0D49A86804F09FFA9B
:1024100021462846FFF724F903B030BD00680023A9
:1024200008226946FFF7DCF8002801DA0724EFE705
:10243000D5F82001694605F09AF80446E8E700BFA0
:1024400029DF040030B5C3B0FF238DF80730044600
:102450000DF10703D0F8200102AA002105F030F8A1
:10246000054648B902A920469DF80720FFF760FFFE
:102470000449A06804F06BFA29462046FFF7F0F8FB
:1024800043B030BD29DF040010B5CC894B880A88E1
:1024900086B064BAA4B205948C8964BAA4B20494D8
:1024A0004C8964BAA4B203940C8964BAA4B20294AD
:1024B000CC8864BAA4B20194898849BA89B20091DF
:1024C0005BBA52BA034980689BB292B204F03FFAF9
:1024D00006B010BD84D604002DE9F04F04468FB03D
:1024E0000D46C1BBD0F82001DFF8B0A0DFF8B090F6
:1024F00005F094F92F468046AB46BEB2B0453DD9B3
:10250000D4F82001ADF806B006AA314605F028FA45
:10251000F8B99DF83430C3F30012DB0619D4ADF8D6
:102520000620D4F8200102AB0DF10602314605F079
:102530001FFA70B9BDF82820A068514604F007FAC8
:1025400002A92046FFF7A0FFA068494604F0FFF962
:10255000E7E70137D1E70F49106849F082FD0646E9
:1025600098B9012D13D1D4F82001A56805F061F9BF
:1025700009490246284604F0EAF93546294620462C
:10258000FFF76EF80FB0BDE8F08F2325F6E70725BB
:10259000F4E700BF9BDF04008CD704009CD6040046
:1025A00029DF040030B500238FB0CDE901330D4D94
:1025B0000446D4F8200101AA03A905F0F8F928B1CE
:1025C00000212046FFF74CF80FB030BD03A920468C
:1025D000FFF75AFFBDF81C20A068294604F0B7F9A0
:1025E000E7E700BF96D7040013B500220C4601A907
:1025F00049F0FAFD019B20601878002818BF0720D9
:1026000002B010BD73B505460C4679B98668D0F89E
:10261000200104F09AFD1A490246304604F097F969
:1026200021462846FFF71CF802B070BD1668154910
:10263000304649F016FD044638B9D5F82001AE6899
:1026400011F050FB10490246E7E71049304649F0C7
:1026500008FD044628B9D5F82001AE6811F046FB04
:10266000F0E701A93046FFF7BFFF04460028D7D1A5
:102670009DF80410D5F8200104F06CFD0446CFE766
:102680008CD70400A3D60400ADD60400B4D6040051
:102690002DE9F04F04468DB0002900F01681166830
:1026A0008B49304649F0DDFC054600287FD089493A
:1026B000304649F0D6FC002800F0818003A930465E
:1026C000FFF792FF0546002840F0F880BDF80C1097
:1026D000D4F8200104AA05F03BF90546002840F093
:1026E000ED80BDF822207C49A068DFF8408204F02C
:1026F0002EF9BDF820207949A06804F028F978491E
:10270000A06804F024F904AE2F4616F8012BA06847
:102710004146013704F01BF9082FF6D17149A06832
:1027200004F015F97049A06804F011F99DF82C30F7
:10273000D80703D56D49A06804F009F99DF82C303D
:10274000990703D56A49A06804F001F99DF82C3077
:102750005A0703D56749A06804F0F9F89DF82C30B2
:102760001B0703D56449A06804F0F1F85D49A0682F
:1027700004F0EDF89DF824206049A06804F0E7F823
:10278000069A5F49A06804F0E2F8079A5D49A068DC
:1027900004F0DDF89DF825205B49A06804F0D7F827
:1027A0009DF926205949A06804F0D1F886E05849DF
:1027B000A06804F0CCF85749A06804F0C8F8D4F831
:1027C0002001DFF87091DFF870A1DFF870B105F03B
:1027D00025F800278046B9B241456AD2D4F82001D5
:1027E00004AA05F0BDF800285DD19DF82C30DE0666
:1027F00059D4A068BDF82220002D56D1514604F0CE
:10280000A6F8BDF82020A068594604F0A0F8069A62
:102810004149A06804F09BF8079A3F49A06804F07A
:1028200096F89DF825203D49A06804F090F89DF8A1
:1028300024203B49A06804F08AF89DF82C203949EF
:10284000A06802F0010204F082F89DF82C203549BE
:10285000A068C2F3400204F07AF89DF82C203149B8
:10286000A068C2F3800204F072F89DF82C202D4974
:10287000A068C2F3C00204F06AF82B49A06804F013
:1028800066F82A4904AE2B4616F8012BA06801937E
:1028900004F05DF8019B25490133082BF4D124494C
:1028A000A06804F054F8013795E7494604F04FF862
:1028B000F9E70C49A06804F04AF8002529462046AB
:1028C000FEF7CEFE0DB0BDE8F08F0725F6E700BF9E
:1028D000D4D4040078DB040082D7040091D704002C
:1028E000A5D5040029DF04009ED704000CF00400E5
:1028F00008EF040033DA0400DDEF0400A5D704007C
:10290000B4D70400E8D50400BBD50400C2D7040046
:10291000BED6040015D704006CD7040074D7040099
:102920007BD7040099D50400AFDA0400CCD40400AE
:1029300007D904009BDA040084D504007AD504008A
:1029400073B505460C4679B98668D0F8200104F0C5
:1029500065FF0D490246304603F0F9FF214628463F
:10296000FEF77EFE02B070BD106801A9FFF73CFEC5
:1029700004460028F2D1BDF80410D5F8200104F077
:1029800052FF0446EAE700BF8CD7040073B5054642
:102990000C4679B98668D0F8200104F0D9FD0C49BD
:1029A0000246304603F0D3FF21462846FEF758FE84
:1029B00002B070BD106801A9FFF716FE044600289A
:1029C000F2D10199D5F8200104F0C7FDECE700BF72
:1029D0008CD7040037B5044679B98568D0F8200152
:1029E00004F062FF0B490246284603F0B0FF0021C5
:1029F0002046FEF735FE03B030BD106801A9FFF791
:102A0000F3FD0028F3D10199D4F8200104F051FF1F
:102A1000EDE700BF8CD7040010B5044686B049B17D
:102A2000106805A9FFF7E0FDD8B9059B1F2B17D843
:102A3000012199400D4B01930023D4F82001029409
:102A400000934FF6FF7204F0C9FE50B90849A06820
:102A500003F07DFF0749A06803F079FF06B010BDC1
:102A6000072001462046FEF7FBFDF7E7E1400000A6
:102A7000CDD7040026D804002DE9F04192B007AF6D
:102A800088460446154635232C22002138460393F8
:102A900048F0C8FEB8F1000F4FD02949286849F026
:102AA000E0FA002845D194F84030002B43D1B8F12A
:102AB000010F42D969680191084649F0E4FA3D28BE
:102AC0003BD804F141060199304649F0D4FAB8F1F7
:102AD000020F09D0A9680BA810F0ABF808B30146A3
:102AE0002046FEF7BDFD19E016490BA810F0A1F82D
:102AF0000028F4D1039BADF83E3000238DF8183048
:102B0000114AD4F82001234604A9CDE9046704F052
:102B100094FA0028E3D1012384F8403012B0BDE8D4
:102B2000F081B8F1030FE5D0E86803A9FFF75CFD79
:102B3000DEE72320D3E70520D1E70720CFE700BF5A
:102B40007FD8040087D80400193500004B1E012BE4
:102B50002DE9F34105460F46164641D8D2F80080CC
:102B60002049404649F07DFA0446F0B9012F0AD1C8
:102B7000D5F82001AE6804F08CFD02461A493046B3
:102B800003F0E5FE0AE0706801A9FFF72DFD044699
:102B900020B90199D5F8200104F080FD214628468E
:102BA000FEF75EFD02B0BDE8F0811049404649F0F5
:102BB00058FA0446A0B9012F05D1D5F82001AE6816
:102BC00004F072FDD9E7706801A9FFF70DFD044616
:102BD0000028E3D10199D5F8200104F069FDDDE773
:102BE0000724DBE79CD804008CD70400A4D8040099
:102BF00073B505460C4679B98668D0F8200104F013
:102C000030FE0C490246304603F0A1FE214628461C
:102C1000FEF726FD02B070BD106801A9FFF7E4FCC5
:102C200004460028F2D19DF80410D5F8200104F0E4
:102C30001DFEEBE78CD70400F0B50546ADF5057D2C
:102C400014460E4600295BD017682F49384649F0D4
:102C500008FA002839D1032E52D9606802A9FFF77B
:102C6000C3FC58B9A168029B01910846049349F03E
:102C70000AFAFC280199024607D903200146284692
:102C8000FEF7EEFC0DF5057DF0BD8DF814000DF19D
:102C9000150048F09FFDE1680191084649F0F3F9FD
:102CA000F8280246E9D801998DF8130145A848F0A3
:102CB00091FD9DF81231D5F8200143F0010303A9DD
:102CC0008DF8123104F01AFCD8E71049384649F063
:102CD000C8F9B8B9022E039012D9606803A9FFF7AA
:102CE00083FC0028CAD1A2680192104649F0CBF9B2
:102CF000019A0399C3B2D5F8200104F018FCBDE78E
:102D00000720BBE72320B9E7AED80400B2D80400FF
:102D100073B505460C4679B98668D0F8200104F0F1
:102D2000CDFD0C490246304603F011FE21462846EF
:102D3000FEF796FC02B070BD106801A9FFF754FCC5
:102D400004460028F2D19DF80410D5F8200104F0C3
:102D5000BAFDEBE78CD7040073B505460C4679B98C
:102D60008668D0F8200104F02DFA0D49024630465D
:102D700003F0EDFD21462846FEF772FC02B070BD5F
:102D8000106801A9FFF730FC04460028F2D1BDF815
:102D90000410D5F8200104F01AFA0446EAE700BF4F
:102DA000B1DE040073B505460C4679B98668D0F8E3
:102DB000200104F020FE0D490246304603F0C7FD15
:102DC00021462846FEF74CFC02B070BD106801A9F0
:102DD000FFF70AFC04460028F2D19DF90410D5F84B
:102DE000200104F00DFE0446EAE700BF8CD7040082
:102DF00073B505460C4679B98668D0F8200104F011
:102E0000FEF90C490246304603F0A1FD2146284652
:102E1000FEF726FC02B070BD106801A9FFF7E4FBC5
:102E200004460028F2D10199D5F8200104F0EDF90B
:102E30000446EBE78CD7040013B5044681B1106853
:102E400001A9FFF7D1FB28B99DF80410D4F820019F
:102E500004F048FD01462046FEF702FC02B010BD1A
:102E60000720F7E72DE9F04F044689B0002900F06C
:102E7000F08015687849284649F0F3F8064600289E
:102E800073D07649284649F0ECF8002875D02846DA
:102E900002A9FFF7A9FB0546002840F0CE80BDF847
:102EA0000810D4F8200103AA04F079FD0546002893
:102EB00040F0C3809DF81C206949A06802F001021F
:102EC00003F045FD9DF81C30DA0740F1B6809DF80F
:102ED00016206449A06803F03AFDBDF81420624949
:102EE000A06803F034FD9DF817206049A0689202A5
:102EF00003F02DFD9DF81C205D49A068C2F340023F
:102F000003F025FD9DF81C309B0740F19680594940
:102F1000A068DFF8988103F01AFD03AE2F4616F87B
:102F2000012BA0684146013703F011FD082FF6D1AF
:102F30005149A06803F00BFD9DF818204F49A06887
:102F400003F005FD9DF819204D49A06803F0FFFC32
:102F50009DF81A204B49A06803F0F9FC9DF81B204E
:102F60004949A06803F0F3FC67E04849A06803F012
:102F7000EEFC4749A06803F0EAFCD4F82001DFF832
:102F80003491DFF834A1DFF834B104F006FD0025F8
:102F90008046EFB2D4F8200103AA394604F0FFFCC2
:102FA000002841D1A068002E4ED19DF81620514630
:102FB00003F0CDFCBDF81420A068594603F0C7FC0F
:102FC0009DF817203349A06803F0C1FC9DF8182034
:102FD0003149A06803F0BBFC9DF819202F49A06877
:102FE00003F0B5FC9DF81A202D49A06803F0AFFC52
:102FF0009DF81B202B49A06803F0A9FC2A49A06872
:1030000003F0A5FC294903AF334617F8012BA0684C
:10301000019303F09CFC019B24490133082BF4D15C
:103020002349A06803F093FC0135EBB29845B0D278
:103030001149A06803F08BFC002529462046FEF7C5
:103040000FFB09B0BDE8F08F3A46494603F07FFC1C
:10305000EAE70725F1E700BFD4D4040078DB0400D9
:1030600066D90400BCD4040091D7040072D90400CE
:1030700083D90400A5D5040029DF04008ED90400FB
:10308000BBD50400D1D50400E8D50400B9D80400AC
:103090000CD904008BD5040092D5040074D7040029
:1030A0005FD9040084D50400AFDA0400CCD4040056
:1030B00007D904009BDA0400B3DA04007AD50400CF
:1030C00073B505460C4679B98668D0F8200104F03E
:1030D0002AFC0C490246304603F039FC21462846BA
:1030E000FEF7BEFA02B070BD106801A9FFF77CFAC6
:1030F00004460028F2D19DF80410D5F8200104F010
:1031000017FCEBE78CD7040073B505460C4679B97C
:103110008668D0F8200104F010FC0F4902463046C2
:1031200003F015FC21462846FEF79AFA02B070BD5E
:10313000106801A9FFF758FA04460028F2D1019956
:103140004B1EFE2B05D8D5F82001C9B204F0FAFBBE
:10315000E8E70724E6E700BF8CD7040073B505460F
:103160000C4679B98668D0F8200104F0B1FB0C490F
:103170000246304603F0EBFB21462846FEF770FA84
:1031800002B070BD106801A9FFF72EFA04460028AE
:10319000F2D19DF80410D5F8200104F09EFBEBE776
:1031A0008CD70400F0B5044685B016460D4681B3B1
:1031B00017682249384648F054FFF8B9012D3BD929
:1031C000706803A9FFF710FA90B9BDF80C501C49BC
:1031D000A06803F0BCFB1B49A06803F0B8FB1A4BC6
:1031E000D4F8200100942A46002104F0C3F818B155
:1031F00001462046FEF734FA05B0F0BD03A9384673
:10320000FFF7F2F90028F3D103991F2912D80125FD
:103210008D400E49A06803F09AFB0D49A06803F0A9
:1032200096FB0C4BD4F8200100940022294604F0B0
:103230009CF8DCE70720DBE70546C8E799D90400DE
:10324000A0D90400B0D9040011410000CDD704007A
:1032500026D80400E140000037B5054691B9D0F802
:10326000200101A924F0D6FA044628B99DF90420CA
:103270000C49A86803F06BFB21462846FEF7F0F9DD
:1032800003B030BD106801A9FFF7AEF9044600286D
:10329000F2D19DF90410D5F8200124F0C5FA0446B6
:1032A000EAE700BFC0D9040073B505460C4679B9FA
:1032B0008668D0F8200104F0E8FA0D49024630464D
:1032C00003F045FB21462846FEF7CAF902B070BD5F
:1032D000106801A9FFF788F904460028F2D1BDF86B
:1032E0000410D5F8200104F0D6FA0446EAE700BF3E
:1032F0008CD704002DE9F04302298BB006460D4619
:1033000017463FD9506801A903F003FF044660B98E
:10331000023D07F104090DF11408EDB259F8040F4C
:103320006946FFF761F910B10446214626E00134F1
:10333000E4B2009B08F8013BA54201D0132CEDD16B
:103340003D681249284648F08CFE05AA40B9D6F8D7
:103350002001234601A904F0C5F80BB0BDE8F083B5
:1033600028460B4948F07DFE054668B901A9D6F804
:103370002001234605AA04F0BBF829463046FEF793
:103380006FF9EAE70724D0E72324CEE799E70400A2
:1033900023E0040013B500220C4601A948F0AAFF5F
:1033A000019B20601878002818BF072002B010BDCC
:1033B00073B505460C4691B98668D0F8200103F034
:1033C00030FE4FF47A721049B0FBF2F2304603F04F
:1033D000BEFA21462846FEF743F902B070BD012926
:1033E00010D1106801A9FFF7D5FF04460028F0D1DD
:1033F000019BD5F820014FF47A71594303F017FE71
:103400000446E6E70724E4E78CD7040073B50546D5
:103410000C4679B98668D0F8200104F02CFA0C49E2
:103420000246304603F093FA21462846FEF718F983
:1034300002B070BD106801A9FFF7ACFF0446002878
:10344000F2D10199D5F8200104F01AFAECE700BF97
:1034500098DC0400012913B5044610D1106801A9B5
:10346000FFF798FF28B99DF80410D4F8200104F064
:10347000F2F901462046FEF7F3F802B010BD07202E
:10348000F7E7002330B5136001394FF47A730A244B
:1034900011F8010FE8B1A0F13005092D11D8B3F5ED
:1034A0007A7F02BF10686043106008781568303872
:1034B00003FB0050B3F57A7F1060E9D0B3FBF4F35F
:1034C000E6E72E2804D1B3F57A7F01D16423DFE744
:1034D000072030BDF8B59DF8187004461546806881
:1034E0000A460B491E4603F032FA4FB91DB1294670
:1034F0002046FEF7C9FF0749A068324603F027FAC5
:1035000039462046FEF7ACF8002384F84030F8BD79
:10351000C9D90400E0D9040010B49DF80440019416
:103520005DF8044BFFF7D6BF10B5044686B0A9B1CD
:103530001068694603F0EDFD70B9BDF81030D4F89D
:10354000200123F47F7323F0030343F4507369468F
:10355000ADF8103003F0A9FD06B010BD0720FBE761
:103560001FB5044659B11068694603F0D2FD20B971
:10357000D4F82001694603F09EFD04B010BD072079
:10358000FBE70000F8B5054617460C4681B9D0F8B0
:1035900020012C4F03F084FD0646B6B13146284683
:1035A000FEF772FFA868394603F0D1F97669F4E7AF
:1035B00016682549304648F054FD60B9611E3A1D31
:1035C000C9B22846FFF7B0FF044621462846BDE8A9
:1035D000F840FEF745B81D49304648F042FD30B985
:1035E000611E3A1DC9B22846FFF7BAFFECE7184939
:1035F000304648F036FD044660B9D5F8200104F0A5
:1036000026F801462846FEF73FFF0E49A86803F05A
:103610009EF9DAE70F49304648F023FD044620B909
:10362000D5F8200104F009F8EBE70B49304648F0E3
:1036300018FD044620B9D5F8200104F003F8E0E7AE
:103640002324C2E729DF0400AED80400EBD904002C
:10365000EFD90400F9D90400FED904001FB50446CF
:1036600059B11068694603F054FD20B9D4F820011F
:10367000694603F02BFD04B010BD0720FBE71FB522
:10368000044659B11068694603F043FD20B9D4F8E7
:103690002001694603F020FD04B010BD0720FBE7C0
:1036A00070B505460C4661B9D0F8200103F01AFD4B
:1036B00028B10F49A86803F04AF9204670BD0D49AA
:1036C000F8E716680C49304648F0CBFC044628B9A8
:1036D0000121D5F8200103F00AFDEEE70749304645
:1036E00048F0BFFC044608B90146F2E70724E4E7C6
:1036F000F2D50400E2DA0400FCD5040003D604008D
:10370000F8B5054616460C4681B9D0F820011E4F83
:1037100003F0D7FC0646B6B131462846FEF7B4FEA4
:10372000A868394603F013F93669F4E717681749B2
:10373000384648F096FC60B9611E321DC9B2284671
:10374000FFF78CFF044621462846BDE8F840FDF708
:1037500087BF0F49384648F084FC30B9611E321DDE
:10376000C9B22846FFF78BFFECE70A49384648F014
:1037700078FC30B9611E321DC9B22846FFF790FFB0
:10378000E0E72324DFE700BF29DF0400AED8040010
:10379000EBD9040004DA04002DE9F3411F460023AD
:1037A00001933B78812B04460E46904640D1C28A55
:1037B000002A3DD0BB885BBA9BB2934238D1084601
:1037C00003F0DFFD0546304603F0DFFD281A80B226
:1037D00000F108021849A06803F0B9F808F11001D7
:1037E0002046FEF751FEFA8898F828301349A06861
:1037F00052BA92B203F0ABF8304603F0C6FD042390
:1038000001460DEB0302304603F0C3FD04280BD143
:10381000A66823F0C6FC05460198FDF79DFE084901
:103820002A1A304603F093F80649A06803F08FF88F
:1038300002B0BDE8F08100BF10DA04001FDA040016
:1038400035DA040029DF0400FFF7A6BF30B58DB0DC
:10385000044623F0A6FCFDF77FFE2C2200900021F9
:1038600001A847F0DFFF04F118030FCB05AD85E891
:103870000F00237D627D8DF82C304FF0000362F342
:103880004103D4F820018DF82D30002103F034FCE1
:10389000054688B10422694603F079FDC0B9A189C3
:1038A000284603F070FD98B9E38AD4F8200101AAF4
:1038B000294603F0CDFB58B9E389013B9BB2E38174
:1038C00023B1216904F1280006F02EF90DB030BDB6
:1038D000284603F054FDEFE72DE9F3410446164670
:1038E000884609B907250EE017683649384648F07A
:1038F000B8FB0546236B04F128005DB99842E582C8
:103900005AD006F0C7F829462046FDF7A9FE02B0B6
:10391000BDE8F081984251D104F11801384603F016
:10392000F8FB05460028EED1274AA0824FF47A73AF
:10393000C4E903230127474533D07B1E032BD1D88D
:10394000DFE803F0020D152070686946FEF74CFEB3
:10395000002835D1009BA3810137FFB2EBE7B068A7
:103960006946FEF741FE58BB009BE381F4E7F1682E
:1039700001AA2046FFF785FD10BB019B002BB1DD9E
:103980002361E9E730696946FEF72EFEC0B9009B66
:10399000FF2BA7D8DBB22375B3FA83F35B096375FA
:1039A000DAE7E38A01339BB223B1E3822046FFF7D3
:1039B0004DFFA8E70123F8E70D25A4E70525A2E7B9
:1039C0000546A0E777D6040008000100024B1868FE
:1039D0000430FFF73BBF00BF300D00202DE9F84F4A
:1039E00004460D4680683749374F02F0B0FF2C2659
:1039F000A068394602F0ABFF013EF9D1AA883349ED
:103A0000A068314F02F0A3FF1C26A068394602F0DF
:103A10009EFF013EF9D12B49A068DFF8C48002F077
:103A200096FF1027AB88A068A7F11006B3423BD9D8
:103A3000414602F08CFFB146AB88A0684B4529D9BE
:103A40002B68234913F8092002F081FF09F10109CD
:103A50004F45F1D1A068DFF88C90DFF88CA0DFF83B
:103A60008CB0414602F073FFAB88A068B34219D90D
:103A70002B689A5DA2F120035E2B0FD8594602F005
:103A800066FF0136BE42EFD11249A06802F05FFF27
:103A90001037C7E7104902F05AFFD7E7514602F046
:103AA00056FFEEE74946FAE70C4E5325A06831462B
:103AB00002F04DFF013DF9D1A0680249BDE8F84F81
:103AC00002F045BF29DF040040DA040042DA0400B6
:103AD00050DA040008D9040056DA0400C6280500AC
:103AE0004EDA040061DA04005EDA04005ADA0400F7
:103AF00013460A4601461846FFF770BF2DE9F04FFE
:103B0000074689B014460D46002900F0918018221E
:103B1000002102A847F086FE20682F2148F094FA81
:103B20000646002800F0818000230370206802A967
:103B300003F0EFFA002878D101A9701CFFF72AFCE6
:103B4000002872D1013D019B3A4EDFF8EC80DFF88E
:103B5000EC908DF81830EDB204EB85054FF0010ABA
:103B6000AC425DD054F804BF3146584648F079FA6B
:103B700030B99DF819306AF301038DF81930EFE779
:103B80004146584648F06DFA20B99DF8193060F367
:103B90000103F2E74946584648F063FAA0B10BF139
:103BA000FF3B1BF8013F002BDAD0613B122B3FD8C3
:103BB000DFE803F0163E201B3E3E3E3E3E3E3E3ECC
:103BC0003E3E2A0F3E252F009DF8193043F0030397
:103BD000D3E79DF8193043F004038DF81930E0E77E
:103BE0009DF8193043F00803F7E79DF8193043F0CA
:103BF0001003F2E79DF8193043F02003EDE79DF83C
:103C0000193043F04003E8E79DF8193043F0800392
:103C1000E3E79DF81A3043F001038DF81A30C0E74E
:103C2000D7F8200102A903F067F809B0BDE8F08FCA
:103C30000720FAE764DA040069DA04006DDA0400A8
:103C400070B5064686B0154601B31122002101A8C1
:103C500047F0E8FD28682F2148F0F6F9044698B1AE
:103C600000230370286801A903F053FA60B969467C
:103C7000601CFFF78FFB38B9009BD6F820018DF848
:103C8000143001A903F066F806B070BD0720FBE709
:103C9000F0B58DB000233A4D3A4E3B4F05930446A4
:103CA000D4F8200106AA05A903F05DF8002863D125
:103CB0009DF828100291BDF81E10BDF81A30BDF80D
:103CC0001820A06849BA89B20191BDF81C1049BA00
:103CD00089B25BBA52BA00919BB292B2294602F005
:103CE00036FE9DF829305A0703D5A068314602F008
:103CF0002EFE9DF829301B0703D5A068394602F037
:103D000026FE9DF82930D80603D52049A06802F088
:103D10001EFE9DF82930990603D51D49A06802F0C2
:103D200016FE9DF829305A0603D51A49A06802F0FC
:103D30000EFE9DF82930DB0903D01749A06802F078
:103D400006FE9DF82A30DB0703D51449A06802F06F
:103D5000FEFD9DF8293043F301035BB243B1012B13
:103D600008D001339CD10E49A06802F0F0FD97E71E
:103D70000C49F9E70C49F7E700200DB0F0BD00BF92
:103D800071DA0400D2D4040082EE040033DA0400B5
:103D90005CDA04000CF0040084DF040008EF040087
:103DA00083DA04008ADA040091DA0400F8B50546E3
:103DB00016460C4639B9FFF76BFF01462846BDE8A9
:103DC000F840FDF74DBC17680C49384648F049F9F2
:103DD00030B9611E321DC9B22846FFF78FFEECE7ED
:103DE0000749384648F03DF930B9611E321DC9B265
:103DF0002846FFF725FFE0E72320DEE7AED80400E2
:103E0000B2D804002DE9F04F8BB00D460190144656
:103E10000021182204A847F005FD1DB907200BB0AA
:103E2000BDE8F08F20682F2148F00EF906460028E3
:103E3000F5D000230370206804A903F06AF9002874
:103E4000EDD103A9701CFFF7A5FA0028E7D1013DC9
:103E5000039B224EDFF88880DFF88890DFF888A087
:103E60008DF82030EDB204EB85054FF0010BAC422C
:103E70002CD054F8047F3146384648F0F2F830B977
:103E80009DF8243043F004038DF82430EFE74146D9
:103E9000384648F0E6F820B99DF824306BF301036A
:103EA000F2E74946384648F0DCF820B99DF824305E
:103EB00060F30103E8E75146384648F0D2F800289D
:103EC000ACD19DF8243043F00303DDE7019B04A946
:103ED000D3F8200102F050FFA1E700BF08EF040073
:103EE00064DA040069DA04006DDA040070B586B0A3
:103EF0000C46064615460021112201A847F092FC07
:103F0000DCB128682F2148F09FF8044698B10023BF
:103F10000370286801A903F0FCF860B96946601CC9
:103F2000FFF738FA38B9009BD6F820018DF8143025
:103F300001A902F034FF06B070BD0720FBE70000C6
:103F4000F0B58DB00023224D224E234F0593044639
:103F5000D4F8200106AA05A902F02AFF002833D1CF
:103F60009DF828100291BDF81E10BDF81A30BDF85A
:103F70001820A06849BA89B20191BDF81C1049BA4D
:103F800089B25BBA52BA00919BB292B2294602F052
:103F9000DEFC9DF82C305B0703D5A068314602F0AB
:103FA000D6FC9DF82C3043F301035BB243B1012BE7
:103FB00008D00133CCD10949A06802F0C8FCC7E79A
:103FC0003946F9E70649F7E700200DB0F0BD00BF1C
:103FD00071DA040008EF04008ADA040083DA0400CE
:103FE00091DA0400F8B5054616460C4639B9FFF7D4
:103FF000A7FF01462846BDE8F840FDF731BB17682A
:104000000C49384648F02DF830B9611E321DC9B24E
:104010002846FFF7F7FEECE70749384648F021F855
:1040200030B9611E321DC9B22846FFF75FFFE0E7D5
:104030002320DEE7AED80400B2D8040038B5044629
:104040000D4619B9BDE83840FDF70ABB91F8392093
:1040500080681B49C2F3401202F079FC05F10802A6
:104060001849A06802F073FC1749A06802F06FFCC1
:10407000082205F119012046FEF75AF91349A068F4
:1040800002F065FC6A8E1249A06802F060FC2946C5
:1040900020460822FEF74CF995F836200D49A06815
:1040A00002F055FC95F937200B49A06802F04FFC4F
:1040B00095F83820A0680949BDE8384002F047BCAF
:1040C00099DA04009FDA0400AFDA040078D504001E
:1040D000A8DA0400B2DA040084D50400BADA0400D5
:1040E0000B4601461846FFF7A9BF000010B419B9E6
:1040F0005DF8044BFDF7B4BA91F901300A78806895
:1041000002495DF8044B02F022BC00BFC4DA04008F
:104110000B4601461846FFF7E9BF0000F0B587B02F
:1041200004460023D0F820018DF80B3003F087F807
:1041300040BB3849A06802F00AFC374E374DD4F82E
:10414000200103AA0DF10B0103F09AF810BB08221D
:1041500003A92046FEF7ECF89DF914207F2A0CD025
:104160001146D4F82001A768019203F0ADF8019A36
:1041700003463146384602F0EAFBA068294602F0C1
:10418000E6FBDCE7012801D12549D3E70228D4D199
:104190002449CFE700232449A0688DF80B3002F0B2
:1041A000D6FB224E224DD4F8200103AA0DF10B01BB
:1041B00003F081F858BB03AA082312F8011BFF295A
:1041C00010D1013B13F0FF03F7D19DF91420D4F86F
:1041D000200101921146A76803F076F8019A034680
:1041E000294610E0082203A92046FEF7A1F89DF910
:1041F0001420D4F8200101921146A76803F064F856
:10420000019A03463146384602F0A1FBCBE707B0DE
:10421000F0BD00BFD4DA040021DB040029DF040074
:10422000EDDA040007DB040034DB040042DB0400A9
:1042300057DB0400F0B589B005460E460023D0F8E0
:1042400020018DF80F30174602F0F9FF002E33D110
:1042500050BB5149A86802F07AFB504E504CD5F83B
:10426000200105AA0DF10F0103F00AF8002840F023
:104270008E80082205A92846FEF75AF89DF91C20D1
:104280007F2A0CD01146D5F82001AF68019203F0C7
:104290001BF8019A03463146384602F058FBA868DD
:1042A000214602F054FBDAE7012801D13D49D1E76C
:1042B0000228D2D13C49CDE73C683C49204647F032
:1042C000D0FE014620B9012E0AD0072009B0F0BD6A
:1042D0003749204647F0C5FE38B9012EF5D13146A1
:1042E000D5F8200102F0B0FFF0E73249204647F050
:1042F000B8FE18B9012EE8D10221F1E72E49204677
:1043000047F0AFFE034610BB012EDED978680822C5
:1043100005A9FDF765F90828D7D1D5F8200105A929
:1043200002F098FF08B11828D0D1022ECED0032E6B
:10433000CBD1B86804A9FEF757F90028C6D19DF97A
:104340001020D5F8200105A902F0A3FFBEE71B4904
:10435000204647F086FE034670B9022EB5D1786834
:10436000082205A9FDF73CF90828AED1D5F82001AF
:1043700005A902F077FFA9E71149204647F071FE31
:1043800038B9012EA1D1D5F8200102F073FF002029
:104390009CE723209AE700BFE2DA040021DB040057
:1043A00029DF0400FBDA040015DB040003D6040057
:1043B00073DB04007DDB0400AED80400B2D8040037
:1043C00087DB04002DE9F04188B00023064615463E
:1043D0008DF80F300C4629BB554D564FD6F82001AD
:1043E00005AA0DF10F0102F066FF20BB05AA082304
:1043F00012F8011BFF2940F08780013B13F0FF03F7
:10440000F6D19DF91C20D6F8200101921146D6F86C
:10441000088002F059FF019A03463946404602F0EF
:1044200096FADBE717684449384647F01AFE78BB2E
:10443000032C04D00724204608B0BDE8F081A8680A
:1044400004A9FEF7D1F804460028F4D19DF8101015
:104450000329EFD8D6F8200102F043FF07466D6824
:104460003649284647F0FDFD10B93A46214609E095
:104470002346082205A92846FDF7B2F80828D9D115
:104480003A4605A9D6F8200102F003FF0446D2E718
:104490002B49384647F0E5FD58B9032CCAD1A86826
:1044A00004A9FEF7A1F804460028C4D19DF91070B4
:1044B000D5E72449384647F0D4FD8046B8B9022CE8
:1044C000B8D16C681D49204647F0CBFD014620B9A4
:1044D000D6F8200102F0E3FED8E74346082205A9FA
:1044E0002046FDF77DF80828A4D105A9F0E7164974
:1044F000384647F0B6FD044620B9D6F8200102F050
:10450000D4FE98E7232496E7082205A93046FDF754
:104510000FFF9DF91C20D6F8200101921146D6F814
:10452000088002F0D1FE019A0346294676E700BFD3
:1045300042DB040095DB04008DDB0400BC27050092
:10454000AED80400B2D8040087DB0400F8B50546F5
:1045500016460C4639B9FFF7E1FD21462846BDE86D
:10456000F840FDF77DB817680D49384647F079FDEA
:1045700038B9611E321DC9B22846FFF75BFE0446FA
:10458000EBE70849384647F06CFD30B9611E321D33
:10459000C9B22846FFF716FFF1E72324DDE700BF85
:1045A00041E00400B0DB04004B1E012B2DE9F34178
:1045B00005460F46164644D8D2F8008022494046A8
:1045C00047F04FFD0446F0B9012F0AD1D5F820017C
:1045D000AE6802F020FE02461C49304602F0B7F9F0
:1045E0000DE0706801A9FEF7D5FE044638B90199BF
:1045F000FF2926D8D5F82001C9B202F011FE2046C5
:1046000002B0BDE8F0811249404647F02AFD044659
:10461000B8B9012F05D1D5F82001AE6802F005FE2A
:10462000D9E7706801A9FEF7B5FE04460028E6D177
:104630000199FF2905D8D5F82001C9B202F0FAFD89
:10464000DDE70724DBE700BFB6DB04008CD70400FE
:10465000B4DB040070B5054616460C4681B10A4924
:10466000106847F0FEFC68B9611EC9B2321D2846C9
:10467000FFF79AFF01462846BDE87040FCF7F0BFFF
:104680000721F8E72321F6E7BDDB04002DE9F04719
:10469000A2B004460D4616460021802202A81F46FD
:1046A00047F0C0F800238DF80730A7609DB1711C5A
:1046B00089B2284605F06BF9B0420CD8202302AA33
:1046C0000DF1070128461EF061FD38B12B49A068A5
:1046D000202202F03CF922B0BDE8F0879DF8076087
:1046E00026B92749A06802F032F9F4E7DDF808801E
:1046F000244F05464FF00C0A0AFB05F9404659F8CD
:10470000071047F0AEFC80B94F44BA687B6851107F
:1047100004EB6200D20748BF625806F1FF3148BF80
:10472000D358C9B203AA9847D5E70135412DE3D143
:1047300094F804A00025EFB2BA4510D9236840468A
:1047400053F8351003EBC50947F08BFC0135002801
:10475000F1D1701ED9F8043003A9C0B2984723796B
:10476000BB42B8D12320A46804F0C0FA064903462E
:104770002322204602F0EBF8ADE700BFC5DB0400C2
:10478000E5DB0400CCE104004ED00400F0B587B0B6
:104790000D4606461022202101A8002447F042F8C9
:1047A000C5F110078DF81440AC420ED204F10F038E
:1047B000AB42A6BFE11989B2002101ABB068194430
:1047C000103402F0C4F8A4B2EEE707B0F0BD000068
:1047D00070B50D46114604461646FFF7D7FF2A78F6
:1047E0001449A06802F0010202F0B1F831462046F7
:1047F000FFF7CCFF2A781049A068C2F3400202F00C
:10480000A6F831462046FFF7C1FF2A780B49A06879
:10481000C2F3800202F09BF831462046FFF7B6FF54
:104820002A78A0680649BDE87040C2F3C00202F0D1
:104830008EB800BF00DC040013DC04002CDC040094
:104840003DDC040070B504460D4611461646FFF7E0
:104850009DFF95F900202749A06802F078F83146BD
:104860002046FFF793FF6A782349A06802F06FF8AB
:1048700031462046FFF78AFFAA782049A06802F057
:1048800066F831462046FFF781FFEA781C49A068A8
:1048900002F05DF831462046FFF778FF2A79194982
:1048A000A06802F054F831462046FFF76FFF6A799E
:1048B0001549A06802F04BF831462046FFF766FF25
:1048C000AA791249A06802F042F831462046FFF763
:1048D0005DFF2A890E49A06802F039F8314620466A
:1048E000FFF754FFAA7AA0680A49BDE8704002F0B9
:1048F0002EB800BF4FDC040064DC040077DC040049
:104900008ADC04009DDC0400AEDC0400BFDC040093
:10491000D3DC0400E7DC040070B504460D461646FF
:1049200080680A78124902F012F831462046FFF7F3
:104930002DFF6A780F49A06802F0030202F007F821
:1049400031462046FFF722FF6A780B49A068C2F380
:10495000810201F0FCFF31462046FFF717FF6A781D
:10496000A0680649BDE87040120901F0F0BF00BF21
:10497000FEDC040010DD040025DD040039DD040048
:104980002DE9F84305460E4611461446FFF7FEFE94
:1049900032781649A868DFF85C9001F0D8FF21460C
:1049A0002846FFF7F3FE1249A86801F0D0FF04F192
:1049B000040806341FFA88F80027A4B20137727879
:1049C0007B1E9BB29A420ED941462846FFF7DEFE77
:1049D0004946A86801F0BBFF224606EB470128467E
:1049E000FFF79AFFEAE7BDE8F88300BFAEDC0400FA
:1049F00049DD0400DDD9040070B504460D461146BA
:104A00001646FFF7C3FE2A681449A06801F09FFF0D
:104A100031462046FFF7BAFE2A791149A06801F015
:104A200096FF31462046FFF7B1FE6A790D49A0682E
:104A300001F08DFF31462046FFF7A8FEAA790A490A
:104A4000A06801F084FF31462046FFF79FFEEA7917
:104A5000A0680649BDE8704001F079BF56DD04004A
:104A60006CDD040082DD04007CDD040094DD0400C4
:104A700070B504460D4611461646FFF787FE2A68B4
:104A80002649A06801F063FF31462046FFF77EFE0D
:104A90006A682349A06801F05AFF31462046FFF7B3
:104AA00075FEAA681F49A06801F051FF31462046F3
:104AB000FFF76CFEEA681C49A06801F048FF314628
:104AC0002046FFF763FE2A691849A06801F03FFFFE
:104AD00031462046FFF75AFE6A691549A06801F081
:104AE00036FF31462046FFF751FEAA691149A068FA
:104AF00001F02DFF31462046FFF748FEEA690E49D6
:104B0000A06801F024FF31462046FFF73FFE2A6AE5
:104B1000A0680A49BDE8704001F019BFADDD04008E
:104B2000C5DD0400D6DD0400E8DD0400FCDD040082
:104B300014DE040027DE04003CDE040055DE040021
:104B400070B516460A8804460D46C2F3481210494D
:104B5000806801F0FCFE31462046FFF717FE15F88D
:104B6000022B0C49A06802F01F0201F0F0FE314652
:104B70002046FFF70BFE0849A06801F0E8FE321D51
:104B80002946204692B2BDE87040FFF721BE00BF23
:104B900069DE04006DDF04007BDE04002DE9F04FC8
:104BA0000446DFB008460F4602F0EBFB05463846E8
:104BB00002F0EBFB281A85B200268D49A068ADF8FB
:104BC0000E6001F0C4FED5B1102D3846A84628BFAE
:104BD0004FF0100802F0D9FB304481B2434604AADA
:104BE000384602F0D6FBA5EB08055FFA88F204A967
:104BF00020464644FDF79CFBADB2B6B2E3E77D49E3
:104C0000A068DFF82C82DFF82C927B4D01F09FFE2C
:104C100008AA0DF10E01384602F05CFC002840F0B5
:104C2000DC809DF82030132BF2D801A252F823F03B
:104C3000814C00009D4C0000AB4C0000BF4C0000BC
:104C4000C54C0000D94C0000ED4C0000014D0000A7
:104C5000134D0000654D0000114C0000114C000088
:104C6000114C0000114C0000794D0000814D0000F6
:104C7000894D0000D14D0000114C0000D54D0000C1
:104C80005E49A06801F063FE082209A92046FDF7ED
:104C90004FFBA068294601F05AFEB9E7BDF8242071
:104CA0005749A06801F053FEB2E75649A06801F0E9
:104CB0004EFE042209A92046FFF78AFDA8E7099ABB
:104CC0005149EEE75149A06801F041FE042209A9CB
:104CD0002046FFF7B7FD9BE74D49A06801F037FE7E
:104CE000042209A92046FFF74BFE91E74949A06835
:104CF00001F02DFE042209A92046FFF77DFE87E77B
:104D00004549A06801F023FE9DF824200DF12501FE
:104D1000BCE74249A068DFF820B1DFF8D8A001F075
:104D200016FE08AE00239DF82400009399B206F108
:104D30001002884201927FF66BAF04212046FFF7F4
:104D400025FD5946A06801F002FE711D2046FDF7C1
:104D50009BFBA068514601F0FAFD009B019A0133CC
:104D60001646E0E72E49A06801F0F1FD042209A9EA
:104D70002046FFF77DFE4BE79DF82420294990E768
:104D8000BDF8242028498CE72849A068DFF8A8B09E
:104D900001F0DDFD08AE4FF0000A9DF824101FFA67
:104DA0008AF2331D914200937FF632AF04212046F0
:104DB000FFF7ECFC5946A06801F0C9FD0622B118C6
:104DC0002046FFF7BDFE009B0AF1010A1E46E4E7FC
:104DD000494696E7099A414663E7172814BF0146FA
:104DE00000212046FCF73CFC5FB0BDE8F08F00BF1F
:104DF00083DE040029DF0400A5DE040096DE040043
:104E0000A9DE04007BDE04006DDF0400BADE0400CE
:104E1000CADE0400D3DE0400E2DE0400F2DE040099
:104E200006DF040016DF04002CDF040043DF04006B
:104E300063DF040052DF0400DDD9040013460A4694
:104E400001461846FFF7AABE2DE9F041094F0A4E68
:104E5000054600244FF00C082B6808FB04F2986804
:104E6000D2593146013401F072FD0A2CF4D10020F0
:104E7000BDE8F08158E6040058D00400036841F210
:104E80003361D3F8200101F0FFBF014610B551F89E
:104E9000183B0446D3F8200102F008F82368BDE867
:104EA0001040D3F8200101F0F5BF00002DE9F043D8
:104EB000012985B00646884614466AD955683649A0
:104EC000284647F0CEF800BB06F10805371DB8F1BB
:104ED000020F08D0D4F808903049484647F0C1F88E
:104EE000E8B901233B70336862682D49986801F086
:104EF0002EFD3C783068002C40D02A49806801F0B3
:104F000026FD002005B0BDE8F0832749284647F07C
:104F1000A8F800283DD106F11005771DD7E7B8F1B4
:104F2000050F36D903A94846FEF734FA0028E9D11F
:104F3000039BE0682B6003A9FEF72CFA0028E1D15F
:104F4000039BFF2B25D82B71206903A9FEF722FABA
:104F50000028D7D1039BFF2B1BD86B71606903A975
:104F6000FEF718FA0028CDD1039BFF2B11D82A7920
:104F7000AB716B799A420CD90023B3E7AB790193FB
:104F80006B7900932B792A680849806801F0DFFC6F
:104F9000B7E70720B6E700BFD8E40400E9E404005F
:104FA000F1E4040013E50400E0E404001DE504005E
:104FB0002DE9F04F674B9DB00546186809908B4668
:104FC0001B798DF82830924600211B220DF1290013
:104FD00046F028FCBBF1000F04D1072420461DB089
:104FE000BDE8F08FDAF800405B49204647F039F819
:104FF000002868D05949204647F033F8002864D08B
:105000005749204647F02DF8002860D055492046E2
:1050100047F027F80028E0D10427BBF1010FDCD9C5
:105020000DF11408DAF80400414602F072F8044663
:105030000028D3D1BBF1020FCFD0DAF808100391CA
:10504000084647F020F81F28C7D803991F2209A84F
:1050500047F033F8BBF1030F3BD04349DAF80C00BB
:1050600046F0FFFF002814BF4FF010094FF0000971
:105070002B680021D3F8200101F0A9FE0646B8B341
:105080003A46494601F0AFFE0221304601F0C7FE24
:1050900009A9304601F0C5FE044680B9BBF1040FF2
:1050A00031D9DAF8100046F0EEFF1FFA80FBBBF1B1
:1050B000000F28D0304601F0B6FE0446D0B130468D
:1050C00002F05DF98AE70127A7E70227A5E7032792
:1050D000A3E74FF01009CBE700232FE06A79002304
:1050E00022B91035CDE9003500232AE01D46F9E745
:1050F000032473E7DAF810105A46304602F047F9F5
:1051000004460028DBD12C22002111A846F08AFB9E
:1051100098E80F0015AC84E80F0041F23363ADF856
:1051200066302B68D3F82001B9F1000F01D0012FB0
:10513000D4D12B79002BCFD105F10803CDE9005351
:105140000A4B11AA314601F07DFE044600283FF4C7
:1051500045AFB4E738E6040099E704005DE50400D4
:1051600062E5040066E504006DE50400C15400003A
:10517000012913B504460FD951680191084646F03C
:1051800082FF0E2810D801990F2204F1480046F042
:1051900094FF002002B010BD0246044952F8483B7B
:1051A000986801F0D4FBF4E70720F3E758D0040037
:1051B000012938B50446154617D9506846F063FFF3
:1051C0001F2810D804F128000B4BA06124626968E5
:1051D000E3611F2246F071FF214651F8183BD3F8D6
:1051E000200101F05DFE002038BD0368826903499B
:1051F000986801F0ACFBF6E76154000058D0040059
:1052000010B540F201130446838001601022002192
:10521000183046F007FB2022002104F1280046F058
:1052200001FB04490F2204F1480046F046FF2046E6
:1052300010BD00BF32F504002DE9FF4107460846C6
:105240000E4602F09EF80446304602F09EF8241AFC
:10525000A4B20CB33B681449986801F078FB0025B0
:10526000102C3046A04628BF4FF0100802F08DF8F1
:10527000284481B243466A463046A4EB080402F053
:1052800088F8454438685FFA88F26946A4B2FDF7A9
:105290004FF8ADB2002CE3D13B680449986801F0A7
:1052A00056FB04B0BDE8F08171E5040029DF04007D
:1052B0002DE9F14F074690460C4631B90A46FFF7F3
:1052C000C3FD072001B0BDE8F08FD2F800A0104D5B
:1052D00000264FF00C0B0BFB06F9504659F8051051
:1052E00046F0BFFE78B94D44AA686B68511007EBD1
:1052F0006200D20744BF7A58D3582146424601B0D3
:10530000BDE8F04F184701360A2EE4D12320D9E733
:1053100058E6040003682DE9F341054617469868EE
:105320000C46464901F013FB286807F11001FDF710
:10533000ABF82B684249986801F009FB204601F060
:105340007BFD01382B6803282AD8DFE800F002270C
:1053500025233C49986801F0FAFA28462146FFF7D0
:105360006BFF204601F061FD08BB204601F064FDA3
:105370002B6801284FF00001D3F820010CBF4FF03B
:1053800045084FF0430801F022FD0646A8B902B0D7
:10539000BDE8F0812C49DDE72C49DBE72C49D9E752
:1053A0002C49986802B0BDE8F04101F0D0BA20461F
:1053B00001F042FD0128EAD1D7E7214643462022E9
:1053C00001F013FD0446E0B9B8F1450F06D02B6893
:1053D000D3F820016B792BB3002325E0304601F090
:1053E00022FD044668B905F148010846019146F0DE
:1053F0004AFE019982B2304601F0C9FF04460028F6
:10540000E5D02B6820469D6803F070FC12490346E6
:105410002246284601F09BFA304602B0BDE8F04132
:1054200001F0ADBF05F110033A46314601F044FDED
:1054300004460028E5D12B680849B2E781E504005D
:1054400078D5040094E5040098E504009FE5040085
:10545000A3E50400A8E50400B4E50400D6E50400D3
:10546000FFF758BF73B5164604460D461A4673B18A
:105470000368019210469C6803F038FC019A0E49BB
:105480000346204602B0BDE8704001F060BA8EB11C
:1054900081B103680949986801F059FA206806F15A
:1054A0001001FCF7F1FF2946204602B0BDE870402C
:1054B000FFF7C2BE02B070BDEBE5040010E60400C9
:1054C000FFF7D0BF2DE9F041094F0A4E05460024F1
:1054D0004FF00C082B6808FB04F29868D25931464B
:1054E000013401F034FA0B2CF4D10020BDE8F08136
:1054F000B8E7040058D0040002292DE9FF4107460F
:105500000D46164601D8072026E0D2F808801E492D
:10551000404646F0A6FD044648B1082200230DEBA4
:1055200002014046FCF75CF80828ECD102ACD6F842
:1055300004801649404646F094FDB8B9032DE2D0E8
:105540007823042D01930AD13868019BF268D0F8C2
:105550002001214601F0E9FC04B0BDE8F08130698A
:1055600001A9FDF717FF0028EED0F5E708494046EE
:1055700046F077FD0028C6D13B682146D3F82001CC
:1055800001F0D9FCE8E700BFBC270500AED8040055
:10559000B2D804002DE9F04F8BB0DFF8E4A0DFF8BB
:1055A000E4B000900F46904601250024BD4256D23B
:1055B0001F2C5DDC58F825602E49304646F051FD21
:1055C00048B90AAB661C1C44092304F8203C013589
:1055D000EDB23446EAE75146304646F042FD20B986
:1055E0000AAB661C1C440B23EFE75946304646F0D5
:1055F00038FD20B90AAB661C1C440823E5E71E49A8
:10560000304646F02EFD20B90AAB661C1C4412231E
:10561000DBE71A49304646F024FD18B107200BB0ED
:10562000BDE8F08F0135EDB2AF420190F6D958F8E0
:105630002590484646F027FDC4F120020130B2EB28
:10564000600F4FEA600613D302A9019BB2B2214456
:105650004846FBF7C5FF0028E0DB2644B7E7009B80
:105660001B68E2B2D3F8200102A901F089FCD6E759
:105670000320D4E7D0E60400EFE60400FDE60400D2
:10568000D8E60400E2E6040003680129D3F820010B
:105690008CBF5168002101F055BC0000036810B5B3
:1056A000D3F820019C6801F077FC034902462046AC
:1056B00001F04DF9002010BD8CD7040010B404682F
:1056C000044A05490346D4F820015DF8044B01F073
:1056D00005BC00BF5D5A0000D95900000368D3F82B
:1056E000200101F012BC70B504298AB005461446A9
:1056F00021D9506803A9FCF777FFD0B9A06804A9A5
:10570000FCF772FFA8B9E06805A9FCF76DFF80B946
:1057100006AE2069314601F0FCFC50B928680096BD
:10572000BDF814309DF810200399D0F8200101F045
:105730000FFC0AB070BD0720FBE7000070B505291B
:105740008CB0054614462CD9506804A9FCF74CFFD0
:1057500028BBA06805A9FCF747FF00BBE06806A9C5
:10576000FCF742FFD8B9206907A9FCF73DFFB0B9A3
:1057700008AE6069314601F0CCFC80B90A4B28685C
:105780000395CDE90163BDF81C3000939DF814200A
:10579000BDF818300499D0F8200101F0DFFB0CB0FF
:1057A00070BD0720FBE700BF115B00002DE9F04F43
:1057B00093B0164600900D46E9B11A22002103A8C5
:1057C00046F030F8DFF874B1B04601240027A54256
:1057D00040F2A2801F2F03DD032013B0BDE8F08F3D
:1057E000D8F804905149484646F03BFCD0B9631CB8
:1057F000DBB29D4201D80720EFE79DF8242056F840
:10580000230042F0010202A98DF82420FCF7ECFEEF
:105810000028E2D1029BADF80C300234E4B208F16A
:105820000808D4E74249484646F01BFCA0B9631C6F
:10583000DBB29D42DFD99DF8242056F8230042F0C8
:10584000020202A98DF82420FCF7CEFE0028C4D164
:10585000029BADF80E30E0E75946484646F001FCA1
:10586000824600BB621CD2B29542C4D99DF8241076
:1058700056F8229041F0040148468DF8241046F075
:1058800002FC013021284FEA5007A5D85346BAB28E
:105890000DF111014846FBF7A3FE0028ABDB8DF8A4
:1058A00010705746B9E72349484646F0DAFBA0B9DD
:1058B000631CDBB29D429ED99DF8242056F823003C
:1058C00042F0080202A98DF82420FCF78DFE002882
:1058D00083D1029BADF822309FE71749484646F036
:1058E000C0FB0190002886D1621CD2B2954282D9B9
:1058F00056F82290484646F0C6FB013041284FEA50
:1059000050073FF669AF019BBAB20AA94846FBF7B8
:1059100067FE002881DA6EE7009B18680AAAFBB2CE
:1059200003A9D0F8200101F031FB56E7D0E60400CE
:10593000D8E60400EFE60400FDE60400E2E6040019
:1059400030B5032989B0054614461CD9506802A910
:10595000FCF74AFEA8B9A06803A9FCF745FE80B988
:10596000E06804A901F0D5FB58B9084B28680093FA
:105970000195039ABDF80810D0F8200104AB01F09E
:10598000F9FA09B030BD0720FBE700BF395B000022
:1059900038B503680D4604460B49986800F0D7FFF8
:1059A000012D09D0022D0AD065B9236807499868EE
:1059B000BDE8384000F0CBBF23680549F7E723680E
:1059C0000449F4E738BD00BF04E704001AD6040018
:1059D00013E7040021E704000B4601461846FFF7D1
:1059E000D7BF0000036870B504460D469868144997
:1059F000164600F0ACFF042D09D8DFE805F00314CB
:105A0000171A1D0023680F49986800F0A0FF20684E
:105A100031460822FCF78CFC23680B499868BDE8E6
:105A2000704000F094BF23680849EDE723680849F7
:105A3000EAE723680749E7E723680749E4E700BF87
:105A40002AE7040040E7040029DF040047E70400D8
:105A500050E704005AE704005FE7040013460A46D3
:105A600001461846FFF7BEBF2DE9F14F07469046A5
:105A70000C4631B90A46FFF725FD232001B0BDE8E9
:105A8000F08FD2F800A0104D00264FF00C0B0BFB4E
:105A900006F9504659F8051046F0E3FA78B94D4436
:105AA000AA686B68511007EB6200D20744BF7A58AE
:105AB000D3582146424601B0BDE8F04F18470136A1
:105AC0000B2EE4D1D9E700BFB8E70400F8B51D46B6
:105AD00003680C4F144606460A4698680A4900F0C7
:105AE00036FF25443368AC42986805D014F9012B81
:105AF000394600F02CFFF5E7BDE8F840034900F017
:105B000026BF00BF9BDA040067E7040029DF04001A
:105B100010B40446184613460A4621465DF8044B65
:105B2000FFF7D4BF0068134680680A46014900F0B9
:105B30000EBF00BF75E7040013460A46014618462B
:105B4000FFF7F0BF2DE9F041094F0A4E054600244A
:105B50004FF00C082B6808FB04F29868D2593146C4
:105B6000013400F0F4FE142CF4D10020BDE8F081E3
:105B700098E9040058D0040038B5044639B31568D4
:105B80001449284646F06DFA38B923681249D3F80B
:105B90002001BDE8384001F004BA1049284646F01B
:105BA00060FA38B923680C49D3F82001BDE83840C1
:105BB00001F007BA0A49284646F053FA38B9236873
:105BC0000549D3F82001BDE8384001F024BA072088
:105BD00038BD00BF26030500C80C00203CE80400C7
:105BE00044E8040008B568220021024845F01AFE86
:105BF000002008BDC80C002070B51546D1B1106852
:105C000046F041FA1028064614D80B4C1122002108
:105C100004F1200045F006FE2968324604F1200018
:105C200045F0D8FD94F8643043F0080384F86430FC
:105C3000002070BD0720FCE7C80C00200129F8B542
:105C40000646144612D11F49206800231022FBF794
:105C5000C7FC102808D11C4A92F8653043F00203B3
:105C600082F865300020F8BD0720FCE70229FBD14F
:105C70001649106846F0F5F90028F5D16768124C0E
:105C800094F864301A0717D43368D3F8200101F070
:105C9000E3FC054694F86430DB0610D43368D3F88F
:105CA000200101F060FC0246064B2946384601F00F
:105CB000B0F90028CFD0D6E704F12005EAE7044A7E
:105CC000F2E700BF140D0020C80C0020D1D404005E
:105CD000F90C002037B589B1106801A9FCF784FCE4
:105CE00050B9074B019C93F86420E517C3E90045C0
:105CF00042F0010283F8642003B030BD0720FBE7C7
:105D0000C80C002007B589B1106801A9FCF76CFC2C
:105D100048B9074B019AA3F84A2093F8652042F04E
:105D2000010283F8652003B05DF804FB0720FAE761
:105D3000C80C002007B581B1106801A9FCF754FC1C
:105D400040B9074B019A1A6693F8652042F00802A1
:105D500083F8652003B05DF804FB0720FAE700BF75
:105D6000C80C002007B581B1106801A9FCF73CFC04
:105D700040B9074B019A5A6493F8642042F04002FC
:105D800083F8642003B05DF804FB0720FAE700BF46
:105D9000C80C002007B589B1106801A9FCF724FCE4
:105DA00048B9074B019AA3F8482093F8642042F0C1
:105DB000800283F8642003B05DF804FB0720FAE753
:105DC000C80C002037B589B1106801A9FCF70CFC9C
:105DD00050B9074B019C93F86420E517C3E90245CD
:105DE00042F0020283F8642003B030BD0720FBE7D5
:105DF000C80C002037B514460D46C1B1106801A982
:105E0000FCF7F2FBD0BB1E4B019AA3F85C20012DDE
:105E100083F85E002CD96168013911F8012F3AB37B
:105E20006E2A16D005D8622A1DD0632A16D0072004
:105E300024E06F2A06D0722AF9D193F85E2042F04E
:105E4000200203E093F85E2062F07F0283F85E2078
:105E5000E3E793F85E2042F04002F7E793F85E2014
:105E600042F01002F2E793F85E2042F00802EDE7FC
:105E700093F8652042F0040283F8652003B030BD3A
:105E8000C80C002038B50446D1B115680D49284624
:105E900046F0E7F838B923680B49D3F82001BDE88C
:105EA000384001F086B80949284646F0DAF838B992
:105EB00023680549D3F82001BDE8384001F089B8CE
:105EC000072038BD26030500C80C00203CE804006C
:105ED00007B51046C1B10068002308226946FBF7E8
:105EE0007FFB002810DB094A6B4603CB92F8643035
:105EF000C2F8310043F01003C2F8351082F8643064
:105F0000002003B05DF804FB0720FAE7C80C00206E
:105F10007FB51046C1B16C460068002310222146AF
:105F2000FBF75EFB10280FD194E80F00074E06F137
:105F3000100585E80F0096F8643043F0040386F8F6
:105F40006430002004B070BD0720FBE7C80C0020BF
:105F50001FB5A9B11068694601F0DBF8024660B9C7
:105F6000084C6B4603CB94F86430C4F8390043F016
:105F70002003C4F83D1084F86430104604B010BD0E
:105F80000722FAE7C80C00202DE9F04F8146C3B084
:105F900015460E46E1B16822002108A845F042FCF2
:105FA00000247308DFF834B300932746009BA34214
:105FB00000F058812B1DBD4953F834A0504646F0DF
:105FC00050F8D8B9E3B201335B00DBB29E4201D88E
:105FD000072056E19DF8842055F8230042F0010285
:105FE00003A98DF88420FCF7FFFA002840F04981CE
:105FF000039AD317CDE908230134D7E7AC495046BB
:1060000046F02FF8C0B9E3B201335B00DBB29E4229
:10601000DED99DF8842055F8230042F0020203A93E
:106020008DF88420FCF7E0FA002840F02A81039ADA
:10603000D317CDE90A23DFE75946504646F011F859
:106040008046B0B9E0B201304000C0B28642BFD94C
:106050009DF8843055F8200043F004038DF8843017
:10606000102243460CA9FBF7BBFA1028B0D14746D3
:10607000C2E79049504645F0F4FF8046F0B9E3B2DC
:1060800001335B00DBB29E42A2D99DF8842055F813
:1060900023A042F0080250468DF8842045F0F3FF1B
:1060A0001028074694D84146112210A845F0BAFBA3
:1060B0003A46514610A845F08DFBD8E77E49504638
:1060C00045F0CFFFE0B95FFA84FC0CF1010C4FEA18
:1060D0004C0C5FFA8CFC66457FF67AAF9DF88430F5
:1060E00043F010038DF88430034655F82C00082245
:1060F0000DF15101FBF774FA0028BFF67DAF67E799
:106100006E49504645F0ADFFD8B9E3B201335B00AC
:10611000DBB29E427FF65CAF9DF8842055F82300E9
:1061200042F0200204A98DF8842000F0F2FF00283C
:1061300040F0A78004AB03CBCDF85900CDF85D103B
:106140005AE75F49504645F08CFFB8B9E3B20133D6
:106150005B00DBB29E427FF63BAF9DF8842055F892
:10616000230042F0400203A98DF88420FCF73CFA9A
:10617000002840F08680039B19933DE75149504623
:1061800045F06FFFB8B9E3B201335B00DBB29E426A
:106190007FF61EAF9DF8842055F8230042F0800260
:1061A00003A98DF88420FCF71FFA002869D1039B0E
:1061B000ADF8683020E74449504645F052FFB8B981
:1061C000E3B201335B00DBB29E427FF601AF9DF884
:1061D000852055F8230042F0010203A98DF885209F
:1061E000FCF702FA00284CD1039BADF86A3003E7B4
:1061F0003649504645F035FFA8B9E3B201335B009C
:10620000DBB29E427FF6E4AE9DF8852055F8230070
:1062100042F0080203A98DF88520FCF7E5F980BB60
:10622000039B2093E8E62A49504645F01AFF019067
:1062300000287FF4CDAEE2B201325200D2B29642D3
:106240007FF6C6AE55F82280404645F01CFF01306F
:10625000B0F5817F4FEA500742D2019BBAB222A922
:10626000404647E72C681B49204645F0FAFE58B9DE
:10627000D9F80000FBB2D0F8200122AA08A900F04A
:10628000B6FE43B0BDE8F08F1349204645F0E9FE65
:1062900000287FF49DAED9F80000FBB222AA08A91D
:1062A000D0F8200100F0AFFEEBE700BF48E80400A3
:1062B00058E80400EFE0040013E004005DE9040086
:1062C00069E8040016E0040086DF040074E80400B6
:1062D000FDE60400260305003CE8040098E0040005
:1062E0000320CEE72DE9F04F814693B0174688464C
:1062F000002975D00025ADF8145001242E46A04584
:1063000040F29C801F2E00F3C18057F824A0604902
:10631000504645F0A6FE40B99DF8143043F0010305
:106320008DF814300134E4B2E9E75A49504645F09B
:1063300098FE20B99DF8143043F00203F0E7564967
:10634000504645F08EFE20B99DF8143043F004030A
:10635000E6E75249504645F084FE20B99DF81430D6
:1063600043F00803DCE74E49504645F07AFE20B979
:106370009DF8143043F01003D2E74A49504645F0E7
:1063800070FE20B99DF8143043F02003C8E7464959
:10639000504645F066FE20B99DF8143043F04003A6
:1063A000BEE74249504645F05CFE20B99DF81430E6
:1063B00043F08003B4E73E49504645F052FE30B901
:1063C0009DF8153043F001038DF81530AAE73949DF
:1063D000504645F046FEF8B90134E4B2A04501D874
:1063E00007203DE057F824B00390584645F04BFE97
:1063F000C6F120020130B2EB600F4FEA600A45D3CC
:106400000AA9039B1FFA8AF231445846FBF7E8F8C1
:106410000028E5DB564485E72749504645F021FE34
:106420000028DDD10134E4B2A045D9D957F82400C1
:1064300006A900F06EFE98B9012573E73C681F4974
:10644000204645F00EFE70B9D9F80030D3F820018F
:10645000F3B205B106AD00950AAA05A900F0C1FD89
:1064600013B0BDE8F08F1649204645F0FAFD00282C
:10647000B6D1D9F80030D3F82001F3B205B106AD9A
:1064800000950AAA05A900F0B8FDE9E70320E7E7AF
:1064900048E8040058E8040098E00400EFE0040035
:1064A00013E004005DE9040069E8040016E004005C
:1064B00086DF0400FDE604007427050026030500BE
:1064C0003CE804002DE9F041DFF8208006460D4647
:1064D00017460024A74207DD33682A5D98684146C5
:1064E00000F035FA0134F5E7BDE8F081CCD40400C2
:1064F00037B591F864300C469907054606D5006813
:1065000070498068D4E9022300F021FA94F86430DD
:10651000DA0706D528686C498068D4E9002300F0C2
:1065200016FA94F86530DB0706D52B68B4F84A20D4
:106530006649986800F00BFA94F86530180705D59D
:106540002B68226E6249986800F001FA94F8643072
:10655000590605D52B68626C5E49986800F0F7F91A
:1065600094F86430DA060FD52B685B49986800F020
:10657000EEF904F1310128460822FFF7A3FF2B684A
:106580005649986800F0E3F994F864309B0616D5F4
:10659000B4F83F10B4F83B30B4F83920286849BA51
:1065A00089B20191B4F83D1049BA89B200915BBA41
:1065B00052BA4B4980689BB292B200F0C8F994F885
:1065C000643058070ED52B684649986800F0BFF92B
:1065D0001022A1182846FFF775FF2B683F499868DD
:1065E00000F0B5F994F8643019070CD52B683E49D2
:1065F000986800F0ACF928683C49806804F12003F1
:10660000112200F0A4F994F86430DB0906D02B685D
:10661000B4F848203649986800F099F994F8653044
:106620009A070FD52B683349986800F090F904F168
:106630004C0128461022FFF745FF2B682749986830
:1066400000F085F994F865305B0738D52B68B4F80D
:106650005C209868284900F07AF994F95E30002BA4
:1066600004DA2B682549986800F071F994F85E30D7
:10667000580604D52B682249986800F068F994F808
:106680005E30990604D52B681E49986800F05FF9C2
:1066900094F85E30DA0604D52B681B49986800F040
:1066A00056F994F85E301B0704D52B681749986893
:1066B00000F04DF92B680949986800F048F900206E
:1066C00003B030BD80E8040099E8040020D2040043
:1066D000B1E80400C6E80400D2E8040029DF0400A1
:1066E000DFE8040003E9040010E904009ED504007B
:1066F0001FE9040030E9040037E9040084DF0400E6
:10670000DDEF04000CF004005CDA040076EE040017
:1067100010B503689AB004466946D3F8200100F02A
:1067200040FC18B969462046FFF7E2FE1AB010BDDA
:1067300010B503689AB004466946D3F8200100F00A
:1067400040FC18B969462046FFF7D2FE1AB010BDCA
:106750002DE9F14F074690460C4629B9174901B07B
:10676000BDE8F04FFFF7C4BED2F800A0144D0026DC
:106770004FF00C0B0BFB06F9504659F8051045F08D
:1067800070FC98B94D44AA686B68511007EB620021
:10679000D20748BF7A5804F1FF3148BFD358C9B275
:1067A00008F1040201B0BDE8F04F18470136142E7D
:1067B000E0D1232001B0BDE8F08F00BFC80C00205D
:1067C00098E904002DE9F041094F0A4E05460024DE
:1067D0004FF00C082B6808FB04F29868D259314638
:1067E000013400F0B4F8042CF4D10020BDE8F081AD
:1067F000E0EA040058D0040013B503680446694673
:10680000D3F8200100F09BFC206808226946FBF7C2
:106810008FFD23680349986800F099F8002002B0C2
:1068200010BD00BF29DF040030B5012987B0144630
:1068300017D902290C4B056818BF926803934FF0D3
:1068400000030293094B0193094B00930490094BF9
:106850006168D5F8200108BF002200F064FC07B091
:1068600030BD0720FBE700BF1D69000093EA04006C
:10687000B3EA040088EA040008B50368D3F82001ED
:1068800000F057FC002008BD2DE9F14F0746904667
:106890000C4631B90A46FFF795FF232001B0BDE849
:1068A000F08FD2F800A0104D00264FF00C0B0BFB20
:1068B00006F9504659F8051045F0D3FB78B94D4418
:1068C000AA686B68511007EB6200D20744BF7A5880
:1068D000D3582146424601B0BDE8F04F1847013673
:1068E000042EE4D1D9E700BFE0EA0400036810B544
:1068F00008469C6829B920460649BDE8104000F0CA
:1069000026B802F0F3F9044902462046BDE81040DB
:1069100000F01DB8BCEA0400CBEA04000B460146B7
:106920001846FFF7E3BF10B5A0B00446134668460B
:106930000A46802145F014FD684645F0A4FB236813
:1069400082B21B6869462046984720B010BD0EB43D
:1069500003B503AA52F8041B0192FFF7E4FF02B04B
:106960005DF804EB03B070472DE9F041094F0A4E82
:10697000054600244FF00C082B6808FB04F29868C9
:10698000D25931460134FFF7E2FF062CF4D1002042
:10699000BDE8F08144EB040058D00400043001F05D
:1069A00054B80000014610B451F8044B034A0346A2
:1069B000D4F820015DF8044B01F035B8F56C000007
:1069C00030B5022987B00546144617D1002114229C
:1069D00001A844F027FF206801A900F09AFB58B9EC
:1069E00060686946FBF700FE30B9009BADF81430D3
:1069F00001A9281D01F02BF807B030BD0720FBE7E7
:106A000030B5022987B00546144617D1002114225B
:106A100001A844F007FF206801A900F07AFB58B9EB
:106A200060686946FBF7E0FD30B9009BADF81430B3
:106A300001A9281D01F00DF807B030BD0720FBE7C4
:106A400010B53822044640F8041B002144F0EAFE49
:106A5000204610BDF7B530230D4616468DF8073099
:106A600000246127B4421AD001220DF10701284603
:106A700000F08DFCA0B99DF807300133DBB25B2B31
:106A800007D07B2B09D03A2B08BF41238DF8073064
:106A900001E08DF807700134E4E73023F6E70020C9
:106AA00003B0F0BD2DE9F0439BB00D46074690467C
:106AB00000212C2202A844F0B5FE6B1E032B00F22D
:106AC0009C80022D3AD9D8F8000006A900F021FBDD
:106AD0000446002840F08D80D8F804000DA9FBF78B
