:101000000000042051BE020079BE02007BBE020037
:101010007DBE02007FBE020081BE02000000000013
:1010200000000000000000000000000083BE02007D
:1010300085BE02000000000087BE020089BE0200DB
:10104000598C020075F002008BBE02008BBE0200BC
:101050008BBE02008BBE02008BBE02008BBE020064
:101060008BBE02008BBE02008BBE02008BBE020054
:101070008BBE0200996B02008BBE02008BBE020089
:101080008BBE02008BBE02008BBE02008BBE020034
:101090008BBE02008BBE02008BBE02008BBE020024
:1010A0008BBE02008BBE02008BBE02008BBE020014
:1010B0008BBE02008BBE020000000000000000009A
:1010C0008BBE02008BBE02008BBE02008BBE0200F4
:1010D000CD6402008BBE02008BBE0200E19B0200C9
:1010E0008BBE02008BBE0200ED1E0300000000005C
:1010F000000000008BBE0200000000008BBE02005A
:1011000000000000000000000000000000000000DF
:1011100000000000000000000000000000000000CF
:1011200000000000000000000000000000000000BF
:1011300000000000000000000000000000000000AF
:10114000000000000000000000000000000000009F
:10115000000000000000000000000000000000008F
:10116000000000000000000000000000000000007F
:10117000000000000000000000000000000000006F
:10118000000000000000000000000000000000005F
:10119000000000000000000000000000000000004F
:1011A000000000000000000000000000000000003F
:1011B000000000000000000000000000000000002F
:1011C000000000000000000000000000000000001F
:1011D000000000000000000000000000000000000F
:1011E00000000000000000000000000000000000FF
:1011F00000000000000000000000000000000000EF
:1012000010B5054C237833B9044B13B10448AFF340
:1012100000800123237010BD600200200000000048
:10122000FC64040008B5034B1BB103490348AFF34A
:10123000008008BD0000000064020020FC6404007F
:10124000154B002B08BF134B9D46A3F5803A002198
:101250008B460F461348144A121A3CF0F2F80F4B13
:10126000002B00D098470E4B002B00D09847002051
:10127000002104000D000D48002802D00C48AFF3F7
:1012800000803CF069F82000290000F015F83CF0DF
:101290003DF800BF0000080000000420000000002E
:1012A000000000006002002058080120000000003B
:1012B000000000007047000070B505460E4631463C
:1012C000284625F05DFD04F0FEFF044628B90C4BCE
:1012D0000C4A0D4867213BF0FBFF00F049F820461F
:1012E00037F065FF25F074FD18B1204604F0F1FFDA
:1012F000E5E7204605F043FA204625F06FFDF1E7CB
:1013000081EB03007CEB03008AEB03004FF0FF301E
:101310007047B0F8163BB0F8182BC3F500618A424D
:10132000CCBFA0F81A1BA0F81A2BB0F81A1B21B1D9
:1013300000F21630184425F077BE704710B50A4BFE
:10134000044640F8043B00F03FFA084B23600023BA
:10135000A4F81433A4F8163BA4F8183BA4F81A3BDD
:1013600025F05AFE204610BDD8EB0300E4EB030045
:1013700010B5044C01462046FFF7E0FF024B1C600D
:1013800010BD00BF80020020080E002010B5B0F88C
:101390001433013BC218044692F814210A2A01BFF3
:1013A000A0F8143310FA83F3002283F81421B0F864
:1013B0001433013BC21892F814210D2A01BFA0F882
:1013C000143310FA83F3002283F81421B0F81423A5
:1013D0002AB1034600F58A71043003F063FB002054
:1013E000A4F8140310BD00002DE9F8432A4FDFF8DC
:1013F000AC80DFF8AC9004460D468E18B54249D259
:101400002B780A2B19D014D8082B2ED0B4F814330B
:10141000B3F5FF7F27D8236801221B6829462046A1
:101420009847B4F814335A1CA4F814232A78234498
:101430002DE00D2B01D07F2BE7E7236802221B68EC
:10144000394620469847B4F8143333B12344002278
:1014500083F814212046FFF799FF236802221B68B6
:101460004146204698470135C8E7B4F81433002BAD
:10147000F9D0236803221B68494620469847B4F8F0
:101480001433013B9BB2A4F814330022234483F8A5
:101490001421E8E7BDE8F883EDEB0300EBEB030074
:1014A000E8EB0300024B0A4601461868FFF79CBFB1
:1014B000080E0020B0F81A3B0BB9FFF72ABF70479F
:1014C00070B5B0F8184BC4F50064A4B2944228BFBC
:1014D00014460D466B1A9C420FDDB0F8182BB0F87D
:1014E000163B15F8016B1344C3F30A03034401329E
:1014F00083F81663A0F8182BECE7FFF7DBFF204614
:1015000070BDB0F81A1BB0F8162B0A44C2F30A02D9
:10151000A0F8162BB0F8182B521AA0F8182B00229E
:10152000A0F81A2BFFF7F5BE014B1868FFF7E9BFCB
:10153000080E00202DE9F0410F4F104E0546002403
:101540004FF00C0808FB04F33146DA59A86801345F
:1015500004F0FAFB412CF5D1084E00242B79A3426C
:1015600008D92B68A86853F83420314604F0ECFB06
:101570000134F3E7BDE8F081D0F80300E6FB030097
:10158000D0F80C0104F0A9BED0F80C0104F0A3BE01
:1015900038B504468568D0F80C0105F0E0F9054936
:1015A0000246284604F0D0FBA0680349BDE8384055
:1015B00004F0CABBA2ED0300C7EE030010B5C0B033
:1015C0000446002308468DF8FF301146FF236A4683
:1015D00037F0EFFDA46868463CF07CFB236882B2DC
:1015E0001B6869462046984740B010BD0149806895
:1015F00004F0AABBC7EE030010B504468AB06946E2
:10160000D0F80C0104F0FBFFBDF800202B49A068C6
:1016100004F09AFBBDF802202949A06804F094FB6D
:10162000BDF80630BDF804202649A06804F08CFB04
:10163000BDF80A30BDF808202349A06804F084FBF7
:10164000BDF80E30BDF80C202049A06804F07CFBEA
:10165000BDF81230BDF810201D49A06804F074FBDD
:10166000BDF81630BDF814201A49A06804F06CFBD0
:10167000BDF81A30BDF818201749A06804F064FBC3
:10168000BDF81E30BDF81C201449A06804F05CFBB6
:10169000BDF82230BDF820201149A06804F054FBA9
:1016A000BDF82630BDF824200E49A06804F04CFB9C
:1016B0002046FFF79BFF0AB010BD00BF31F60300C4
:1016C0003DF6030048F603005AF603006CF60300EB
:1016D00079F6030086F6030093F60300C1F60300D3
:1016E000A0F60300B5F6030070B5224E8EB0044696
:1016F000002509AAE9B2D4F80C0105F06FFA002818
:1017000032D19DF83730DB072CD5BDF83410069167
:10171000BDF83210BDF82630BDF82420A06849BAC3
:1017200089B20591BDF8301049BA89B20491BDF86B
:101730002E1049BA89B20391BDF82C1049BA89B26A
:101740000291BDF82A1049BA89B20191BDF828105A
:1017500049BA89B25BBA52BA00919BB292B2314691
:1017600004F0F2FA0135C4E72046FFF73FFF0EB060
:1017700070BD00BF78F4030010B5044604F0B0FD5E
:1017800004490246A06804F0DFFA2046BDE8104094
:10179000FFF72CBFE6FB030010B50446D0F80C01A0
:1017A00005F06AF940B10549A06804F0CDFA204679
:1017B000BDE81040FFF71ABF0149F5E79FF50300A8
:1017C000A6F5030000BA704770B5002504460E4622
:1017D00005600571856029462C220C303BF031FEF6
:1017E000184A84F858504FF47A73C4E90E23164B04
:1017F000C4E9103504F14003A364214604F19800C4
:1018000004F066FB2146C4F8D44004F1D80003F08C
:101810002DFB22463046C4F80C610C4905F0E1F876
:101820000B4BD4F80C01C4E9133404F14C0104F05F
:1018300040FD3E22294604F159003BF002FE2046BD
:1018400070BD00BF08000100293E0000154C0000DB
:10185000ED3C00002DE9F041074690460C463CF077
:1018600039FA3D1800F001060130B8EB500F12D3E1
:10187000384621460022854221D910F8013BA3F1C8
:101880004107052F0BD8373B1343DBB29EB10B70DA
:1018900000260131EEE74FF0FF30BDE8F081A3F103
:1018A0006107052F01D8573BEEE7303BDBB2092B30
:1018B000F1D81343EAE71B01DAB20126DBE7081B84
:1018C000EBE7000070B50C4619B9BDE87040FFF7B2
:1018D0008DBE8568084606F0B3FA224603460349E2
:1018E0002846BDE8704004F02FBA00BFDCFB0300BF
:1018F00070B505460E46B1B9D0F80C0105F09CF85C
:10190000044650B11249A86804F01EFA3046014658
:101910002846BDE87040FFF7D5BF0E49A86804F01F
:1019200013FA2046F3E714680B4920463CF0ABF964
:1019300028B90121D5F80C0105F092F8E7E707492D
:1019400020463CF0A0F901460028F3D00720DEE74E
:1019500075F50300C1EF03007FF5030086F5030072
:1019600010B50446D83003F0C7FA01462046BDE85A
:101970001040FFF7A7BF000070B505460E46B1B98D
:10198000D0F80C0104F0BCFC044650B11249A86820
:1019900004F0DAF9304601462846BDE87040FFF70A
:1019A00091BF0E49A86804F0CFF92046F3E7146808
:1019B0000B4920463CF067F928B90121D5F80C0104
:1019C00004F092FCE7E7074920463CF05CF9014649
:1019D0000028F3D00720DEE797F403009CF403000F
:1019E000A3F40300A6F4030037B504466946D0F813
:1019F0000C0104F0ACFF0546E0B9009A1049A0685C
:101A000004F0A2F99DF804200E49A06804F09CF9A6
:101A10009DF805200C49A06804F096F99DF8062071
:101A20000A49A06804F090F99DF807200849A068C9
:101A300004F08AF929462046FFF744FF03B030BD81
:101A4000CFF60300E2F60300F9F60300F2F6030016
:101A50000CF70300F0B5134685B00446C9B9D0F8B9
:101A60000C01144F05F0C2F8461E00F10F0516F8E0
:101A7000012FA068394604F067F9AE42F7D10E494C
:101A8000A06804F061F900212046FFF71BFF05B0B4
:101A9000F0BD102269461868FFF7DCFE102806D159
:101AA0006946D4F80C0105F0A6F80146ECE70621DA
:101AB000EAE700BF9DEC03004FF00300F7B50023F9
:101AC00004468DF8043071BBD0F80C0104F09BFE85
:101AD0008DF80400C00703D54249A06804F034F92A
:101AE0009DF80430990703D53F49A06804F02CF90C
:101AF0009DF804305A0703D53C49A06804F024F946
:101B00009DF804301B0703D53949A06804F01CF97F
:101B10003849A06804F018F90021204603B0BDE858
:101B2000F040FFF7CFBE15689E46013D19461E46A0
:101B300018461F469C4615F8012F6AB36E2A25D019
:101B40001AD8642A1FD0BCF1000F05D09DF80430CC
:101B500043F001038DF8043028B19DF8043067F399
:101B600041038DF8043029B19DF8043066F38203F7
:101B70008DF804300621D0E7722A0AD0732AE2D108
:101B800001200746D7E701210E46D4E701239E46F0
:101B9000D1E74FF0010CCEE7BCF1000F05D09DF866
:101BA000042042F001028DF8042028B19DF80420A1
:101BB00067F341028DF8042029B19DF8042066F3F3
:101BC00082028DF804202BB19DF804306EF3C3031C
:101BD0008DF804309DF80410D4F80C0104F03BFE9D
:101BE00001469AE71A0D04004209040024F6030096
:101BF000250A04004FF003002DE9F04F00238BB0BD
:101C000099420446ADF802300BDD15684649284676
:101C10003CF039F8064630B1444928463CF033F8E8
:101C200048B107217AE04249A06804F08DF84149A3
:101C3000A06804F089F8DFF81C81DFF81C91DFF858
:101C40001CA1D4F80C0101AF3A460DF1020104F0D9
:101C500071FE00285DD1A068002E54D19DF824307B
:101C6000DFF8FCB013F0100F0CBF5222432249469C
:101C700004F06AF8BDF81020A068514604F064F83A
:101C8000039A2D49A06804F05FF89DF91D202B49A7
:101C9000A06804F059F89DF91E202949A06804F0B5
:101CA00053F89DF824202749A06802F0010204F0AF
:101CB0004BF89DF824202349A068C2F3400204F0A9
:101CC00043F89DF824201F49A068C2F3800204F065
:101CD0003BF89DF824201B49A068C2F3C00204F021
:101CE00033F81949A06804F02FF835467A5DA068EA
:101CF0005946013504F028F8082DF7D11349A0689A
:101D000004F022F89DE7BDF81020414604F01CF8CD
:101D100097E70F49A06804F017F800212046FFF765
:101D2000D1FD0BB0BDE8F08FABF40300A6F80300C3
:101D3000B1F40300FDF403005BF5030062F503005A
:101D400069F5030070F5030070F803001CEF030051
:101D50004FF0030053F5030049F5030051F503006C
:101D60009DEC030010B50446D0F80C0104F0A3F973
:101D700001462046BDE81040FFF7A4BD2DE9F04123
:101D800086B001AF04463946D0F80C0104F0ECFDF2
:101D9000064650BB1849A068DFF8748003F0D4FFF2
:101DA00035467A5DA0684146013503F0CDFF082D28
:101DB000F7D11249A06803F0C7FFBDF80C20104905
:101DC000A06803F0C1FF9DF811200E49A06803F040
:101DD000BBFF9DF812200C49A06803F0B5FF9DF8E9
:101DE00013200A49A06803F0AFFF31462046FFF7F1
:101DF00069FD06B0BDE8F0817AEE03004FF0030004
:101E000085EE030090EE0300A6EE0300BDEE030096
:101E10009DEC030038B50446B1B9D0F80C0104F0CC
:101E20008DFB78B1D4F80C0124F09EFC50B1174919
:101E3000A06803F089FF002001462046BDE8384035
:101E4000FFF740BD1249F3E71568124928463BF0F9
:101E50001AFF58B91049D4F80C01224604F069FB66
:101E60000121D4F80C0104F070FBE5E728460B498A
:101E70003BF009FF054638B901460246D4F80C018B
:101E800004F057FB2946ECE70720D5E775F503007A
:101E9000C1EF03007FF50300493F000086F5030012
:101EA00070B505460E46A9B9D0F80C0104F00AFE3B
:101EB000044650B11349A86803F046FF3446214652
:101EC0002846BDE87040FFF7FDBC0F49A86803F045
:101ED0003BFFF4E716680D4930463BF0D4FE04465C
:101EE00028B90121D5F80C0104F0F1FDE7E7084914
:101EF00030463BF0C8FE044608B90146F2E7072425
:101F0000DDE700BF75F50300C1EF03007FF50300B7
:101F100086F5030038B50446F9B9D0F80C0104F091
:101F200012FD042817D8DFE800F0030E1012140089
:101F30001F49A06803F008FF002001462046BDE8C5
:101F40003840FFF7BFBC1B49F3E71B49F1E71B49CA
:101F5000EFE71B49EDE71B49EBE715681A492846EF
:101F60003BF091FE20B9D4F80C0104F0D8FCE4E772
:101F7000164928463BF087FE20B9D4F80C0104F03E
:101F8000D3FCDAE7124928463BF07DFE20B9D4F8AD
:101F90000C0104F0E1FDD0E70E4928463BF073FE4A
:101FA00020B9D4F80C0104F0E9FDC6E70720C4E726
:101FB000D8ED0300E3ED0300EEED0300F6ED0300C2
:101FC000FFED030008EE030018EE0300E30C04002D
:101FD00021EE030028EE0300002938B5044617DD82
:101FE00015680C4928463BF04EFE50B90121D4F843
:101FF0000C0104F005FD01462046BDE83840FFF71E
:1020000061BC054928463BF03EFE01460028EED063
:102010000720F0E7F4FB0300AEEF030010B5044621
:10202000D43003F047FE01462046BDE81040FFF7DC
:1020300049BC10B50446983003F054FF01462046D1
:10204000BDE81040FFF73EBCF0B50F1E87B0054657
:1020500016462DDD1468174920463BF014FEE0B902
:10206000012F25D0144B0393144B0193022F144BD3
:1020700000934FF000040CBF0246B268049502942E
:10208000104B7168D5F80C0104F074F9214628460C
:1020900007B0BDE8F040FFF715BC20460A493BF009
:1020A000F2FD044620B9D5F80C0104F068F9EDE71B
:1020B0000721ECE7F4FB03001946000058EE03008B
:1020C00071EE03004DEE0300AEEF030070B5044661
:1020D0000D4649B97B49806803F036FE7A49A0680D
:1020E00003F032FE2946ACE0012940F0E980156892
:1020F000764928463BF0C7FD0646002840F0A680FA
:10210000D4F80C0104F03DFA054602687049A06855
:1021100003F01AFE6A686F49A06803F015FEAA680A
:102120006D49A06803F010FEEA686C49A06803F0EE
:102130000BFE2A696A49A06803F006FE6A696949CC
:10214000A06803F001FEAA696749A06803F0FCFDDE
:10215000EA696649A06803F0F7FD2A6A6449A06845
:1021600003F0F2FD6A6A6349A06803F0EDFDAA6A14
:102170006149A06803F0E8FDEA6A6049A06803F0DD
:10218000E3FD2A6B5E49A06803F0DEFDAA6B5D49A2
:10219000A06803F0D9FDEA6B5B49A06803F0D4FDA9
:1021A0002A6C5A49A06803F0CFFD6A6C5849A068B0
:1021B00003F0CAFDAA6C5749A06803F0C5FDEA6C9C
:1021C0005549A06803F0C0FD2A6D5449A06803F08A
:1021D000BBFD6A6D5249A06803F0B6FDAA6D514976
:1021E000A06803F0B1FDEA6D4F49A06803F0ACFDB3
:1021F0002A6E4E49A06803F0A7FD6A6E4C49A0689C
:1022000003F0A2FDAA6E4B49A06803F09DFDEA6EA3
:102210004949A06803F098FD2A6F4849A06803F077
:1022200093FD6A6F4649A06803F08EFDAA6F454989
:10223000A06803F089FD4449EA6FA06803F084FDBB
:1022400031462046BDE87040FFF73CBB28463F4979
:102250003BF019FD0546002832D1D4F80C0104F0FA
:1022600024FC064602883A49A06803F06DFD728896
:102270003849A06803F068FDB2883749A06803F0C8
:1022800063FDF2883549A06803F05EFD3289344968
:10229000A06803F059FD72893249A06803F054FD2B
:1022A000B2893149A06803F04FFDF2892F49A06837
:1022B00003F04AFD328A2E49A06803F045FD11E77C
:1022C0000721BEE75DF0030063F0030069F003003F
:1022D0006DF003007BF003008FF00300A5F0030016
:1022E000BEF00300D0F00300EBF00300FCF00300AD
:1022F00011F1030024F103003EF1030050F103004B
:1023000062F1030075F1030090F103009EF10300F8
:10231000B2F10300C8F10300D9F10300EEF10300AC
:1023200001F203001BF203002DF2030049F2030047
:1023300066F203007DF2030094F20300B5F203009D
:10234000D3F20300E6F20300F9F203000EF30300F8
:1023500012F3030026F303003AF303004BF30300E8
:102360005DF303009BF303006FF303008AF30300A4
:10237000B1F30300F0B5134685B00446C9B9D0F8EF
:102380000C01144F04F07EFA461E00F10F0516F8FA
:10239000012FA068394603F0D7FCAE42F7D10E49B1
:1023A000A06803F0D1FC00212046FFF78BFA05B0AE
:1023B000F0BD102269461868FFF74CFA102806D1C4
:1023C0006946D4F80C0104F062FA0146ECE70621F4
:1023D000EAE700BF9DEC03004FF0030038B5054667
:1023E0000C46D0F80C0169B904F06CFA08490346B0
:1023F0001022A86803F0A8FC21462846BDE8384012
:10240000FFF760BA116804F061FA0146F5E700BF12
:102410006BF703002DE9F041084F06460D46904644
:102420000C46631B984506DD14F8012BB06839464D
:1024300003F08AFCF5E7BDE8F08100BF9DEC0300E6
:1024400037B505460C4699B96946D0F80C0103F03A
:10245000F2FF082269462846FFF7DCFF0549A86815
:1024600003F072FC21462846FFF72CFA03B030BD7A
:102470000721F8E74FF0030030B5C3B0FF238DF814
:10248000073004460DF1070302AA0021D0F80C0121
:1024900004F04AF9054648B902A920469DF80720EC
:1024A000FFF7B8FF0449A06803F04EFC2946204618
:1024B000FFF708FA43B030BD4FF0030037B50546CB
:1024C0000C4699B96946D0F80C0103F060FF082268
:1024D00069462846FFF79EFF0549A86803F034FCCB
:1024E00021462846FFF7EEF903B030BD0721F8E793
:1024F0004FF0030037B5134605460C4691B9D0F8A6
:102500000C0103F07DFF082201462846FFF782FFF9
:102510000C49A86803F018FC21462846FFF7D2F9B9
:1025200003B030BD082269461868FFF793F9002808
:1025300001DA0621F1E76946D5F80C0103F064FFE2
:102540000146EAE74FF0030037B5134605460C464F
:1025500091B9D0F80C0104F027F908220146284669
:10256000FFF758FF0C49A86803F0EEFB2146284608
:10257000FFF7A8F903B030BD082269461868FFF7D5
:1025800069F9002801DA0621F1E76946D5F80C015E
:1025900004F00EF90146EAE74FF0030013B50022FC
:1025A0000C4601A93BF038FC019B20601B78002BF6
:1025B00014BF0620002002B010BD000073B5054610
:1025C0000C4681B98668D0F80C0103F0FBFE0C497B
:1025D0000246304603F0B8FB204601462846FFF786
:1025E00071F902B070BD01A91068FFF7D7FF00288C
:1025F000F3D19DF80410D5F80C0103F0E7FEECE7E9
:1026000097ED03002DE9F04F00298DB0044640F30B
:1026100013811568894928463BF035FB0746002899
:102620007DD0874928463BF02EFB00287FD02846E6
:1026300003A9FFF7B3FF0546002840F0F68004AF7A
:102640003A46BDF80C10D4F80C0104F0ADFA05467A
:10265000002840F0EA80BDF822207A49A068DFF81F
:10266000388203F071FBBDF820207749A06803F0A1
:102670006BFB7649A06803F067FB2E46BA5DA06845
:102680004146013603F060FB082EF7D17049A0687F
:1026900003F05AFB6F49A06803F056FB9DF82C30FD
:1026A000D80703D56C49A06803F04EFB9DF82C3089
:1026B000990703D56949A06803F046FB9DF82C30C3
:1026C0005A0703D56649A06803F03EFB9DF82C30FD
:1026D0001B0703D56349A06803F036FB5C49A0687B
:1026E00003F032FB9DF824205F49A06803F02CFB27
:1026F000069A5E49A06803F027FB079A5C49A06828
:1027000003F022FB9DF825205A49A06803F01CFB2A
:102710009DF926205849A06803F016FB85E057492B
:10272000A06803F011FB5649A06803F00DFBD4F834
:102730000C01DFF870A1DFF870B104F0BAF90026DF
:102740008146F1B249456BD20DF110084246D4F8EA
:102750000C0104F031FA00285CD19DF82C30DD0624
:1027600058D4A068BDF82220002F55D1514603F05F
:10277000EBFABDF82020A068594603F0E5FA069A66
:102780004049A06803F0E0FA079A3E49A06803F0C8
:10279000DBFA9DF825203C49A06803F0D5FA9DF8A6
:1027A00024203A49A06803F0CFFA9DF82C2038493C
:1027B000A06802F0010203F0C7FA9DF82C2034490A
:1027C000A068C2F3400203F0BFFA9DF82C20304904
:1027D000A068C2F3800203F0B7FA9DF82C202C49C0
:1027E000A068C2F3C00203F0AFFA2A49A06803F060
:1027F000ABFA294B3D4618F80520A068019319460D
:10280000013503F0A1FA082D019BF4D12349A068FA
:1028100003F09AFA013694E7214903F095FAF9E7B3
:102820000B49A06803F090FA002529462046FFF7DF
:1028300049F80DB0BDE8F08F0725F6E7ABF40300CB
:10284000A6F803008DED03009CED03007AEE030073
:102850004FF00300A9ED03001A0D04004209040023
:1028600024F60300250A0400B0ED0300BFED0300C9
:10287000BDEE030090EE0300CDED0300C9EC0300B4
:1028800020ED030077ED03007FED030086ED0300EC
:1028900070F5030070F803009DEC03001CEF0300CB
:1028A000200204005BF5030051F5030073B50546F3
:1028B0000C4681B98668D0F80C0104F0FAF80C498E
:1028C0000246304603F040FA204601462846FEF70D
:1028D000F9FF02B070BD01A91068FFF75FFE002884
:1028E000F3D19DF80410D5F80C0104F0E6F8ECE7FC
:1028F00097ED030073B505460C4679B98668D0F8A4
:102900000C0103F048FF0C490246304603F01CFA64
:1029100021462846FEF7D6FF02B070BD01A9106817
:10292000FFF73CFE04460028F2D10199D5F80C01CE
:1029300003F035FFECE700BF97ED030037B5044621
:1029400071B98568D0F80C0104F0E3F80A49024631
:10295000284603F0F9F92046FEF748FE03B030BDE3
:1029600001A91068FFF71AFE0028F4D10199D4F8E4
:102970000C0104F0D3F8EEE797ED030010B5002941
:1029800086B004461FDD05A91068FFF707FEE8B909
:10299000059B1F2B19D8012199400F4B0193002350
:1029A000029400934FF6FF72D4F80C0104F069F81A
:1029B00060B90A49A06803F0C7F90949A06803F0A3
:1029C000C3F906B010BD0021E7E707200146204605
:1029D000FEF778FFF5E700BF41450000C6F30300AE
:1029E0001FF403002DE9F04391B00DF114080E46D9
:1029F00035230446154600212C22404601933AF027
:102A000020FD002E4ADD264928683BF03CF90028CD
:102A100044D194F85830002B3AD1012E3ED0D5F84D
:102A2000049048463BF056F93D2837D804F1590741
:102A3000494638463BF031F90123022E8DF83830F3
:102A40000BD0A96809A80FF015F910BB032E09D007
:102A500001A9E868FFF7A2FD03E0124909A80FF0F9
:102A600009F9B0B9019BADF8363000238DF810306C
:102A70000D4AD4F80C01234602A9CDE9027803F0EF
:102A800013FC30B9012384F8583011B0BDE8F0834D
:102A9000052001462046FEF715FFF6E70720F8E778
:102AA000EFEB0300F7EB0300853900004B1E012B11
:102AB0002DE9F34105460F46164641D8D2F800806D
:102AC000204940463BF0DFF80446F0B9012F0AD117
:102AD000D5F80C01AE6803F011FF02461A493046E2
:102AE00003F032F90AE001A97068FFF757FD0446C8
:102AF00020B90199D5F80C0103F004FF21462846BE
:102B0000FEF7E0FE02B0BDE8F081104940463BF020
:102B1000BAF80446A0B9012F05D1D5F80C01AE686A
:102B200003F0F5FED9E701A97068FFF737FD044609
:102B30000028E3D10199D5F80C0103F0ECFEDDE7A4
:102B40000724DBE759F7030097ED030061F7030063
:102B500073B505460C4679B98668D0F80C0103F0C8
:102B6000BBFF0C490246304603F0EEF821462846EA
:102B7000FEF7A8FE02B070BD01A91068FFF70EFDB8
:102B800004460028F2D19DF80410D5F80C0103F09A
:102B9000A7FFEBE797ED0300F0B50E1EADF5037D43
:102BA0000546144657DD17682C4938463BF06BF84C
:102BB000B8BB032E4FDD69466068FFF7EFFC48B9EC
:102BC000A668009B029330463BF084F8FC2802463E
:102BD00007D9032001462846FEF774FE0DF5037D54
:102BE000F0BD8DF80C0031460DF10D003AF005FCFA
:102BF000E46820463BF06EF8F8280246E9D88DF8E4
:102C00000B01214643A83AF0F8FB9DF80A31D5F8AC
:102C10000C0143F0010301A98DF80A3103F092FD84
:102C2000D8E70F4938463BF02EF8A0B9022E0190A4
:102C300011DD01A96068FFF7B1FC0028CAD1A468C2
:102C400020463BF047F82246C3B20199D5F80C0163
:102C500003F090FDBEE70720BCE700BF52F0030081
:102C600056F0030073B505460C4679B98668D0F86E
:102C70000C0103F058FF0C490246304603F064F89B
:102C800021462846FEF71EFE02B070BD01A910685D
:102C9000FFF784FC04460028F2D19DF80410D5F813
:102CA0000C0103F044FFEBE797ED030073B5054615
:102CB0000C4681B98668D0F80C0103F0BEFB0C49C4
:102CC0000246304603F040F8204601462846FEF70B
:102CD000F9FD02B070BD01A91068FFF75FFC002884
:102CE000F3D1BDF80410D5F80C0103F0AAFBECE712
:102CF000A2ED030073B505460C4681B98668D0F88D
:102D00000C0103F08FFF0C490246304603F01CF81B
:102D1000204601462846FEF7D5FD02B070BD01A948
:102D20001068FFF73BFC0028F3D19DF90410D5F89B
:102D30000C0103F07BFFECE797ED030073B505464C
:102D40000C4681B98668D0F80C0103F091FB0C4960
:102D50000246304602F0F8FF204601462846FEF7BC
:102D6000B1FD02B070BD01A91068FFF717FC002883
:102D7000F3D10199D5F80C0103F07FFBEDE700BF1B
:102D800097ED0300002913B5044610DD01A9106872
:102D9000FFF704FC28B99DF80410D4F80C0103F0E7
:102DA000D2FE01462046FEF78DFD02B010BD072081
:102DB000F7E700002DE9F04F002989B0044640F301
:102DC000EE801568774928463AF05DFF07460028EF
:102DD00072D0754928463AF056FF002874D028462C
:102DE00002A9FFF7DBFB0546002840F0CC8003AFCB
:102DF0003A46BDF80810D4F80C0103F0E7FE05468A
:102E0000002840F0C0809DF81C206849A06802F0AE
:102E1000010202F099FF9DF81C30DA0740F1B380FF
:102E20009DF816206249A06802F08EFFBDF81420BC
:102E30006049A06802F088FF9DF817205E49A068ED
:102E4000920202F081FF9DF81C205C49A068C2F349
:102E5000400202F079FF9DF81C309B0740F19380FF
:102E60005749A068DFF8908102F06EFF2E46BA5DE8
:102E7000A0684146013602F067FF082EF7D151499C
:102E8000A06802F061FF9DF818204F49A06802F089
:102E90005BFF9DF819204D49A06802F055FF9DF891
:102EA0001A204B49A06802F04FFF9DF81B204949AA
:102EB000A06802F049FF66E04749A06802F044FFBD
:102EC0004649A06802F040FFD4F80C01DFF834A1B5
:102ED000DFF834B103F078FE002581460DF10C08CF
:102EE000EEB242463146D4F80C0103F06FFE0028E2
:102EF00040D1A068002F4DD19DF81620514602F018
:102F000023FFBDF81420A068594602F01DFF9DF86C
:102F100017203349A06802F017FF9DF818203149A7
:102F2000A06802F011FF9DF819202F49A06802F057
:102F30000BFF9DF81A202D49A06802F005FF9DF8AF
:102F40001B202B49A06802F0FFFE2A49A06802F06E
:102F5000FBFE294B3E4618F80620A068019319464F
:102F6000013602F0F1FE082E019BF4D12349A0683E
:102F700002F0EAFE0135EBB29945AFD21149A068E3
:102F800002F0E2FE002529462046FEF79BFC09B030
:102F9000BDE8F08F32461A4902F0D6FEEAE707256F
:102FA000F1E700BFABF40300A6F803007BEF0300DA
:102FB00013F703009CED030087EF030098EF030075
:102FC0007AEE03004FF00300A3EF030090EE03003E
:102FD000A6EE0300BDEE0300CEEE030021EF0300DA
:102FE00062F5030069F503007FED030074EF030051
:102FF0005BF5030070F803009DEC03001CEF030079
:103000002002040074F8030051F5030073B505466F
:103010000C4679B98668D0F80C0103F0B4FD0C4970
:103020000246304602F090FE21462846FEF74AFC52
:1030300002B070BD01A91068FFF7B0FA044600287D
:10304000F2D19DF80410D5F80C0103F0A0FDEBE7D8
:1030500097ED030073B505460C4679B98668D0F83C
:103060000C0103F098FD0F490246304602F06CFE59
:1030700021462846FEF726FC02B070BD01A9106863
:10308000FFF78CFA04460028F2D101994B1EFE2B63
:1030900005D8C9B2D5F80C0103F081FDE8E7072493
:1030A000E6E700BF97ED030073B505460C4679B916
:1030B0008668D0F80C0103F03EFD0C49024630460C
:1030C00002F042FE21462846FEF7FCFB02B070BD2E
:1030D00001A91068FFF762FA04460028F2D19DF8B2
:1030E0000410D5F80C0103F02AFDEBE797ED03007F
:1030F000F0B50F1E85B00446164644DD1568234919
:1031000028463AF0C0FDD0B9012F3AD003A9706823
:10311000FFF744FA78BBBDF80C501D49A06802F0D7
:1031200013FE1C49A06802F00FFE00941A4BD4F85D
:103130000C012A46002103F03DFA00B31BE003A96D
:103140002846FFF72BFAB0B9039B1F2B12D8012595
:103150009D401249A06802F0F7FD1149A06802F0F5
:10316000F3FD00940F4BD4F80C010022294603F024
:103170000DFAE2E7072001462046FEF7A3FB05B063
:10318000F0BD0546C9E70025E3E700BFA2EC030058
:10319000A9EC0300B9EC03006D450000C6F3030081
:1031A0001FF403004145000037B5054691B901A958
:1031B000D0F80C0123F03AFB044628B99DF904200D
:1031C0000C49A86802F0C0FD21462846FEF77AFBAC
:1031D00003B030BD01A91068FFF7E0F904460028EC
:1031E000F2D19DF90410D5F80C0123F029FB044617
:1031F000EAE700BFBE40040073B505460C4681B93E
:103200008668D0F80C0103F077FC0C490246304682
:1032100002F09AFD204601462846FEF753FB02B015
:1032200070BD01A91068FFF7B9F90028F3D1BDF806
:103230000410D5F80C0103F064FCECE797ED0300F3
:103240002DE9F04702298AB005460E4690463DDD3D
:1032500001A9506803F089F8002838D108F1040961
:10326000023E04460DF1140AB442E7B20DD0132C0D
:103270000AD0694659F8040FFFF790F938BB009B54
:1032800004F80A300134EFE72746D8F80040124925
:1032900020463AF0F8FC48B93B4605AA01A9D5F802
:1032A0000C0103F0A3FB0AB0BDE8F0870B492046F0
:1032B0003AF0E9FC50B93B4605AA01A9D5F80C0142
:1032C00003F099FB2846FEF791F9ECE70720014649
:1032D0002846FEF7F7FAE6E7AFF703009AFC03008B
:1032E00013B500220C4601A93AF026FE019B20608E
:1032F0001B78002B14BF0620002002B010BD000078
:1033000073B505460C4699B98668D0F80C0102F0F1
:10331000C1FF4FF47A721049B0FBF2F2304602F06E
:1033200013FD204601462846FEF7CCFA02B070BDD8
:1033300001290ED101A91068FFF7D2FF0028F1D1B1
:10334000019BD5F80C014FF47A71594302F0A7FFA5
:10335000E8E70720E6E700BF97ED030073B50546F1
:103360000C4679B98668D0F80C0103F0BDFB0C4916
:103370000246304602F0E8FC21462846FEF7A2FA53
:1033800002B070BD01A91068FFF7AAFF044600282B
:10339000F2D10199D5F80C0103F0AAFBECE700BFCC
:1033A000DDF603002DE9F04F0F1E99B006461446D6
:1033B00040F37082D2F80090A54948463AF063FC89
:1033C00050B9D6F80C0102F0D9FE01463046FEF79E
:1033D00079FA19B0BDE8F08F9E4948463AF053FC9F
:1033E00020B9D6F80C0102F0DBFEEEE79A49484618
:1033F0003AF049FC00283FD1022F40F34B82A568E8
:10340000964928463AF03FFC08B3082210A92846FE
:10341000FEF720FA082840F0E38110ADD4F80480CC
:103420008F4940463AF02FFCD0B9032F00F032828A
:103430007823042F09930CD1099BE268D6F80C017C
:10344000294602F0BFFE0028BFD10020BDE7054697
:10345000E4E709A92069FFF743FF0028B5D1EBE7AE
:10346000804940463AF00FFC0028EED12946D6F8B4
:103470000C0102F0ACFEE6E77B4948463AF003FC5B
:10348000014638B9012FD6F80C0118BF616802F067
:10349000A4FE9AE7754948463AF0F5FB38BB042F7D
:1034A00040F3F88107A96068FFF778F800288CD10D
:1034B00008A9A068FFF772F8002886D109A9E0687A
:1034C000FFF76CF8002880D110AD2946206902F082
:1034D0004CFF00287FF479AFBDF824309DF8202000
:1034E00000950799D6F80C0102F07CFE6DE7604963
:1034F00048463AF0C8FB002837D1052F40F3CA816F
:1035000006A96068FFF74AF800287FF45EAF07A9B4
:10351000A068FFF743F800287FF457AF08A9E068D8
:10352000FFF73CF800287FF450AF09A92069FFF7A6
:1035300035F800287FF449AF10AD2946606902F0E4
:1035400014FF00287FF441AF4A49BDF820309DF8B0
:103550001C200396CDE90151BDF824100091D6F846
:103560000C01069902F043FE2FE7434948463AF022
:103570008AFB18BB032F40F38D8108A96068FFF711
:103580000DF800287FF421AF09A9A068FFF706F81D
:1035900000287FF41AAF10A9E06802F0E6FE0028C8
:1035A0007FF413AF354B0093BDF82010019610AB9C
:1035B000099AD6F80C0102F025FE06E73049484684
:1035C0003AF061FB0546002840F09380DFF8BCA08C
:1035D000DFF8BCB04FF00108B84580F283801F2DA2
:1035E00000F3468154F82890264948463AF04BFBB0
:1035F00060B918AB05F101091D44092305F8203C09
:1036000008F101085FFA88F84D46E5E7514648465B
:103610003AF039FB28B918AB05F101091D440B2319
:10362000ECE7594648463AF02EFB28B918AB05F1AD
:1036300001091D440823E1E7134948463AF023FBFA
:1036400040BB18AB05F101091D441223D6E700BFAA
:10365000F4FB0300AEEF030089F7030090F70300CB
:1036600052F0030056F0030092F70300A2F70300A4
:10367000A2EC0300B94500008DFC0300DD4500000D
:10368000ABF70300B3F70300D2F70300BBF7030067
:10369000C5F70300804948463AF0F5FA002840F0A3
:1036A000F98008F101085FFA88F8B84580F2F280E5
:1036B00054F82830059318463AF00CFB01304FEAD5
:1036C0006009C5F120024A45C0F0D28010AB5919FB
:1036D000059B1FFA89F21846FEF7BCF800287FDB2D
:1036E000A9448DE7EAB210A9D6F80C0102F08FFDCB
:1036F0006BE66A4948463AF0C6FA8046002840F030
:10370000B9801A22002109A839F09BFEDFF8A0B188
:103710000125BD4280F2A380B8F11F0F00F3A880FD
:1037200054F825905E4948463AF0ADFAC0B96B1C92
:10373000DBB2BB4280F2AE809DF83C2054F82300FF
:1037400042F0010208A98DF83C20FEF727FF00286F
:103750007FF43BAE089BADF824300235EDB2D8E7DC
:10376000504948463AF08FFAB0B96B1CDBB2BB4205
:1037700080F290809DF83C2054F8230042F0020231
:1037800008A98DF83C20FEF709FF00287FF41DAE44
:10379000089BADF82630E0E7594648463AF073FA00
:1037A000824618BB6B1CDBB2BB4273DA9DF83C202F
:1037B00054F8239042F0040248468DF83C203AF039
:1037C00089FA01304FEA5008B8F1100F50D81FFAAB
:1037D00088F20DF129014846FEF73CF8002801DA8D
:1037E0000620F2E58DF82880D046B6E72E494846F7
:1037F0003AF049FAA8B96B1CDBB2BB424ADA9DF831
:103800003C2054F8230042F0080208A98DF83C201F
:10381000FEF7C4FE00287FF4D8AD089BADF83A301F
:103820009BE71D4948463AF02EFA98BB6B1CDBB269
:10383000BB422FDA54F8239048463AF04BFA013055
:103840004FEA5008B8F1200F12D81FFA88F210A9D9
:103850004846FDF7FFFF0028BFF67FAFC0E75FFADD
:1038600088F310AA09A9D6F80C0102F0D5FCACE542
:103870000320AAE50B4948463AF005FA50B9D6F8B4
:103880000C01B56802F0CDFC08490246284602F05A
:103890005BFADAE5072098E5E0F70300E7F70300B5
:1038A000B3F70300BBF70300D2F7030097ED030063
:1038B000C5F70300002330B5136001394FF47A7364
:1038C0000A2411F8010FE8B1A0F13005092D11D833
:1038D000B3F57A7F02BF10686043106008781568FE
:1038E000303803FB0050B3F57A7F1060E9D0B3FBAA
:1038F000F4F3E6E72E2804D1B3F57A7F01D16423EF
:10390000DFE7062030BD0000F0B589B005469DF820
:103910003860806814460A4618491F4602F014FAB7
:103920003EBB6189E38960882288069749BA89B2DB
:103930000391218949BA89B20291E1885BBA49BAF7
:103940009BB289B205930191A389A1885BBA49BA58
:1039500040BA9BB289B252BA0493009183B292B238
:103960000749A86802F0F0F9002385F8583009B03B
:10397000F0BD31462846FDF7A5FFF5E7AEF503009B
:10398000C5F5030010B49DF8044001945DF8044BA4
:10399000FFF7BABF10B5002986B0044614DD6946AA
:1039A000106802F0E2FC68B940238DF810309DF8F1
:1039B0001130D4F80C0143F0030369468DF811303F
:1039C00002F0A6FC06B010BD0720FBE700291FB5DA
:1039D00004460BDD6946106802F0C7FC20B9694651
:1039E000D4F80C0102F099FC04B010BD0720FBE7ED
:1039F000F0B5054687B016460C4600292BD1D0F805
:103A00000C01254E02F080FC0446002C40D0E189D8
:103A100063882288A86849BA89B20591A18949BA00
:103A200089B20491618949BA89B20391218949BA5D
:103A300089B20291E18849BA89B20191A18849BA53
:103A400089B25BBA52BA00919BB292B2314602F08F
:103A50007BF96469D9E71768104938463AF013F9D9
:103A600058B9321D611E2846FFF794FF01462846CB
:103A700007B0BDE8F040FDF725BF094938463AF0E8
:103A800002F938B9321D611E2846FFF79FFFEDE7A6
:103A90002046EBE70720E9E72FEE030052F0030092
:103AA00049EE030000291FB504460BDD6946106886
:103AB00002F05BFC20B96946D4F80C0102F036FC38
:103AC00004B010BD0720FBE700291FB504460BDD3D
:103AD0006946106802F049FC20B96946D4F80C0127
:103AE00002F029FC04B010BD0720FBE770B50546C5
:103AF0000E4689B9D0F80C0102F022FC044630B120
:103B00001149A86802F020F93446204670BD0F49DB
:103B1000A86802F019F9F8E716680D4930463AF03E
:103B2000B2F8044628B90121D5F80C0102F00CFCCA
:103B3000EBE7084930463AF0A6F8044608B90146D2
:103B4000F2E70724E1E700BF75F50300C1EF0300CA
:103B50007FF5030086F50300F0B5054687B01646ED
:103B60000C4600292BD1D0F80C012B4E02F0DAFBC9
:103B70000446002C4BD0E18963882288A86849BAA2
:103B800089B20591A18949BA89B20491618949BA7A
:103B900089B20391218949BA89B20291E18849BA6F
:103BA00089B20191A18849BA89B25BBA52BA00912F
:103BB0009BB292B2314602F0C7F82469D9E7176880
:103BC000164938463AF05FF858B9321D611E28464A
:103BD000FFF768FF0146284607B0BDE8F040FDF753
:103BE00071BE0F4938463AF04EF828B9321D611EB1
:103BF0002846FFF769FFEDE70A4938463AF043F8EF
:103C000038B9321D611E2846FFF770FFE2E72046F3
:103C1000E0E70720DEE700BF2FEE030052F00300CD
:103C200049EE030095F80300F0B51F4689B0002364
:103C300007933B78812B05460E4614464AD10B8CE0
:103C4000CA8B80682449D21A083202F07DF8E18BD1
:103C5000638A228AA86849BA89B20591A18B49BAB8
:103C600089B20491618B49BA89B20391218B49BA17
:103C700089B20291E18A49BA89B20191A18A49BA0D
:103C800089B25BBA52BA00919BB292B2134902F068
:103C90005BF8FA8894F825301149A86852BA92B2B4
:103CA00002F052F807AB0422318C304604F0B0F930
:103CB00003280BD9AC6822F028FB06460798FDF7CD
:103CC00081FD0849321A204602F03EF80649A868EC
:103CD00002F03AF809B0F0BDE9F50300F8F5030089
:103CE00010F6030026F603004FF00300FFF79CBF19
:103CF00037B5044622F009FBFDF764FD0021019071
:103D0000D4F80C0102F024FB0546B0B104220DEBFF
:103D1000020102F06BFCE8B9218F284602F062FC38
:103D2000C0B9012304F10C022946D4F80C0102F0B9
:103D3000C5FA78B9638F013B6387638F43B1E56B45
:103D400022F0E3FA2A46014604F1400004F078FF2D
:103D500003B030BD284602F041FCEEE72DE9F34107
:103D60000F1E0546164658DDD2F800802C49404605
:103D700039F089FF05F14003AA6C044650B993421B
:103D800047D0184604F024FF204601462846FDF798
:103D900099FD3BE093423ED1414605F11C000DF0F8
:103DA00069FF0028F1D11F4A4FF47A73C5E90E2349
:103DB000012485F83040BC4225DA022C0ED0032CB9
:103DC00015D0012C29D169467068FEF7E7FB002861
:103DD000DBD1009B2B870134E4B2ECE76946B06885
:103DE000FEF7DCFB0028D0D1009B6B87F3E701AA2C
:103DF000F1682846FFF75EFD0028C6D1019B002B25
:103E00000BDDEB63E7E72846FFF772FF02B0BDE882
:103E1000F0810D20B9E70520B7E70720B5E700BF1F
:103E2000AEEF030008000100024B18680430FFF7F2
:103E30005FBF00BF080E00202DE9F84F04460E4674
:103E400080683649364F01F07FFF2C253946A0683F
:103E500001F07AFF013DF9D132793249A068304F43
:103E600001F072FF1C253946A06801F06DFF013D8D
:103E7000F9D12A49A068DFF8C08001F065FF3379E5
:103E8000A068AB423CD9414601F05EFF0027327981
:103E9000A068EB19934229D232682349D25C01F021
:103EA00053FF0137102FF2D14146A068DFF88C9004
:103EB000DFF88CA0DFF88CB001F046FF00273279E4
:103EC000A068EB19934219D23268D25CA2F12003A8
:103ED0005E2B0FD8594601F037FF0137102FEED176
:103EE0001249A06801F030FF1035C8E7104901F011
:103EF0002BFFD6E7514601F027FFEEE74946FAE7E8
:103F00000C4E53253146A06801F01EFF013DF9D14A
:103F1000A0680249BDE8F84F01F016BF4FF003005A
:103F200034F8030036F8030044F803001DEF0300E3
:103F30004AF8030058F8030042F8030055F803005C
:103F400052F803004EF8030013460A46014618468D
:103F5000FFF772BF2DE9F04F0F1E89B006461546D8
:103F600040F391801822002102A839F06AFA2F212B
:103F7000286839F07BFE044600287FD000230370B8
:103F800002A9286802F0F1F9002877D1024601A9B8
:103F9000601C39F041FF019B8DF818001B78002B45
:103FA0006FD14FF00108DFF8E890DFF8E8A0C346D2
:103FB00047455ED055F828403449204639F063FE25
:103FC00040B99DF819206BF301028DF8192008F112
:103FD0000108EDE74946204639F055FE20B99DF825
:103FE000192060F30102F0E75146204639F04BFEFC
:103FF00098B1013C14F8012F002AE8D0613A122A46
:104000003FD8DFE802F0163E201B3E3E3E3E3E3EDD
:104010003E3E3E3E2A0F3E252F009DF8192042F0DD
:104020000302D2E79DF8192042F004028DF819200E
:10403000E0E79DF8192042F00802F7E79DF8192003
:1040400042F01002F2E79DF8192042F02002EDE75D
:104050009DF8192042F04002E8E79DF8192042F04F
:104060008002E3E79DF81A2042F001028DF81A2041
:10407000C0E702A9D6F80C0101F0C4FF09B0BDE801
:10408000F08F0620FAE70720F8E700BF92F503005B
:1040900097F503009BF5030070B5002986B006462E
:1040A000154624DD1122002101A839F0CAF92F217B
:1040B000286839F0DBFD0446A8B10023037001A98C
:1040C000286802F052F970B902466946601C39F05E
:1040D000A3FE009B8DF814001B7833B901A9D6F814
:1040E0000C0101F0BAFF06B070BD0620FBE7072007
:1040F000F9E70000F0B58DB000233A4D3A4E3B4F42
:104100000593044606AA05A9D4F80C0101F0ABFFFB
:10411000002863D19DF828100291BDF81E10BDF84B
:104120001A30BDF81820A06849BA89B20191BDF8CB
:104130001C1049BA89B25BBA52BA00919BB292B2D2
:10414000294601F001FE9DF829305A0703D5314672
:10415000A06801F0F9FD9DF829301B0703D5394609
:10416000A06801F0F1FD9DF82930D80603D520495B
:10417000A06801F0E9FD9DF82930990603D51D4995
:10418000A06801F0E1FD9DF829305A0603D51A49CF
:10419000A06801F0D9FD9DF82930DB0903D017494B
:1041A000A06801F0D1FD9DF82A30DB0703D5144942
:1041B000A06801F0C9FD9DF8293043F301035BB20B
:1041C000002B07D008DC01339CD10E49A06801F018
:1041D000BBFD97E70C49F9E70C49F7E700200DB064
:1041E000F0BD00BF23F7030026FC0300E308040032
:1041F00024F6030050F803001A0D040003FC03002A
:104200004209040035F703003CF7030043F70300BD
:10421000F8B5044616460D4639B9FFF76BFF01465F
:104220002046BDE8F840FDF74DBB17680B493846FE
:1042300039F029FD28B9321D691E2046FFF78AFE94
:10424000EDE70749384639F01EFD28B9321D691ED1
:104250002046FFF721FFE2E70720E0E752F00300E6
:1042600056F003002DE9F04F89B00F468046164600
:104270000021182202A839F0E4F8002F56DD2F2182
:10428000306839F0F3FC044688B10023037002A9BA
:10429000306802F06AF850B9024601A9601C39F092
:1042A000BBFD019B8DF818001B781BB1062009B0DF
:1042B000BDE8F08F0124DFF88090DFF880A0A346EE
:1042C000BC422DD056F824501949284639F0DBFC61
:1042D00038B99DF81C3043F004038DF81C300134CC
:1042E000EEE71449284639F0CEFC20B99DF81C3081
:1042F0006BF30103F1E74946284639F0C4FC20B9C5
:104300009DF81C3060F30103E7E75146284639F079
:10431000BAFC0028CAD19DF81C3043F00303DCE747
:1043200002A9D8F80C0101F0A7FEC0E70720BEE7FC
:104330004209040092F5030097F503009BF5030082
:1043400070B586B00C46064615460021112201A81C
:1043500039F077F8002C1DDD2F21286839F086FC14
:104360000446A8B10023037001A9286801F0FDFFED
:1043700070B902466946601C39F04EFD009B8DF80D
:1043800014001B7843B901A9D6F80C0101F084FE92
:1043900006B070BD0720FBE70620F9E7F0B58DB049
:1043A0000023224D224E234F0593044606AA05A959
:1043B000D4F80C0101F076FE002833D19DF82810C6
:1043C0000291BDF81E10BDF81A30BDF81820A06883
:1043D00049BA89B20191BDF81C1049BA89B25BBAD9
:1043E00052BA00919BB292B2294601F0ADFC9DF801
:1043F0002C305B0703D53146A06801F0A5FC9DF881
:104400002C3043F301035BB2002B07D008DC0133EF
:10441000CCD10949A06801F097FCC7E73946F9E714
:104420000649F7E700200DB0F0BD00BF23F70300F9
:10443000420904003CF7030035F7030043F703008B
:10444000F8B5044616460D4639B9FFF7A7FF0146F1
:104450002046BDE8F840FDF735BA17680B493846E5
:1044600039F011FC28B9321D691E2046FFF7FAFE0B
:10447000EDE70749384639F006FC28B9321D691EB8
:104480002046FFF75DFFE2E70720E0E752F0030078
:1044900056F0030038B504460D46806821B91F491F
:1044A000BDE8384001F050BC91F839201C49C2F3F6
:1044B000401201F049FC05F108021A49A06801F018
:1044C00043FC1949A06801F03FFC082205F11901DD
:1044D0002046FDF79FFF1549A06801F035FC6A8E64
:1044E0001349A06801F030FC294620460822FDF758
:1044F00091FF95F836200F49A06801F025FC95F949
:1045000037200D49A06801F01FFC95F83820A068FD
:104510000A49BDE8384001F017BC00BFC7EE0300F0
:104520005AF8030060F8030070F803004FF5030029
:1045300069F8030073F803005BF503007BF80300E0
:104540000B4601461846FFF7A5BF0000806811B969
:10455000044901F0F9BB91F901300A78024901F0F0
:10456000F3BB00BFC7EE030085F803000B4601460E
:104570001846FFF7EBBF0000F8B5144606460A469A
:1045800080680A490A4F1D4601F0DEFB013C2544C4
:10459000AC42B06805D014F8012F394601F0D4FBC5
:1045A000F6E70449BDE8F84001F0CEBB4BF7030045
:1045B000200204004FF0030010B41C4613460A46C4
:1045C000014620465DF8044BFFF7D6BF13468068CE
:1045D0000A46014901F0B8BB72F7030013460A46C8
:1045E00001461846FFF7F2BF10B5846829B9204686
:1045F0000749BDE8104001F0A7BB084603F020FCC6
:10460000044902462046BDE8104001F09DBB00BFB2
:1046100012F8030021F803000B4601461846FFF785
:10462000E3BF00002DE9F04385B004460023D0F835
:104630000C018DF8033001F025FF50BB3749A0680D
:1046400001F082FBDFF8EC80354F01AD2A460DF119
:104650000301D4F80C0101F033FF10BB08222946F6
:104660002046FDF7D7FE9DF90C607F2E0CD0314619
:10467000D4F80C01D4F8089001F043FF3246034609
:104680004146484601F060FB3946A06801F05CFBFA
:10469000DCE7012801D12349D1E70228D2D1224900
:1046A000CDE700232149A0688DF8033001F04CFBD1
:1046B000DFF884801E4FD4F80C012A460DF1030167
:1046C00001F016FF38BB2B5CFF2B0FD101300828FF
:1046D000F9D19DF90C60D4F80C01D4F8089031465A
:1046E00001F00FFF32460346394610E00822294602
:1046F0002046FDF78FFE9DF90C60D4F80C01D4F82C
:104700000890314601F0FDFE3246034641464846D8
:1047100001F01AFBCFE705B0BDE8F083B3EF03006B
:104720004FF00300CCEF0300E6EF030013F00300AB
:1047300036F0030000F0030021F003002DE9F04102
:1047400086B005460E460023D0F80C018DF80730E0
:10475000174601F097FE9EBB50BB5149A86801F077
:10476000F3FA504F504ED5F80C0103AA0DF1070192
:1047700001F0A6FE002840F09080082203A92846F8
:10478000FDF748FE9DF914407F2C0CD02146D5F84A
:104790000C01D5F8088001F0B4FE224603463946E4
:1047A000404601F0D1FA3146A86801F0CDFADAE7C7
:1047B000012801D13D49D1E70228D2D13C49CDE7BA
:1047C0003C683C49204639F05EFA014628B9012E82
:1047D0000BD0072006B0BDE8F0813749204639F0FC
:1047E00052FA38B9012EF4D13146D5F80C0101F056
:1047F0004DFEEFE73149204639F045FA18B9012E50
:10480000E7D10221F1E72E49204639F03CFA20BBDE
:10481000012EDEDD082203A97868FDF71BF80828C1
:1048200001D00620D6E703A9D5F80C0101F033FE2C
:1048300008B11828CED1022ECCD0032EC9D102A99E
:10484000B868FDF7ABFE0028C4D19DF90820D5F863
:104850000C0103A901F03DFEBCE71A49204639F0DE
:1048600012FA70B9022EB4D1082203A97868FCF7B5
:10487000F1FF0828D5D103A9D5F80C0101F013FEEA
:10488000A8E71149204639F0FEF90028A1D1012EF0
:104890009FD1D5F80C0101F00EFE00209AE700BF71
:1048A000C1EF030000F003004FF00300DAEF030054
:1048B000F4EF030086F50300A1F80300ABF8030052
:1048C00052F0030056F00300B5F803002DE9F04361
:1048D00087B00023054616468DF807300F4621BBEA
:1048E000534FDFF8648103AC22460DF10701D5F880
:1048F0000C0101F0FDFD002840F08380235CFF2BBC
:1049000040F0838001300828F8D19DF91460D5F873
:104910000C01D5F80890314601F0F3FD324603460C
:104920004146484601F010FADEE714684149204646
:1049300039F0A9F968BB032F65D102A9B068FDF76A
:104940002DFE044620B99DF80810032904D9062439
:10495000204607B0BDE8F083D5F80C0101F0DDFD7D
:10496000074676683449304639F08DF910B93A4631
:10497000214608E0082203A93046FCF76BFF08280F
:10498000E5D13A4603A9D5F80C0101F0A2FD044691
:10499000DEE72A49204639F076F958B9032F32D19B
:1049A00002A9B068FDF7FAFD04460028D0D19DF9B0
:1049B0000870D6E72249204639F065F9B0B9022FD0
:1049C00021D174681C49204639F05DF9014620B9AF
:1049D000D5F80C0101F082FDD9E7082203A9204691
:1049E000FCF738FF0828B2D103A9F1E720461549A2
:1049F00039F049F9044630B9D5F80C0101F073FDDE
:104A0000A6E70024A4E70724A2E7082221462846B7
:104A1000FDF700FD9DF91460D5F80C01D5F808905C
:104A2000314601F06EFD32460346394679E700BF54
:104A300021F00300EFF7030090F7030052F00300AA
:104A400056F00300B5F80300F7F70300F8B5054684
:104A500016460C4641B9FFF7E5FD204601462846BB
:104A6000BDE8F840FCF72EBF17680C49384639F00E
:104A70000AF928B9321D611E2846FFF75FFEEDE7EF
:104A80000749384639F0FFF828B9321D611E28461B
:104A9000FFF71CFFE2E70720E0E700BFB3FC0300DD
:104AA0008EF503002DE9F043A3B005460C461646EB
:104AB0000021802202A81F4638F0C3FC00238DF895
:104AC0000730AF6094B1711C204639F01DF9B04237
:104AD0000CD8202302AA0DF1070120461EF056FA39
:104AE00038B120222D49A86801F02EF923B0BDE885
:104AF000F0839DF8073023B92949A86801F024F90B
:104B0000F4E7029F34F057FB30B12649384639F0BC
:104B1000BAF808B12449F0E7244E04464FF00C09D6
:104B200009FB04F8384658F8061039F0ACF888B993
:104B30004644B16873684A10C90705EB02009DF846
:104B4000071048BFAA5801F1FF3148BFD35803AA44
:104B50009847CBE70134412CE2D195F8049000242A
:104B6000E6B2B14511D92B68384653F8341003EB3F
:104B7000C40839F088F801340028F1D19DF8070005
:104B8000D8F8043003A9013898472B79B342ADD146
:104B900006212846FCF796FEA8E700BF0CEC0300B0
:104BA0002CEC030047EC03004CEC0300D0F80300AE
:104BB0002DE9FF41CC8B0B8C07460E4680681349CC
:104BC000E41A01F0C1F8A4B20025C4B1318C102C54
:104BD000A046294428BF4FF010086B46424689B2D0
:104BE000304603F015FAA4EB08045FFA88F2694630
:104BF00038464544FDF70EFCA4B2ADB2E5E70449E2
:104C0000B86801F0A1F804B0BDE8F081BBF803007A
:104C10004FF0030013460A4601461846FFF7C8BF87
:104C20002DE9F041094E0A4D074600244FF00C08CB
:104C300008FB04F23B68925998682946013401F058
:104C400083F8082CF4D10020BDE8F0814CFF03006C
:104C5000E6FB0300036841F23361D3F80C0101F075
:104C60006EBA10B503680446011DD3F80C0101F0BB
:104C700075FA2368BDE81040D3F80C0101F064BA5E
:104C80002DE9F04F5E4B9BB082461868079089462D
:104C90001B798DF82030164600211B220DF12100D2
:104CA00038F0CFFBB9F1000F04DC072420461BB01D
:104CB000BDE8F08F34685349204638F0E4FF0028FF
:104CC00079D05149204638F0DEFF002875D04F4991
:104CD000204638F0D8FF002871D04D49204638F0E2
:104CE000D2FF0028E1D10427B9F1010FDDD00DF189
:104CF0000C084146706801F038FB04460028D5D105
:104D0000B9F1020FD1D0B468204638F0E3FF1F2874
:104D1000CBD82022214607A838F0C7FFB9F1030FEE
:104D20004FD03C49F06838F0AEFF002814BF4FF078
:104D3000100B4FF0000BDAF800300021D3F80C0113
:104D400001F0BEF90546002858D03A46594601F010
:104D5000C2F90221284601F0C2F907A9284601F04C
:104D6000C0F90446002840D1B9F1040F2CDC2C22F4
:104D700000210FA838F065FB98E80F0013AC84E819
:104D80000F0041F23363ADF85E3001238DF86030DF
:104D9000DAF80030D3F80C01BBF1000F29D11E4B1B
:104DA000CDF800A00FAA294601F0C4F90446002856
:104DB0003FF47CAF19E0012796E7022794E7032729
:104DC00092E74FF0100BB6E7306938F083FF84B2FA
:104DD000002CCCD0284601F086F9224631692846BD
:104DE00001F004FC04460028C1D0284601F0F6FB7F
:104DF0005CE7012FD3D000230093D3E7032455E7CA
:104E000040FE0300AFF7030036FF03003BFF030043
:104E10003FFF030046FF030065510000012938B53C
:104E20000446154616DD506838F054FF1F280FD889
:104E30000C4BA36004F114006060E46069682022F8
:104E400038F033FF2368211DD3F80C0101F081F9FC
:104E5000002038BDD0E900320349986800F074FFA3
:104E6000F6E700BFDD500000E6FB030010B510229E
:104E7000044640F8041B002138F0E3FA204610BD38
:104E80002DE9FF41074608460E4601F0A9FB0446FE
:104E9000304601F0A9FB241AA4B20CB33B681449B4
:104EA000986800F051FF0025102C3046A04628BF1E
:104EB0004FF0100801F098FB411943466A4689B249
:104EC0003046A4EB080401F093FB45445FFA88F2F6
:104ED00069463868A4B2FDF79DFAADB2002CE3D163
:104EE0003B680449986800F02FFF04B0BDE8F081EA
:104EF000ACFF03004FF003002DE9F14FB1F10008C2
:104F00000646174607DC00221146FFF789FE0720F8
:104F100001B0BDE8F08FD2F800A0104C00254FF092
:104F20000C0B0BFB05F9504659F8041038F0ABFE9A
:104F300078B94C44A16863684A10C90706EB0200BF
:104F400044BFB258D35841463A4601B0BDE8F04F8D
:104F500018470135082DE4D10620D9E74CFF03009E
:104F60002DE9F04114460D46E18B88B049BA302353
:104F700089B206468DF81F300068538A128A05915F
:104F8000A18B49BA89B20491618B49BA89B2039164
:104F9000218B49BA89B20291E18A49BA89B2019159
:104FA000A18A49BA89B200915BBA52BA9BB292B255
:104FB0004249806800F0C8FE284601F0A3F8013895
:104FC000336803282AD8DFE800F0022725233C496C
:104FD000986800F0B9FE30462946FFF751FF284691
:104FE00001F089F8F8B9284601F08CF833680128F7
:104FF0004FF00001D3F80C010CBF4FF045084FF003
:10500000430801F05DF8074698B908B0BDE8F081A3
:105010002C49DDE72C49DBE72C49D9E72C49986876
:1050200000F092FEF1E7284601F06CF80128ECD17F
:10503000D9E74246202101F04EF8284601F067F8F2
:105040000146384601F051F8284601F06EF88046D6
:10505000284601F063F841460246384601F03DF823
:10506000284601F04FF80128054617D0336822463C
:105070003946D3F80C0101F076F80546D8B133680B
:1050800028469C6802F0DCFE2A4603461149204669
:1050900000F05AFE384601F0A1FAB6E7384601F0B2
:1050A00022F82A460DF11F01384601F09FFA054605
:1050B0000028DBD0E3E733680749B0E760FE030070
:1050C0008DFE030091FE030098FE03009CFE03008A
:1050D000A1FE0300ADFE0300CFFE0300FFF740BFBB
:1050E000F0B50E461146026887B0044695681F4623
:1050F0005BB1184602F0A4FE184903463A4628461A
:1051000007B0BDE8F04000F01FBEC88B4B8A0A8A8A
:1051100040BA80B20590888B40BA80B20490488B28
:1051200040BA80B20390088B40BA80B20290C88A1D
:1051300040BA80B20190898A49BA89B25BBA52BA40
:1051400000919BB292B20649284600F0FDFD31461F
:10515000204607B0BDE8F040FFF792BEE4FE030032
:1051600009FF0300FFF7BCBF2DE9F041094E0A4DCE
:10517000074600244FF00C0808FB04F23B689259E4
:1051800098682946013400F0DFFD132CF4D100208B
:10519000BDE8F081E0000400E6FB030008B56822EA
:1051A0000021024838F04DF9002008BDA00D002074
:1051B000002970B519DD1668304638F08BFD441CA7
:1051C0006408A2B2102A12D80B4DA91A5C313046DD
:1051D0001446FCF73FFBA0420BD195F8653043F035
:1051E000020385F86530002070BD0720FCE703202E
:1051F000FAE70620F8E700BFA00D0020002970B5EF
:1052000015461ADD106838F065FD1028064616D8D8
:105210000C4C1122002104F1200038F012F9324622
:10522000296804F1200038F0E8F894F8643043F07D
:10523000080384F86430002070BD0720FCE70620D6
:10524000FAE700BFA00D0020002937B511DD01A944
:105250001068FDF7A3F950B9074B019C93F864203F
:10526000E517C3E9004542F0010283F8642003B06A
:1052700030BD0720FBE700BFA00D0020002907B5C7
:1052800011DD01A91068FDF789F948B9074B019AAA
:10529000A3F84A2093F8652042F0010283F86520C4
:1052A00003B05DF804FB0720FAE700BFA00D002063
:1052B000002907B510DD01A91068FDF76FF940B9A5
:1052C000064B019A1A6693F8652042F0080283F8AB
:1052D000652003B05DF804FB0720FAE7A00D00206D
:1052E000002907B510DD01A91068FDF757F940B98D
:1052F000064B019A5A6493F8642042F0400283F806
:10530000642003B05DF804FB0720FAE7A00D00203D
:10531000002907B511DD01A91068FDF73FF948B96B
:10532000074B019AA3F8482093F8642042F08002CA
:1053300083F8642003B05DF804FB0720FAE700BFA0
:10534000A00D0020002937B511DD01A91068FDF777
:1053500025F950B9074B019C93F86420E517C3E980
:10536000024542F0020283F8642003B030BD0720FA
:10537000FBE700BFA00D002037B50D1E144641DD30
:1053800001A91068FDF70AF9D0BB1F4B019AA3F8D9
:105390005C20012D83F85E002CD06168013911F882
:1053A000012F3AB36E2A16D005D8622A1DD0632A7F
:1053B00016D0062024E06F2A06D0722AF9D193F87D
:1053C0005E2042F0200203E093F85E2062F07F024C
:1053D00083F85E20E3E793F85E2042F04002F7E7AF
:1053E00093F85E2042F01002F2E793F85E2042F05C
:1053F0000802EDE793F8652042F0040283F8652087
:1054000003B030BD0720FBE7A00D0020002938B510
:1054100004461ADD15680E49284638F034FC38B9C0
:1054200023680C49D3F80C01BDE8384000F006BFF2
:105430000949284638F027FC38B923680549D3F8CC
:105440000C01BDE8384000F009BF072038BD00BF9F
:105450009F2F0400A00D0020C5FF0300002907B501
:10546000134619DD082269461868FCF7F3F900288D
:1054700010DB0A4A6B4603CB92F86430C2F8310065
:1054800043F01003C2F8351082F86430002003B0F6
:105490005DF804FB0620FAE70720F8E7A00D0020DE
:1054A00000297FB5134619DD6C4610222146186885
:1054B000FCF7D0F910280FD194E80F00084E06F140
:1054C000100585E80F0096F8643043F0040386F871
:1054D0006430002004B070BD0620FBE70720F9E728
:1054E000A00D002000291FB515DD6946106800F0E9
:1054F0003CFF044660B9094A6B4603CB92F864301E
:10550000C2F8390043F02003C2F83D1082F864303D
:10551000204604B010BD0724FAE700BFA00D00200C
:105520002DE9F04F0E1EC3B08146154640F36E8143
:105530006822002108A837F084FFDFF804B30124B3
:105540004FF00008A64240F33C8155F82470B04962
:10555000384638F098FBC8B9631CDBB29E4240F372
:1055600055819DF8842055F8230042F0010203A9DB
:105570008DF88420FDF712F8002840F03281039A5C
:10558000D317CDE908230234E4B2DBE7A14938465A
:1055900038F079FBB8B9631CDBB29E4240F3368128
:1055A0009DF8842055F8230042F0020203A98DF8EB
:1055B0008420FCF7F3FF002840F01381039AD317EF
:1055C000CDE90A23DFE75946384638F05CFB019005
:1055D000B0B9601CC0B2864240F318819DF88420A7
:1055E00055F8200042F004028DF884200CA9102206
:1055F000FCF730F91028019B00F0E1800620F0E074
:105600008549384638F03FFB8246F0B9621CD2B279
:10561000964240F3FB809DF8841055F8227041F0CB
:10562000080138468DF8841038F054FB1028804665
:10563000E4D81122514610A837F003FF42463946FC
:1056400010A837F0DAFED0469DE77449384638F0A6
:105650001AFBA0B9631CDBB29E4240F3D7809DF8D1
:10566000842055F8230042F010028DF884200DF1BB
:1056700051010822FCF7EEF8002884DABEE76849F9
:10568000384638F000FBC8B9631CDBB29E4240F3D9
:10569000BD809DF8842055F8230042F0200204A923
:1056A0008DF8842000F061FE002840F09A8004AB61
:1056B00003CBCDF85900CDF85D1064E75949384661
:1056C00038F0E1FAA0B9631CDBB29E4240F39E8041
:1056D0009DF8842055F8230042F0400203A98DF87C
:1056E0008420FCF75BFF00287BD1039B19934AE7DA
:1056F0004D49384638F0C7FAA8B9631CDBB29E4260
:1057000040F384809DF8842055F8230042F0800205
:1057100003A98DF88420FCF741FF002861D1039B89
:10572000ADF868302FE74149384638F0ACFAA0B9F7
:10573000631CDBB29E4269DD9DF8852055F823008D
:1057400042F0010203A98DF88520FCF727FF00280D
:1057500047D1039BADF86A3015E73549384638F034
:1057600092FA90B9631CDBB29E424FDD9DF8852012
:1057700055F8230042F0080203A98DF88520FCF7B4
:105780000DFF70BB039B2093FDE62A49384638F095
:105790007AFA00283AD1631CDBB29E4236DD55F816
:1057A0002370384638F096FA01304FEA5008B8F1C5
:1057B000800F29D81FFA88F222A938465AE798465E
:1057C000E1E62C681C49204638F05DFA60B9D9F84A
:1057D00000005FFA88F322AA08A9D0F80C0100F0B3
:1057E0004AFD43B0BDE8F08F1449204638F04BFA2B
:1057F00060B9D9F800005FFA88F322AA08A9D0F8A6
:105800000C0100F042FDECE70320EAE70720E8E79F
:10581000D5FF0300E5FF030063FD03008AFC0300DE
:10582000CF010400F6FF03008DFC030005FC03001C
:1058300001000400E0F703009F2F0400C5FF0300F0
:105840000CFD03002DE9F04FB1F1000993B0824641
:10585000904640F3CD800025DFF8C8B1ADF8145074
:1058600001242E46A14540F397801F2E00F3BC80F3
:1058700058F824705F49384638F005FA40B99DF869
:10588000143043F001038DF814300134E4B2E9E739
:105890005949384638F0F7F920B99DF8143043F0EB
:1058A0000203F0E75946384638F0EDF920B99DF883
:1058B000143043F00403E6E75049384638F0E3F982
:1058C00020B99DF8143043F00803DCE74C49384612
:1058D00038F0D9F920B99DF8143043F01003D2E71D
:1058E0004849384638F0CFF920B99DF8143043F0D4
:1058F0002003C8E74449384638F0C5F920B99DF877
:10590000143043F04003BEE74049384638F0BBF955
:1059100020B99DF8143043F08003B4E73C49384681
:1059200038F0B1F930B99DF8153043F001038DF826
:105930001530AAE73749384638F0A5F9D0B901340F
:10594000E4B2A14554DD58F824300393184638F0EA
:10595000C1F901304710C6F12002BA4244D30AAB64
:105960009919039BBAB21846FBF774FF00283DDB78
:105970003E448AE72849384638F085F9002837D16F
:105980000134E4B2A14533DD06A958F8240000F043
:10599000ECFCA0B9012578E7D8F800401F49204663
:1059A00038F071F970B9DAF80030D3F80C01F3B2BD
:1059B00005B106AD00950AAA05A900F057FC13B081
:1059C000BDE8F08F1649204638F05DF980B9DAF865
:1059D0000030D3F80C01F3B205B106AD00950AAA68
:1059E00005A900F04DFCEAE70320E8E70620E6E71A
:1059F0000720E4E7D5FF0300E5FF030063FD030094
:105A00008AFC0300CF010400F6FF03008DFC0300B5
:105A100005FC0300E0F70300CDFF03009F2F040007
:105A2000C5FF03000CFD03002DE9F041084E0746B9
:105A30000D4690460C46631B984507DD3B6814F8FD
:105A4000012B9868314600F07FF9F4E7BDE8F0815A
:105A50009DEC030037B591F864300C469907054674
:105A600006D5006870498068D4E9022300F06CF91B
:105A700094F86430DA0706D528686C498068D4E960
:105A8000002300F061F994F86530DB0706D52B6838
:105A9000B4F84A206649986800F056F994F86530E1
:105AA000180705D52B68226E6249986800F04CF9FA
:105AB00094F86430590605D52B68626C5E49986885
:105AC00000F042F994F86430DA060FD52B685B4990
:105AD000986800F039F904F1310128460822FFF7EF
:105AE000A3FF2B685649986800F02EF994F86430AB
:105AF0009B0616D5B4F83F10B4F83B30B4F8392003
:105B0000286849BA89B20191B4F83D1049BA89B2FE
:105B100000915BBA52BA9BB292B24A49806800F0D7
:105B200013F994F8643058070ED52B6846499868E5
:105B300000F00AF91022A1182846FFF775FF2B681C
:105B40003F49986800F000F994F8643019070CD5C3
:105B50002B683E49986800F0F7F828683C4980684F
:105B600004F12003112200F0EFF894F86430DB090F
:105B700006D02B68B4F848203649986800F0E4F85D
:105B800094F865309A070FD52B683349986800F070
:105B9000DBF804F14C0128461022FFF745FF2B6883
:105BA0002749986800F0D0F894F865305B0738D53D
:105BB0002B68B4F85C209868284900F0C5F894F97F
:105BC0005E30002B04DA2B682549986800F0BCF899
:105BD00094F85E30580604D52B682249986800F086
:105BE000B3F894F85E30990604D52B681E4998687E
:105BF00000F0AAF894F85E30DA0604D52B681B4949
:105C0000986800F0A1F894F85E301B0704D52B6863
:105C10001749986800F098F82B680949986800F0CF
:105C200093F8002003B030BD0D00040025000400EF
:105C300082F103003C0004005800040064000400EA
:105C40004FF003007100040095000400A20004005E
:105C50006BF70300B1000400C2000400C900040097
:105C600003FC0300250A04001A0D040050F8030089
:105C7000C808040010B503689AB004466946D3F812
:105C80000C0100F0D3FA18B969462046FFF7E2FE8E
:105C90001AB010BD10B503689AB004466946D3F82F
:105CA0000C0100F0D3FA18B969462046FFF7D2FE7E
:105CB0001AB010BD2DE9F14F064690460F4629B99E
:105CC000154901B0BDE8F04FFFF7C4BED2F800A0FF
:105CD000124C00254FF00C0B0BFB05F9504659F800
:105CE000041037F0D0FF80B94C44A16863684A10B3
:105CF000C90706EB020044BFB258D358791E08F119
:105D0000040201B0BDE8F04F18470135132DE3D16F
:105D1000062001B0BDE8F08FA00D0020E0000400D7
:105D200010B5A0B00446134668460A46802138F0F4
:105D300045F9684637F0CEFF236882B21B68694692
:105D40002046984720B010BD0EB403B503AA52F800
:105D5000041B0192FFF7E4FF02B05DF804EB03B00F
:105D6000704700002DE9F041094E0A4D0746002416
:105D70004FF00C0808FB04F23B68925998682946DA
:105D80000134FFF7E1FF062CF4D10020BDE8F081DB
:105D900024020400E6FB0300043000F06BBF0000A7
:105DA00003460068024AD0F80C01191D00F050BFEC
:105DB00001600000F0B58DB00C4607461646002184
:105DC0002C2201A837F03DFB012C35D0032C35D116
:105DD00005A9306800F0C9FA044650BB69467068EE
:105DE000FCF7DCFB044620BB009BADF8263001230A
:105DF0008DF8283002243B680021D3F80C0100F014
:105E00001AFF0546E0B156F82440204637F062FFFD
:105E1000214682B2284600F0E9FB044630B901AAC7
:105E20002946381D00F02CFF044610B1284600F02A
:105E3000D5FB20460DB0F0BD0024DCE70724F8E7D1
:105E40000324F6E730B5022987B0054614461AD177
:105E50000021142201A837F0F4FA01A9206800F00B
:105E600084FA70B969466068FCF798FB48B9009BF2
:105E7000ADF8143001A90123281D8DF8163000F06B
:105E8000FBFE07B030BD0720FBE730B5022987B025
:105E9000054614461AD10021142201A837F0D1FA80
:105EA00001A9206800F061FA70B969466068FCF7E2
:105EB00075FB48B9009BADF8143001A90123281DDA
:105EC0008DF8163000F0DAFE07B030BD0720FBE792
:105ED00010B53822044640F8041B002137F0B1FA0F
:105EE000204610BD2DE9F14FB1F1000806461746D6
:105EF00007DC00221146FFF735FF072001B0BDE89F
:105F0000F08FD2F800A0114D00244FF00C0B0BFBCA
:105F100004F9504659F8051037F0B5FE80B94D44E4
:105F2000A9686B684A10C90706EB020044BFB25863
:105F3000D35808F1FF313A1D01B0BDE8F04F1847C2
:105F40000134062CE3D12046D8E700BF2402040028
:105F50002DE9F0410368ADF5C06D064608461446CC
:105F60000D469F6800F03CFB8046284600F03CFB55
:105F70002049A8EB00023846FFF7E6FE618C638AF1
:105F8000228A0691E18B306849BA89B20591A18BCA
:105F900049BA89B20491618B49BA89B20391218BC4
:105FA00049BA89B20291E18A49BA89B20191A18ABA
:105FB00049BA89B200915BBA52BA9BB292B20E4909
:105FC0008068FFF7C1FE284600F00EFB09AC2246B0
:105FD000014640F2DB53284600F00AFB002323541D
:105FE0003368064998682246FFF7AEFE0DF5C06D8E
:105FF000BDE8F081E9F5030008020400E6FB0300B8
:10600000FFF7A6BF4B7C13F0040F37B514BF202455
:1060100000241D0748BF44F01004DA0648BF44F0CE
:1060200008049D0648BF44F004048D7C5A0648BF0E
:1060300044F00204DA0918BF44F0010405F0010538
:1060400043F3010300F5C4400A7CCDE900455BB28F
:1060500060301AF0F6FD03B030BD00F5C4400A7C94
:1060600060301AF0D4BD29B122B100F5C4406030CF
:1060700018F02CBB0720704713B50C7D0A7C44F345
:10608000010300F5C440C4F3800400945BB26030A7
:106090001AF058FE02B010BD00F5C4400A7C603012
:1060A0001AF036BE29B122B100F5C440603018F0B4
:1060B000B5BB0720704700F5C44060301BF007B83F
:1060C00011B14B78022B04D800F5E740703000F096
:1060D00083BE0020704701F0EDBB01F094BD01F0DC
:1060E000ADBD01F09CBC01F047BD353020F0010092
:1060F00049BA41807047353020F00100007800F047
:1061000030007047353020F001004078704735305E
:1061100020F00100408840BA80B27047353020F04E
:106120000100007800F00F007047353020F00100CA
:106130000430704700F5E740703001F093B900F586
:10614000E740703001F070BB00F5E740703001F0BF
:106150008DBB00F5E740703000F020BE00F5E74051
:10616000703000F028BE07B5002300F5E74000932B
:10617000703001F077F903B05DF804FB10B500F55D
:106180008244383404F51050083005F0E5FC30B98D
:1061900004F514501830BDE8104006F0F5B810BDF5
:1061A00010B500F58244383404F51450183006F068
:1061B000EDF930B904F510500830BDE8104005F095
:1061C00063BC10BD00F5CC40503006F015B800F5AA
:1061D000CC400022503005F092BF00F5CC4050304A
:1061E00005F0AABD00F5CE40083004F06BBE10B437
:1061F00000F5CE40BDF8044001940C305DF8044B2E
:1062000008F0A0BB00F5CE4024300AF04BB800F5F2
:10621000CC40503005F0D8BD00F5CC40503005F0F2
:106220003BBE00F5CC40503005F0A6BD21B100F5D5
:106230008540283006F034BD0720704721B100F5B5
:106240008540243007F034BB0720704721B100F5AA
:1062500085407C3006F024BD0720704721B100F551
:106260008540783007F0B9BB0720704700F58540BE
:10627000243007F0FEB900F58540243007F032B82D
:1062800000F58540783007F0F4B900F585407830A6
:1062900007F028B800F5DB40283009F00BBE00F508
:1062A000DB40283009F0FCBD00F5844058300AF08E
:1062B00021BA00F580407C300AF078BC00F58040BF
:1062C0007C300AF080BC01F061BD4CF28443C05CBC
:1062D000704701F06BBD01F033BD01F07DBD0000E2
:1062E000004870478902040000F5824008B5383044
:1062F00019B11CF0A9F9002008BD1CF0D7F9FAE784
:1063000046F23C53C05C704744F23C13C05870479F
:1063100000F5824038300CF016BA00F58240383073
:106320000CF057BA44F24013C058704700F5824051
:1063300038300CF04FB900F5824038300CF07CB9A1
:1063400044F24513C05C704744F24513C154704792
:106350000A4611B14B78022B05D800F58040002188
:1063600050300AF0E5BD002070470B460146184644
:106370000BF080BC00F5D940643008F04FBC08B584
:1063800000F5D940643008F0FAFC002008BD08B5DB
:1063900000F5D940643008F033FC002008BD10B58A
:1063A000044690B019B901F024FD10B010BD00F5FD
:1063B000884001AA0C3002F0EDFC01A92046F2E76A
:1063C00001F021BD44F21443C05C704738B544F27B
:1063D0004373C35C93B900F5824404F5437002F043
:1063E00084FE3834054638B904F5B67007F05EFA15
:1063F00004F5E07007F0B0FA284638BD0D25FBE73C
:1064000000F588404630704738B5054679B144F20A
:106410004373C45C6CB900F58840403004F0FFFA67
:1064200005F58E40383010F0B0FA204638BD072010
:10643000FCE70D20FAE720F0DFB844F21243C05A1F
:10644000704738B544F24373C55C7DB900F58244AA
:1064500004F5437002F080FD04F5D27007F026FACF
:1064600004F5FC7007F078FA284638BD0D20FCE7EB
:1064700000F58E4018300DF082BA00F58E401830CD
:106480000DF078BB44F25063C05C704700F58A4061
:10649000103003F0FCBD21B100F58A40103003F04C
:1064A000FDBD0720704721B100F58A40103003F090
:1064B0000DBE0720704700F58A40103003F012BE71
:1064C00029B122B100F58A40103003F013BE072035
:1064D000704700F58A40103003F02BBE00F58A406B
:1064E000103003F03EBE00F58A40103003F048BE85
:1064F00029B122B100F58A40103003F04BBE0720CD
:10650000704710B500F588400C460C3003F05AFB7C
:106510002146BDE810400DF014BE10B500F58840CE
:106520000C460C3003F04EFB2146BDE810400DF048
:10653000C1BD00F588400C3003F01EBB00F588405B
:106540000C30407800F00100704710B546F23C5323
:10655000C45C34B900F588400C3003F010FB2046D1
:1065600010BD0D20FCE710B546F23C53C45C34B9B5
:1065700000F588400C3003F01BFB204610BD0D20B9
:10658000FCE700F5894008307047000070B504460C
:106590000D4616461946049A01F028FC04F5884079
:1065A00032462946024B0C30BDE8704002F050BE26
:1065B0009F63000070B504460D4616461946049ABE
:1065C00001F01EFC04F5884032462946024B0C308F
:1065D000BDE8704002F05CBEC163000001F0A5BCE4
:1065E000C08B704701F0A5BC008C704701F0ABBDBB
:1065F00010B51C461346224601F00AFD10BD73B5C6
:10660000A023054600F5E8400B806C300C4601F0F5
:106610006AFC05F58C466080A21D211D06F1700004
:1066200002F0D6F804F10A0204F1080105F58D40E4
:1066300001F03BFF06F5827005F5824604F11A026F
:1066400004F11801383601F030FF304601F0E4FB68
:1066500004F10E0204F10C01103002F0B9F83046DA
:1066600001F0DAFB04F1120204F11001E03001F054
:106670001CFF05F58F4004F1160204F114012030CF
:1066800001F013FF05F5834004F11E0204F11C0123
:106690005C3001F00AFF0DF1060201A905F5844006
:1066A00001F003FFA38BBDF804201344A383BDF8BE
:1066B0000620E38B05F5D8401344E38304F122025E
:1066C00004F12001183001F0F0FE05F5D8400DF17D
:1066D000060201A93C3001F0E8FE238CBDF804203D
:1066E00013442384BDF80620638C05F5E74013446A
:1066F000638404F1260204F12401703001F0D5FE18
:1067000005F5E8400DF1060201A9143001F0CDFEB7
:10671000A38CBDF804201344A384BDF80620E38CA9
:106720001344E38402B070BD10B43AB133B100F544
:10673000C6406C305DF8044B18F0E0BB07205DF8F4
:10674000044B70471FB591F807210B7A029201F5AF
:106750008472019291F8062102F00102009200F584
:10676000C44001F10902603049681AF05DFB05B0D0
:106770005DF804FB00F5C44060301AF042BB10B570
:106780000446FFF7A2FD28B104F10800BDE810405F
:1067900002F0C5B910BD44F62C03C058704700F58F
:1067A0008E40383013F03DB800F588401C307047FB
:1067B000F7B544F243730646C45C0F460CBB00F5C4
:1067C000824505F5437002F0E1FB02A9FD2301F8C3
:1067D000083D06F58E403B68CDF8013038303B79F6
:1067E0008DF80530ADF8064010F062F905F5D2706D
:1067F00007F05CF805F5FC7007F0AEF8204603B032
:10680000F0BD0D20FBE744F26C7382B0C35C002244
:1068100018078DF8042044BF01228DF80420590781
:1068200042BF9DF8042042F002028DF804209A072E
:1068300042BF9DF8042042F004028DF80420DB07DB
:1068400042BF9DF8043043F008038DF804309DF8F2
:10685000040002B0704711F0010F0CBF00230823A1
:106860008A0748BF43F004034A0748BF43F00203C6
:106870000A0748BF43F0010300F58E40194638303F
:1068800012F0E9BF00F5864060300DF018BA38B557
:10689000A1B144F24373C35C93B900F5824404F59B
:1068A00018700DF06FFA054604F5D27006F0FEFF81
:1068B00004F5FC7007F050F8284638BD0725FBE7C3
:1068C0000D25F9E700F588402430704738B544F2CB
:1068D0004373C35C83B900F5824404F5437002F04E
:1068E00038FB054604F5D27006F0E0FF04F5FC70B5
:1068F00007F032F8284638BD0D25FBE744F2703327
:10690000C058704700F5864060300DF00ABB44F275
:10691000CC33C058704744F2CC33C150704700F5B7
:106920008E40383011F0E2BC00F58E400021383046
:1069300011F07BBC2AB121B100F58E40383014F043
:106940005EBC0720704744F24373C05C704721B1BE
:1069500000F58E40383010F000BC0720704700F57D
:106960008E40383010F04ABA38B50C46002936D07F
:1069700000F58E40383013F0E1FA03682360436875
:106980006360038B2381038B9B12A37290F82430E6
:10699000E37290F82530C3F383032373837F63731B
:1069A00090F82530C3F301030546A3731FF0ADFC37
:1069B000AB68C01A4FF47A73B0FBF3F0237CE0733A
:1069C00043F001032374AB7E03F00703DA1F534245
:1069D0005341227C63F341022274002038BD07201A
:1069E000FCE700F5C94074301AF008BC00F5C94056
:1069F00074301AF007BC00F5C94074301AF074BF47
:106A000010B50C4671B144F21243C25A4FF6FF73EF
:106A10009A420FD000F58E4000213830BDE810407A
:106A200012F0EFBD00F58E40383001210FF036FF37
:106A3000204610BD0D20FCE713B502AA002402F881
:106A4000014D012306214C3001F074FF08B18DF88F
:106A500007409DF80700003018BF012002B010BDAC
:106A600007B502AA012302F8011D4C30062101F0EE
:106A7000B1FF03B05DF804FB00F58E40383013F031
:106A8000F5BC10B586B006AC00F58E4044F8041D88
:106A90000A990291099901919DF8201000913830CE
:106AA000214611F08FF806B010BD00F59040783007
:106AB000704744F66013C05C704700F59240603048
:106AC0000CF003BF00F58E40383013F059BB00F5D1
:106AD0008E40383013F060BB46F24723C05C7047ED
