:1010000000000420EDD4020031D5020033D50200E7
:1010100035D5020037D5020039D5020000000000A6
:101020000000000000000000000000003BD50200AE
:101030003DD50200000000003FD5020041D502006E
:101040000DA30200950A030043D5020043D5020018
:1010500043D5020043D5020043D5020043D5020028
:1010600043D5020043D5020043D5020043D5020018
:1010700043D50200999C020043D5020043D50200EB
:1010800043D5020043D5020043D5020043D50200F8
:1010900043D5020043D5020043D5020043D50200E8
:1010A00043D5020043D5020043D5020043D50200D8
:1010B00043D5020043D502000000000000000000FC
:1010C00043D5020043D5020043D5020043D50200B8
:1010D0000D8A020043D5020043D5020025B3020069
:1010E00043D5020043D5020043D5020000000000B2
:1010F0000000000043D502000000000043D50200BC
:1011000000000000000000000000000000000000DF
:1011100000000000000000000000000000000000CF
:1011200000000000000000000000000000000000BF
:1011300000000000000000000000000000000000AF
:10114000000000000000000000000000000000009F
:10115000000000000000000000000000000000008F
:10116000000000000000000000000000000000007F
:10117000000000000000000000000000000000006F
:10118000000000000000000000000000000000005F
:10119000000000000000000000000000000000004F
:1011A000000000000000000000000000000000003F
:1011B000000000000000000000000000000000002F
:1011C000000000000000000000000000000000001F
:1011D000000000000000000000000000000000000F
:1011E00000000000000000000000000000000000FF
:1011F00000000000000000000000000000000000EF
:1012000010B5054C237833B9044B13B10448AFF340
:1012100000800123237010BD700100200000000039
:10122000FC1B050008B5034B1BB103490348AFF392
:10123000008008BD0000000074010020FC1B0500B8
:10124000154B002B08BF134B9D46A3F5803A002198
:101250008B460F461348144A121A49F044FF0F4BAD
:10126000002B00D098470E4B002B00D09847002051
:10127000002104000D000D48002802D00C48AFF3F7
:10128000008049F0D1FE2000290000F015F849F057
:10129000A5FE00BF000008000000042000000000C0
:1012A0000000000070010020C80F012000000000B5
:1012B000000000007047000070B505460E4631463C
:1012C000284627F061FF07F078F9044628B90B4B50
:1012D0000B4A0C48662149F063FE00F055F827F0F0
:1012E00087FF18B1204607F06EF9E8E7204607F0BF
:1012F0005CFC204627F082FFF1E700BF61C50400D7
:101300005CC504006AC5040038B504460D4600F00B
:1013100055FA04F5637104F55C7000F04AF9234650
:1013200004F58361154A04F55E7000F09CF904F23F
:101330009233C4F88C3304F21E428023A4F8903315
:10134000C4F81824002340F2145284F8143484F8AA
:101350001534A4F81C2484F8343929462346084A55
:1013600004F6381008F0ADFD22460649201D06F0AF
:10137000E9F828F0C5F8204638BD00BF95150000F3
:101380008B140000BB13000010B5054C014620462D
:10139000FFF7BAFF00F0D8FA844200D0FEE710BD94
:1013A00090010020D0F88C2300F292339A4203D1AE
:1013B00000F6381008F09ABD7047FFF7F3BF2DE92B
:1013C000F8430446051D00F55C764FF0020801273E
:1013D000284606F0D7F994F8143490B1022B18D1AE
:1013E000012B21D3022BF3D1304600F01DF980B937
:1013F00094F8343984F81404002BE9D084F83409C3
:10140000E5E7012BEDD194F81514304600F0DEF835
:10141000F8B1D4F88C1304F29230091A89B291B35E
:1014200028F076F878B3FEE7204600F0A9FA08B174
:1014300027F060FB204600F0ADFA0028E9D13046E5
:1014400000F0BBF80028E4D1284606F031FA84F811
:101450001474284606F043FA28B9284606F048FADC
:1014600084F81504CFE794F8C090284606F04EFBA8
:10147000B9F1000F04D094F8C0300BB984F8347976
:1014800084F81484B0E7BDE8F88308B500F05CFA8E
:10149000BDE80840FFF793BF00F29233C0F88C33E9
:1014A0008023A0F8903300F6381008F01FBD08B56F
:1014B00000F04AFA18B1BDE80840FFF7EDBF08BDDB
:1014C00038B504460D4600F03FFA38B12A462146A9
:1014D00000F55E70BDE8384000F0CEB838BD0000C1
:1014E000F0B50C46A1B016461F4600F05DFA234643
:1014F000194A1A4D802168464AF0A2F968464AF016
:1015000007FA69460246002001F050F90024BC4267
:10151000A0B20ED0292C0BD0A4EB840104EB440024
:10152000335D2A46803168444AF08AF90134EEE797
:10153000204600EB4000C0F18001094A68444AF0AF
:101540007FF968464AF0E4F90DF10101421E0020DE
:1015500001F02CF921B0F0BDAEC50400C2C50400F5
:10156000C8C5040038B5D0F8183400F21E455B1B1E
:1015700004469BB251B91A46294601F013F840F2CD
:101580001453C4F81854A4F81C3438BD2A46FFF785
:10159000A7FFF4E7FFF7E6BF838843B103685A1C4F
:1015A000026019708388013B83800020704703200C
:1015B0007047002201608280704708B54FF6FF73C4
:1015C00083807E210068FFF7E7FF08BD7E2938B5DC
:1015D00005460C4600680AD87D2903D2112901D09E
:1015E000132906D18388012B08D8032005E0F829A8
:1015F000F7E72146FFF7D0FF40B138BD7D21FFF767
:10160000CBFF84F020012868FFF7C6FFAA88054BAE
:101610005440E4B2002033F8143083EA1223AB8044
:10162000EBE700BFCCC504002DE9F04186880368D4
:10163000F543ADB2E9B204461F68B3F80480FFF782
:10164000C5FF48B9290A2046FFF7C0FF20B97E210F
:101650002068FFF7A1FF20B123681F60A3F8048072
:10166000A680BDE8F08130B500250570C0E9011203
:10167000C0E9033530BD00002DE9F843374E04467C
:101680000D468F184FF00208AF4265D0237815F849
:10169000011B012B24D01BD3022BF5D16068B0F8BD
:1016A0000490B9F1000F50D0B4F810C081F02001BF
:1016B00081EA0C02D2B236F8123083EA1C2323826C
:1016C000FFF76AFF638A0133638201232370DBE73C
:1016D0007E29D9D1012323704FF6FF732361D3E70D
:1016E0007D2917D07E2918D06068B0F80490B9F130
:1016F000000F2AD0B4F810C081EA0C02D2B236F83A
:10170000123083EA1C232382FFF746FF638A0133EA
:101710006382B9E784F80080B6E7638A002BDBD0E8
:10172000012B10D9228A4FF2B8039A420BD1636879
:101730001A68023A1A609A8802329A800021D4E923
:1017400002309847C8E70621F9E7A368E06803215B
:10175000984784F8009097E7BDE8F883CCC504006B
:10176000182826D8DFE800F0280D0F1125131517CB
:1017700025252525191B1D1F25252525252525233F
:101780002100012070470E2070470B2070470C206D
:1017900070470920704703207047022070470420DB
:1017A0007047112070471220704713207047142093
:1017B000704700F580407047002070472DE9F041E8
:1017C0000646044646F8041B4FF40072884600F1B2
:1017D000F901304605F09BFE0025A66704F17C0365
:1017E00004F19C02C3E9005508339A42FAD1A4F8E7
:1017F0009C50C4E9285504F1A80006F0EEF9494BC5
:10180000C4F8C830C823A4F8CC3004F1D4074FF68C
:10181000FF73A4F8D030444A84F8C0502346C4F87B
:10182000C45084F8CE5084F8CF504146384608F072
:1018300048FB00230022C4E93823C4E93A230423E7
:1018400084F8F030394BC4F8DC501B68C4F8F4302D
:10185000236884F8F85084F8F95284F8FA5284F82E
:10186000FB5284F8385384F8395384F83A5384F897
:101870003B5384F83C5384F83D5384F83E5384F83A
:101880003F53C4F84453C4F84853C4F84C53C4F805
:101890005053C4F85453C4F85853C4F85C53C4F8B4
:1018A0006053C4F86453C4F8685384F86C5303B9A4
:1018B000FEE71F4B1F491C602246304605F045FEDF
:1018C0003C22002104F53F7049F00DFC04F55070F6
:1018D00007F05EF822461849206806F078FE224696
:1018E0002068164906F0AAFE2068012106F0AFFE26
:1018F00025462068002106F05CFE2068104907F0AC
:10190000CEFB55F8E00B0F49224607F00CFB77227F
:101910000021284606F028FC384608F0E7FA204661
:10192000BDE8F08100F8FF07051D0000B8C80400FD
:10193000D00A0020731D0000895F0000A55E000032
:101940008D290000DD280000014B1868704700BF9A
:10195000D00A00200023C0F85C33C0F86033C0F820
:101960006433C0F86833C0F84433C0F84833C0F873
:101970004C33C0F85033C0F85433C0F85833704774
:1019800090F8F030042B1ABF90F8C00080F00100EE
:101990000020704790F8F030012B06BF90F8C0008F
:1019A00080F0010000207047D0F85C330133C0F8AC
:1019B0005C3370472DE9F843994690F83C33044670
:1019C0009046002914BF0F46702713B10D20BDE8C3
:1019D000F88300F1E0053946284606F05BFC002854
:1019E000F4D194F8FA2294F8FB329A420AD00B22EE
:1019F0000021284606F0B8FB04F1D40008F076FA7E
:101A00000320E4E704F178063B46062280213046B5
:101A100006F077FB48B91FFA89F24146A06F06F03D
:101A20004BF810B9304606F04FFB0328CFD1DEE764
:101A3000013804289ABF024B185C0020704700BF91
:101A4000D5C70400F8B511F00F0508D1022A04D15A
:101A50001A462946E03006F087FB28460CE090F84D
:101A6000FB6290F8FA72F41B0E2C06DDE0300E22B9
:101A7000002106F079FB0320F8BD90F8F942AC4252
:101A800017D0BE4215D93C460E2C02D90F3CE4B209
:101A9000FAE7BE3400EB840494F804C01CF0100F85
:101AA0000DD00CF00F0EAE4509D16FF3041C84F875
:101AB00004C034460E2C05D90F3CE4B2FAE70137D6
:101AC000FFB2DEE7BE3400EB84040136257961F312
:101AD0000305E9B241F0100162F346112171626819
:101AE00063F3DE12626080F8FB620020C4E71346F5
:101AF0000222FFF7A7BF38B511F0300F00F17804CC
:101B000008BFC0F8C420154600230622204606F070
:101B1000F8FA48B92946204606F03BFA20B9204693
:101B2000BDE8384006F0D0BA38BD2DE9F743044689
:101B30000E46014668469146984604F09FFADDE954
:101B400000570DB9F90717D504F178084B4606225E
:101B50003146404606F0D5FAD8B97B10FA0704EBB7
:101B6000030044BFE3585D59A84790B9404603B00D
:101B7000BDE8F04306F0A8BAB8F1000F07D00D2277
:101B80003146204603B0BDE8F043FFF7B4BF4246FC
:101B9000F6E703B0BDE8F08370B50446002694F87C
:101BA000FA5294F8FB32AB4237D0BE3504EB8502D3
:101BB0001379D90616D404EB85052B796FF304133A
:101BC0002B7194F8FA320133DBB20F2B84F8FA321E
:101BD000E5D194F8FB3284F8FA620E2B1AD90F3B48
:101BE000DBB2FAE7C3F30301526803F06003402B52
:101BF00041F08001C2F3D71205D12046FFF77BFFE9
:101C00000028D8D070BDB3FA83F35B092046FFF7F4
:101C10008CFFF5E784F8FB32C1E70020F2E7000013
:101C20002DE9F04F044685B004F0B8F9D4E9382323
:101C3000134352D004F1E00006F093FA2F4F0190C5
:101C40000025019AEBB2934247D2D4E93803C5F19B
:101C5000200103FA01F1A5F1200220FA05FA23FA86
:101C600002F24AEA010A4AEA020A00230AF00102E1
:101C70001343A5F12003C5F12006029301D10135DC
:101C8000DFE70C236B43D919DA5962BB4A68772A1C
:101C900009D12068039226F013FF082898BF184B3B
:101CA000039A98BF1A5C80212046FFF724FFA0B951
:101CB000029A012303FA02F923FA06F603FA05F859
:101CC000D4E9382349EA060922EA080023EA09018F
:101CD00050EA0103C4E93801D1D1012384F86C33FF
:101CE00005B0BDE8F08F94F86C33002BE0D00123F1
:101CF00080212046FFF719FFD9E700BFBCC80400C8
:101D0000CCC70400014B1868FFF78ABFD00A002037
:101D100010B590F8C030044633B1D0F8F4308B429F
:101D200004BF002380F8C0302046FFF735FFF8B924
:101D300094F8F81099B101230C222046FFF7F5FE24
:101D4000B0B994F8F03084F8F800042B07D0201DC7
:101D500005F016FD0123C4F8F40084F8C0302046D5
:101D600004F070F820B92046BDE81040FFF758BFD6
:101D700010BDFFF7CDBFF8B500F178040546204649
:101D8000069EBDF81C7006F0BCF950B93A463146C3
:101D9000A86F05F091FE20B92046BDE8F84006F096
:101DA00093B9F8BD2DE9F04F042B87B004460F46D8
:101DB000924602D0052B16D0FEE7014604A805F096
:101DC0009FFADDE904654FF0070905F0010B9EB9A4
:101DD000BBF1000F10D10D2239462046FFF787FED8
:101DE00007B0BDE8F08F014604A805F0E3FA4FF014
:101DF0000809DDE90465E8E704F1A808404606F0B3
:101E000058F80DF10A0203A9404605F0FBFF4046D1
:101E100006F056F86D10002384F83C336019BBF1CE
:101E2000000F01D063599E59B047012384F83C3319
:101E3000054618B1FFF794FC0246CDE7BDF80A301D
:101E40000193039B00934A46534639462046FFF7C9
:101E500092FF0028C4D02A46BEE708B50022FFF74B
:101E600046FE08BD38B50446006806F0AEFB00210A
:101E7000206807F015F80021206806F0B3FB7222F5
:101E800080212046FFF737FE054648B104F1E00007
:101E90007722002106F068F904F1D40008F026F852
:101EA000024B00221A60284638BD00BFD00A00202D
:101EB0000021806F05F0EFBD10B50446006806F004
:101EC0001AFC0146A06FBDE8104005F0E4BD13B553
:101ED00002A90023044641F8043DA83005F03DFF67
:101EE00020B99DF80410206806F009FC02B010BD6E
:101EF00010B50446006826F0FFFE002818BF022136
:101F0000A06F08BF0021BDE8104005F0C4BD37B583
:101F100002A90023054601F8013DA83005F075FE31
:101F2000044650B99DF807301BB1022B08D8012197
:101F300000E00146286826F0E1FE204603B030BDEF
:101F40000724FAE710B5044654F8780B06F02AFC8B
:101F500001462046BDE8104005F0BFBF13B504465A
:101F60000DF10601A83005F07EFE20B9BDF806107F
:101F7000206806F01BFC02B010BD10B504460068D6
:101F800006F0EFFB08220146A06FBDE8104005F007
:101F900093BD13B50822044601A9A83005F0F4FE4C
:101FA00018B90199206806F0E0FB02B010BD10B529
:101FB000044654F8780B06F01CFC01462046BDE8A8
:101FC000104005F08ABF90F83A13806F05F063BDAA
:101FD00013B502A90023044601F8013DA83005F01D
:101FE00024FE18B99DF8073084F83A3302B010BDCA
:101FF000F8B505460E460024012707FA04F33342DC
:10200000E1B204D10134202CF7D1002004E0A86F04
:1020100005F041FD0028F5D0F8BD0023F7B50546D1
:102020000C460B6000F1A8070126B5F8AE20B5F804
:10203000B0309A420FD00DF10701384605F0E5FDAA
:1020400050B99DF807301F2B08D8226806FA03F311
:1020500013432360E9E7002003B0F0BD0720FBE74E
:10206000D0F8C810FFF7C4BF13B502A9002341F888
:10207000043D0446FFF7D1FF10B9019BC4F8C830F6
:1020800002B010BDB0F8CC10783005F026BF00F1DA
:10209000CC01A83005F0E7BD10B50446006806F095
:1020A0002BFC78B9206806F047FC68B9206806F078
:1020B00020FF002814BF03210021A06FBDE81040BD
:1020C00005F0E9BC0121F8E70221F6E710B586B07A
:1020D00006A90023044601F8013DA83005F095FD4E
:1020E00040B99DF81730032B03D8DFE803F029052A
:1020F0000F190C2006B010BDB4F8CC200094114B81
:10210000D4F8C810206806F0E3FBF3E7B4F8CC205D
:1021100000940D4BD4F8C810206806F0F9FBE9E7ED
:102120000849019194F8CF10009194F8CE30B4F89A
:10213000D0200294D4F8C810206806F0C6FED9E773
:102140000020D7E7315D0000955D00002DE9F84FD4
:102150000546E03006F005F8DFF858908346002485
:102160004FF00C0A05F17808E3B29B451FD9D5E979
:102170003A23C4F1200022FA04F603FA00F0A4F195
:10218000200123FA01F106430E4306F00102002369
:10219000134301D10134E7E70AFB04F3404653F847
:1021A000091005F0F6FE0028F4D0BDE8F88F0020F5
:1021B000FBE700BFBCC80400F7B500230022C0E95C
:1021C0003A23044600F1A80700F1E006B4F8AE2077
:1021D000B4F8B0309A420BD001A9384605F0BDFDE5
:1021E000054648B901220199304605F0FFFFEDE7A9
:1021F0000025284603B0F0BD012341F208028021EA
:102200002046FFF792FCF4E713B5044601A9A83075
:1022100005F0A3FD28B90122019904F1E00005F0C1
:10222000E5FF02B010BD13B5044601A9A83005F0C2
:1022300094FD28B90246019904F1E00005F0D6FFAB
:1022400002B010BDD0F8C410783005F0A2BE10B5B1
:1022500000F178040421204605F09BFE28B92046B1
:102260000321BDE8104005F094BE10BD0321783075
:1022700005F08FBE0021783005F08BBE10B500F15F
:1022800078040521204605F084FE00284FD10C215A
:10229000204605F07EFE002849D11821204605F091
:1022A00078FE002843D12021204605F072FEF0BBC5
:1022B0003521204605F06DFEC8BB0E21204605F0F5
:1022C00068FEA0BB4FF40071204605F062FE70BBB3
:1022D0004FF40171204605F05CFE40BB40F20A213C
:1022E000204605F056FE10BB3021204605F051FE79
:1022F000E8B93121204605F04CFEC0B94FF48061A9
:10230000204605F046FE90B940F20341204605F014
:1023100040FE60B940F20441204605F03AFE30B973
:10232000204640F20541BDE8104005F032BE10BD28
:1023300010B5044606F052F9014604F17800BDE8F4
:10234000104005F061BE0121806F05F0A4BBFFF7CE
:10235000AFBD0421806F05F09EBB0C20704713B504
:1023600004466946006806F017FA08226946A06F1D
:1023700005F0A2FB02B010BD0221783005F0DFBEEF
:1023800090F8F010806F05F086BB000073B504462E
:102390000E46A8300DF1070105F037FCA0BB9DF8F3
:1023A0000730042B07D8012202FA03F111F01B0FAA
:1023B00002D14B0703D4032384F8F03001E084F802
:1023C000F020002384F8F8300C2201233146204607
:1023D000FFF7ABFB94F8F030042B054608D070B93A
:1023E000201D05F0CDF9C4F8F400012384F8C030B5
:1023F00015B184F8F8600025284602B070BD074B7F
:102400001B68C4F8F430F0E7FFF7AAF9314602463A
:102410002046FFF770FB0546EEE700BFB8C8040092
:1024200010B51C4641F210539A420DD041F60703F5
:102430009A4206D00C2A0AD1FFF7A8FF207001208B
:1024400010BD00F08AFEF9E700F0CEFEF6E70020AE
:10245000F6E7F0B585B004460D460026014602A811
:1024600017468DF8076004F0E7FCDDE9022303F06E
:10247000010102B9C1B15B1084F83C63E01809B1F5
:10248000E3589A58904701228DF8070084F83C23BE
:10249000C8B93B4629462046FFF7D4FA8DF8070015
:1024A0009DF8070005B0F0BD0DF107033A46294637
:1024B0002046FFF7B5FF0028F2D10D22294620461D
:1024C000FFF715FBEAE7FFF74BF90246F6E773B5AE
:1024D0000D4602A9002341F8043D0446A8301646E3
:1024E00005F03BFC014650B1FFF73AF92946024698
:1024F0002046FFF7FCFA0146084602B070BDB31E45
:10250000032BF9D8DFE803F002090F0F019B00222B
:1025100029462046FFF796FAEDE7019A294620461C
:10252000FFF797FFE7E73346019A29462046FFF772
:1025300039FCE0E737B504460D46A83001A905F09F
:102540000CFC70B9019A0B2A26D8DFE802F0060CC1
:1025500011111111252525161B2029462046FFF7AC
:102560007CFC03B030BD29462046FFF77BFCF8E732
:1025700029462046FFF7ABFFF3E72946204600F047
:10258000EEFFEEE72946204600F0EDFFE9E7294699
:10259000204600F0F8FFE4E7052229462046FFF731
:1025A000A6FADEE7F7B502AD0123002700F1A80681
:1025B000044680F83C3305F8017D304605F01AFBEF
:1025C000042384F8F03084F8C0702946304605F0C2
:1025D0001CFB80B99DF807100B060CD5D4F86033AE
:1025E00011F0300F03F10103C4F8603308D0062264
:1025F0002046FFF780FA002384F83C3303B0F0BD97
:102600002046FFF797FF38B19DF80710FFF7A8F8AD
:1026100002462046FFF76BFA94F8FA2294F8FB3250
:102620009A4202D02046FFF7B7FA9DF8073094F897
:10263000F92203F00F0332B19A421EBFD4F864238B
:102640000132C4F864230F2B14BF0133012384F833
:10265000F932D0E72DE9F0410446E03005F081FD84
:102660000C4E074600254FF00C087834EBB29F4221
:102670000ED908FB05F39A19127A0AB90135F5E764
:102680009959204605F085FC0028F7D0BDE8F08177
:102690000020FBE7BCC8040010B50446006826F023
:1026A00027FBC1B2A06FBDE8104005F0F4B910B52A
:1026B0000446006826F044FDC1B2A06FBDE810409A
:1026C00005F0E9B913B504460DF10701006826F0DD
:1026D00089FB30B99DF80710A06F05F0DCF902B056
:1026E00010BDFFF73DF8014604F1780005F027FD25
:1026F000F5E713B502A90023044601F8013DA8300F
:1027000005F0A5FA20B99DF90710206826F079FB9D
:1027100002B010BD13B504460DF10701006826F0A4
:102720004DFB30B99DF80710A06F05F0B4F902B069
:1027300010BDFFF715F8014604F1780005F0FFFC25
:10274000F5E713B502A90023044601F8013DA830BE
:1027500005F07DFA20B99DF90710206826F038FBB6
:1027600002B010BDFEE7FEE710B5044606F0F3F830
:10277000FFF75EF90146A06FBDE8104005F08BB988
:1027800010B50446006805F0D5FF01462046BDE8B7
:102790001040FFF72DBC10B50446006811F0AEFCE8
:1027A00001462046BDE81040FFF722BC1346074A09
:1027B00010B40446106828B10A4621465DF8044B5F
:1027C000FFF7F8B80D205DF8044B7047D00A0020E1
:1027D0000822006805F070B9F8B50546087F0C4678
:1027E000C0F3C003C0F34001C0F3800200F0010059
:1027F00000F0DEFD05F17807064621463846FFF772
:10280000E7FF40BB218A384605F067FB18BBA1688B
:10281000384605F071FBF0B9E168384605F06CFB0D
:10282000C8B9217DA86F05F036F9A0B9617DA86F00
:1028300005F031F978B9A17DA86F05F02CF950B9F0
:102840003146A86F05F027F928B9E17DA86FBDE8EA
:10285000F84005F020B9F8BD70B504460D46E030EB
:1028600041F60D1105F016FD002836D104F1780669
:1028700041F60D1306228021304605F042FC60BB74
:1028800029463046FFF7A4FF38BB2989304605F0BA
:1028900024FB10BBA97AA06F05F0FDF8E8B9E97A2E
:1028A000A06F05F0F8F8C0B9297BA06F05F0F3F828
:1028B00098B9697BA06F05F0EEF870B9A97BA06F9D
:1028C00005F0E9F848B9E97BA06F05F0E4F820B914
:1028D0003046BDE8704005F0F7BB70BD0B460146C1
:1028E00018B113B11846FFF7B7BF70472DE9F84389
:1028F0000446164603292BD8DFE801F02C252E02CA
:1029000041F20B55082704F1E0082946404605F03E
:10291000C1FCE8B904F178092B463A4680214846C3
:1029200005F0EFFBF0B1522D02D1012384F83D33C5
:1029300040460B22002105F017FC04F1D400BDE84D
:10294000F84307F0D3BA082796F82030DB0607D5FE
:10295000BDE8F8830727F7E741F20B550727D2E7D1
:102960005225D0E7522D06F10401204609D1FFF788
:1029700033FF0028D9D1484605F0A6FB0028E7D050
:10298000D1E700F023FD0028F5D0D1E738B50D469A
:102990000446FEF7D9FF2A462146BDE83840FFF736
:1029A000A5BF10B50446006806F0DAFA0146A06F2C
:1029B000BDE8104005F06FB810B50446006806F099
:1029C000F3F90146A06FBDE8104005F064B8F0B51A
:1029D000044689B0064654F8780B06F0A9FA00259B
:1029E0000746A9B2B9421AD26A46306806F00FFB10
:1029F00008B10135F5E79DF81C30DB06F9D4204617
:102A000005F01AFB48B969463046FFF7E5FE20B9E4
:102A1000204605F030FB0028EBD009B0F0BD0020C7
:102A2000FBE7F0B5054687B0044655F8780B06F08D
:102A300009FB0026074601AAF1B2206806F004FB54
:102A400028B10136F3B29F42F5D2002044E09DF850
:102A50001430DB07F5D5284605F0EEFA00283BD107
:102A600001A92846FFF7B4FEB0BBBDF80C102846FC
:102A700005F033FA80BB9DF80E10A06F05F00BF83F
:102A800050BB9DF80F10A06F05F005F820BB9DF816
:102A90001010A06F04F0FFFFF0B99DF81110A06FA7
:102AA00004F0F9FFC0B99DF81210A06F04F0F3FF15
:102AB00090B99DF81310A06F04F0EDFF60B99DF878
:102AC0001410A06FC1F3400104F0E5FF20B92846BF
:102AD00005F0D1FA0028B4D007B0F0BD2DE9F043DD
:102AE00004468FB00746002554F8780BADF8065021
:102AF00006F01EFA80461FFA85F9C14534D206AAAF
:102B00004946386806F083FA08B10135F3E79DF8C5
:102B10003430DB06F9D4204605F08EFAD8B906A980
:102B20002046FFF755FEB0B9BDF82810204605F045
:102B3000D4F980B90EAE26F8320D02AB32464946C2
:102B4000386806F06BFA48B9102202A9B86F04F091
:102B5000B3FF0028F1D00FB0BDE8F083204605F0A8
:102B60008AFA0028D1D0F6E70020F4E710B5044631
:102B7000006806F0E6F90146A06FBDE8104004F0D9
:102B80008ABF13B504460DF10701A83005F04DF8D2
:102B900020B99DF80710206806F0D8F902B010BDE2
:102BA00010B50446006805F030FE0146A06FBDE890
:102BB000104004F070BF37B505460DF10701A8308D
:102BC00005F023F8044620B99DF80710286805F0A1
:102BD00020FE204603B030BD10B50446006806F064
:102BE00041FA10220146A06FBDE8104004F064BF16
:102BF00013B5002304460DF1020201A9A830019388
:102C000005F000F938B9BDF80230102B05D1019953
:102C1000206806F02BFA02B010BD0620FBE737B59E
:102C200002A90023054641F8043DA83005F02FF81D
:102C3000044618B90199286806F09AF9204603B0AD
:102C400030BD10B50446006806F072F9C1B2A06F3D
:102C5000BDE8104004F01FBF13B502A900230446CD
:102C600001F8013DA83004F0D0FF20B99DF807100D
:102C7000206806F061F902B010BD10B50446006886
:102C800006F08CF90146A06FBDE8104004F003BFC8
:102C900037B502A90023054601F8013DA83004F02C
:102CA000B4FF044620B99DF80710286806F07AF9A9
:102CB000204603B030BD10B50446006806F096F912
:102CC0000146A06FBDE8104004F0E5BE37B502A98B
:102CD0000023054601F8013DA83004F096FF0446A4
:102CE00020B99DF80710286806F084F9204603B043
:102CF00030BD10B50446006806F080F90146A06FAB
:102D0000BDE8104004F0C7BE37B502A90023054650
:102D100001F8013DA83004F078FF044620B99DF881
:102D20000710286806F06EF9204603B030BD10B5D4
:102D3000044654F8780B06F01FF901462046BDE81A
:102D4000104005F0D9B837B502A90023054641F86F
:102D5000043DA83004F09BFF044618B90199286887
:102D600006F00FF9204603B030BD10B504460068E8
:102D700006F00CF90146A06FBDE8104004F08BBED0
:102D800037B502A90023054601F8013DA83004F03B
:102D90003CFF044620B99DF80710286806F0FAF8B1
:102DA000204603B030BD10B59AB0044669460068AD
:102DB00005F0F6FB28B96946204601F0E7F81AB09D
:102DC00010BDFEF7CDFC014604F1780005F0B7F91F
:102DD000F5E710B50446006805F093FB012808D01C
:102DE00002280CBF02210021A06FBDE8104004F0B2
:102DF00052BE0146F8E713B504460DF10701A830AD
:102E000004F003FF48B99DF807301BB1022B06D030
:102E1000072002E0206805F02DFB02B010BD03463C
:102E200002460146206805F00DFBF6E730B500F1DB
:102E3000A80485B00546204605F004F858B9B5F851
:102E4000AE20B5F8B0309A4207D0082201A920463A
:102E500004F09AFF10B105B030BD0190204605F096
:102E600011F80028F7D102A9204604F010FF00282D
:102E7000F1D103A9204604F0A8FF0028EBD1DDE939
:102E800002320199286805F005FBE4E737B500F147
:102E9000A8050446284604F0D5FF58B9B4F8AE207A
:102EA000B4F8B0309A4207D0082201A9284604F0AD
:102EB0006BFF10B103B030BD0190284604F0E2FF73
:102EC0000028F7D10199206805F0E9FAF2E710B57A
:102ED000044654F8780B05F0EDFA01462046BDE8AB
:102EE000104005F091B813B5044601A9A83004F0CC
:102EF0006CFF18B90199206805F0D7FA02B010BD2F
:102F000010B5044654F8780B05F0F7FA0146204650
:102F1000BDE8104004F0E1BF30B500F1A80487B06F
:102F2000054604A9204604F0B2FED8B90DF10D0102
:102F3000204604F06AFEA8B90DF10E01204604F007
:102F400092FE78B9102205A9204604F01DFF48B969
:102F500005990091BDF80E309DF80D200499286860
:102F600005F0ACFA07B030BD30B500F1A80489B067
:102F7000054606A9204604F08AFE30BB0DF1130178
:102F8000204604F042FE00BB05A9204604F06BFE7B
:102F9000D8B90DF11601204604F065FEA8B910223B
:102FA00007A9204604F0F0FE78B909490291079973
:102FB0000191BDF816100091BDF814309DF8132052
:102FC00003950699286805F07EFA09B030BD00BF68
:102FD000353000002DE9F04100F1780405468846BF
:102FE00016461F46072241F602038021204605F0BF
:102FF00088F858B105F1E0000B22002105F0B4F883
:1030000005F1D400BDE8F04106F070BF414620460E
:1030100004F072FF0028EDD13A463146204604F014
:10302000E3FF0028E6D1204605F04EF80028E1D164
:10303000BDE8F08110B41C4613460A4601462046FE
:103040005DF8044BFFF7C6BF30B500F1A80587B0A7
:1030500004460DF10E01284604F005FEA0B904A9AE
:10306000284604F014FE78B9102205A9284604F079
:103070008BFE48B9054B0093BDF80E100194DDE9B5
:103080000423206805F02AFA07B030BDE9300000BB
:10309000F8B500F1780405460F46164641F60403DC
:1030A00007228021204605F02CF858B105F1E000F8
:1030B0000B22002105F058F805F1D400BDE8F840D6
:1030C00006F014BF3946204604F007FF0028EDD172
:1030D0003146204604F010FF0028E7D1204604F0D6
:1030E000F3FF0028E2D1F8BD13460A460146184610
:1030F000FFF7CEBF13B504460DF1020201A9A830B7
:1031000004F08BFE40B9BDF80220FF2A06D8D2B2E7
:103110000199206805F0E7F902B010BD0720FBE730
:1031200030B58BB004460DF1060202A9A83004F0B8
:1031300074FE70B9BDF80650FF2D0CD801461A2256
:1031400003A847F0D0FFEBB2029A206803A905F06C
:10315000CFF90BB030BD0720FBE770B500F1A80533
:1031600088B004460E46284601A904F02EFE50BB46
:1031700002A9284604F029FE28BB0DF1020203A98A
:10318000284604F04AFEF0B9BDF80230082B1CD1E5
:1031900004ABDDE90212019805F0B7F998B904F122
:1031A000780541F6070306223146284604F0A9FFB8
:1031B00048B910220DEB0201A06F04F07DFC10B99C
:1031C000284604F081FF08B070BD0620FBE710B56B
:1031D0000446006805F095F9831E5942A06F5941D5
:1031E000BDE8104004F057BC73B50E4602A9002399
:1031F000044601F8013DA83004F017FD30B99DF8F0
:103200000730256863B9284605F034F9FEF7A8FAB7
:103210000222034631462046FEF714FC02B070BD80
:10322000034602460146284605F00CF9EEE77FB555
:1032300000F1A8050023064602A92846CDE901337E
:10324000039304F0C2FD90B903A9284604F01FFDC2
:10325000044660B9082201A9284604F095FD00B192
:103260000194DDE902230199306805F013F904B0F7
:1032700070BD37B505460DF10701A83004F0C5FC57
:10328000044620B99DF80710286805F06DFE204619
:1032900003B030BD90F83F13806F04F0FCBB10B555
:1032A00000F23F310446A83004F0AFFC30B994F886
:1032B0003F132068BDE8104005F04DBE10BD37B586
:1032C00004460DF10701A83004F09FFC054638B90B
:1032D0009DF80710206805F069FE0D2808BF2846F4
:1032E00003B030BD70B5044686B0002600F1780505
:1032F00001AAF1B2206805F0AEFE10BB9DF81730B0
:10330000DB0701D40136F3E7284604F095FEB0B997
:10331000102201A9A06F04F0CFFB80B9BDF81410F2
:10332000284604F0DAFD50B99DF81610A06F04F09D
:10333000B2FB20B9284604F09EFE0028E2D006B079
:1033400070BD0020FBE7437C13F0040F14BF202066
:103350000020190748BF40F01000DA0648BF40F0CF
:103360000800590648BF40F002009A0648BF40F0E6
:103370000400DA0943F3010318BF40F00100DBB297
:1033800040EA8310C0B2704704F085BB002204F00D
:10339000EBBE0A46002104F0E7BE082204F0F4BCAC
:1033A000C9B2006804F077BB1022006804F084BB47
:1033B00000280CBF0020082009B140F004000AB129
:1033C00040F002000BB140F001007047F8B506462E
:1033D00091F820000C46C0F3C003C0F38002C0F394
:1033E000400100F00100FFF7E3FF06F17805074612
:1033F000284604F021FE00283BD121462846FFF74D
:10340000E7F9B0BBA189284604F067FD88BBA16835
:10341000284604F071FD60BB217EB06F04F03BFBD9
:1034200038BB94F919102846FFF7BAFF08BB394694
:10343000B06F04F030FBE0B994F82010B06FC1F326
:103440000011FFF7A1FFA0B92169284604F054FD3F
:1034500078B96169284604F04FFD50B994F91A1003
:103460002846FFF79DFF20B92846BDE8F84004F044
:1034700002BEF8BD10B5044654F8780B05F0AFF95C
:1034800001462046BDE8104004F036BD13B50446A1
:1034900001A9A83004F0FBFB18B90199206805F0D8
:1034A000A3F902B010BD10B5044654F8780B05F02E
:1034B00058F901462046FFF78BF910BD10B50446B8
:1034C000006805F09AF90146A06FBDE8104004F0CD
:1034D000E2BA37B505460DF10701A83004F095FBB7
:1034E000044620B99DF80710286805F08AF920469F
:1034F00003B030BD10B50446006805F0FCF8B0B16B
:103500000A280CD84FF4FA61414301F55C2101F51A
:10351000346104F17800BDE8104004F0EDBC1928D6
:1035200007D8054941F2883303FB0011F1E703494D
:10353000EFE70021EDE700BFB0DB2300CC3F0D003B
:1035400013B502A9002341F8043D0446FEF765FDCA
:1035500018B90199206805F0F1F802B010BD0223F6
:103560001A46FEF76FBA70B5044600680D4605F0BE
:1035700033F8FEF7F5F82946034602222046BDE857
:103580007040FEF75FBAFFF7EABF10B50446006867
:1035900004F0C4FF0146A06FBDE81040FFF7F4BE81
:1035A00010B50446006805F029F80146A06FBDE893
:1035B0001040FFF7E9BE13B502A90023044601F845
:1035C000013DA83004F031FB20B99DF807102068B8
:1035D00005F008F802B010BD10B50446006805F00B
:1035E000D7FB011C18BF0121A06FBDE81040FFF7F9
:1035F000CBBE73B502A90023054601F8013DA830F2
:1036000004F013FB044688B928689DF8076005F0AC
:10361000BFFB003018BF0120B04207D09DF8073033
:10362000286833B1012105F03BFC0446204602B076
:1036300070BD2146F7E7000010B50446006805F0AC
:10364000A7FB0238C0B2022896BF044B0021195CC8
:10365000A06FBDE8104004F01EBA00BFDDC7040033
:1036600013B502A90023044641F8043DA83004F034
:1036700074FB48B9019B032B06D8DFE803F0020F67
:10368000070B206805F071FB02B010BD206805F043
:1036900096FCF9E7206805F0A4FCF5E7206805F042
:1036A00069FBF1E710B5044654F8780B05F02EFBE2
:1036B00001462046BDE8104004F0A6BC37B502A97B
:1036C0000024054641F8044DA83004F07EFB28B9DB
:1036D0000199286805F01EFB03B030BD2046FBE7CA
:1036E00010B50446006805F074FA08220146A06F80
:1036F000BDE8104004F0E0B913B5002304460DF115
:10370000020201A9A830019304F07CFB38B9BDF88E
:103710000230082B05D10199206805F05EFA02B04D
:1037200010BD0620FBE710B50446006805F0A9FAB5
:1037300010220146A06FBDE8104004F0BDB913B5DA
:10374000002304460DF1020201A9A830019304F000
:1037500059FB38B9BDF80230102B05D1019920680A
:1037600005F093FA02B010BD0620FBE710B5044641
:1037700054F8780B05F0E8FA01462046BDE8104001
:1037800004F0BABB37B5054601A9A83004F07FFAAA
:10379000044618B90199286805F0DAFA204603B002
:1037A00030BD10B5044654F8780B05F005FB014612
:1037B0002046BDE8104004F09FBB10B5044654F805
:1037C000780B05F0CAFA01462046BDE8104004F027
:1037D00093BB37B5054601A9A83004F058FA044652
:1037E00018B90199286805F0BCFA204603B030BD2D
:1037F00010B50446006805F09DF90146A06FBDE8CC
:10380000104004F048B910B50446006805F09AF974
:103810000146A06FBDE8104004F03DB910B5C2B03C
:103820000446FF238DF8073002AA0DF1070300219B
:10383000006804F098FD9DF80720A06F02A904F02D
:103840003BF942B010BD10B5C2B00446FF238DF85D
:10385000073002AA0DF107030121006804F083FD7F
:103860009DF80720A06F02A904F026F942B010BD10
:1038700010B5C2B00446FF238DF8073002AA0DF13F
:1038800007030021006805F02FF99DF80720A06FBD
:1038900002A904F011F942B010BD10B5C2B004463F
:1038A000FF238DF8073002AA0DF1070301210068FC
:1038B00005F01AF99DF80720A06F02A904F0FCF8A2
:1038C00042B010BD10B50446006805F065FA014627
:1038D000A06FBDE8104004F0DEB81FB5044669468D
:1038E00054F8780B05F0A5F928B969462046FFF78A
:1038F0005BFD04B010BDFDF733FF0146204604F028
:103900001EFCF6E730B5044687B0054601A954F819
:10391000780B05F060FA00283CD19DF814309B0725
:1039200033D50DF10201286805F097FA0DF1030176
:10393000286805F0A4FA01A92046FEF749FF10BB4C
:10394000BDF80C10204604F0C8FAE0B99DF8131039
:10395000204604F0D1FAB0B99DF902102046FFF7D5
:103960001FFD80B99DF903102046FFF719FD50B9DE
:103970009DF81110A86F04F08EF820B99DF8121070
:10398000A86F04F088F807B030BD1421204604F079
:10399000D6FBF8E7FDF7E4FE0146F7E710B58AB07D
:1039A00000230446ADF8023001AA0DF1020120689F
:1039B00005F0E6F938B901A92046FFF707FD002810
:1039C000F2D00AB010BD0020FBE730B58BB0002369
:1039D0000546ADF8023000F1780401AA0DF10201AC
:1039E000286805F0CDF968BB204604F025FB38BBFC
:1039F00001A92046FEF7ECFE10BBBDF810102046D2
:103A000004F06BFAE0B9BDF82010204604F065FA26
:103A1000B0B9BDF82210204604F05FFA80B99DF9D4
:103A20001D102046FFF7BCFC50B99DF91E10204622
:103A3000FFF7B6FC20B9204604F01DFB0028CCD0CF
:103A40000BB030BD0020FBE737B5044602A90023C8
:103A500001F8013D54F8780B04F016FE851E9DF820
:103A6000070058B135F8021F204604F036FA28B98D
:103A70009DF80730013B8DF80730F0E703B030BD0B
:103A800073B50646044656F8A80B04F0F8FDB4F8E2
:103A9000B030B4F8AE209B1A9BB2012B16D90DF1B1
:103AA0000601304604F0DFF880B9BDF80610206842
:103AB00004F0DBFD05460028E9D001235C228021CB
:103AC0002046FEF732F8284602B070BD0025FAE71E
:103AD00090F83813806FFFF757BC37B502A9002361
:103AE000044601F8013DA83004F09FF8054630B9BE
:103AF00094F838239DF8073022B984F838332846E3
:103B000003B030BD002BFAD184F83803206804F0EC
:103B100094FCF4E730B589B000230446019300F12A
:103B2000780502AA01A9206804F0E9FF80BB2846B5
:103B300004F082FA50BB02A92846FFF735FC28BBE7
:103B40009DF81810A06F03F0A6FFF8B99DF81A10A1
:103B5000A06F01F00101FFF717FCB8B902A8FFF749
:103B6000F2FB0146A06F03F096FF78B90146A06F03
:103B700003F091FF50B9BDF81C10284604F0ADF9D0
:103B800020B9284604F077FA0028CAD009B030BD21
:103B90000023019304F1780502AA01A9206804F02A
:103BA00022FC002836D1284604F046FA0028EDD140
:103BB00002A92846FFF7F8FB0028E7D19DF8181066
:103BC000A06F03F068FF0028E0D19DF81A10A06FE5
:103BD00001F00101FFF7D8FB0028D7D102A8FFF7B9
:103BE000B2FB0146A06F03F056FF0028CED10121A1
:103BF000A06F03F050FF0028C8D1BDF81C10284664
:103C000004F06BF90028C1D1284604F034FA0028EA
:103C1000C2D0BBE70020B9E730B5044689B0002127
:103C2000182202A88DF805108DF8061047F05BFAEF
:103C300094F83833002B4AD004F1A80502A928468D
:103C400004F0B0F8002840D10DF10701284603F038
:103C5000DCFFD0BB0DF10501284603F0E6FFA0BB59
:103C60000DF10601284603F0D0FF70BB9DF8073028
:103C70009DF805208DF818309DF81A30206862F301
:103C800000039DF806208DF81A309DF8193091092F
:103C900061F30103C2F3401161F38203C2F3001127
:103CA00061F3C303C2F3C00161F30413C2F38001E3
:103CB00061F34513C2F3400161F3861362F3C71346
:103CC00002A98DF8193004F059FB09B030BD0D2060
:103CD000FBE730B5044687B01122002101A847F068
:103CE00002FA94F83833D3B104F1A80501A92846A3
:103CF00004F058F888B928460DF1030103F085FF58
:103D0000054650B99DF8033020688DF8143001A99C
:103D100004F061FB172808BF284607B030BD0D200E
:103D2000FBE790F83E13806FFFF72EBB37B502A973
:103D30000023044601F8013DA83003F076FF054654
:103D400030B994F83E239DF8073022B984F83E3309
:103D5000284603B030BD002BFAD184F83E0320681A
:103D600004F01EFFF4E770B590F83E33ADF5047D26
:103D70000546002B44D000F1A80404A9204603F016
:103D800086FF58B90DF1060202A9204604F045F855
:103D900020B9BDF80660FC2E03D907200DF5047D7F
:103DA00070BD029932460DF1150047F078F90DF11A
:103DB000050120468DF8146003F037FF0028EDD18F
:103DC0009DF812319DF8052002A962F300032046F8
:103DD0000DF106028DF8123104F01FF80028DDD134
:103DE000BDF80640F82CD8D80299224645A847F0DD
:103DF00056F903A928688DF8134104F0ABFECDE70E
:103E00000D20CBE730B590F83E3385B00446CBB1FA
:103E100000F1A80502A9284603F039FF80B90DF189
:103E2000060203A9284603F0F8FF48B9BDF806309A
:103E3000FF2B09D8DBB2DDE90212206804F0A2FEF4
:103E400005B030BD0D20FBE70720F9E730B5ADF533
:103E5000037D00230546009300F1780401AA69461A
:103E6000286804F094FE68BB204604F0E5F830BBF7
:103E70000299204604F040F808BB9DF80C200DF193
:103E80000D01204604F0B0F8C8B99DF80A11A86FDA
:103E900001F00101FFF778FA88B99DF80B2143A9D9
:103EA000204604F0A1F850B9BDF80412204604F0F1
:103EB00014F820B9204604F0DEF80028CED00DF525
:103EC000037D30BD0020FAE730B5ADF5037D00235A
:103ED0000546009300F1780401AA6946286804F0B9
:103EE00020FE98BB204604F0A7F860BB9DF80410A4
:103EF000A86F03F0D0FD30BB0299204603F0FCFF11
:103F000008BB9DF80C200DF10D01204604F06CF863
:103F1000C8B99DF80A11A86F01F00101FFF734FA42
:103F200088B99DF80B2143A9204604F05DF850B9EB
:103F3000BDF80412204603F0D0FF20B9204604F05B
:103F40009AF80028C8D00DF5037D30BD0020FAE7AF
:103F500090F8CE10806FFFF717BA00F1CE01A830AD
:103F600003F063BE90F8CF10806FFFF70DBA00F139
:103F7000CF01A83003F059BEB0F8D010783003F06C
:103F8000ACBF00F1D001A83003F06DBE7FB591F851
:103F90006430DB0705460C4600F14F8194F864302D
:103FA0009E071DD505F17806304604F045F8002837
:103FB00040F0498141F21D51304603F0EAFF0028EC
:103FC00040F04181D4E90223304603F0B0FF0028DD
:103FD00040F03981304604F04EF8002840F033813B
:103FE00094F8643058071CD505F17806304604F083
:103FF00023F8002840F027814621304603F0C9FF0E
:10400000002840F020811022A118A86F03F054FD71
:10401000002840F01881304604F02DF8002840F0C8
:10402000128194F8643019071CD505F178063046E2
:1040300004F002F8002840F006814421304603F0E5
:10404000A8FF002840F0FF8004F12001304603F073
:10405000DBFF002840F0F780304604F00CF8002821
:1040600040F0F18094F86430DA061DD505F1780649
:10407000304603F0E1FF002840F0E580452130465E
:1040800003F087FF002840F0DE80082204F13101B0
:10409000A86F03F011FD002840F0D580304603F0F2
:1040A000EAFF002840F0CF8094F864309B062BD5BF
:1040B00022466B4652F8390F516805F1780603C362
:1040C00000233046CDE9023303F0B6FF002840F06C
:1040D000BA806221304603F05CFF002840F0B380D4
:1040E00069463046FFF760F9002840F0AD80402176
:1040F000A86F03F0D0FC002840F0A680304603F003
:10410000BAFF002840F09F8094F864305E0600F10A
:10411000B28094F86430DB091AD005F17806304695
:1041200003F08AFF002840F08E803621304603F0ED
:1041300030FF002840F08780B4F84810304603F084
:10414000CCFE00287FD1304603F095FF00287AD1BD
:1041500094F86530D80718D505F17806304603F095
:104160006BFF00286FD12121304603F012FF002899
:1041700069D194F84A10A86F03F08DFC002862D131
:10418000304603F078FF00285DD194F86530990738
:1041900019D505F17806304603F04EFF002852D1BC
:1041A0004B21304603F0F5FE00284CD1102204F1DB
:1041B0004C01A86F03F080FC002844D1304603F086
:1041C0005AFF00283FD194F865305A071BD505F1F6
:1041D0007806304603F030FFA8BB41F21F5130464D
:1041E00003F0D7FE78BBB4F85C10304603F075FEE0
:1041F00048BB94F85E10A86F03F04DFC18BB304626
:1042000003F039FFF8B994F865301B071BD505F1A9
:104210007806304603F010FFA8B92221304603F09B
:10422000B8FE80B9216E2846FDF7E2FE044650B97B
:10423000304603F020FF204606E000F178063046C5
:1042400003F0FAFE10B1002004B070BD41F21C5121
:10425000304603F09EFE0028F5D1D4E90023304615
:1042600003F065FE0028EED1304603F004FF00287D
:104270003FF494AEE7E705F17806304603F0DCFE44
:104280000028E0D141F21E51304603F082FE0028A2
:10429000D9D1616C304603F02FFE0028D3D13046CF
:1042A00003F0E9FE00283FF434AFCCE710B59AB034
:1042B00004466946006804F02AF969462046FFF77B
:1042C00065FE1AB010BD10B59AB004466946006884
:1042D00004F044F969462046FFF758FE1AB010BDB5
:1042E0002DE9F04F0C4687B0904605466822002124
:1042F00020469946DDF840A09DF8447046F0F3FE54
:10430000B8F1000F02D00023C8F80030B9F1000F57
:1043100002D0002389F80030BAF1000F02D0002348
:10432000CAF8003005F1A8064FF0010BB5F8AE2031
:10433000B5F8B0309A4200F0D381304603F082FDE8
:10434000002840F0A98004A9304603F006FD0028AB
:1043500040F0A280049B4B2B00F03A8137D8362BDB
:1043600000F009810BD8212B00F01981222B00F0DD
:104370006F81304603F086FD0028D7D08CE0452BB6
:1043800000F0C580462B00F09E80442BF1D12FB168
:10439000B5F8AE20B5F8B0309A4213D005A9304632
:1043A00003F013FD002877D105990191084647F0E5
:1043B000AFFA102800F29281421C019904F120000A
:1043C00046F06DFE94F8643043F008035BE041F280
:1043D0001E52934200F0BB802CD841F21C529342F3
:1043E00046D05CD8622BC4D12FB1B5F8AE20B5F859
:1043F000B0309A4219D0102205A9304603F0C4FC0F
:10440000002849D10DF10E01304603F0FEFB0028D3
:1044100042D19DF80E30402B40F06081059A136820
:10442000C4F839305368C4F83D3094F8643043F030
:10443000200328E0B3F5A95F00F02E81C0F0EC80E6
:1044400041F22752934294D12FB1B5F8AE20B5F87E
:10445000B0309A428DD0102205A9304603F094FC6A
:10446000D0B9BAF1000F84D0059BCAF8003080E7BC
:1044700067B1B5F8AE20B5F8B0309A4206D194F8DD
:10448000643043F0010384F8643072E7214630461B
:1044900003F015FC0028F2D007B0BDE8F08F57B14B
:1044A000B5F8AE20B5F8B0309A4204D194F8643033
:1044B00043F00203E7E704F10801304603F0FFFB95
:1044C0000028F3D0E8E72FB1B5F8AE20B5F8B0304A
:1044D0009A4217D00DF10E0205A9304603F092FC66
:1044E0000028D9D1BDF80E30102B40F0F780059B85
:1044F00004F1100203F1100153F8040B42F8040B0D
:104500008B42F9D194F8643043F00403BBE72FB138
:10451000B5F8AE20B5F8B0309A4213D00DF10E02C6
:1045200005A9304603F06EFC0028B5D1BDF80E3069
:10453000082B40F0D380059A1368C4F831305368D3
:10454000C4F8353094F8643043F010039BE757B15A
:10455000B5F8AE20B5F8B0309A4204D194F8643082
:1045600043F040038FE704F14401304603F08FFB32
:104570000028F3D090E757B1B5F8AE20B5F8B030C9
:104580009A4204D194F8643043F080037BE704F14D
:104590004801304603F067FB0028F3D07CE72FB1D9
:1045A000B5F8AE20B5F8B0309A420AD005A9304629
:1045B00003F02BFB00287FF46FAF9DF81430A4F8B4
:1045C0004A3094F8653043F0010384F86530D0E652
:1045D0002FB1B5F8AE20B5F8B0309A4217D00DF132
:1045E0000E0205A9304603F00DFC00287FF454AFFD
:1045F000BDF80E30102B71D1059B04F14C0203F174
:10460000100153F8040B42F8040B8B42F9D194F8D3
:10461000653043F00203D8E757B1B5F8AE20B5F8DE
:10462000B0309A4204D194F8653043F00403CCE7EB
:1046300004F15C01304603F016FB00287FF42CAF38
:1046400004F15E01304603F0E0FA0028EBD023E7E6
:104650002FB1B5F8AE20B5F8B0309A4217D000238C
:104660002366B5F8AE20B5F8B0309A420FD005A950
:10467000304603F0CAFA00287FF40EAF9DF81430DC
:104680001F2B2BD8226E0BFA03F31343E8E794F8A1
:10469000653043F0080398E737B1B5F8AE20B5F8B8
:1046A000B0309A423FF465AE0DF10E0205A93046D6
:1046B00003F0A8FB00287FF4EFAEBDF80E30FF2B0F
:1046C0000CD8B8F1000F02D0059AC8F80020B9F153
:1046D000000F3FF44EAE89F800304AE60720DBE6D3
:1046E0000020D9E610B500239CB0CDE900331A466E
:1046F00002A90446FFF7F4FD18B902A9206803F0E7
:1047000026FF1CB010BD10B500239CB0CDE90033CE
:104710001A4602A90446FFF7E3FD18B902A920686A
:1047200003F023FF1CB010BD10B500239EB0CDE9EF
:10473000003303AA0DF10B0304A90446FFF7D0FDD3
:1047400030B99DF80B30039A206804A903F019FFD3
:104750001EB010BD10B500239EB0CDE9003303AAF2
:104760000DF10B0304A90446FFF7BAFD30B99DF81B
:104770000B30039A206804A903F00DFF1EB010BD92
:1047800010B5A0B00123019305AB009304AA0DF16D
:104790000F0306A90446FFF7A3FD40B9059A00924E
:1047A0009DF80F30049A20681FA903F0E5FE20B0A1
:1047B00010BD10B5A0B00123019305AB009304AA6E
:1047C0000DF10F0306A90446FFF78AFD40B9059ACB
:1047D00000929DF80F30049A20681FA903F0D6FEBE
:1047E00020B010BD10B50446006803F06DFF01381D
:1047F000C0B2042896BF044B0021195CA06FBDE82D
:10480000104003F048B900BFE0C7040070B500F1E4
:10481000A8068EB0002305460DF11F0130468DF825
:104820001F30CDE90833CDE90A33CDE90C3303F06D
:10483000FCF9044628B99DF81F302BB9286803F00D
:104840003EFF20460EB070BD08A9304603F0BDFA09
:1048500004460028F5D1B5F8AE20B5F8B0309A423C
:1048600038D1B5F8AE20B5F8B0309A4206D00AA9D2
:10487000304603F0AAFA04460028E2D1B5F8AE208B
:10488000B5F8B0309A4206D00BA9304603F09DFA35
:1048900004460028D5D1B5F8AE20B5F8B0309A421C
:1048A00006D00CA9304603F090FA04460028C8D17F
:1048B000B5F8AE20B5F8B0309A4206D00DA9304612
:1048C00003F083FA04460028BBD10A9B53B9154B69
:1048D0000A930AE009A9304603F077FA0446002853
:1048E000BFD0AEE71B78002BF1D00B9B0BB11B7830
:1048F0000BB90D4B0B930C9B0BB11B780BB90B4BEE
:104900000C930B4B03930D9B02930C9B01930B9BFE
:1049100000930495DDE909230899286803F0CAFE8D
:1049200004468EE7EBC70400F6C70400FFC7040087
:10493000D95D00001FB50446006804F0C6F90346BF
:1049400080B1596800686A4603C20023694604F1D1
:104950007800CDE90233FEF727FD18B94021A06F9A
:1049600003F099F804B010BD37B500F1A80504466E
:10497000102201A9284603F007FA68B90DF10301D6
:10498000284603F042F938B99DF80330402B05D191
:104990000199206804F09DF903B030BD0720FBE7C2
:1049A00010B50446006804F08CF920B1014604F10A
:1049B0007800FEF7F9FC10BD10B50446006804F05D
:1049C000A1F920B1014604F17800FEF7EDFC10BD1D
:1049D00070B50546064655F8780B03F013FE0446FD
:1049E0000CB3284603F028FBF0B921462846FEF711
:1049F000DBFCC8B9217CB06F03F04DF8A0B9617C35
:104A0000284641F3000103F077FA68B9617C284633
:104A100041F3400103F070FA30B9284603F02BFB54
:104A200010B96469DCE7204670BD30B500F1A80418
:104A300089B0054602A9204603F0B4F910BB06A9C7
:104A4000204603F0E2F8E8B96946204603F01FF972
:104A5000C0B901A9204603F01AF998B9009B28684B
:104A60001A1C9DF8193018BF012262F30003019A45
:104A7000003218BF012262F3410302A98DF81930F8
:104A800003F0C4FD09B030BD37B50446102201A9BA
:104A9000A83003F079F9054630B90199206803F090
:104AA000BAFD172808BF284603B030BD0221783070
:104AB00003F045BB10B50446006803F076FD011C09
:104AC00018BF0121A06FBDE81040FEF75DBC37B5EF
:104AD00002A90023054601F8013DA83003F0A5F81E
:104AE000044640B99DF807302868002B14BF032105
:104AF000002103F05EFD204603B030BD38B5054609
:104B000055F8780B03F08CFD044674B1284603F089
:104B100093FA58B921462846FEF746FC30B9284694
:104B200003F0A9FA10B92469EFE7204638BD37B57C
:104B30000446102201A9A83003F026F9054630B931
:104B40000199206803F070FD182808BF284603B0BB
:104B500030BD37B50446102201A9A83003F014F97E
:104B6000054630B90199206803F063FD172808BF96
:104B7000284603B030BD000010B50446006803F0BD
:104B800014FD0138C0B2022896BF044B0021195C05
:104B9000A06FBDE8104002F07EBF00BFE5C7040073
:104BA00037B505460DF10701A83003F02EF804468D
:104BB00058B99DF80730013BDBB2022B96BF044A7F
:104BC0000146D15C286803F0F4FC204603B030BDF8
:104BD000E8C7040010B50446006803F034FD80F017
:104BE0000101C9B2A06FBDE81040FEF7CDBB37B5DB
:104BF00002A90023054601F8013DA83003F015F88D
:104C0000044630B99DF80710286881F0010103F0CF
:104C10001EFD204603B030BD70B588B00023504E55
:104C20000193044602AA01A9206803F071FF00283D
:104C300041D104F17805284603F0FEF9002838D167
:104C400002A92846FEF7B0FB98BB9DF81810A06F8C
:104C500002F021FF68BB9DF81C10A06FC1F380011A
:104C6000FEF792FB28BB9DF81C3043F301035BB2B7
:104C70000133022B8CBF0146F15CA06F02F00BFFE9
:104C8000B8B90146A06F02F006FF90B99DF81C105C
:104C9000A06FC1F3C001FEF777FB50B9BDF81A1041
:104CA000284603F01AF920B9284603F0E4F9002851
:104CB000B8D008B070BD0023294E019304F17805E7
:104CC00002AA01A9206803F0B0FB002845D12846BC
:104CD00003F0B2F90028ECD102A92846FEF764FBE4
:104CE0000028E6D19DF81810A06F02F0D4FE00282D
:104CF000DFD19DF81C10A06FC1F38001FEF744FBCB
:104D00000028D6D19DF81C3043F301035BB2013378
:104D1000022B8CBF0146F15CA06F02F0BCFE0028A4
:104D2000C7D10121A06F02F0B6FE0028C1D19DF8C5
:104D30001C10A06FC1F3C001FEF726FB0028B8D1FC
:104D4000BDF81A10284603F0C8F80028B1D128464B
:104D500003F091F90028B3D0ABE70020A9E700BF2A
:104D6000DAC7040030B5054689B00021182202A830
:104D70008DF805108DF8061046F0B5F995F8383322
:104D8000002B3DD005F1A80402A9204603F00AF843
:104D900090BB0DF10701204602F037FF60BB0DF11B
:104DA0000501204602F041FF30BB0DF1060120460F
:104DB00002F02BFF00BB9DF807308DF818309DF8EE
:104DC00005209DF81C3062F382038DF81C309DF89D
:104DD000063003F0C003402B10D0C02B0CBF4FF0A7
:104DE000FF3200229DF81C30286862F3010302A9FB
:104DF0008DF81C3003F0FFFA09B030BD0122F1E755
:104E00000D20F9E730B5044687B01122002101A832
:104E100046F069F994F83833D3B104F1A80501A933
:104E2000284602F0BFFF88B928460DF1030102F0C1
:104E3000ECFE054650B99DF8033020688DF814301B
:104E400001A903F0EAFA172808BF284607B030BDC9
:104E50000D20FBE730B500F1A80585B0002304461E
:104E600001AA02A928460293ADF804300393ADF8D5
:104E7000063002F0D2FFD8B90DF1060203A9284688
:104E800002F0C0FFA0B903460299BDF804202068D3
:104E900003F0E6FB014650B1206803F0DCFB38B9B3
:104EA000D4F844330133C4F8443305B030BD032093
:104EB000D4F858330133C4F85833F6E710B5044634
:104EC00054F8780B03F043FD01462046BDE810403E
:104ED00003F003B810B5044654F8780B03F0ECFC6B
:104EE00001682046BDE8104003F006B810B504463E
:104EF00054F8780B03F0E0FCC1682046BDE8104090
:104F000002F0FABF10B5044654F8780B03F0D4FC55
:104F100001692046BDE8104002F0EEBF10B504461E
:104F200054F8780B03F0C8FC41692046BDE81040F6
:104F300002F0E2BF10B5044654F8780B03F0BCFC55
:104F400081692046BDE8104002F0D6BF10B5044686
:104F500054F8780B03F0B0FCC1692046BDE810405E
:104F600002F0CABF10B5044654F8780B03F0A4FC55
:104F7000016A2046BDE8104002F0BEBF10B50446ED
:104F800054F8780B03F098FC416A2046BDE81040C5
:104F900002F0B2BF10B5044654F8780B03F08CFC55
:104FA000816A2046BDE8104002F0A6BF10B5044655
:104FB00054F8780B03F080FCC16A2046BDE810402D
:104FC00002F09ABF10B5044654F8780B03F074FC55
:104FD000016B2046BDE8104002F08EBF10B50446BC
:104FE00054F8780B03F068FC41682046BDE8104097
:104FF00002F082BF10B5044654F8780B03F05CFC55
:1050000081682046BDE8104002F076BF10B5044626
:1050100054F8780B03F050FC416B2046BDE810407B
:1050200002F06ABF10B5044654F8780B03F044FC54
:10503000C16B2046BDE8104002F05EBF10B50446CB
:1050400054F8780B03F038FC816C2046BDE8104022
:1050500002F052BF10B5044654F8780B03F02CFC54
:10506000C16C2046BDE8104002F046BF10B50446B2
:1050700054F8780B03F020FC016D2046BDE8104089
:1050800002F03ABF10B5044654F8780B03F014FC54
:10509000416D2046BDE8104002F02EBF10B5044619
:1050A00054F8780B03F008FC816D2046BDE81040F1
:1050B00002F022BF10B5044654F8780B03F0FCFB55
:1050C000C16D2046BDE8104002F016BF10B5044681
:1050D00054F8780B03F0F0FB016E2046BDE8104059
:1050E00002F00ABF10B5044654F8780B03F0E4FB55
:1050F000416E2046BDE8104002F0FEBE10B50446E9
:1051000054F8780B03F0D8FB016C2046BDE8104042
:1051100002F0F2BE10B5044654F8780B03F0CCFB55
:10512000416C2046BDE8104002F0E6BE10B50446D2
:1051300054F8780B03F0C0FB816E2046BDE81040A8
:1051400002F0DABE10B5044654F8780B03F0B4FB55
:10515000C16E2046BDE8104002F0CEBE10B5044638
:1051600054F8780B03F0A8FB016F2046BDE810400F
:1051700002F0C2BE10B5044654F8780B03F09CFB55
:10518000416F2046BDE8104002F0B6BE10B504469F
:1051900054F8780B03F090FB816F2046BDE8104077
:1051A00002F0AABE10B5044654F8780B03F084FB55
:1051B000C16F2046BDE8104002F09EBED0F84413F7
:1051C000783002F099BED0F84813783002F094BEDF
:1051D000D0F85813783002F08FBED0F84C137830E6
:1051E00002F08ABED0F85013783002F085BED0F8B5
:1051F0005413783002F080BED0F86813783002F093
:105200007BBED0F86013783002F076BED0F85C1325
:10521000783002F071BE10B5044654F8780B03F0F4
:105220006CFE01682046BDE8104002F065BE10B576
:10523000044654F8780B03F060FE41682046BDE850
:10524000104002F059BE10B5044654F8780B03F034
:1052500054FE81682046BDE8104002F04DBE10B5F6
:10526000044654F8780B03F048FEC1682046BDE8B8
:10527000104002F041BE10B504468AB054F8780BD5
:10528000694603F0A0FBBDF80010204602F025FEA1
:1052900000285CD1BDF80210204602F01EFE002856
:1052A00055D1BDF80410204602F017FE00284ED15B
:1052B000BDF80610204602F010FE002847D1BDF8C8
:1052C0000810204602F009FE002840D1BDF80A105F
:1052D000204602F002FED0BBBDF80C10204602F0C2
:1052E000FCFDA0BBBDF80E10204602F0F6FD70BB21
:1052F000BDF81010204602F0F0FD40BBBDF81210C2
:10530000204602F0EAFD10BBBDF81410204602F062
:10531000E4FDE0B9BDF81610204602F0DEFDB0B99C
:10532000BDF81810204602F0D8FD80B9BDF81A105B
:10533000204602F0D2FD50B9BDF81C10204602F004
:10534000CCFD20B9BDF81E10204602F0C6FD00209D
:105350000AB010BD38B50446006803F0ADFA054642
:1053600000B9FEE77834204602F066FE002840F0DF
:10537000D0802968204602F0BFFD002840F0C98097
:105380006968204602F0B8FD002840F0C280A96894
:10539000204602F0B1FD002840F0BB80E9682046BD
:1053A00002F0AAFD002840F0B4802969204602F0EE
:1053B000A3FD002840F0AD806969204602F09CFD05
:1053C000002840F0A680A969204602F095FD00283B
:1053D00040F09F80E969204602F08EFD002840F0F1
:1053E0009880296A204602F087FD002840F09180CD
:1053F000696A204602F080FD002840F08A80A96A90
:10540000204602F079FD002840F08380E96A2046BA
:1054100002F072FD00287CD1296B204602F06CFD61
:10542000002876D1696B204602F066FD002870D115
:10543000A96B204602F060FD00286AD1204602F0E8
:105440001AFE002865D1204602F0F6FD002860D142
:10545000E96B204602F050FD00285AD1296C204605
:1054600002F04AFD002854D1696C204602F044FD48
:1054700000284ED1A96C204602F03EFD002848D1FC
:10548000E96C204602F038FD002842D1296D204603
:1054900002F032FD00283CD1696D204602F02CFD5F
:1054A000002836D1A96D204602F026FD88BBE96DA3
:1054B000204602F021FD60BB296E204602F01CFD53
:1054C00038BB696E204602F017FD10BBA96E20465E
:1054D00002F012FDE8B9E96E204602F00DFDC0B9F8
:1054E000296F204602F008FD98B9696F204602F046
:1054F00003FD70B9A96F204602F0FEFC48B9E96FC0
:10550000204602F0F9FC20B92046BDE8384002F000
:10551000B2BD38BD08B5006803F0D2F9002008BD5F
:1055200038B50446006803F0F3FC054600B9FEE711
:1055300078340188204602F0D0FC40BB69882046C0
:1055400002F0CBFC18BBA988204602F0C6FCF0B9DB
:10555000E988204602F0C1FCC8B92989204602F03A
:10556000BCFCA0B96989204602F0B7FC78B9A989CA
:10557000204602F0B2FC50B9E989204602F0ADFCA9
:1055800028B9298A2046BDE8384002F0A6BC38BDBB
:1055900008B5006803F0C0FC002008BD38B504461B
:1055A000006803F0AAFC054600B9FEE778342046FF
:1055B00002F042FD00BB2968204602F09DFCD8B9EC
:1055C000A968204602F098FCB0B9204602F053FDCD
:1055D00090B9204602F030FD70B96968204602F0AB
:1055E0008BFC48B9E968204602F086FC20B92046C9
:1055F000BDE8384002F03FBD38BD08B5006803F093
:1056000080FC002008BD30B585B0002305468DF82C
:10561000033000F1780401AA0DF10301286803F0BA
:1056200018F9A8B9204602F007FD78B901A920466B
:10563000FDF7CEF850B99DF90C102046FDF7B0FEED
:1056400020B9204602F017FD0028E4D005B030BD97
:105650000020FBE710B50446006803F0DEF8431EA7
:105660005942A06F5941BDE81040FDF78DBE30B5DD
:1056700085B0002305468DF8033000F1780401AAB7
:105680000DF10301286803F0E4F878B9204602F030
:10569000D3FC48B901A92046FDF79AF820B9204665
:1056A00002F0E9FC0028EAD005B030BD0020FBE79D
:1056B00010B50446006803F0B0F8831E5942A06F8D
:1056C0005941BDE81040FDF75FBE30B585B00023FD
:1056D00005468DF8033000F1780401AA0DF10301AD
:1056E000286803F0CDF8A8B9204602F0A5FC78B9E7
:1056F00001A92046FDF76CF850B99DF90C10204621
:10570000FDF74EFE20B9204602F0B5FC0028E4D09B
:1057100005B030BD0020FBE7F7B50646054656F854
:10572000A80B03F091F80027B5F8AE20B5F8B0301B
:105730009A4240D03046019702F084FB044690B96B
:1057400001A93046FDF729FE044660B9B5F8AE2040
:10575000B5F8B0309A4210D00DF10301304602F096
:1057600076FA044660B101234FF49852802128460E
:10577000FCF7DBF9204603B0F0BD7F238DF8033042
:10578000304602F07FFB04460028ECD101992868DE
:1057900003F04CF81828044601D00028E3D19DF905
:1057A00003207F2AC0D00199286803F05AF80446E4
:1057B0000028B9D0D7E70024DCE713B504460DF183
:1057C0000701A83002F031FA20B99DF807102068CF
:1057D00003F027F802B010BDF7B50646054656F8A7
:1057E000A80B03F031F80027B5F8AE20B5F8B030BB
:1057F0009A4223D03046019702F024FB044698B920
:1058000001A93046FDF7C9FD044668B9304602F0EB
:1058100039FB044640B90199286803F00EF81828AE
:105820000446E1D00028DFD0012341F20632802176
:105830002846FCF77AF9204603B0F0BD0024FAE7C9
:1058400013B504460DF10701A83002F0EEF940B996
:105850009DF807302068002B14BF0221002102F0C0
:10586000E0FF02B010BD73B50646054656F8A80B1A
:1058700003F001F8B5F8AE20B5F8B0309A4235D053
:10588000304602F0DFFA044668B9B5F8B030B5F832
:10589000AE209B1A9BB2082B0FD901A93046FDF709
:1058A0007CFD044650B1012341F208328021284694
:1058B000FCF73BF9204602B070BD01900DF10301E9
:1058C000304602F0C4F904460028ECD1304602F01C
:1058D000D9FA04460028E6D19DF9032001992868E9
:1058E00002F0BFFF04460028C4D0DCE70024E1E753
:1058F00010B50446006803F0A3F9C0F34001C0F3FB
:10590000C003C0F3800200F00100FDF751FD014625
:10591000A06FBDE8104002F0BEB837B502A9002460
:10592000054601F8014DA83002F06FF9B0B99DF8B5
:1059300007302868C3F3C0024FF0000162F3000192
:10594000C3F3800262F34101C3F3400262F38201B8
:1059500063F3C30103F083F903B030BD2046FBE7D6
:1059600010B5044654F8780B03F02AF90146204696
:10597000BDE8104002F0C0BA37B502A900230546C1
:1059800041F8043DA83002F082F9044618B90199A3
:10599000286803F019F9204603B030BD10B504465D
:1059A00054F8780B03F012FA01462046BDE8104087
:1059B00002F093BA90F83913806FFDF7E5BC00F25E
:1059C0003931A83002F031B97FB500F1A8060023C3
:1059D0000446012501AA02A930460293ADF804301D
:1059E0000393ADF806308DF800308DF8015002F0C9
:1059F00014FA38B1D4F848330133C4F848330020DE
:105A000004B070BD0DF1060203A9304602F0FAF9A8
:105A10000028EFD16B46BDF804200299206802F0FF
:105A20001FFE064670B1294602F09FFF31462068EE
:105A300002F011FE0028DDD0D4F858330133C4F849
:105A40005833DDE70320F7E710B50446006802F09D
:105A500037FF206803F055FA206803F05DFA20460E
:105A6000FBF778FF002010BD13B504460DF10601C9
:105A7000A83002F0F8F820B9BDF80610206802F04E
:105A8000F4FD02B010BD73B5002300F1A806019328
:105A900005467F2301A930468DF80330FDF77DFCD4
:105AA0000446E0B9B5F8AC20B5F8AE309A420ED154
:105AB0000199286802F0BAFE182813D19DF9032035
:105AC0007F2A0CD00199286802F0CBFE06E00DF188
:105AD0000301304602F0BBF80028E9D00446204616
:105AE00002B070BD0028E9D0F8E737B502A900235D
:105AF000044641F8043DA830FDF74FFC054630B997
:105B00000199206802F092FE182808BF284603B0C9
:105B100030BD37B5002301937F238DF80330B0F8F3
:105B2000AE20B0F8AC309B1A9BB2012B044600F1BA
:105B3000A8050CD80DF10301284602F088F860B9D9
:105B40009DF903200199206802F08BFE06E001A96F
:105B50002846FDF722FC0028ECD0002003B030BD21
:105B600037B504460DF10601A83002F07CF8054671
:105B700038B9BDF80610206802F07CFD172808BF70
:105B8000284603B030BD37B502A90023044641F8CA
:105B9000043DA830FDF701FC054630B901992068A5
:105BA00002F04BFE172808BF284603B030BDFFF7B0
:105BB000EABF13B500230193B0F8AC20B0F8AE30C3
:105BC0009A42044608D10199206802F04FFE172836
:105BD00008BF002002B010BD01A9A830FDF7DDFB11
:105BE0000028F0D0F6E710B50446006802F056FD34
:105BF0000146A06FBDE81040FDF7C6BB37B50546AE
:105C00000DF10701A83002F010F8044620B99DF804
:105C10000710286802F046FD204603B030BDF8B5F5
:105C200006460D46002978D091F83930C3F30307B2
:105C30009A064FEA071700F1780448BF47F00107BA
:105C40000722DB064FF080014FF03303204648BFA8
:105C500047F0080702F055FA002858D195F8361099
:105C6000B06F01F018FF002851D195F93710204688
:105C7000FDF796FB00284AD1204602F0DDF9002806
:105C800045D129462046FCF7A3FD00283FD14FF619
:105C9000FF71204602F021F9C8BB698E204602F050
:105CA0001CF9A0BB95F83810B06F01F0F4FE70BB82
:105CB000204602F0E0F950BB204602F0BDF930BBAF
:105CC0000321204602F065F908BB3946B06F01F0A8
:105CD000E2FEE0B905F10801204602F095F9B0B9FD
:105CE000082205F11901204602F07EF978B995F8ED
:105CF000212005F12201204602F076F938B920462C
:105D000002F0B9F918B9204602F0DEF978B10B219A
:105D100006F1E000FDF73DFB03E03021E030FDF748
:105D200035FB06F1D400BDE8F84004F0DFB8F8BD5B
:105D30000B4601461846FFF772BF70B504460E4683
:105D4000E9B100F17805392307228021284602F0C5
:105D5000D8F970B93178A06F01F09DFE48B996F975
:105D600001102846FDF71CFB18B9284602F0ACF9D3
:105D700078B10B2104F1E000FDF70BFB03E03021CB
:105D8000E030FDF703FB04F1D400BDE8704004F0FF
:105D9000ADB870BD0B4601461846FFF7CEBF0829C7
:105DA00010B5044600F1E00012D002D839B16821E4
:105DB00006E017290ED01C29F9D16C2100E06D21D5
:105DC000FDF7E7FA04F1D400BDE8104004F08EB806
:105DD0006921F5E76A21F3E70B4601461846FFF70C
:105DE000DEBFF8B5044608460E4602F0BAFD04F1DF
:105DF00078050746002814BF7223732306228021EA
:105E0000284602F07EF9B0B9304602F0A8FD0146FE
:105E1000284602F062F870B93146A06F01F00EFE1C
:105E200048B9284602F050F928B92FB1D4F84C33BC
:105E30000133C4F84C33F8BDD4F850330133C4F8FF
:105E40005033F8E7F8B5074600F55076304602F0D3
:105E5000AAFD044680B10146304602F0A2FD21466B
:105E60003846FFF7BEFF05460028EFD021463046F2
:105E700002F094FD2846F8BD0546FBE710B5044640
:105E800079B100F5507002F086FD50B994F8FA220D
:105E900094F8FB329A4204D12046BDE81040FFF747
:105EA000D1BF10BD0B4601461846FFF7E7BFF8B556
:105EB00090F83B3306460D461746CBB300F1780405
:105EC000712306228021204602F01BF980BBA9889D
:105ED000204602F002F858BBAA882968B06F01F08A
:105EE000EBFD28BB95F910102046FDF759FAF8B9DB
:105EF0006FF07F012046FDF753FAC8B939462046B6
:105F000001F0EBFFA0B9204602F096F880B92046D8
:105F100002F0B1F860B9204602F08EF840B9204690
:105F200002F0A9F820B92046BDE8F84002F0CCB84C
:105F3000F8BD13460A4601461846FFF7B8BF90F869
:105F40003B13806FFDF720BA37B504460DF107010A
:105F5000A83001F06AFE054668B99DF8073094F84C
:105F60003B239A4207D084F83B33206833B105497C
:105F7000224602F08DFC284603B030BD2A46294651
:105F8000F7E700BF335F0000D1F8DC301843C1F8F9
:105F9000DC0001F1D40003F0A9BF00002DE9F041BD
:105FA000D0F8DC300446002B5BD05B072CD590F892
:105FB00039334BB3006802F0EBFE012807D9002308
:105FC00084F83933492104F1E000FDF7DFF9206856
:105FD00002F0DEFE042817D1206802F071FF98B1AC
:105FE000D4F8DC30254623F08003C4F8DC3055F8C3
:105FF000E00B002102F054FF42212846FDF7C6F9CC
:1060000068212846FDF7C5F9DFF86C80002504F10A
:10601000E00755F80860D4F8DC301E4206D1083598
:10602000A02DF6D10023C4F8DC301AE008EB0503FC
:106030005968522917D03846FDF7A8F9B6F5007F00
:1060400007D15A213846FDF7A1F95B213846FDF703
:106050009DF9D4F8DC3023EA0603C4F8DC30002BC9
:10606000DDD1BDE8F08194F83D33002284F83D2372
:10607000002BE0D1E2E700BF18C80400B2F5A16F21
:1060800000F0998500F27981482A00F07C8400F2C2
:10609000AD80272A00F0F78351D8092A00F0E98360
:1060A00024D8042A00F02A8410D8012A4FF00003D3
:1060B00000F0FF83C0F0D983022A00F01684032A7F
:1060C00000F0CF830023C0E900337047062A4FF069
:1060D000000300F0C283C0F0B283072A00F0E0831F
:1060E000082AEFD1C64AC0E900237047222A00F0EF
:1060F0000A8414D80D2A00F0D78306D80C2AE1D1DF
:10610000C04B0360002343607047202A00F0B68331
:10611000212AD7D1BC4B0360002343607047242A57
:106120004FF0000300F0B483C0F01884252A00F07B
:10613000B383262AC6D1B54AC0E900237047382A5E
:1061400000F0C58328D8322A00F0CA830FD8292A44
:106150004FF0000300F0DC83C0F0DE83302A00F053
:10616000BB83312AAED1AA4AC0E900237047352A41
:1061700000F0A88306D8342AA4D1A64B03600023DC
:1061800043607047362A00F09883372A9AD1A24B91
:106190000360002343607047432A00F0FD8314D856
:1061A000402A00F0FE8306D83A2A8BD19B4B03602D
:1061B000002343607047412A00F0D483422A81D1F2
:1061C000974B0360002343607047452A4FF000035C
:1061D00000F0EC83C0F0D383462A00F0CC83472A3A
:1061E0007FF470AF8F4AC0E900237047612A00F046
:1061F0003E844FD8562A00F0218425D8512A00F039
:10620000058410D84A2A4FF0000300F0B083C0F094
:10621000BF834B2A00F06085502A7FF453AF824A37
:10622000C0E900237047532A4FF0000300F0D983E0
:10623000C0F05A85542A00F05385552A7FF442AFA6
:106240007A4AC0E9002370475B2A00F0DA8310D84D
:10625000582A4FF0000300F0F683C0F0CE83592A8D
:1062600000F0E8835A2A7FF42DAF714AC0E9002379
:1062700070475D2A4FF0000300F09C83C0F09E83BE
:106280005E2A00F0B283602A7FF41CAF694AC0E93D
:1062900000237047852A00F05F852BD8662A00F01E
:1062A0006D8410D8632A4FF0000300F0D883C0F04B
:1062B000DA83642A00F06784652A7FF403AF5E4ABC
:1062C000C0E900237047802A00F03C8507D8672A80
:1062D0007FF4F8AE594B0360002343607047822A75
:1062E00000F03585842A7FF4EDAE554B0360002322
:1062F0004360704740F202539A4200F0488418D835
:10630000A12A00F0DF8407D8A02A7FF4DBAE4D4B32
:106310000360002343607047A22A00F0D88440F253
:1063200001539A427FF4CEAE474B03600023436093
:10633000704740F205539A4200F033840ED840F281
:1063400003539A4200F0288440F204539A427FF4A7
:10635000B9AE3E4B036000234360704740F20653E2
:106360009A4200F0238440F207539A427FF4AAAE87
:10637000374B036000234360704740F293639A42B7
:1063800000F09B8400F2208140F271539A4200F0A9
:106390005F8400F2A68040F267539A4200F02B849B
:1063A000B2F5AD6F69D240F20D539A4200F01084FD
:1063B00016D840F20A539A424FF0000300F00484CA
:1063C000C0F0FE8340F20B518A4200F0068440F296
:1063D0000C518A427FF476AE1E4AC0E90023704712
:1063E00040F264539A4200F0FC8337D840F20E53D7
:1063F0009A427FF467AE184B0360002343607047F6
:106400005F23000081230000B91E000099260000D0
:10641000612000007B1F0000C71F000075340000D2
:10642000D93500006D370000DB380000A3290000DB
:10643000153B0000B9490000B54A0000794B000047
:10644000CF2E0000233D0000D54E00001D4F000060
:10645000654F0000DD4F00000D50000040F2655315
:106460009A4200F0C38340F266539A427FF42AAE08
:10647000CE4B036000234360704740F26C539A4256
:1064800000F0D58317D840F269539A4200F0BD83DB
:10649000B2F5AD6F40F2B48340F26A539A4200F015
:1064A000B98340F26B539A427FF40CAEC04B036049
:1064B00000234360704740F26E539A424FF000034E
:1064C00000F0BE83C0F0B88340F26F518A4200F002
:1064D000BB83B2F5AE6F7FF4F5ADB64AC0E90023D9
:1064E000704740F22C639A4200F0D18332D840F2D8
:1064F000C9539A4200F0BA8315D840F273539A42B6
:106500004FF0000300F08B83C0F0A78340F274517A
:106510008A4200F08883B2F5B96F7FF4D3ADA64A02
:10652000C0E90023704740F2CB539A424FF000037A
:1065300000F0A583C0F09F8340F2CC518A4200F066
:10654000A28340F2CD518A427FF4BCAD9B4AC0E9A0
:106550000023704740F232639A4200F0A98315D8B5
:1065600040F22E639A424FF0000300F09983C0F08E
:106570009383B2F5C66F00F0978340F231618A428F
:106580007FF4A0AD8E4AC0E900237047B2F5D26F08
:1065900000F0DF8109D840F233639A427FF492AD74
:1065A000884B036000234360704740F291639A4236
:1065B00000F0578340F292639A427FF483AD824B9E
:1065C000036000234360704741F209539A4200F090
:1065D000A68300F28C8041F20A339A4200F0A58132
:1065E00042D841F202339A4200F09A811DD841F21A
:1065F00009039A4200F07D8109D841F208039A42CA
:106600007FF460AD714B0360002343607047B2F5C7
:10661000985F00F0998141F201339A427FF452ADC4
:106620006B4B036000234360704741F207339A428B
:1066300000F0808109D841F206339A427FF442ADDE
:10664000644B036000234360704741F208339A4271
:1066500000F0758141F209339A427FF433AD5E4B0D
:10666000036000234360704741F203539A4200F0F5
:1066700051831DD8B2F5A85F00F0A48109D841F27A
:106680000B339A427FF41EAD544B036000234360EA
:10669000704741F201539A4200F0BD8141F202532A
:1066A0009A427FF40FAD4E4B036000234360704766
:1066B00041F206539A4200F0B38109D841F20453E3
:1066C0009A427FF4FFAC474B03600023436070475E
:1066D00041F207539A4200F0148341F208539A4260
:1066E0007FF4F0AC404B036000234360704741F2FD
:1066F00017539A4200F000833BD841F20E539A425E
:1067000000F0938116D841F20B539A424FF00003E8
:1067100000F06F81C0F0088341F20C518A4200F012
:10672000F58241F20D518A427FF4CCAC2F4AC0E988
:106730000023704741F213539A4200F0488109D870
:1067400041F210539A427FF4BDAC294B0360002301
:106750004360704741F214539A4200F03D8141F288
:1067600015539A427FF4AEAC224B03600023436082
:10677000704741F223539A4200F0DA823ED841F248
:1067800019539A424FF0000300F06581C0F05F8119
:1067900041F221518A4200F0AB8241F222518A42F9
:1067A0007FF490AC144AC0E90023704755500000B4
:1067B000CD5000008D510000BD510000EF51000090
:1067C0002F5200005F520000215500004D210000B3
:1067D000555600006F560000BD4E0000A12B000072
:1067E0007B2C00006B2D0000B72C000071380000DE
:1067F000CF310000793F0000CB390000B2F5804F67
:1068000021D00ED841F228539A4200F0968241F6E8
:106810000E139A427FF456AC974B036000234360FB
:10682000704744F201039A4212D044F202039A42A2
:106830007FF448AC914B0360002343607047904A5B
:10684000C0E9002370478F4B03600023436070470B
:106850008D4B03600023436070478C4AC0E90023DE
:1068600070478B4AC0E9002370478A4AC0E9002379
:106870007047894B0360002343607047874B036078
:10688000002343607047864B0360002343607047DA
:10689000844AC0E900237047834AC0E90023704757
:1068A000824AC0E900237047814B036000234360A4
:1068B0007047804AC0E9002370477F4B0360002384
:1068C000436070477D4B03600023436070477C4BFF
:1068D00003600023436070477A4AC0E90023704791
:1068E000794B0360002343607047784AC0E9002376
:1068F0007047774B0360002343607047754B03601C
:10690000002343607047744B03600023436070476B
:10691000724AC0E900237047714AC0E900237047FA
:10692000704B03600023436070476F4B036000238C
:10693000436070476D4B03600023436070476C4BAE
:1069400003600023436070476A4B03600023436089
:106950007047694B0360002343607047674AC0E992
:1069600000237047664B0360002343607047654A0D
:10697000C0E900237047644AC0E900237047634AB6
:10698000C0E900237047624B0360002343607047F7
:10699000604AC0E9002370475F4B036000234360F7
:1069A00070475E4B03600023436070475C4AC0E958
:1069B000002370475B4AC0E9002370475A4AC0E988
:1069C00000237047594B0360002343607047584BC6
:1069D0000360002343607047564B0360002343600D
:1069E0007047554AC0E900237047544AC0E9002364
:1069F0007047534AC0E900237047524AC0E9002358
:106A00007047514B03600023436070474F4B036056
:106A10000023436070474E4B036000234360704780
:106A20004C4B03600023436070474B4B03600023D3
:106A300043607047494AC0E900237047484B0360F0
:106A4000002343607047474AC0E900237047464A25
:106A5000C0E900237047454AC0E900237047444A13
:106A6000C0E900237047434AC0E900237047424B06
:106A70000360002343607047E75B00006727000066
:106A80007D220000652700006927000047230000E1
:106A90006D2200004522000079230000B11E000095
:106AA000AF260000C5260000152700005323000074
:106AB0004F2300004F220000451F0000AF1F0000C1
:106AC000F11E000099200000852000003123000005
:106AD000552600007522000081270000972700003E
