:1010000000000420A5B40200E9B40200EBB4020021
:10101000EDB40200EFB40200F1B4020000000000E1
:10102000000000000000000000000000F3B4020017
:10103000F5B4020000000000F7B40200F9B40200A9
:101040003984020049EA0200FBB40200FBB402004A
:10105000FBB40200FBB40200FBB40200FBB40200CC
:10106000FBB40200FBB40200FBB40200FBB40200BC
:10107000FBB40200597B0200FBB40200FBB4020087
:10108000FBB40200FBB40200FBB40200FBB402009C
:10109000FBB40200FBB40200FBB40200FBB402008C
:1010A000FBB40200FBB40200FBB40200FBB402007C
:1010B000FBB40200FBB402000000000000000000CE
:1010C000FBB40200FBB40200FBB40200FBB402005C
:1010D000956E0200FBB40200FBB40200F59302001F
:1010E000FBB40200FBB40200FBB4020000000000ED
:1010F00000000000FBB4020000000000FBB402008E
:1011000000000000000000000000000000000000DF
:1011100000000000000000000000000000000000CF
:1011200000000000000000000000000000000000BF
:1011300000000000000000000000000000000000AF
:10114000000000000000000000000000000000009F
:10115000000000000000000000000000000000008F
:10116000000000000000000000000000000000007F
:10117000000000000000000000000000000000006F
:10118000000000000000000000000000000000005F
:10119000000000000000000000000000000000004F
:1011A000000000000000000000000000000000003F
:1011B000000000000000000000000000000000002F
:1011C000000000000000000000000000000000001F
:1011D000000000000000000000000000000000000F
:1011E00000000000000000000000000000000000FF
:1011F00000000000000000000000000000000000EF
:1012000010B5054C237833B9044B13B10448AFF340
:1012100000800123237010BD780100200000000031
:10122000AC3B050008B5034B1BB103490348AFF3C2
:10123000008008BD000000007C010020AC3B0500E0
:10124000A3F5803A704700BF174B002B08BF134B24
:101250009D46FFF7F5FF00218B460F461348144AC1
:10126000121A4AF0EBF80E4B002B00D098470D4BAA
:10127000002B00D098470020002104000D000D48ED
:10128000002802D00C48AFF300804AF075F8200027
:10129000290000F015F84AF049F800BF00000800E6
:1012A0000000000000000000000004207801002081
:1012B000101703200000000000000000704700002D
:1012C00070B505460E463146284626F043FA06F02C
:1012D0003CF8044628B90B4B0B4A0C486A214AF0EB
:1012E00007F800F053F826F067FA18B1204606F028
:1012F00033F8E8E7204606F00FFB204626F062FAB6
:10130000F1E700BFA4C9040002CA0400ADC904008B
:1013100038B504460D4600F015FE04F5657104F578
:101320005E7000F04CF9234604F58461144A04F51C
:10133000607000F0A5F904F29A33C4F8943304F213
:1013400026428023A4F89833C4F82024002340F2D6
:101350001452A4F81C34A4F8242484F83C392946F7
:101360002346084A04F5146007F072FC0649224639
:10137000201D00F06DFA26F09DFD204638BD00BF0F
:10138000A115000095140000BF13000010B5054C16
:1013900001462046FFF7BCFF00F07CFE844200D0EF
:1013A000FEE710BD98010020D0F8942300F29A3394
:1013B0009A4203D100F5146007F060BC7047FFF754
:1013C000F3BF2DE9F8430446051D00F55E764FF0A6
:1013D00002080127284600F057FB94F81C3470B12E
:1013E000022B47D0D4F8941304F29A30091A89B228
:1013F00000294DD026F066FD002849D0FEE7012BDC
:1014000021D0022B36D0002BE4D1204600F054FE30
:1014100008B125F059FE204600F058FE0028E1D121
:10142000304600F0D0F80028DCD1284600F0C6FB9A
:1014300084F81C74284600F0D8FB60B9284600F0F8
:10144000DDFB84F81D0494F81D14304600F0C4F848
:101450000028EFD0C6E794F8C090284600F0DFFCE3
:10146000B9F1000F04D094F8C0300BB984F83C797E
:1014700084F81C84304600F0DDF80028B2D194F8DE
:101480003C3984F81C04002BA4D084F83C09A0E764
:10149000BDE8F88308B500F0FDFDBDE80840FFF7A2
:1014A00090BF00F29A33C0F894338023A0F89833A9
:1014B00000F5146007F0E2BB08B500F0EBFD18B1D1
:1014C000BDE80840FFF7EDBF08BD13B50446019124
:1014D00000F0E0FD40B1019A214600F5607002B0D5
:1014E000BDE8104000F0D4B802B010BDF0B50C4615
:1014F000A1B015461E4600F0F3FD2346194A1A4FC7
:10150000802168464AF078FB68464AF0C8FB694685
:101510000246002001F024FD0024A642A0B20ED015
:10152000292C0BD0A4EB840104EB44002B5D3A463C
:10153000803168444AF060FB0134EEE7204600EB5E
:101540004000C0F18001094A68444AF055FB6846F2
:101550004AF0A5FB0DF10101421E002001F000FD43
:1015600021B0F0BD07CA04001BCA040021CA040050
:1015700038B5D0F8203400F226455B1B04469BB2F8
:1015800051B91A46294601F09DFB40F21453C4F8A4
:101590002054A4F8243438BD2A46FFF7A7FFF4E707
:1015A000FFF7E6BF838843B103685A1C02601970D5
:1015B0008388013B8380002070470320704700220E
:1015C00001608280704708B54FF6FF7383807E21EB
:1015D0000068FFF7E7FF08BD7E2938B505460C46D1
:1015E00000680AD87C2903D801F0FD03112B06D12D
:1015F0008388012B08D8032005E0F829F7E7214666
:10160000FFF7D0FF40B138BD7D21FFF7CBFF286841
:1016100084F02001FFF7C6FFAA88054B5440E4B2CE
:10162000002033F8143083EA1223AB80EBE700BFCD
:1016300024CA0400F7B50368044693E80300A688AB
:101640006D4685E80300F1438FB22046C9B2FFF72B
:10165000C3FF034658B9390A2046FFF7BDFF0346CA
:1016600028B920687E21FFF79DFF034628B1226834
:101670000098A98810609180A680184603B0F0BD3C
:1016800030B50025C0E90112C0E90335057030BD51
:101690002DE9F843384F04460D468E184FF00208E6
:1016A000AE4266D0237815F8011B012B0BD0022B1C
:1016B0003ED0002BF4D17E29F2D1012323704FF6C6
:1016C000FF732361ECE77D2917D07E2918D060686D
:1016D000B0F80490B9F1000F44D0B4F810C081EA1A
:1016E0000C02D2B237F8123083EA1C232382FFF7B0
:1016F00059FF638A01336382D2E784F80080CFE721
:10170000638A002BDBD0012B10D9228A4FF2B80359
:101710009A420BD163681A68023A1A609A880232B8
:101720009A800021D4E902309847C8E70621F9E7FA
:101730006068B0F80490B9F1000F13D0B4F810C08D
:1017400081F0200181EA0C02D2B237F8123083EA2C
:101750001C232382FFF726FF638A01336382012360
:1017600023709DE7A368E0680321984784F8009000
:1017700096E7BDE8F88300BF24CA040003685A1E38
:1017800070B51146044603628B4202D92089014498
:10179000FAE761620221217700212163A1F58031FE
:1017A000C4E90A33C4E90D13934202D921890A44DA
:1017B000FAE7C4E90F23C4E911330023A365A4F8B1
:1017C0005C3004F15E03236704F14C05284605F004
:1017D000A1FF0146E0B904F15006304605F09AFF3A
:1017E000054668B95434204605F094FF054698B183
:1017F0000146204605F08CFF284605F069FFF2E718
:101800000146304605F084FF284605F061FFE4E715
:10181000284605F07DFFD9E770BD10B50160114481
:10182000044641600281503005F069FF04F1540024
:1018300005F065FF04F14C0005F061FF0023204630
:10184000C4E90333C4E90533FFF798FF204610BD10
:10185000C0E903127047C0E905127047012B09D097
:10186000022B0ED073B9114442688A420AD8038908
:10187000C91AFAE7891A02688A4203D90389194406
:10188000FAE7FEE708467047012B0DD0022B14D073
:10189000A3B98A4202D3521A90B2704743680068D3
:1018A000591A121A0A44F7E78A4201D88A1AF3E74A
:1018B000436800689A1A091AF4E7FEE70022EBE78A
:1018C00010B5144612120A700122FFF7C7FF047008
:1018D00010BD10B5134601220C78FFF7BFFF00784A
:1018E0002402204480B210BD73B5037FC26A019305
:1018F0000E46816A00910446FFF7C6FF0128009951
:10190000054613D9019B20461A46FFF7E2FF023D28
:10191000C5F30D0535432843019B009982B220464B
:10192000FFF7CEFFE36AA36202B070BDE162FBE79E
:101930002DE9F3411F46037F022B04460D46164650
:1019400021D0826A4968914221D1C26A01930091F3
:10195000FFF79AFF2D68019B009980462A46204692
:10196000FFF792FF3844404511DC3744BE4210D0A7
:1019700016F8013B2B702946237F01222046FFF7F2
:101980006DFF0546F2E70D2002B0BDE8F0810720AB
:10199000FAE70020F8E7037F022BF7B504460D466F
:1019A0001CD0826A4968914218D1C76A00933A46AE
:1019B0000191FFF769FF2D68009B019906462A46B1
:1019C0002046FFF761FF864208D9009B3A46294628
:1019D000204603B0BDE8F040FFF756BF002003B03B
:1019E000F0BD037F022B73B504460D4616D0826A04
:1019F0004968914214D1C26A01930091FFF744FFF4
:101A00002D68019B009906462A462046FFF73CFFB9
:101A1000864205D9E562002002B070BD0D20FBE7CB
:101A20000720F9E7037F022B37B5044628D00021B1
:101A3000FFF75AFF237F04EB830304F14C051A6A76
:101A40002263A26A1A62284605F064FE014658B174
:101A50000190284605F05CFE207F0199143004EBCC
:101A6000800005F04FFEEEE7E56825B1227F216B8F
:101A700020692346A84702232377002003B030BD06
:101A80000D20FBE7006B7047C26B436A9A4205D199
:101A9000836B006A1B1A58425841704700207047F8
:101AA00090F8353033B9C36B426A9B1A18BF0123D3
:101AB00080F83430704738B50446806D08B9172077
:101AC00038BDB4F85C5005F005FE8542F7D204F14C
:101AD0005E05B4F85C10A06D10232A4605F007FEE1
:101AE0000028ECD0B4F85C30A56403442844206797
:101AF000A4F85C300020E3E738B590F83450016C6E
:101B00002A460446FFF7E5FE430401D4172038BDFA
:101B1000A16D05F1140004EB800081B905F0FAFD18
:101B2000A0650028F2D00023A4F85C302046FFF71F
:101B3000C2FF0028EBD1022384F83530E7E705F037
:101B4000EBFDEDE773B5044694F83430656C25641D
:101B500004EB8306326A95422BD01A46294620466A
:101B60000193FFF7B6FE10F4004F019B02D0B26B59
:101B700095421ED1C0F30D00821C294620460193D8
:101B8000FFF76CFE019B6064064602222946204650
:101B9000FFF764FE8642A06405D0012384F8353047
:101BA000002002B070BD2046FFF7A6FF0028CBD171
:101BB000F7E7032384F835301720F2E710B5014624
:101BC000FFF762FF044670B90846FFF769FF91F816
:101BD00034300E3351F823308C65C1E91033BDE841
:101BE0001040FFF7AFBF172010BD90F83500032855
:101BF0001ABFB0FA80F040090120704790F83520F4
:101C0000012A38B5044604D0022A15D000252846FA
:101C100038BD816C90F834300D78FFF71FFE636C8F
:101C2000A0649842F3D12046FFF766FF0028EED06B
:101C30002046FFF787FFEAE7836C026F13F8015B2A
:101C400083649342E3D1FFF736FFEFE7D0E90E2339
:101C5000416A99420CD1017F012909D00168531EC4
:101C6000994202D902891344FAE74362C363704779
:101C7000016A91420AD1027F42B14168013399421F
:101C800002D802899B1AFAE703628363704738B56A
:101C9000037F022B044611D0083300F14C0550F8A5
:101CA0002330C0E90A33284605F034FD014618B157
:101CB000284605F02DFDF6E7022323772046BDE8F0
:101CC0003840FFF7C3BFF8B5047F022C05460E4627
:101CD00000D1FEE72346C76AB4FA84F464090122FE
:101CE00039460834FFF7BAFD55F82430834203D053
:101CF0003E70E8620020F8BD2846FFF7C8FF0320C9
:101D0000F9E7D0E90A239A4270B505461BD1037F53
:101D10000833002150F82360B2420CBF4FF4004654
:101D20000026FFF7D0FF044658B901462846FFF7C2
:101D3000CAFF044628B92B7FA96A32462846FFF716
:101D4000BFFD204670BD0024FBE770B505460E467A
:101D5000A1B1037F022B13D0FFF7D3FF044658B97C
:101D6000314605F14C0005F0CDFC044620B94FF496
:101D700080412846FFF7B8FD204670BD0724FBE7E9
:101D80000D24F9E738B5037F022B04460D4607D032
:101D9000FFF7B7FF18B9E36A2B60A36A6B6038BD21
:101DA0000D20FCE713B5037F0191022B044609D0F7
:101DB000FFF7A7FF38B90199204602B0BDE81040EF
:101DC000FFF781BF0D2002B010BDF8B5037F022BD5
:101DD00007460D46164610D0FFF793FF044650B94C
:101DE0002E44B54207D015F8011B3846FFF76BFFAC
:101DF0000028F6D004462046F8BD0D24FBE738B590
:101E00000D460446FFF743FF0DB1012D00D12577A4
:101E1000237F083354F82330C4E90A3338BD2DE951
:101E2000F0470446FFF730FE002859D12046FFF75F
:101E300037FE94F834300E334FF00B0954F82380FA
:101E4000464694F8345004EB850ADAF82030B34261
:101E50002FD02A4631462046FFF73BFD02040746B5
:101E600003D5DAF83830B34223D17B0411D51435C9
:101E700004EB850005F04EFC054650B194F83400A3
:101E80001430294604EB800005F042FC284605F09A
:101E90001FFCC7F30D0294F834303146023220465D
:101EA000FFF7DCFC09F1FF3313F0FF090646C8D148
:101EB000FEE70E35204644F82560FFF7C7FE65694A
:101EC00000264FF6FF7384F83560E38655B1A069AC
:101ED00094F8342023464146A8473046BDE8F087B1
:101EE0001720FBE72846F9E7182826D8DFE800F096
:101EF000280D0F112513151725252525191B1D1F25
:101F000025252525252525232100012070470E2084
:101F100070470B2070470C20704709207047032042
:101F2000704702207047042070471120704712202C
:101F30007047132070471420704700F580407047A9
:101F4000002070472DE9F0410646044646F8041B80
:101F50004FF400720F4600F1F9013046FFF75DFCC7
:101F60000025A66704F17C0304F19C02C3E9005537
:101F700008339A42FAD1C4E92855A4F89C5004F1D8
:101F8000A80004F009FD3A4A84F8C050C823C4E907
:101F9000322304F1D4084FF6FF73364AA4F8D03048
:101FA00039462346C4F8C450404606F051FE042189
:101FB0000023002284F8F0102F49C4F8DC50C4E953
:101FC0003823C4E93A23C4E9DC2323680968C4F848
:101FD000F410C4E9CE55C4E9D155C4E9D355C4E9D8
:101FE000D555C4E9D755C4E9D95584F8F85084F8D3
:101FF000F952A4F8FA5284F86C5303B9FEE71F4B68
:102000001F491C6022463046FFF725FC3C22002178
:1020100004F53F7049F012FA04F5507005F06FFBBB
:1020200022461849206805F09BF922462068164987
:1020300005F0D6F92068012105F0DCF92546206875
:10204000002105F07DF92068104905F0F5FE55F8EE
:10205000E00B0F49224605F01EFE7722002128469C
:1020600004F03CFF404606F009FE2046BDE8F08142
:1020700000F8FF073924000024CC0400E00A002007
:10208000A72400000568000021670000453100001A
:1020900095300000014B1868704700BFE00A00202F
:1020A0000023C0E9D733C0E9D933C0E9D133C0E94F
:1020B000D333C0E9D533704790F8F030042B1ABF02
:1020C00090F8C00080F001000020704790F8F030D8
:1020D000012B06BF90F8C00080F00100002070477F
:1020E000D0F85C330133C0F85C3370472DE9F84316
:1020F000994690F83C330D1E0446164608BF7025DD
:1021000013B10D20BDE8F88300F1E00729463846F9
:1021100004F062FF0028F4D194F8FA2294F8FB321C
:102120009A420AD00B220021384604F0D7FE04F16F
:10213000D40006F0A3FD0320E4E704F178082B4661
:1021400006228021404604F096FE48B9A06F1FFA8F
:1021500089F23146FFF739FE10B9404604F06EFEB1
:102160000328CFD1DEE70000013804289ABF024BD4
:10217000185C0020704700BF28CC0400F8B511F0AF
:102180000F0601F00F0708D1022A04D11A46314682
:10219000E03004F0A3FE3046F8BD90F8FB5290F812
:1021A000FA126C1A0E2C06DD0E220021E03004F02B
:1021B00095FE0326EFE790F8F942B44217D08D421E
:1021C00015D90C460E2C02D90F3CE4B2FAE7BE3406
:1021D00000EB840494F804C01CF0100F0DD00CF038
:1021E0000F0EB64509D16FF3041C84F804C02C46C9
:1021F0000E2C05D90F3CE4B2FAE70131C9B2DEE793
:1022000002F0030247F0100141EA4211BE34084ACD
:1022100000EB840402EAC3131943636803F000432C
:10222000194301356160002680F8FB52B3E700BF17
:1022300080FFFF7F13460222FFF7A0BF38B511F0E1
:10224000300F00F1780408BFC0F8C4201546002301
:102250000622204604F00FFE48B92946204604F025
:1022600052FD20B92046BDE8384004F0E7BD38BD36
:102270002DE9F74304460D466846114691461E4631
:1022800004F05AFBDDE900782FB918F0010F02D1F4
:10229000E6B932461BE004F178064B460622294691
:1022A000304604F0E8FDC8B94FEA680318F0010FA2
:1022B00018BFE35804EB680018BFDF59B84768B986
:1022C000304603B0BDE8F04304F0B8BD0D22294606
:1022D000204603B0BDE8F043FFF7B0BF03B0BDE850
:1022E000F08370B50446002694F8FA5294F8FB3255
:1022F000AB4237D0BE3504EB85021379D90616D42C
:1023000004EB85052B796FF304132B7194F8FA32E3
:102310000133DBB20F2B84F8FA32E5D194F8FB32AB
:1023200084F8FA620E2B1AD90F3BDBB2FAE703F0FE
:102330000F01526803F06003402B41F08001C2F3AB
:10234000D71205D12046FFF779FF0028D8D070BDFD
:10235000B3FA83F35B092046FFF78AFFF5E784F8B9
:10236000FB32C1E70020F2E72DE9F74F044604F005
:1023700053FAD4E9382313434CD004F1E00004F0BD
:10238000AAFD2C4F804600254FF0010AEBB24345D1
:1023900040D2D4E93830C5F12001A5F12002EB404C
:1023A00000FA01F10B4320FA02F2134313F0010F7C
:1023B000C5F12009A5F1200602D10C370135E5E76A
:1023C0003A686ABBD7F804B0BBF1770F06D1206832
:1023D00024F060FE082898BF00F1700B5A46802157
:1023E0002046FFF72BFFA8B9D4E938120AFA06F6FF
:1023F0002AFA09F90AFA05F321EA030346EA09066B
:10240000009322EA06030193DDE90023C4E938239F
:102410001343D2D1012384F86C3303B0BDE8F08FAD
:1024200094F86C33002BDFD0012380212046FFF786
:102430001FFFD8E75CD90400014B1868FFF794BF71
:10244000E00A002090F8C03010B5044633B1D0F84F
:10245000F4308B4204BF002380F8C0302046FFF7E1
:1024600040FFF8B994F8F81099B101230C222046E6
:10247000FFF7FEFEB0B994F8F03084F8F800042BB2
:1024800007D0201DFFF7FEFA0123C4F8F40084F8FA
:10249000C030204604F013F920B92046BDE81040B2
:1024A000FFF762BF10BDFFF7CDBFF8B500F17805AB
:1024B00004462846069EBDF81C7004F0DCFC50B9AA
:1024C000A06F3A463146FFF780FC20B92846BDE8A8
:1024D000F84004F0B3BCF8BD2DE9F04F042B87B0F1
:1024E00004460D46174602D0052B18D0FEE71146CC
:1024F00004A804F039FADDE904864FF0070906F074
:10250000010BB8F1000F13D1BBF1000F10D10D2258
:1025100029462046FFF78EFE07B0BDE8F08F114632
:1025200004A804F02DFA4FF00809DDE90486E6E777
:1025300004F1A80A504604F076FB0DF10A0203A943
:10254000504604F019FB504604F074FB002384F855
:102550003C3304EB66007310BBF1000F02D0E3586C
:1025600053F80880C047012384F83C33064618B16D
:10257000FFF7BAFC0246CBE7BDF80A300193039B94
:1025800000934A463B4629462046FFF78EFF002827
:10259000C2D03246BCE708B50022FFF74BFE08BDAB
:1025A00038B50446006804F0D9FE0021206805F023
:1025B00029FB0021206804F0DFFE722280212046E2
:1025C000FFF73CFE054648B104F1E0007722002108
:1025D00004F084FC04F1D40006F050FB024B00220E
:1025E0001A60284638BD00BFE00A0020806F002135
:1025F000FFF7D8BB10B50446006804F046FF01465B
:10260000A06FBDE81040FFF7CDBB13B50023044613
:1026100001A9A830019304F059FA20B99DF80410DB
:10262000206804F037FF02B010BD10B50446006802
:1026300024F04AFE002818BF0221A06F08BF002125
:10264000BDE81040FFF7AEBB37B5002305460DF1DE
:102650000701A8308DF8073004F0B6F9044658B9E0
:102660009DF8073023B1013B012B08D9072403E073
:102670000146286824F02AFE204603B030BD01211F
:10268000F7E710B5044654F8780B04F051FF014603
:102690002046BDE8104004F0DABA13B504460DF147
:1026A0000601A83004F0BEF920B9BDF80610206874
:1026B00004F043FF02B010BD10B50446006804F0FA
:1026C00018FF08220146A06FBDE81040FFF77DBB50
:1026D00013B50822044601A9A83004F00EFA18B96F
:1026E0000199206804F009FF02B010BD10B504463E
:1026F00054F8780B04F045FF01462046BDE8104031
:1027000004F0A5BA90F83A13806FFFF74BBB13B5EE
:10271000002304460DF10701A8308DF8073004F0BE
:1027200063F918B99DF8073084F83A3302B010BD48
:10273000F8B505460E460024012707FA04F3334294
:10274000E1B204D10134202CF7D1002004E0A86FBD
:10275000FFF728FB0028F5D0F8BD0023F7B50546A4
:102760000C460B6000F1A8070126B5F8AE20B5F8BD
:10277000B0309A420FD00DF10701384604F024F929
:1027800050B99DF807301F2B08D8226806FA03F3CA
:1027900013432360E9E7002003B0F0BD0720FBE707
:1027A000D0F8C810FFF7C4BF13B5002301A9044631
:1027B0000193FFF7D2FF10B9019BC4F8C83002B0F3
:1027C00010BDB0F8CC10783004F041BA00F1CC0163
:1027D000A83004F027B910B50446006804F055FF8E
:1027E00078B9206804F061FF68B9206805F034FA10
:1027F000002814BF03210021A06FBDE81040FFF79F
:10280000D1BA0121F8E70221F6E7000010B586B041
:10281000044600230DF11701A8308DF8173004F09D
:10282000D3F840B99DF81700032803D8DFE800F07B
:1028300003050F190C2006B010BD124BB4F8CC20C4
:10284000D4F8C8102068009404F01AFFF3E70E4B88
:10285000B4F8CC20D4F8C8102068009404F020FF0D
:10286000E9E7084B019394F8CF300093B4F8D020F7
:1028700094F8CE30D4F8C8102068029405F0D9F945
:10288000D9E700BFAD650000116600002DE9F843EF
:102890000546E03004F01FFBDFF8508006460024B8
:1028A0004FF00C0905F17807E3B2B3421BD2D5E92A
:1028B0003A30C4F12001A4F12002E34000FA01F112
:1028C0000B4320FA02F21343DB0701D40134EBE798
:1028D00009FB04F3384653F8081004F014FA0028F2
:1028E000F4D0BDE8F8830020FBE700BF5CD904000A
:1028F000F7B500230022C0E93A23044600F1A807F7
:1029000000F1E006B4F8B020B4F8AE309A420BD033
:1029100001A9384604F0DAF8054648B901990122C0
:10292000304604F011FBEDE70025284603B0F0BD6A
:10293000012341F2080280212046FFF799FCF4E7C9
:1029400013B5044601A9A83004F0C0F828B90199CC
:10295000012204F1E00004F0F7FA02B010BD13B553
:10296000044601A9A83004F0B1F828B9024601993B
:1029700004F1E00004F0E8FA02B010BDD0F8C41091
:10298000783004F0C0B910B500F178040421204675
:1029900004F0B9F928B920460321BDE8104004F03D
:1029A000B2B910BD0321783004F0ADB90021783000
:1029B00004F0A9B910B500F178040521204604F00F
:1029C000A2F900284FD10C21204604F09CF90028E0
:1029D00049D11821204604F096F9002843D120213E
:1029E000204604F090F9F0BB3521204604F08BF925
:1029F000C8BB0E21204604F086F9A0BB4FF400713D
:102A0000204604F080F970BB4FF40171204604F0B9
:102A10007AF940BB40F20A21204604F074F910BB59
:102A20003021204604F06FF9E8B93121204604F046
:102A30006AF9C0B94FF48061204604F064F990B996
:102A400040F20341204604F05EF960B940F20441CF
:102A5000204604F058F930B9204640F20541BDE85F
:102A6000104004F050B910BD10B5044604F080FCCD
:102A7000014604F17800BDE8104004F081B9806F90
:102A80000121FFF78FB9FFF7B1BD806F0421FFF778
:102A900089B90C20704713B504466946006804F0F4
:102AA00041FDA06F08226946FFF78FF902B010BD03
:102AB0000221783004F0FDB990F8F010806FFFF734
:102AC00071B9000073B504460E46A8300DF1070138
:102AD00003F07AFF80BB9DF80730022B23D002D988
:102AE000DA1E012A21D884F8F030002384F8F83067
:102AF0000C22012331462046FFF7BAFB94F8F03050
:102B0000042B054608D090B9201DFEF7BBFFC4F882
:102B1000F400012384F8C03015B184F8F860002572
:102B2000284602B070BD0123DDE70323DBE7074B36
:102B30001B68C4F8F430ECE7FFF7D6F931460246DB
:102B40002046FFF77BFB0546EAE700BF24CC0400E4
:102B500010B51C4641F210539A420DD041F60703BE
:102B60009A4206D00C2A0AD1FFF7ACFF2070012050
:102B700010BD00F0D2FEF9E700F016FFF6E70020E6
:102B8000F6E7F0B585B004460D4602A811460027C9
:102B900016468DF8077003F0DBFEDDE9023000F029
:102BA000010273B96AB90DF107033246294620467E
:102BB000FFF7CEFFF8B90D2229462046FFF73AFB72
:102BC00017E0411084F83C7304EB60000AB16258CE
:102BD000D358984701228DF8070084F83C2318B198
:102BE000FFF782F90246E7E7334629462046FFF71A
:102BF000C5FA8DF807009DF8070005B0F0BD73B564
:102C0000002304460D46A83001A91646019303F09F
:102C10005DFF024640B1FFF767F9294602462046AC
:102C2000FFF708FB024604E0032E15D004D8022E5D
:102C30000CD0104602B070BD331F012BF9D8019A99
:102C4000334629462046FFF747FCEBE7019B294620
:102C50002046FFF793FAE5E7019A29462046FFF759
:102C600090FFDFE737B504460D46A83001A903F011
:102C70002DFF70B9019A0B2A1CD8DFE802F0060C70
:102C8000111111111B1B1B21162129462046FFF78C
:102C900082FC03B030BD29462046FFF781FCF8E7EF
:102CA00029462046FFF7ABFFF3E72946204601F00F
:102CB00070F8EEE7052229462046FFF7BBFAE8E761
:102CC0000C20E6E730B5012385B080F83C3304469C
:102CD0000025A83001908DF80F5003F06AFE042300
:102CE000019884F8F03084F8C0500DF10F0103F022
:102CF0006BFE90B99DF90F309DF80F10AB420CDAC6
:102D0000D4F8603311F0300F03F10103C4F86033DD
:102D100008D006222046FFF791FA002384F83C33BE
:102D200005B030BD2046FFF79DFF38B19DF80F106C
:102D3000FFF7DAF802462046FFF77CFA94F8FB2208
:102D400094F8FA329A4202D02046FFF7CAFA9DF868
:102D50000F3094F8F92203F00F0332B19A421EBFEC
:102D6000D4F864230132C4F864230F2B14BF013359
:102D7000012384F8F932D0E7F8B50446E03004F0D6
:102D8000AAF80A4D074600267834F3B2BB420BD2AC
:102D90002B7A13B90C350136F7E72968204603F082
:102DA000B2FF0028F6D0F8BD0020FCE75CD9040093
:102DB00010B50446006824F075FAC1B2A06FBDE8F2
:102DC0001040FEF7EFBF10B50446006824F09EFCEB
:102DD000C1B2A06FBDE81040FEF7E4BF10B50446D5
:102DE000006804F052FB0146B0B10A280CD84FF439
:102DF000FA60414301F55C2101F5346104F178008A
:102E0000BDE8104003F032BF192807D8044841F24A
:102E1000883303FB0101F1E70249EFE70021EDE709
:102E2000B0DB2300CC3F0D0013B504460DF10701C4
:102E3000006824F0B9FA30B99DF80710A06FFEF7CA
:102E4000B1FF02B010BDFFF74FF8014604F1780062
:102E500004F02FF8F5E713B5002304460DF1070140
:102E6000A8308DF8073003F0D1FD20B99DF9071087
:102E7000206824F0A8FA02B010BD13B504460DF185
:102E80000701006824F07CFA30B99DF80710A06FA4
:102E9000FEF788FF02B010BDFFF726F8014604F1E7
:102EA000780004F006F8F5E713B5002304460DF1A9
:102EB0000701A8308DF8073003F0A8FD20B99DF96F
:102EC0000710206824F066FA02B010BDFEE7FEE7A6
:102ED00010B5044604F0FAFBFFF746F90146A06F6F
:102EE000BDE81040FEF75EBFF7B50023002205469F
:102EF000CDE9002323F0EFFE6946044605F1A80062
:102F000003F0BCFD60B9DDE9006723460024A74259
:102F100008BF9E4206D3F21A67EB0403C5E9DC231F
:102F200003B0F0BD0720FBE7D0E9DC23783003F0E5
:102F3000B8BE10B50446006804F0C6FA0146204643
:102F4000BDE81040FFF7F4BB10B5044600680FF071
:102F500041FC01462046BDE81040FFF7E9BB0000F8
:102F60001346074A10B4146834B10A460146204695
:102F70005DF8044BFFF7BAB80D205DF8044B7047BD
:102F8000E00A0020FEF70EBF00680822FEF71DBF12
:102F9000F8B50546087F0C46C0F3C003C0F34001F6
:102FA000C0F3800200F0010000F03DFE05F178075B
:102FB000064621463846FFF7E7FF40BB218A3846E0
:102FC00003F045FE18BBA168384603F04FFEF0B988
:102FD000E168384603F04AFEC8B9217DA86FFEF7C4
:102FE000E1FEA0B9617DA86FFEF7DCFE78B9A17D96
:102FF000A86FFEF7D7FE50B9A86F3146FEF7D2FE94
:1030000028B9E17DA86FBDE8F840FEF7CBBEF8BD5A
:1030100070B504460D46E03041F60D1103F0DCFFBB
:10302000002836D104F1780641F60D1306228021DE
:10303000304603F020FF60BB29463046FFF7A4FF6F
:1030400038BB2989304603F002FE10BBA97AA06F75
:10305000FEF7A8FEE8B9E97AA06FFEF7A3FEC0B9B3
:10306000297BA06FFEF79EFE98B9697BA06FFEF7E3
:1030700099FE70B9A97BA06FFEF794FE48B9E97B71
:10308000A06FFFF77FFF20B93046BDE8704003F026
:10309000D5BE70BD0B46014618B113B11846FFF7F7
:1030A000B7BF70472DE9F8430446154603292BD8CE
:1030B000DFE801F0252C022E41F20B56072704F120
:1030C000E0083146404603F087FFE8B904F178098B
:1030D00033463A468021484603F0CDFEF0B1522EE9
:1030E00002D1012384F83D3340460B22002103F036
:1030F000F5FE04F1D400BDE8F84305F0BFBD072795
:1031000095F82030DB0607D5BDE8F8830827F7E7F8
:1031100041F20B560827D2E75226D0E7522E05F18E
:103120000401204609D1FFF733FF0028D9D14846D2
:1031300003F084FE0028E7D0D1E700F082FD0028EC
:10314000F5D0D1E713B504460191FEF7A3FF019A2C
:10315000214602B0BDE81040FFF7A4BF10B50446F9
:10316000006804F0BBFD0146A06FBDE81040FEF70B
:1031700019BE10B50446006804F0CEFC0146A06FED
:10318000BDE81040FEF70EBEF0B5054689B0044616
:1031900055F8780B04F085FD00260746B1B28F4242
:1031A0001AD920686A4604F0FCFD08B10136F5E73B
:1031B0009DF81C30DB06F9D4284603F0FBFD48B926
:1031C00069462046FFF7E4FE20B9284603F011FEC9
:1031D0000028EBD009B0F0BD0020FBE7F0B50546B4
:1031E00087B0044655F8780B04F0F8FD0026074632
:1031F000206801AAF1B204F0F3FD28B10136F3B260
:103200009F42F5D2002044E09DF81430DB07F5D54D
:10321000284603F0CFFD00283BD101A92846FFF73F
:10322000B3FEB0BBBDF80C10284603F010FD80BB08
:103230009DF80E10A06FFEF7B5FD50BB9DF80F1066
:10324000A06FFEF7AFFD20BB9DF81010A06FFEF73A
:10325000A9FDF0B99DF81110A06FFEF7A3FDC0B94C
:103260009DF81210A06FFEF79DFD90B99DF8131008
:10327000A06FFEF797FD60B99DF81410A06FC1F321
:103280004001FFF77FFE20B9284603F0B2FD002879
:10329000B4D007B0F0BD2DE9F04104468EB006462B
:1032A000002554F8780BADF8065004F0FAFC0746F8
:1032B0001FFA85F8474534D9306806AA414604F01C
:1032C00070FD08B10135F3E79DF83430DB06F9D421
:1032D000204603F06FFDD8B906A92046FFF754FE3B
:1032E000B0B9BDF82810204603F0B1FC80B9ADF8A4
:1032F0000600306802AB0DF10602414604F059FDAC
:1033000048B9B06F102202A9FEF75FFD0028F0D087
:103310000EB0BDE8F081204603F06BFD0028D1D04F
:10332000F6E70020F4E710B50446006804F0C4FC9A
:103330000146A06FBDE81040FFF724BE13B5044658
:103340000DF10701A83003F04FFB20B99DF80710DD
:10335000206804F0B7FC02B010BD10B50446006848
:1033600004F01EF90146A06FBDE81040FEF71ABD3B
:1033700037B505460DF10701A83003F025FB0446DB
:1033800020B99DF80710286804F00FF9204603B013
:1033900030BD10B50446006804F032FD102201462D
:1033A000A06FBDE81040FEF710BD13B50023044622
:1033B0000DF1020201A9A830019303F0DDFB38B939
:1033C000BDF80230102B05D10199206804F01CFDD6
:1033D00002B010BD0620FBE737B50023054601A962
:1033E000A830019303F032FB044618B9019928680C
:1033F00004F07EFC204603B030BD10B504460068E2
:1034000004F04FFCC1B2A06FBDE81040FEF7CABC8B
:1034100013B5002304460DF10701A8308DF80730DD
:1034200003F0D2FA20B99DF80710206804F03EFCA2
:1034300002B010BD10B50446006804F072FC0146ED
:10344000A06FBDE81040FEF7ADBC37B500230546C0
:103450000DF10701A8308DF8073003F0B5FA0446E6
:1034600020B99DF80710286804F060FC204603B0DE
:1034700030BD10B50446006804F07EFC0146A06F24
:10348000BDE81040FEF78EBC37B5002305460DF1B0
:103490000701A8308DF8073003F096FA044620B9EA
:1034A0009DF80710286804F06CFC204603B030BD7E
:1034B00010B50446006804F069FC0146A06FBDE841
:1034C0001040FEF76FBC37B5002305460DF107012C
:1034D000A8308DF8073003F077FA044620B99DF83C
:1034E0000710286804F057FC204603B030BD10B523
:1034F000044654F8780B04F000FC01462046BDE871
:10350000104003F0B3BB37B50023054601A9A8302E
:10351000019303F09BFA044618B90199286804F056
:10352000F1FB204603B030BD10B50446006804F03E
:10353000EEFB0146A06FBDE81040FEF733BC37B587
:10354000002305460DF10701A8308DF8073003F080
:103550003BFA044620B99DF80710286804F0DCFB0C
:10356000204603B030BD10B59AB0044669460068E5
:1035700003F0DBFE28B96946204601F01AF91AB0BB
:1035800010BDFEF7B1FC014604F1780003F091FC98
:10359000F5E710B50446006803F065FE0128014612
:1035A00003D002280CBF01460021A06FBDE81040E7
:1035B000FEF7F8BB13B504460DF10701A83003F080
:1035C00003FA28B99DF8073023B1022B06D0072053
:1035D00002B010BD206803F0F5FDF9E7034602468E
:1035E0000146206803F0D7FDF2E730B500F1A805E9
:1035F00085B00446284603F0DFFA58B9B4F8AE2087
:10360000B4F8B0309A4207D0082201A9284603F046
:1036100074FA10B105B030BD0190284603F0ECFA01
:103620000028F7D102A9284603F010FA0028F1D1AA
:1036300003A9284603F082FA0028EBD1DDE9023223
:103640000199206803F0CEFDE4E737B500F1A80545
:103650000446284603F0B0FA58B9B4F8AE20B4F8DE
:10366000B0309A4207D0082201A9284603F045FA53
:1036700010B103B030BD0190284603F0BDFA002818
:10368000F7D10199206803F0B3FDF2E710B50446C5
:1036900054F8780B03F0B9FD01462046BDE8104010
:1036A00003F06EBB13B5044601A9A83003F046FA37
:1036B00018B90199206803F0A2FD02B010BD10B541
:1036C000044654F8780B03F0C9FD01462046BDE8D6
:1036D000104003F0BCBA30B500F1A80587B004462D
:1036E00004A9284603F0B2F9D8B90DF10D01284616
:1036F00003F06AF9A8B90DF10E01284603F092F91A
:1037000078B9102205A9284603F0F7F948B9059BB6
:1037100000939DF80D20BDF80E300499206803F049
:1037200079FD07B030BD000030B500F1A80589B0C3
:10373000044606A9284603F089F930BB0DF11301B0
:10374000284603F041F900BB05A9284603F06AF9B1
:10375000D8B90DF11601284603F064F9A8B9102272
:1037600007A9284603F0C9F978B9094B0293079BCA
:103770000193BDF8163000939DF81320BDF8143066
:1037800006992068039403F04BFD09B030BD00BFDB
:10379000F53700002DE9F04100F178050446884630
:1037A00016461F46072241F602038021284603F0F1
:1037B00062FB58B104F1E0000B22002103F08EFB04
:1037C00004F1D400BDE8F04105F058BA414628465E
:1037D00003F04CFA0028EDD13A463146284603F072
:1037E000BDFA0028E6D1284603F028FB0028E1D1E5
:1037F000BDE8F08110B40446184613460A46214637
:103800005DF8044BFFF7C6BF30B500F1A80587B0DF
:1038100004460DF10E01284603F004F9A0B904A9ED
:10382000284603F013F978B9102205A9284603F0B9
:1038300064F948B9054B0093BDF80E102068019457
:10384000DDE9042303F0F8FC07B030BDA93800001F
:10385000F8B500F1780504460F46164641F6040314
:1038600007228021284603F006FB58B104F1E0004E
:103870000B22002103F032FB04F1D400BDE8F84034
:1038800005F0FCB93946284603F0E1F90028EDD1EE
:103890003146284603F0EAF90028E7D1284603F02C
:1038A000CDFA0028E2D1F8BD13460A460146184673
:1038B000FFF7CEBF13B504460DF1020201A9A830EF
:1038C00003F065F940B9BDF80220FF2A06D8019936
:1038D0002068D2B203F0B6FC02B010BD0720FBE7AF
:1038E00030B58BB004460DF1060202A9A83003F0F2
:1038F0004EF970B9BDF80650FF2D0CD801461A22BA
:1039000003A847F09BFD029A2068EBB203A903F0DD
:103910009FFC0BB030BD0720FBE770B500F1A80697
:1039200088B004460D46304601A903F007F950BBA4
:1039300002A9304603F002F928BB0DF1020203A9E7
:10394000304603F024F9F0B9BDF80230082B1CD141
:10395000DDE90212019804AB03F0E5FC98B904F12B
:10396000780641F6070306222946304603F083FA1B
:1039700048B91022A06F0DEB0201FEF726FA10B92C
:10398000304603F05BFA08B070BD0620FBE710B5C7
:103990000446006803F067FC831E5942A06F59413A
:1039A000BDE81040FFF7EEBA37B5002304460D46D8
:1039B000A8300DF107018DF8073003F015F8034624
:1039C00030B99DF8072020686AB903F0FBFB034675
:1039D0001846FEF789FA0222034629462046FEF7DA
:1039E000CDFB03B030BD1A46194603F0D4FBEEE719
:1039F0007FB500F1A8060023054602A93046CDE9AF
:103A00000133039303F09AF890B903A9304603F009
:103A10001DF8044660B9082201A9304603F06DF88C
:103A200000B10194DDE902230199286803F0DAFB73
:103A300004B070BD37B505460DF10701A83002F09E
:103A4000C3FF044620B99DF80710286804F04BF91D
:103A5000204603B030BD90F83F13806FFEF7A2B947
:103A600010B500F23F310446A83002F0ADFF30B986
:103A700094F83F132068BDE8104004F029B910BD48
:103A800037B505460DF10701A83002F09DFF044649
:103A900038B99DF80710286804F04DF90D2818BFB3
:103AA0000446204603B030BDF0B500268FB0CDE906
:103AB0000166044600F17805206801AA03A9F7B25F
:103AC00004F096F9002877D1284603F073F940BB3B
:103AD000A06F102203A9FEF778F910BBBDF81C10E7
:103AE000284603F0B4F8E0B9A06F3946FEF75AF95A
:103AF000B8B99DF81E30032B08D8DFE803F0021494
:103B000016180021A06FFEF74DF950B9284603F0B2
:103B100051F930B99DF81E305BB1284603F069F9C0
:103B2000F0B10FB0F0BD0121ECE70221EAE703217B
:103B3000E8E79DF81F10A06FC1F34001FFF722FADC
:103B40000028EED10899284603F090F80028E8D123
:103B5000A06F102209A9FEF738F90028DDD0E0E7B0
:103B6000284603F027F90028DBD19DF81E305BB909
:103B7000284603F03EF90028D3D1284603F039F94E
:103B80000136002898D0CCE79DF81F10A06F01F0F7
:103B90000101FFF7F7F90028C3D1BDF8341028461A
:103BA00003F055F80028BCD1BDF83610284603F0C4
:103BB0004EF80028DCD0B4E70020B2E7437C13F0D5
:103BC000040F14BF20200020190748BF40F0100048
:103BD000DA0648BF40F00800590648BF40F002002E
:103BE0009A0648BF40F00400DA0943F3010318BF06
:103BF00040F00100DBB240EA8310C0B27047FEF72C
:103C0000D1B8002203F06AB90A46002103F066B970
:103C1000082202F072BF0068C9B2FEF7C3B800689C
:103C20001022FEF7D2B800280CBF0020082009B1EE
:103C300040F004000AB140F002000BB140F0010076
:103C400070472DE9F04700F1780491F8207006469E
:103C5000204607F00108C7F34009C7F3800A0D4664
:103C6000C7F3C00703F0A6F8002842D12946204632
:103C7000FFF78AF900283CD1A989204602F0E7FF26
:103C8000B8BBA968204602F0F1FF90BB297EB06F57
:103C9000FEF788F868BB95F919102046FFF7BBFFBF
:103CA00038BB49463B4652464046FFF7BCFF0146FB
:103CB000B06FFEF777F8E0B995F82010B06FC1F358
:103CC0000011FFF79CFFA0B92969204602F0CEFF42
:103CD00078B96969204602F0C9FF50B995F91A1000
:103CE0002046FFF798FF20B92046BDE8F04703F0D3
:103CF00080B8BDE8F08710B5044654F8780B03F09F
:103D000034FC01462046BDE8104002F0AFBF13B5B9
:103D1000044601A9A83002F099FE18B9019920685B
:103D200003F029FC02B010BD10B5044654F8780B1E
:103D300003F0DFFB01462046FFF726F910BD10B562
:103D40000446006803F022FC0146A06FBDE8104065
:103D5000FEF728B837B505460DF10701A83002F087
:103D600033FE044620B99DF80710286803F013FCC1
:103D7000204603B030BD13B5002301A904460193CA
:103D8000FEF7EBFC18B90199206803F0A2FB02B022
:103D900010BD13B504460068019103F0E6FAFEF782
:103DA000A3F8019903460222204602B0BDE8104064
:103DB000FEF7E4B910B50446006803F059FA01466D
:103DC000A06FBDE81040FFF71ABF10B504460068A9
:103DD00003F0DFFA0146A06FBDE81040FFF70FBF08
:103DE00013B5002304460DF10701A8308DF8073004
:103DF00002F0FAFD20B99DF80710206803F0BCFA24
:103E000002B010BD10B50446006803F07BFE011E31
:103E100018BF0121A06FBDE81040FFF7F0BE73B5D9
:103E2000002305460DF10701A8308DF8073002F098
:103E3000DBFD044688B928689DF8076003F062FE40
:103E4000003818BF0120B04207D09DF8073028681D
:103E500033B1012103F0D6FE0446204602B070BD06
:103E60002146F7E710B50446006803F04BFE831EB9
:103E7000DBB2022B9CBF00F1FF31C9B2A06F88BF3B
:103E80000021BDE81040FDF78DBF13B500230446A7
:103E900001A9A830019302F019FE48B9019B032B38
:103EA00006D8DFE803F0020F070B206803F014FECA
:103EB00002B010BD206803F048FFF9E7206803F066
:103EC00055FFF5E7206803F00DFEF1E710B5044655
:103ED00054F8780B03F0D0FD01462046BDE81040B1
:103EE00002F04EBF37B50546002401A9A830019461
:103EF00002F024FE28B90199286803F0C1FD03B03F
:103F000030BD2046FBE710B50446006803F01AFDFB
:103F100008220146A06FBDE81040FDF756BF13B55B
:103F2000002304460DF1020201A9A830019302F01A
:103F300023FE38B9BDF80230082B05D1019920685D
:103F400003F004FD02B010BD0620FBE710B50446E7
:103F5000006803F049FD10220146A06FBDE8104043
:103F6000FDF733BF13B5002304460DF1020201A98A
:103F7000A830019302F000FE38B9BDF80230102BD2
:103F800005D10199206803F034FD02B010BD062070
:103F9000FBE710B5044654F8780B03F08AFD0146A0
:103FA0002046BDE8104002F061BE37B5054601A9C4
:103FB000A83002F04BFD044618B90199286803F0B7
:103FC0007DFD204603B030BD10B5044654F8780B93
:103FD00003F0ABFD01462046BDE8104002F046BEAE
:103FE00010B5044654F8780B03F06EFD01462046E8
:103FF000BDE8104002F03ABE37B5054601A9A83029
:1040000002F024FD044618B90199286803F060FD08
:10401000204603B030BD10B50446006803F03BFCF9
:104020000146A06FBDE81040FDF7BCBE10B50446C8
:10403000006803F039FC0146A06FBDE81040FDF7B1
:10404000B1BE10B5C2B00446FF238DF8073002AAF6
:104050000DF107030021006803F026F89DF8072002
:10406000A06F02A9FDF7B1FE42B010BD10B5C2B0FD
:104070000446FF238DF8073002AA0DF10703012142
:10408000006803F011F89DF80720A06F02A9FDF762
:104090009CFE42B010BD10B5C2B00446FF238DF89F
:1040A000073002AA0DF107030021006803F0D1FBDD
:1040B0009DF80720A06F02A9FDF787FE42B010BD52
:1040C00010B5C2B00446FF238DF8073002AA0DF1E7
:1040D00007030121006803F0BCFB9DF80720A06FD7
:1040E00002A9FDF772FE42B010BD10B5044600688B
:1040F00003F00DFD0146A06FBDE81040FDF752BE74
:104100001FB50446694654F8780B03F043FC28B900
:1041100069462046FFF783FD04B010BDFDF7E4FEBD
:104120000146204602F0C5FEF6E730B5054687B0E9
:10413000044601A955F8780B03F006FD00283CD190
:104140009DF814309B0733D50DF10201206803F070
:104150003DFD0DF10301206803F048FD01A928464B
:10416000FEF712FF10BBBDF80C10284602F06FFDE1
:10417000E0B99DF81310284602F078FDB0B99DF91A
:1041800002102846FFF747FD80B99DF90310284625
:10419000FFF741FD50B99DF81110A06FFDF702FE29
:1041A00020B99DF81210A06FFDF7FCFD07B030BDDF
:1041B0001421284602F07DFEF8E7FDF795FE014642
:1041C000F7E710B58AB000230446ADF80230206846
:1041D00001AA0DF1020103F08CFC38B901A92046B7
:1041E000FFF72FFD0028F2D00AB010BD0020FBE73A
:1041F00030B58BB000230546ADF8023000F17804ED
:10420000286801AA0DF1020103F073FC68BB204687
:1042100002F0D0FD38BB01A92046FEF7B5FE10BB69
:10422000BDF81010204602F012FDE0B9BDF82010D4
:10423000204602F00CFDB0B9BDF82210204602F075
:1042400006FD80B99DF91D102046FFF7E4FC50B92A
:104250009DF91E102046FFF7DEFC20B9204602F033
:10426000C8FD0028CCD00BB030BD0020FBE737B52F
:104270000446002354F8780B8DF807300DF1070140
:1042800003F0D9F8851E9DF8070058B135F8021FD4
:10429000204602F0DCFC28B99DF80730013B8DF880
:1042A0000730F0E703B030BD73B50646044656F854
:1042B000A80B03F0BAF8B4F8B030B4F8AE209B1AEB
:1042C0009BB2012B16D90DF10601304602F0AAFB74
:1042D00080B9BDF80610206803F09BF80546002859
:1042E000E9D001235C2280212046FDF7C1FF28464A
:1042F00002B070BD0025FAE790F83813806FFFF721
:104300007EBC37B5002304460DF10701A8308DF8B7
:10431000073002F069FB054630B994F838239DF860
:10432000073022B984F83833284603B030BD002B5B
:10433000FAD184F83803206802F027FFF4E730B59B
:1043400089B000230446019300F17805206802AA91
:1043500001A903F088FA80BB284602F02BFD50BB70
:1043600002A92846FFF75BFC28BB9DF81810A06F38
:10437000FDF718FDF8B99DF81A10A06F01F00101C2
:10438000FFF73DFCB8B902A8FFF718FC0146A06F83
:10439000FDF708FD78B90146A06FFDF703FD50B9A0
:1043A000BDF81C10284602F052FC20B9284602F045
:1043B00020FD0028CAD009B030BD0023019304F1CC
:1043C0007805206802AA01A902F0B1FE002836D1C2
:1043D000284602F0EFFC0028EDD102A92846FFF79D
:1043E0001EFC0028E7D19DF81810A06FFDF7DAFC3D
:1043F0000028E0D19DF81A10A06F01F00101FFF72D
:10440000FEFB0028D7D102A8FFF7D8FB0146A06F1A
:10441000FDF7C8FC0028CED1A06F0121FDF7C2FC3A
:104420000028C8D1BDF81C10284602F010FC002856
:10443000C1D1284602F0DDFC0028C2D0BBE7002035
:10444000B9E730B5044689B00021182202A88DF8DA
:1044500005108DF8061046F0F1FF94F83833002B64
:1044600045D004F1A80502A9284602F054FBE0BBA0
:104470000DF10701284602F0A7FAB0BB0DF10501C6
:10448000284602F0B1FA80BB0DF10601284602F081
:104490009BFA50BB9DF806209DF807308DF8183028
:1044A000C2F34010930943EA8003C2F3001043EAC9
:1044B000C003C2F3C00043EA0013C2F3800043EA22
:1044C0004013C2F3400043EA801343EAC2139DF84D
:1044D00005108DF819309DF81A30206861F300033B
:1044E00002A98DF81A3002F0EBFD09B030BD0D20A5
:1044F000FBE770B5054686B01122002101A846F001
:104500009DFF95F83833E3B105F1A80601A93046BF
:1045100002F001FB044688B90DF10301304602F0B8
:1045200053FA044650B99DF8033028688DF81430CA
:1045300001A902F0F3FD172818BF0446204606B073
:1045400070BD0D24FAE790F83E13806FFFF757BB5C
:1045500037B5002304460DF10701A8308DF8073068
:1045600002F042FA054630B994F83E239DF8073030
:1045700022B984F83E33284603B030BD002BFAD16F
:1045800084F83E03206803F0C1F9F4E770B590F8B1
:104590003E33ADF5047D0446002B44D000F1A80560
:1045A00004A9284602F052FA58B90DF1060202A9F0
:1045B000284602F0ECFA20B9BDF80660FC2E03D9BB
:1045C00007200DF5047D70BD029932460DF11500EE
:1045D00046F00CFF0DF1050128468DF8146002F03D
:1045E00003FA0028EDD19DF812319DF8052002A9AB
:1045F00062F3000328460DF106028DF8123102F035
:10460000C6FA0028DDD1BDF80650F82DD8D8029999
:104610002A4645A846F0EAFE20688DF8135103A902
:1046200003F04BF9CDE70D20CBE730B590F83E33E2
:1046300085B00446CBB100F1A80502A9284602F0D6
:1046400005FA80B90DF1060203A9284602F09FFA87
:1046500048B9BDF80630FF2B09D8DDE90212206801
:10466000DBB203F043F905B030BD0D20FBE70720B6
:10467000F9E730B5ADF5037D00230546009300F161
:104680007804286801AA694603F036F968BB204619
:1046900002F090FB30BB0299204602F0E7FA08BB1B
:1046A0009DF80C200DF10D01204602F057FBC8B912
:1046B0009DF80A11A86F01F00101FFF7A0FA88B96F
:1046C0009DF80B2143A9204602F048FB50B9BDF8E4
:1046D0000412204602F0BBFA20B9204602F089FB02
:1046E0000028CED00DF5037D30BD0020FAE730B5AF
:1046F000ADF5037D00230546009300F1780428689A
:1047000001AA694603F0BFF898BB204602F052FBAD
:1047100060BB9DF80410A86FFDF744FB30BB029905
:10472000204602F0A3FA08BB9DF80C200DF10D0104
:10473000204602F013FBC8B99DF80A11A86F01F0DA
:104740000101FFF75CFA88B99DF80B2143A92046C7
:1047500002F004FB50B9BDF80412204602F077FACB
:1047600020B9204602F045FB0028C8D00DF5037D96
:1047700030BD0020FAE790F8CE10806FFFF73FBA07
:1047800000F1CE01A83002F02FB990F8CF10806F61
:10479000FFF735BA00F1CF01A83002F025B9B0F823
:1047A000D010783002F053BA00F1D001A83002F0F6
:1047B00039B9F0B591F86430DE0785B005460C468E
:1047C00000F1508194F8643098071DD505F1780602
:1047D000304602F0EFFA002840F04A8141F21D51C4
:1047E000304602F090FA002840F04281D4E90223DA
:1047F000304602F056FA002840F03A81304602F086
:10480000F8FA002840F0348194F8643059071CD538
:1048100005F17806304602F0CDFA002840F02881F4
:104820004621304602F06FFA002840F02181102224
:10483000A86FA118FDF7C9FA002840F01981304689
:1048400002F0D7FA002840F0138194F864301A0778
:104850001CD505F17806304602F0ACFA002840F08D
:1048600007814421304602F04EFA002840F00081D2
:1048700004F12001304602F083FA002840F0F8806D
:10488000304602F0B6FA002840F0F28094F8643026
:10489000DB061DD505F17806304602F08BFA0028BC
:1048A00040F0E6804521304602F02DFA002840F025
:1048B000DF80A86F082204F13101FDF786FA002895
:1048C00040F0D680304602F094FA002840F0D080C4
:1048D00094F864309F062DD522466B4652F8390F66
:1048E000516805F1780703C300233846CDE9023348
:1048F00002F060FA002840F0BB806221384602F0E6
:1049000002FA002840F0B48069463846FFF787F97C
:104910000646002840F0AD80A86F4021FDF742FA1E
:104920000646002840F0A580384602F062FA0028CA
:1049300040F09E8094F864305E0600F1B28094F8F6
:104940006430DB091AD005F17806304602F032FAFD
:10495000002840F08D803621304602F0D4F900283E
:1049600040F08680B4F84810304602F070F9002814
:104970007ED1304602F03DFA002879D194F86530B6
:10498000D80718D505F17806304602F013FA00284A
:104990006ED12121304602F0B6F9002868D194F892
:1049A0004A10A86FFDF7FEF9002861D1304602F0E9
:1049B00020FA00285CD194F86530990719D505F1E3
:1049C0007806304602F0F6F9002851D14B213046E6
:1049D00002F099F900284BD1A86F102204F14C0184
:1049E000FDF7F3F9002843D1304602F002FA00281F
:1049F0003ED194F865305A071BD505F1780630464C
:104A000002F0D8F9A0BB41F21F51304602F07BF909
:104A100070BBB4F85C10304602F019F940BB94F852
:104A20005E10A86FFDF7BEF910BB304602F0E1F949
:104A3000F0B994F865301B071AD505F178073846A8
:104A400002F0B8F9A0B92221384602F05CF978B931
:104A5000216E2846FDF76CFE064648B9384602F03E
:104A6000C8F906E000F17806304602F0A3F918B163
:104A70000026304605B0F0BD41F21C51304602F030
:104A800042F90028F4D1D4E90023304602F009F9B4
:104A90000028EDD1304602F0ACF900283FF492AE88
:104AA000E6E705F17806304602F084F90028DFD108
:104AB00041F21E51304602F026F90028D8D1616C2F
:104AC000304602F0D3F80028D2D1304602F091F9F6
:104AD00000283FF434AFCBE710B59AB004466946DE
:104AE000006802F0E8FB69462046FFF762FE1AB054
:104AF00010BD10B59AB004466946006802F0EBFBA1
:104B000069462046FFF755FE1AB010BD2DE9F04F5B
:104B10000C4687B090460546682200212046DDF805
:104B200040A09DF84470994646F088FCB8F1000F0B
:104B300002D00023C8F80030B9F1000F02D00023E2
:104B400089F80030BAF1000F02D00023CAF8003013
:104B500005F1A8064FF0010BB5F8AE20B5F8B0305E
:104B60009A4200F0F381304602F026F8002869D11D
:104B700004A9304601F0AAFF002863D1049B622BF0
:104B800000F0DB8028D84B2B0AD8432B0ED8222BE1
:104B900000F07C81362B00F00C81212B00F01D8170
:104BA000304602F029F80028D6D04BE0443B072BD2
:104BB000F6D801A252F823F0BB4C0000FB4C0000D9
:104BC000734C0000A14B0000A14B0000A14B000062
:104BD000A14B00000D4E0000A3F5A8531C3B0B2B6E
:104BE000DED80B2BDCD801A252F823F01D4C0000BC
:104BF0004B4C00008B4D0000554E0000D54E000080
:104C0000A14B0000A14B0000A14B0000A14B0000F4
:104C1000A14B0000A14B00001D4F000067B1B5F88B
:104C2000B020B5F8AE309A4206D194F8643043F023
:104C3000010384F86430B3E72146304601F01EFFDB
:104C40000028F2D007B0BDE8F08F57B1B5F8B0201A
:104C5000B5F8AE309A4204D194F8643043F00203C0
:104C6000E7E704F10801304601F008FF0028F3D01F
:104C7000E8E72FB1B5F8AE20B5F8B0309A4217D0BA
:104C80000DF10E0205A9304601F076FF0028D9D1BA
:104C9000BDF80E30102B40F03F81059B04F110024F
:104CA00003F1100153F8040B42F8040B8B42F9D1C5
:104CB00094F8643043F00403BBE72FB1B5F8B0209B
:104CC000B5F8AE309A4213D005A9304601F036FF50
:104CD0000028B7D105990191084646F0E0FF102859
:104CE00000F21A81421C019904F1200046F07EFB7B
:104CF00094F8643043F008039BE72FB1B5F8AE2079
:104D0000B5F8B0309A4213D00DF10E0205A9304625
:104D100001F032FF002895D1BDF80E30082B40F08D
:104D2000FB80059A1368C4F831305368C4F83530F5
:104D300094F8643043F010037BE72FB1B5F8AE2050
:104D4000B5F8B0309A421BD0102205A9304601F0C8
:104D5000D4FE00287FF476AF0DF10E01304601F04D
:104D600033FE00287FF46EAF9DF80E30402B40F0EC
:104D7000D380059A1368C4F839305368C4F83D30BD
:104D800094F8643043F0200353E757B1B5F8AE20F0
:104D9000B5F8B0309A4204D194F8643043F040033F
:104DA00047E704F14401304601F050FE0028F3D0FB
:104DB00048E757B1B5F8AE20B5F8B0309A4204D103
:104DC00094F8643043F0800333E704F1480130463F
:104DD00001F028FE0028F3D034E72FB1B5F8AE205B
:104DE000B5F8B0309A420AD005A9304601F0ECFD82
:104DF00000287FF427AF9DF81430A4F84A3094F8C7
:104E0000653043F0010384F86530C9E62FB1B5F889
:104E1000AE20B5F8B0309A4217D00DF10E0205A9B8
:104E2000304601F0A9FE00287FF40CAFBDF80E302B
:104E3000102B71D1059B04F14C0203F1100153F8C2
:104E4000040B42F8040B8B42F9D194F8653043F01F
:104E50000203D8E757B1B5F8AE20B5F8B0309A42A2
:104E600004D194F8653043F00403CCE704F15C010D
:104E7000304601F0D7FD00287FF4E4AE04F15E0176
:104E8000304601F0A1FD0028EBD0DBE62FB1B5F8EC
:104E9000AE20B5F8B0309A4217D00023B5F8AE2056
:104EA0002366B5F8B0309A420FD005A9304601F01C
:104EB0008BFD00287FF4C6AE9DF814301F2B2BD835
:104EC000226E0BFA03F31343E8E794F8653043F0DE
:104ED000080398E737B1B5F8AE20B5F8B0309A427C
:104EE0003FF45EAE0DF10E0205A9304601F044FE1E
:104EF00000287FF4A7AEBDF80E30FF2B0CD8B8F118
:104F0000000F02D0059AC8F80020B9F1000F3FF455
:104F100047AE89F8003043E6072093E637B1B5F88D
:104F2000AE20B5F8B0309A423FF43AAE102205A94F
:104F3000304601F0E2FD00287FF484AEBAF1000FA4
:104F40003FF42EAE059BCAF8003029E6002079E632
:104F500010B500239CB0CDE900331A4602A90446DF
:104F6000FFF7D4FD18B9206802A902F0ACF91CB013
:104F700010BD10B500239CB0CDE900331A4602A93C
:104F80000446FFF7C3FD18B9206802A902F0ABF987
:104F90001CB010BD10B500239EB0CDE9003303AAAC
:104FA0000DF10B0304A90446FFF7B0FD30B99DF8DD
:104FB0000B30039A206804A902F0A3F91EB010BDBB
:104FC00010B500239EB0CDE9003303AA0DF10B0309
:104FD00004A90446FFF79AFD30B99DF80B30039AF7
:104FE000206804A902F099F91EB010BD10B5A0B058
:104FF0000123019305AB009304AA0DF10F0306A949
:105000000446FFF783FD40B9059B0093049A9DF881
:105010000F3020681FA902F06EF920B010BD10B546
:10502000A0B00123019305AB009304AA0DF10F0377
:1050300006A90446FFF76AFD40B9059B0093049A50
:105040009DF80F3020681FA902F061F920B010BD53
:1050500010B50446006802F013FA431EDBB2052BBC
:1050600034BF01460021A06FBDE81040FCF79ABE96
:1050700070B500F1A8068EB0002305460DF11F01A2
:105080003046CDE90833CDE90A33CDE90C338DF84C
:105090001F3001F0A9FC044628B99DF81F302BB938
:1050A000286802F0E7F920460EB070BD08A9304626
:1050B00001F044FD04460028F5D1B5F8B020B5F85C
:1050C000AE309A423AD009A9304601F037FD044685
:1050D0000028E8D1B5F8B020B5F8AE309A422DD00E
:1050E0000AA9304601F02AFD04460028DBD1B5F8B4
:1050F000AE20B5F8B0309A4220D00BA9304601F06E
:105100001DFD04460028CED1B5F8AE20B5F8B0306C
:105110009A4213D00CA9304601F010FD0446002835
:10512000C1D1B5F8AE20B5F8B0309A4206D00DA97D
:10513000304601F003FD04460028B4D10A9B0BB1B0
:105140001B780BB90F4B0A930B9B0BB11B780BB958
:105150000D4B0B930C9B0BB11B780BB90B4B0C93AA
:105160000B4B03930D9B02930C9B01930B9B0093A2
:10517000089928680495DDE9092302F075F90446C9
:1051800091E700BF2DCC040038CC040041CC0400D2
:10519000556600001FB50446006802F04AFC03464D
:1051A00080B1596800686A4603C20023694604F169
:1051B0007800CDE90233FEF732FD18B9A06F402127
:1051C000FCF7F0FD04B010BD37B500F1A8050446AA
:1051D000102201A9284601F090FC68B90DF10301E5
:1051E000284601F0F1FB38B99DF80330402B05D17A
:1051F0000199206802F022FC03B030BD0720FBE7D4
:1052000010B50446006802F00FFC014618B104F125
:105210007800FEF704FD10BD10B50446006802F0EA
:1052200026FC014618B104F17800FEF7F8FC10BD29
:1052300070B50546064655F8780B02F0AFF80446FF
:105240000CB3284601F0B6FDF0B921462846FEF71A
:10525000E6FCC8B9217CB06FFCF7A4FDA0B9617C65
:10526000284641F3000101F001FD68B9617C284640
:1052700041F3400101F0FAFC30B9284601F0B9FDD4
:1052800010B96469DCE7204670BD30B500F1A805AF
:1052900089B0044602A9284601F03DFC18BB06A9C6
:1052A000284601F091FBF0B96946284601F0CEFB93
:1052B000C8B901A9284601F0C9FBA0B9019B206823
:1052C0001A1E009B18BF0122003B18BF012343EAAE
:1052D00042039DF8192022F00302134302A98DF81E
:1052E000193002F060F809B030BD37B5054610221C
:1052F00001A9A83001F001FC044630B901992868E1
:1053000002F057F8172818BF0446204603B030BDF6
:105310000221783001F0CDBD10B50446006802F0DE
:105320000AF8011E18BF0121A06FBDE81040FEF76A
:1053300066BC37B5002305460DF10701A8308DF88E
:10534000073001F051FB044640B99DF8073028684A
:10535000002B14BF0321002101F0F2FF204603B00F
:1053600030BD38B5054655F8780B02F028F80446EC
:1053700074B1284601F01EFD58B921462846FEF7B3
:105380004EFC30B9284601F034FD10B92469EFE72E
:10539000204638BD37B50546102201A9A83001F0D6
:1053A000ACFB044630B90199286802F00DF81828C2
:1053B00018BF0446204603B030BD37B5054610225D
:1053C00001A9A83001F099FB044630B90199286879
:1053D00002F000F8172818BF0446204603B030BD7D
:1053E00010B50446006801F0A6FF431EDBB2032B94
:1053F00034BF01460021A06FBDE81040FCF7D2BCCD
:1054000037B505460DF10701A83001F0DDFA044675
:1054100040B99DF8071028684B1E022B88BF002159
:1054200001F08EFF204603B030BD10B50446006881
:1054300001F0DBFF80F00100C1B2A06FBDE81040B9
:10544000FEF7DDBB37B5002305460DF10701A83097
:105450008DF8073001F0C8FA044630B99DF80710FE
:10546000286881F0010101F0C5FF204603B030BD7E
:1054700030B589B000230446019300F17805206817
:1054800002AA01A902F0F7F9002842D1284601F04A
:1054900091FC002839D102A92846FEF7C0FBA0BB29
:1054A0009DF81810A06FFCF77DFC70BB9DF81C10D8
:1054B000A06FC1F38001FEF7A2FB30BB9DF81C304A
:1054C00043F301035BB2591C21D0012B08BF4020DC
:1054D0000146A06FFCF766FCB8B90146A06FFCF767
:1054E00061FC90B99DF81C10A06FC1F3C001FEF7DC
:1054F00086FB50B9BDF81A10284601F0A8FB20B968
:10550000284601F076FC0028B9D009B030BDC02093
:10551000DEE70023019304F17805206802AA01A9BF
:1055200001F02AFE002848D1284601F043FC00285B
:10553000EBD102A92846FEF772FB0028E5D19DF8C1
:105540001810A06FFCF72EFC0028DED19DF81C106F
:10555000A06FC1F38001FEF752FB0028D5D19DF862
:105560001C3043F301035BB25A1C24D0012B08BF4B
:1055700040200146A06FFCF715FC0028C5D1A06FA4
:105580000121FCF70FFC0028BFD19DF81C10A06F73
:10559000C1F3C001FEF733FB0028B6D1BDF81A10E5
:1055A000284601F054FB0028AFD1284601F021FC29
:1055B0000028B2D0A9E7C020DBE70020A5E730B57E
:1055C000044689B00021182202A88DF805108DF834
:1055D000061045F033FF94F83833002B3DD004F12A
:1055E000A80502A9284601F096FA90BB0DF1070123
:1055F000284601F0E9F960BB0DF10501284601F0EC
:10560000F3F930BB0DF10601284601F0DDF900BBCE
:105610009DF807309DF805208DF818309DF81C3056
:1056200062F382038DF81C309DF8063003F0C0034E
:10563000402B10D0C02B4FF0FF3318BF00239DF834
:105640001C20206863F3010202A98DF81C2001F0E0
:1056500077FD09B030BD0123F1E70D20F9E770B502
:10566000054686B01122002101A845F0E7FE95F815
:105670003833E3B105F1A80601A9304601F04BFA31
:10568000044688B90DF10301304601F09DF9044646
:1056900050B99DF8033028688DF8143001A901F045
:1056A00062FD172818BF0446204606B070BD0D24C1
:1056B000FAE730B500F1A80585B00023044601AA39
:1056C00002A928460293ADF804300393ADF80630E2
:1056D00001F05DFAD8B90DF1060203A9284601F0E0
:1056E0004BFAA0B90299BDF804200346206801F0E6
:1056F0008BFE014650B1206801F081FE38B9D4F824
:1057000044330133C4F8443305B030BD0320D4F82A
:1057100058330133C4F85833F6E710B5044654F84B
:10572000780B01F0CEFF01462046BDE8104001F0A5
:105730008EBA10B5044654F8780B01F096FF016854
:105740002046BDE8104001F091BA10B5044654F867
:10575000780B01F08AFFC1682046BDE8104001F0D7
:1057600085BA10B5044654F8780B01F07EFF016944
:105770002046BDE8104001F079BA10B5044654F84F
:10578000780B01F072FF41692046BDE8104001F03E
:105790006DBA10B5044654F8780B01F066FF8169C4
:1057A0002046BDE8104001F061BA10B5044654F837
:1057B000780B01F05AFFC1692046BDE8104001F0A6
:1057C00055BA10B5044654F8780B01F04EFF016A43
:1057D0002046BDE8104001F049BA10B5044654F81F
:1057E000780B01F042FF416A2046BDE8104001F00D
:1057F0003DBA10B5044654F8780B01F036FF816AC3
:105800002046BDE8104001F031BA10B5044654F806
:10581000780B01F02AFFC16A2046BDE8104001F074
:1058200025BA10B5044654F8780B01F01EFF816BC1
:105830002046BDE8104001F019BA10B5044654F8EE
:10584000780B01F012FF41682046BDE8104001F0DE
:105850000DBA10B5044654F8780B01F006FF8168C4
:105860002046BDE8104001F001BA10B5044654F8D6
:10587000780B01F0FAFEC16B2046BDE8104001F044
:10588000F5B910B5044654F8780B01F0EEFE416C02
:105890002046BDE8104001F0E9B910B5044654F8BF
:1058A000780B01F0E2FE016D2046BDE8104001F0EA
:1058B000DDB910B5044654F8780B01F0D6FE416D01
:1058C0002046BDE8104001F0D1B910B5044654F8A7
:1058D000780B01F0CAFE816D2046BDE8104001F052
:1058E000C5B910B5044654F8780B01F0BEFEC16D81
:1058F0002046BDE8104001F0B9B910B5044654F88F
:10590000780B01F0B2FE016E2046BDE8104001F0B8
:10591000ADB910B5044654F8780B01F0A6FE416EFF
:105920002046BDE8104001F0A1B910B5044654F876
:10593000780B01F09AFE816E2046BDE8104001F020
:1059400095B910B5044654F8780B01F08EFEC16E7F
:105950002046BDE8104001F089B910B5044654F85E
:10596000780B01F082FE816C2046BDE8104001F00A
:105970007DB910B5044654F8780B01F076FEC16C81
:105980002046BDE8104001F071B910B5044654F846
:10599000780B01F06AFE016F2046BDE8104001F06F
:1059A00065B910B5044654F8780B01F05EFE416FFE
:1059B0002046BDE8104001F059B910B5044654F82E
:1059C000780B01F052FE816F2046BDE8104001F0D7
:1059D0004DB910B5044654F8780B01F046FEC16F7E
:1059E0002046BDE8104001F041B910B5044654F816
:1059F000780B01F03AFED0F880102046BDE8104048
:105A000001F034B910B5044654F8780B01F02DFEBE
:105A1000D0F884102046BDE8104001F027B9D0F836
:105A20004413783001F022B9D0F84813783001F0EF
:105A30001DB9D0F85813783001F018B9D0F84C13CC
:105A4000783001F013B9D0F85013783001F00EB966
:105A5000D0F85413783001F009B9D0F868137830D1
:105A600001F004B9D0F86013783001F0FFB8D0F835
:105A70005C13783001F0FAB810B5044654F8780B8E
:105A800002F0EFF801682046BDE8104001F0EEB8E2
:105A900010B5044654F8780B02F0E3F8416820464C
:105AA000BDE8104001F0E2B810B5044654F8780B98
:105AB00002F0D7F881682046BDE8104001F0D6B862
:105AC00010B5044654F8780B02F0CBF8C1682046B4
:105AD000BDE8104001F0CAB810B504468AB054F8C9
:105AE000780B694601F026FEBDF80010204601F053
:105AF000AEF800285CD1BDF80210204601F0A7F8EE
:105B0000002855D1BDF80410204601F0A0F8002867
:105B10004ED1BDF80610204601F099F8002847D173
:105B2000BDF80810204601F092F8002840D1BDF8D9
:105B30000A10204601F08BF8D0BBBDF80C102046AF
:105B400001F085F8A0BBBDF80E10204601F07FF8EB
:105B500070BBBDF81010204601F079F840BBBDF8CD
:105B60001210204601F073F810BBBDF81410204647
:105B700001F06DF8E0B9BDF81610204601F067F8A5
:105B8000B0B9BDF81810204601F061F880B9BDF831
:105B90001A10204601F05BF850B9BDF81C102046E1
:105BA00001F055F820B9BDF81E10204601F04FF85D
:105BB00000200AB010BD38B5044654F8780B01F047
:105BC00054FD0546204601F0F5F8002840F0E0803D
:105BD0002968204601F04AF8002840F0D980696819
:105BE000204601F043F8002840F0D280A968204602
:105BF00001F03CF8002840F0CB80E968204601F035
:105C000035F8002840F0C4802969204601F02EF8BC
:105C1000002840F0BD806969204601F027F800287F
:105C200040F0B680A969204601F020F8002840F035
:105C3000AF80E969204601F019F8002840F0A880FB
:105C4000296A204601F012F8002840F0A180696A14
:105C5000204601F00BF8002840F09A80A96A2046FF
:105C600001F004F8002840F09380E96A204600F033
:105C7000FDFF002840F08C80A96B204600F0F6FF65
:105C8000002840F08580E96B204600F0EFFF0028F7
:105C90007ED1296C204600F0E9FF002878D1296BDD
:105CA000204600F0E3FF002872D1696B204600F027
:105CB000DDFF00286CD1204601F09BF8002867D159
:105CC000204601F077F8002862D1696C204600F088
:105CD000CDFF00285CD1A96C204600F0C7FF00284A
:105CE00056D1E96C204600F0C1FF002850D1296D43
:105CF000204600F0BBFF00284AD1696D204600F025
:105D0000B5FF002844D1A96D204600F0AFFF002860
:105D10003ED1E96D204600F0A9FF002838D1296E58
:105D2000204600F0A3FF98BB696E204600F09EFF5E
:105D300070BBA96E204600F099FF48BBE96E204673
:105D400000F094FF20BB296F204600F08FFFF8B9C8
:105D5000696F204600F08AFFD0B9A96F204600F095
:105D600085FFA8B9E96F204600F080FF80B9D5F81B
:105D70008010204600F07AFF50B9D5F884102046F4
:105D800000F074FF20B92046BDE8384001F031B87A
:105D900038BD08B5006801F06CFC002008BD38B5BE
:105DA0000546006801F06AFF044600B9FEE7783551
:105DB0000188284600F04BFF40BB6188284600F070
:105DC00046FF18BBA188284600F041FFF0B9E188E2
:105DD000284600F03CFFC8B92189284600F037FF6B
:105DE000A0B96189284600F032FF78B9A189284618
:105DF00000F02DFF50B9E189284600F028FF28B9AE
:105E0000218A2846BDE8384000F021BF38BD08B5DA
:105E1000006801F038FF002008BD38B5054600686D
:105E200001F01FFF044600B9FEE77835284600F070
:105E3000C1FF00BB2168284600F018FFD8B9A1684F
:105E4000284600F013FFB0B9284600F0D2FF90B901
:105E5000284600F0AFFF70B96168284600F006FFE1
:105E600048B9E168284600F001FF20B92846BDE89E
:105E7000384000F0BEBF38BD08B5006801F0F6FE3E
:105E8000002008BD30B585B0002305468DF80330ED
:105E900000F17804286801AA0DF1030101F0ABFBC1
:105EA000A8B9204600F086FF78B901A92046FDF781
:105EB0006BF850B99DF90C102046FDF7ACFE20B9E7
:105EC000204600F096FF0028E4D005B030BD002049
:105ED000FBE710B50446006801F06CFB431E594215
:105EE000A06F5941BDE81040FDF789BE30B585B0BF
:105EF000002304468DF8033000F17805206801AADC
:105F00000DF1030101F077FB78B9284600F052FF4C
:105F100048B901A92846FDF737F820B9284600F00E
:105F200068FF0028EAD005B030BD0020FBE710B5BF
:105F30000446006801F03EFB831E5942A06F5941A0
:105F4000BDE81040FDF75BBE30B585B000230546C7
:105F50008DF8033000F17804286801AA0DF10301DF
:105F600001F064FBA8B9204600F024FF78B901A92C
:105F70002046FDF709F850B99DF90C102046FDF7B1
:105F80004AFE20B9204600F034FF0028E4D005B0D6
:105F900030BD0020FBE7F7B50646054656F8A80BCE
:105FA00001F023FB0027B5F8AE20B5F8B0309A42D7
:105FB00040D03046019700F0FFFD044690B901A99A
:105FC0003046FDF725FE044660B9B5F8AE20B5F8B9
:105FD000B0309A4210D00DF10301304600F016FDAA
:105FE000044660B101234FF4985280212846FCF703
:105FF0003FF9204603B0F0BD7F238DF803303046D3
:1060000000F0FAFD04460028ECD10199286801F05F
:10601000DCFA1828044601D00028E3D19DF90320BA
:106020007F2AC0D00199286801F0EEFA04460028C2
:10603000B9D0D7E70024DCE713B504460DF107011A
:10604000A83000F0D1FC20B99DF80710206801F0BD
:10605000B6FA02B010BDF7B50646054656F8A80BCD
:1060600001F0C3FA0027B5F8B020B5F8AE309A4277
:1060700023D03046019700F09FFD044698B901A94E
:106080003046FDF7C5FD044668B9304600F0B4FD62
:10609000044640B90199286801F09FFA182804467F
:1060A000E1D00028DFD0012341F2063280212846CA
:1060B000FCF7DEF8204603B0F0BD0024FAE713B584
:1060C00004460DF10701A83000F08EFC40B99DF8A0
:1060D0000730002B0CBF01460221206801F06FFA47
:1060E00002B010BD73B50646054656F8A80B01F080
:1060F00097FAB5F8AE20B5F8B0309A4235D03046B0
:1061000000F05AFD044668B9B5F8B030B5F8AE20D5
:106110009B1A9BB2082B0FD901A93046FDF778FDD9
:10612000044650B1012341F2083280212846FCF791
:106130009FF8204602B070BD01900DF1030130467A
:1061400000F064FC04460028ECD1304600F054FD19
:1061500004460028E6D19DF903200199286801F042
:1061600053FA04460028C4D0DCE70024E1E738B540
:106170000546006801F016FC0446C4F34001C4F370
:10618000C003C4F3800204F00100FDF74CFD01469A
:10619000A86FBDE83840FBF705BE37B505460024BB
:1061A0000DF10701A8308DF8074000F00DFCA0B9F3
:1061B0009DF807302868C3F38002C3F3C00141EAA9
:1061C0004201C3F34002DB0041EA820103F008030D
:1061D000194301F0F7FB03B030BD2046FBE710B5D3
:1061E000044654F8780B01F0A2FB01462046BDE8B6
:1061F000104000F03BBD37B50023054601A9A8308B
:10620000019300F023FC044618B90199286801F0B5
:1062100093FB204603B030BD10B5044654F8780B0C
:1062200001F08CFC01462046BDE8104000F00FBD97
:1062300090F83913806FFDF7E2BC00F23931A830D5
:1062400000F0D2BB30B585B0002300F1A8050446AC
:106250000293ADF804300393ADF8063001AA4FF471
:10626000807302A92846ADF8003000F090FC38B1E8
:10627000D4F848330133C4F84833002005B030BDAA
:106280000DF1060203A9284600F076FC0028EFD1A4
:10629000BDF80420029920686B4601F0B5F8054668
:1062A00070B1012101F01CFA2068294601F0A7F81D
:1062B0000028DDD0D4F858330133C4F85833DDE773
:1062C0000320F7E710B50446006801F0D2F9206812
:1062D00001F0CCFC206801F0D6FC2046FBF7E0FE84
:1062E000002010BD13B504460DF10601A83000F0E2
:1062F00099FB20B9BDF80610206801F08AF802B0B9
:1063000010BD73B5002300F1A806019305467F2355
:1063100001A930468DF80330FDF77AFC0446E0B958
:10632000B5F8AE20B5F8AC309A420ED10199286884
:1063300001F04BF9182813D19DF903207F2A0CD0C6
:106340000199286801F060F906E00DF1030130467B
:1063500000F05CFB0028E9D00446204602B070BD86
:106360000028E9D0F8E737B50023054601A9A83091
:106370000193FDF74DFC044630B90199286801F0FE
:1063800024F9182818BF0446204603B030BD37B59D
:10639000002301937F23B0F8AE208DF80330B0F8CE
:1063A000AC309B1A9BB2012B044600F1A8050CD817
:1063B0000DF10301284600F029FB60B99DF9032087
:1063C0000199206801F020F906E001A92846FDF7AF
:1063D0001FFC0028ECD0002003B030BD37B50546C7
:1063E0000DF10601A83000F01DFB044638B9BDF8D8
:1063F0000610286801F013F8172818BF0446204635
:1064000003B030BD37B50023054601A9A83001937C
:10641000FDF7FEFB044630B90199286801F0DDF86C
:10642000172818BF0446204603B030BDFFF7EABF67
:1064300013B50023B0F8AC200193B0F8AE309A4207
:10644000044608D10199206801F0E4F8172808BF34
:10645000002002B010BD01A9A830FDF7D9FB00282B
:10646000F0D0F6E710B50446006800F0EFFF0146F3
:10647000A06FBDE81040FDF7C2BB37B505460DF172
:106480000701A83000F0B0FA044620B99DF80710C3
:10649000286800F0E0FF204603B030BDF8B506469E
:1064A0000D46002977D091F839301F019A0607F080
:1064B000F00700F1780448BF47F001070722DB0628
:1064C0004FF080014FF03303204648BF47F00807E4
:1064D00000F0D1FC002858D195F83610B06FFBF7CA
:1064E00061FC002851D195F937102046FDF793FB48
:1064F00000284AD1204600F05DFC002845D12946FD
:106500002046FCF741FD00283FD14FF6FF712046A1
:1065100000F09DFBC8BB698E204600F098FBA0BB35
:1065200095F83810B06FFBF73DFC70BB204600F0CB
:1065300060FC50BB204600F03DFC30BB03212046F0
:1065400000F0E1FB08BBB06F3946FBF72BFCE0B96C
:1065500005F10801204600F013FCB0B9082205F14E
:106560001901204600F0FAFB78B995F8212005F1D1
:106570002201204600F0F2FB38B9204600F039FC39
:1065800018B9204600F05AFC78B10B2106F1E00062
:10659000FDF73AFB03E03021E030FDF732FB06F176
:1065A000D400BDE8F84002F069BBF8BD0B460146D7
:1065B0001846FFF773BF70B504460D46E9B100F108
:1065C0007806392307228021304600F054FC70B948
:1065D0002978A06FFBF7E6FB48B995F90110304622
:1065E000FDF719FB18B9304600F028FC78B10B21F3
:1065F00004F1E000FDF708FB03E03021E030FDF797
:1066000000FB04F1D400BDE8704002F037BB70BD60
:106610000B4601461846FFF7CEBF172910B50446B2
:1066200000F1E00014D004D839B108290ED0682157
:1066300004E01C29FBD16C2100E06D21FDF7E4FA98
:1066400004F1D400BDE8104002F018BB6921F5E761
:106650006A21F3E70B4601461846FFF7DEBFF8B59F
:10666000044608460D4601F037F804F17807061E87
:1066700014BF7223732306228021384600F0FBFBEF
:10668000B0B9284601F026F80146384600F0DFFA96
:1066900070B9A06F2946FBF758FB48B9384600F09F
:1066A000CDFB28B92EB1D4F84C330133C4F84C33A8
:1066B000F8BDD4F850330133C4F85033F8E773B55C
:1066C000054600F55076304601F024F8014688B1C1
:1066D0000190304601F01CF801992846FFF7BFFFF2
:1066E000019904460028EED0304601F00EF820460D
:1066F00002B070BD0446FAE710B5044679B100F562
:10670000507000F0FFFF50B994F8FA2294F8FB3271
:106710009A4204D12046BDE81040FFF7D0BF10BD1B
:106720000B4601461846FFF7E7BFF8B590F83B3334
:1067300006460D461746CBB300F1780471230622B6
:106740008021204600F097FB80BBA988204600F0FE
:106750007EFA58BBAA882968B06FFBF736FB28BBC6
:1067600095F910102046FDF756FAF8B96FF07F0141
:106770002046FDF750FAC8B93946204600F067FABE
:10678000A0B9204600F016FB80B9204600F031FB8E
:1067900060B9204600F00EFB40B9204600F029FB0E
:1067A00020B92046BDE8F84000F048BBF8BD1346CC
:1067B0000A4601461846FFF7B8BF90F83B13806FB2
:1067C000FDF71DBA37B504460DF10701A83000F0FA
:1067D0000BF9054668B99DF8073094F83B239A42B7
:1067E00007D0206884F83B3333B10549224600F0D6
:1067F00026FF284603B030BD2A462946F7E700BFEA
:10680000AF670000D1F8DC301843C1F8DC0001F1BB
:10681000D40002F033BA0000D0F8DC302DE9F041AA
:106820000446002B59D05B072CD590F839334BB375
:10683000006801F067F9012807D9002384F839338B
:10684000492104F1E000FDF7DCF9206801F05AF974
:10685000042817D1206801F0E6F998B1D4F8DC30AB
:10686000254623F0800355F8E00BC4F8DC30002106
:1068700001F0C8F942212846FDF7C3F968212846EE
:10688000FDF7C2F91A4D002704F1E0082E68D4F88C
:10689000DC301E4208D10137162F05F10805F5D16D
:1068A0000023C4F8DC3018E06968522917D040464C
:1068B000FDF7A7F9B6F5007F07D15A214046FDF74D
:1068C000A0F95B214046FDF79CF9D4F8DC3023EABF
:1068D0000603C4F8DC30002BDDD1BDE8F08194F86C
:1068E0003D33002284F83D23002BE0D1E2E700BFD6
:1068F00064CC0400F0B5013A044600260C20B242F4
:106900000AD995196D0800FB05F7CF599F4201D2AE
:106910006E1CF4E72A46F2E700FB06F288188A5854
:1069200093420BBFD0E901010023C4E90001C4E98F
:1069300000332046F0BD000010B50B460446034965
:10694000A222FFF7D7FF204610BD00BF14CD0400E0
:1069500010B50B46044603494C22FFF7CBFF2046F7
:1069600010BD00BFACD4040010B50B46044603496B
:106970000C22FFF7BFFF204610BD00BF3CD804002B
:1069800010B50B46044603490C22FFF7B3FF20461F
:1069900010BD00BFCCD804000022C0E90022C0E92D
:1069A00002227047838803810022C2808272838121
:1069B0007047002908BF002210B501608280FFF7F0
:1069C000F1FF8388838110BDC388028910B55C1CE8
:1069D00094429FBF0268D35C0B70C3889BBF013396
:1069E000C3800620002010BD13B50C460DF1070131
:1069F000FFF7EAFF18B99DF8073013B9207002B00D
:106A000010BD012B0CBF23700620F8E713B50C4610
:106A10000DF10701FFF7D8FF10B99DF8073023707B
:106A200002B010BDC288038930B5941C9C420BD8BB
:106A30000468A3185D78A35C43EA05230B80C38830
:106A40000233C380002030BD0620FCE7F0B5C488C7
:106A50000389251D9D420FD806683219345D93784D
:106A60005778D2781B0443EA0723234343EA02639F
:106A70000B60C5800020F0BD0620FCE7B0F806C022
:106A80000389F0B50CF108049C421DD8D0F800E051
:106A90000EEB0C05AA786E782B79120442EA0622D6
:106AA0001EF80C603243EE7842EA06626E7943EAE1
:106AB0000623AE7943EA0643EE7943EA0663C1E969
:106AC0000023C4800020F0BD0620FCE737B5C38852
:106AD00004460D4601890068C91A184401AA00F04D
