:1010000000000420EDF3020015F4020017F40200C2
:1010100019F402001BF402001DF40200000000009D
:101020000000000000000000000000001FF40200AB
:1010300021F402000000000023F4020025F4020065
:10104000A5F2020035A1020027F40200D507030033
:1010500027F4020027F4020027F4020027F402001C
:1010600027F4020027F4020027F4020027F402000C
:1010700027F40200397D020027F4020027F4020061
:1010800027F4020027F4020027F4020027F40200EC
:1010900027F4020027F4020027F4020027F40200DC
:1010A00027F4020027F4020027F4020027F40200CC
:1010B00027F4020027F402000000000000000000F6
:1010C00027F4020027F4020027F4020027F40200AC
:1010D0003976020027F4020027F4020009CF02004B
:1010E00027F4020027F40200312C03000000000066
:1010F0000000000027F402000000000027F40200B6
:1011000000000000000000000000000000000000DF
:1011100000000000000000000000000000000000CF
:1011200000000000000000000000000000000000BF
:1011300000000000000000000000000000000000AF
:10114000000000000000000000000000000000009F
:10115000000000000000000000000000000000008F
:10116000000000000000000000000000000000007F
:10117000000000000000000000000000000000006F
:10118000000000000000000000000000000000005F
:10119000000000000000000000000000000000004F
:1011A000000000000000000000000000000000003F
:1011B000000000000000000000000000000000002F
:1011C000000000000000000000000000000000001F
:1011D000000000000000000000000000000000000F
:1011E00000000000000000000000000000000000FF
:1011F00000000000000000000000000000000000EF
:1012000010B5054C237833B9044B13B10448AFF340
:1012100000800123237010BD600200200000000048
:10122000385A040008B5034B1BB103490348AFF318
:10123000008008BD0000000064020020385A04004D
:10124000154B002B08BF134B9D46A3F5803A002198
:101250008B460F461348144A121A3CF0F0FF0F4B0E
:10126000002B00D098470E4B002B00D09847002051
:10127000002104000D000D48002802D00C48AFF3F7
:1012800000803CF07DFF2000290000F015F83CF0C4
:1012900051FF00BF00000800000004200000000013
:1012A000000000006002002010DF002000000000AD
:1012B000000000007047000070B505460E4631463C
:1012C000284626F02FFE06F002FE044628B90C4BF5
:1012D0000C4A0D4866213CF00FFF00F057F82046FD
:1012E00038F007FE26F048FE18B1204606F0F5FD5E
:1012F000E5E7204607F07EF8204626F043FEF1E7BA
:1013000089F8030084F8030092F8030038B5044616
:101310000D4600F059FA04F5637104F55C7000F0B5
:101320004AF9234604F58361154A04F55E7000F01E
:101330009CF904F29233C4F88C3304F21E428023E9
:10134000A4F89033C4F81824002340F2145284F80F
:10135000143484F81534A4F81C2484F8343929464C
:101360002346084A04F6381008F0C7F92246064911
:10137000201D05F06DFD26F025FF204638BD00BF7D
:10138000991500008F140000BF13000010B5054C24
:1013900001462046FFF7BAFF00F0DAFA844200D097
:1013A000FEE710BD80020020D0F88C2300F29233BB
:1013B0009A4203D100F6381008F0C6B97047FFF71B
:1013C000F3BF2DE9F8430446051D00F55C764FF0A8
:1013D00002080127284605F063FE94F8143490B102
:1013E000022B18D1012B21D3022BF3D1304600F070
:1013F0001DF980B994F8343984F81404002BE9D02D
:1014000084F83409E5E7012BEDD194F81514304642
:1014100000F0DEF8F8B1D4F88C1304F29230091A17
:1014200089B291B326F0D6FE78B3FEE7204600F0ED
:1014300095FA08B126F072F9204600F099FA0028D2
:10144000E9D1304600F0BBF80028E4D1284605F089
:10145000BCFE84F81474284605F0CEFE28B9284650
:1014600005F0D3FE84F81504CFE794F8C090284621
:1014700005F0E7FFB9F1000F04D094F8C0300BB9C4
:1014800084F8347984F81484B0E7BDE8F88308B5AB
:1014900000F05EFABDE80840FFF793BF00F2923318
:1014A000C0F88C338023A0F8903300F6381008F091
:1014B0004BB908B500F04CFA18B1BDE80840FFF789
:1014C000EDBF08BD38B504460D4600F041FA38B10D
:1014D0002A46214600F55E70BDE8384000F0CEB8DF
:1014E00038BD0000F0B50C46A1B016461F4600F00E
:1014F00049FA2346194A1A4D802168463DF080FA80
:1015000068463DF0E5FA69460246002001F050F9D0
:101510000024BC42A0B20ED0292C0BD0A4EB840135
:1015200004EB4400335D2A46803168443DF068FA9C
:101530000134EEE7204600EB4000C0F18001094A8B
:1015400068443DF05DFA68463DF0C2FA0DF10101D4
:10155000421E002001F02CF921B0F0BDD2F80300AA
:10156000E6F80300ECF8030038B5D0F8183400F2C0
:101570001E455B1B04469BB251B91A46294601F031
:101580002AF840F21453C4F81854A4F81C3438BD97
:101590002A46FFF7A7FFF4E7FFF7E6BF838843B1CA
:1015A00003685A1C026019708388013B8380002005
:1015B000704703207047002201608280704708B5A1
:1015C0004FF6FF7383807E210068FFF7E7FF08BDB9
:1015D0007E2938B505460C4600680AD87D2903D215
:1015E000112901D0132906D18388012B08D80320A3
:1015F00005E0F829F7E72146FFF7D0FF40B138BDF5
:101600007D21FFF7CBFF84F020012868FFF7C6FF9C
:10161000AA88054B5440E4B2002033F8143083EA22
:101620001223AB80EBE700BFF0F803002DE9F04197
:1016300086880368F543ADB2E9B204461F68B3F883
:101640000480FFF7C5FF48B9290A2046FFF7C0FF0D
:1016500020B97E212068FFF7A1FF20B123681F6019
:10166000A3F80480A680BDE8F08130B500250570A0
:10167000C0E90112C0E9033530BD00002DE9F8438F
:10168000364E04460D468F184FF00208AF4263D025
:10169000237815F8011B012B24D01BD3022BF5D185
:1016A0006068B0F80490B9F1000F4ED0B4F810C0E3
:1016B00081F0200181EA0C02D2B236F8123083EABE
:1016C0001C232382FFF76AFF638A013363820123AD
:1016D0002370DBE77E29D9D1012323704FF6FF73F6
:1016E0002361D3E77D2917D07E2918D06068B0F830
:1016F0000490B9F1000F28D0B4F810C081EA0C02B0
:10170000D2B236F8123083EA1C232382FFF746FF59
:10171000638A01336382B9E784F80080B6E7638A9D
:10172000022BDBD9228A4FF2B8039A420BD16368AD
:101730001A68023A1A609A8802329A800021D4E923
:1017400002309847CAE70621F9E7A368E068032159
:10175000984784F8009099E7BDE8F883F0F8030013
:1017600021282CD8DFE800F02E1113152B17191B98
:101770002B2B2B2B1D1F21232B2B2B2B2B2B2B27E9
:10178000252B2B2B2B2B2B2B2B29012070470E20AD
:1017900070470B2070470C207047092070470320CA
:1017A00070470220704704207047112070471220B4
:1017B000704713207047142070471520704700F5BC
:1017C00080407047002070472DE9F04106460446EE
:1017D00046F8041B4FF40072884600F1F9013046C8
:1017E00005F01BFB0025A66704F17C0304F19C02B5
:1017F000C3E9005508339A42FAD1A4F89C50C4E9D1
:10180000285504F1A80005F084FE484BC4F8C83000
:10181000C823A4F8CC3004F1D4074FF6FF73A4F822
:10182000D030434A84F8C0502346C4F8C45084F8EA
:10183000CE5084F8CF504146384607F05EFF002373
:101840000022C4E93823C4E93A23042384F8F030A1
:10185000384BC4F8DC501B68C4F8F430236884F8B3
:10186000F85084F8F95284F8FA5284F8FB5284F85C
:10187000385384F8395384F83A5384F83B5384F846
:101880003C5384F83D5384F83E53C4F84453C4F8A1
:101890004853C4F84C53C4F85053C4F85453C4F8D4
:1018A0005853C4F85C53C4F86053C4F86453C4F884
:1018B000685384F86C5303B9FEE71F4B1F491C6043
:1018C0002246304605F0C7FA3C22002104F53F705D
:1018D0003CF0B5FC04F5507006F0ABFC224618490C
:1018E000206806F0FEFA22462068164906F02AFB18
:1018F0002068012106F02FFB25462068002106F014
:10190000E2FA2068104907F011F855F8E00B0F498A
:10191000224606F051FF77220021284606F0C0F843
:10192000384607F011FF2046BDE8F08100F8FF07B8
:10193000F51C0000D8FB0300C00B0020631D000055
:10194000455A00005D59000053290000D7280000C7
:10195000014B1868704700BFC00B002090F8F030B2
:10196000042B1ABF90F8C00080F0010000207047DF
:1019700090F8F030012B06BF90F8C00080F0010015
:1019800000207047D0F85C330133C0F85C337047F7
:101990002DE9F843994690F83C33044690460029D7
:1019A00014BF0F46702713B10D20BDE8F88300F176
:1019B000E0053946284606F009F90028F4D194F8E4
:1019C000FA2294F8FB329A420AD00B2200212846D0
:1019D00006F066F804F1D40007F0B6FE0320E4E751
:1019E00004F178063B4606228021304606F025F8B1
:1019F00048B91FFA89F24146A06F05F0F4FC10B90E
:101A0000304605F0FDFF0328CFD1DEE70138C0B234
:101A100004289ABF014B185C00207047F9FA0300B4
:101A20002DE9F04111F00F071546069A07D1002D58
:101A300052D03946E03006F033F800200DE090F83F
:101A4000FB6290F8FAC2A6EB0C040E2C07DDE03026
:101A50000E22002106F024F80320BDE8F08190F862
:101A6000F942BC4217D0664515D964460E2C02D9FE
:101A70000F3CE4B2FAE7BE3400EB840494F804E0CF
:101A80001EF0100F0DD00EF00F08B84509D16FF3FE
:101A9000041E84F804E034460E2C07D90F3CE4B24F
:101AA000FAE70CF1010C5FFA8CFCDCE7BE3400EBCA
:101AB00084040136277961F30307F9B241F010017C
:101AC00065F3451163F386112171636862F3DE13D8
:101AD000636080F8FB62B0E72846BEE707B50023E5
:101AE00000920122FFF79CFF03B05DF804FB38B5BC
:101AF00011F0300F00F1780408BFC0F8C42015467B
:101B000000230622204605F098FF48B929462046C2
:101B100005F0E1FE20B92046BDE8384005F070BF71
:101B200038BD2DE9F74304460E4601466846914606
:101B3000984604F001F8DDE900570DB9F90717D50B
:101B400004F178084B4606223146404605F075FF01
:101B5000D8B97B10FA0704EB030044BFE3585D5982
:101B6000A84790B9404603B0BDE8F04305F048BF30
:101B7000B8F1000F07D00D223146204603B0BDE872
:101B8000F043FFF7B4BF4246F6E703B0BDE8F08389
:101B900070B50446002694F8FA5294F8FB32AB4232
:101BA00034D0BE3504EB85021379D90616D404EB84
:101BB00085052B796FF304132B7194F8FA320133F6
:101BC000DBB20F2B84F8FA32E5D194F8FB3284F8BB
:101BD000FA620E2B17D90F3BDBB2FAE75268C3F358
:101BE0000301980641F08001C2F3D71205D52046C3
:101BF000FFF77DFF0028DAD070BDC3F380132046C5
:101C0000FFF78FFFF6E784F8FB32C4E70020F3E725
:101C10002DE9F04F044685B003F01EFFD4E93823C8
:101C2000134352D004F1E00005F037FF2F4F01902D
:101C30000025019AEBB2934247D2D4E93803C5F1AB
:101C4000200103FA01F1A5F1200220FA05FA23FA96
:101C500002F24AEA010A4AEA020A00230AF00102F1
:101C60001343A5F12003C5F12006029301D10135EC
:101C7000DFE70C236B43D919DA5962BB4A68772A2C
:101C800009D12068039225F02FFD082898BF184B32
:101C9000039A98BF1A5C80212046FFF728FFA0B95D
:101CA000029A012303FA02F923FA06F603FA05F869
:101CB000D4E9382349EA060922EA080023EA09019F
:101CC00050EA0103C4E93801D1D1012384F86C330F
:101CD00005B0BDE8F08F94F86C33002BE0D0012301
:101CE00080212046FFF71DFFD9E700BFDCFB030082
:101CF000F0FA0300014B1868FFF78ABFC00B002001
:101D000010B590F8C030044633B1D0F8F4308B42AF
:101D100004BF002380F8C0302046FFF739FFF8B930
:101D200094F8F81099B101230C222046FFF7F9FE30
:101D3000B0B994F8F03084F8F800042B07D0201DD7
:101D400005F0ACF90123C4F8F40084F8C030204653
:101D500003F0D4FD20B92046BDE81040FFF758BF7E
:101D600010BDFFF7CDBFF8B500F178040546204659
:101D7000069EBDF81C7005F060FE50B93A4631462B
:101D8000A86F05F030FB20B92046BDE8F84005F00B
:101D900037BEF8BD2DE9F04F042B87B004460F463F
:101DA000924602D0052B16D0FEE7014604A804F0A7
:101DB00037FFDDE904654FF0070905F0010B9EB917
:101DC000BBF1000F10D10D2239462046FFF786FEE9
:101DD00007B0BDE8F08F014604A804F075FF4FF08E
:101DE0000809DDE90465E8E704F1A808404605F0C4
:101DF000FCFC0DF10A0203A9404605F09FFC404699
:101E000005F0FAFC6D10002384F83C336019BBF137
:101E1000000F01D063599E59B047012384F83C3329
:101E2000054618B1FFF79CFC0246CDE7BDF80A3025
:101E30000193039B00934A46534639462046FFF7D9
:101E400092FF0028C4D02A46BEE708B50022FFF75B
:101E500045FE08BD38B50446006806F040F800218C
:101E6000206806F05DFC0021206806F043F872222D
:101E700080212046FFF73BFE054648B104F1E00013
:101E80007722002105F00CFE04F1D40007F05CFC81
:101E9000284638BD30B5C3B004460D46002301A91D
:101EA000A830019305F02DFC40B1FFF759FC2946FD
:101EB00002462046FFF71BFE43B030BD8DF80701F8
:101EC000FF2202A90198783438F016F84FF46F53C6
:101ED00006222946204605F0B0FD0028ECD102A9D3
:101EE000204605F02DFD0028E6D1204605F088FDAE
:101EF000E2E70021806F05F064BA10B5044600687F
:101F000006F070F80146A06FBDE8104005F059BA20
:101F100013B502A90023044641F8043DA83005F09A
:101F2000B8FB20B99DF80410206806F05FF802B0F5
:101F300010BD10B50446006825F0E8FC002818BF65
:101F40000221A06F08BF0021BDE8104005F039BA9A
:101F500037B502A90023054601F8013DA83005F078
:101F6000F0FA044650B99DF807301BB1022B08D88F
:101F7000012100E00146286825F0CAFC204603B094
:101F800030BD0724FAE710B5044654F8780B06F084
:101F900079F801462046BDE8104005F040BC13B575
:101FA00004460DF10601A83005F0F9FA20B9BDF894
:101FB0000610206806F06AF802B010BD10B504469D
:101FC000006806F044F808220146A06FBDE8104002
:101FD00005F009BA13B50822044601A9A83005F096
:101FE0006FFB18B90199206806F035F802B010BDF2
:101FF00010B5044654F8780B06F06AF801462046FE
:10200000BDE8104005F00BBC90F83A13806F05F066
:10201000D8B913B502A90023044601F8013DA83040
:1020200005F09FFA18B99DF8073084F83A3302B0EA
:1020300010BDF8B505460E460024012707FA04F343
:102040003342E1B204D10134202CF7D1002004E066
:10205000A86F05F0B6F90028F5D0F8BD0023F7B554
:1020600005460C460B6000F1A8070126B5F8AE2026
:10207000B5F8B0309A420FD00DF10701384605F09F
:1020800060FA50B99DF807301F2B08D8226806FA6D
:1020900003F313432360E9E7002003B0F0BD0720FA
:1020A000FBE7D0F8C810FFF7C4BF13B502A900239F
:1020B00041F8043D0446FFF7D1FF10B9019BC4F875
:1020C000C83002B010BDB0F8CC10783005F0A7BB16
:1020D00000F1CC01A83005F062BA10B504460068E2
:1020E00006F064F878B9206806F07CF868B92068D2
:1020F00006F05AFB002814BF03210021A06FBDE8A1
:10210000104005F05EB90121F8E70221F6E7000072
:1021100010B586B006A90023044601F8013DA83099
:1021200005F00FFA40B99DF81730032B03D8DFE80C
:1021300003F029050F190C2006B010BDB4F8CC200F
:102140000094114BD4F8C810206806F019F8F3E792
:10215000B4F8CC2000940D4BD4F8C810206806F0D9
:102160002BF8E9E70849019194F8CF10009194F811
:10217000CE30B4F8D0200294D4F8C810206806F00D
:10218000FFFAD9E70020D7E7E95700004D580000D3
:102190002DE9F84F0546E03005F07FFCDFF8589058
:1021A000834600244FF00C0A05F17808E3B29B4502
:1021B0001FD9D5E93A23C4F1200022FA04F603FA24
:1021C00000F0A4F1200123FA01F106430E4306F0CA
:1021D00001020023134301D10134E7E70AFB04F3B2
:1021E000404653F8091005F076FB0028F4D0BDE80E
:1021F000F88F0020FBE700BFDCFB0300F7B50023EE
:102200000022C0E93A23044600F1A80700F1E006E5
:10221000B4F8AE20B4F8B0309A420BD001A93846D9
:1022200005F037FA054648B901220199304605F014
:1022300079FCEDE70025284603B0F0BD012341F20B
:10224000080280212046FFF76CFCF4E713B5044632
:1022500001A9A83005F01DFA28B90122019904F15D
:10226000E00005F05FFC02B010BD13B5044601A903
:10227000A83005F00EFA28B90246019904F1E000F1
:1022800005F050FC02B010BDD0F8C410783005F055
:1022900022BB10B500F178040421204605F01BFB99
:1022A00028B920460321BDE8104005F014BB10BD3D
:1022B0000321783005F00FBB0021783005F00BBB0F
:1022C00010B500F178040521204605F004FB002834
:1022D00041D10C21204605F0FEFAE0BB202120462A
:1022E00005F0F9FAB8BB3521204605F0F4FA90BBA9
:1022F0000E21204605F0EFFA68BB4FF4007120462E
:1023000005F0E9FA38BB4FF40171204605F0E3FA15
:1023100008BB1821204605F0DEFAE0B9302120463E
:1023200005F0D9FAB8B93121204605F0D4FA90B9B0
:102330004FF48061204605F0CEFA60B940F20341C7
:10234000204605F0C8FA30B9204640F20441BDE805
:10235000104005F0C0BA10BD10B5044605F0C6FD2A
:10236000014604F17800BDE8104005F0E9BA01210A
:10237000806F05F026B8FFF7BCBD2120704704210F
:10238000806F05F01EB80C20704713B504466946EF
:10239000006825F003FA08226946A06F05F023F8CB
:1023A00002B010BD0221783005F065BB90F8F01046
:1023B000806F05F006B8000073B504460E46A830DD
:1023C0000DF1070105F0BDF8A0BB9DF80730042B07
:1023D00007D8012202FA03F111F01B0F02D14B07BB
:1023E00003D4032384F8F03001E084F8F0200023C4
:1023F00084F8F8300C22012331462046FFF791FB88
:1024000094F8F030042B054608D070B9201D04F074
:1024100045FEC4F8F400012384F8C03015B184F8F7
:10242000F8600025284602B070BD074B1B68C4F851
:10243000F430F0E7FFF794F9314602462046FFF703
:1024400056FB0546EEE700BFD8FB030010B51C465F
:1024500041F210539A420CD0B2F56F5F06D00C2AAD
:102460000AD1FFF7A9FF2070012010BDFFF712FD70
:10247000F9E700F02DFEF6E70020F6E7F0B587B0AB
:1024800004460D460026014604A817468DF80F6045
:1024900004F0A0F9DDE9042303F0010102B9D1B190
:1024A0005B1084F83C63E01809B1E3589A589047F0
:1024B000012203468DF80F0084F83C23D0B9024670
:1024C000009729462046FFF7ABFA8DF80F009DF8DC
:1024D0000F0007B0F0BD0DF10F033A462946204624
:1024E000FFF7B4FF0028F2D10D2229462046FFF75E
:1024F000F5FAEAE7FFF734F90246F6E77FB50D464D
:1025000004A9002341F8043D0446A830164605F00E
:10251000C0F8014650B1FFF723F92946024620468C
:10252000FFF7DCFA0146084604B070BDB31E032B6A
:10253000F9D8DFE803F0020B1111039B009300228E
:10254000012329462046FFF76BFAEBE7039A294659
:102550002046FFF793FFE5E73346039A29462046D6
:10256000FFF718FCDEE737B504460D46A83001A991
:1025700005F08FF870B9019A0B2A26D8DFE802F02F
:10258000060C11111111252525161B202946204660
:10259000FFF75BFC03B030BD29462046FFF75AFC2D
:1025A000F8E729462046FFF7A9FFF3E7294620462A
:1025B00000F0E4FEEEE72946204600F0E9FEE9E7F8
:1025C0002946204600F0F5FEE4E70522294620468C
:1025D000FFF784FADEE7F7B502AD0123002700F12B
:1025E000A806044680F83C3305F8017D304604F027
:1025F0009DFF042384F8F03084F8C07029463046EB
:1026000004F09FFF80B99DF807100B060CD5D4F895
:10261000603311F0300F03F10103C4F8603308D0C8
:1026200006222046FFF763FA002384F83C3303B008
:10263000F0BD2046FFF797FF38B19DF80710FFF770
:102640008FF802462046FFF749FA94F8FA2294F8E8
:10265000FB329A4202D02046FFF79AFA9DF80730E3
:1026600094F8F92203F00F0332B19A421EBFD4F856
:1026700064230132C4F864230F2B14BF01330123F8
:1026800084F8F932D0E700002DE9F0410446E0304B
:1026900005F003FA0C4E074600254FF00C0878347D
:1026A000EBB29F420ED908FB05F39A19127A0AB9C8
:1026B0000135F5E79959204605F00DF90028F7D0C6
:1026C000BDE8F0810020FBE7DCFB030010B5044609
:1026D000006825F017F9C1B2A06FBDE8104004F002
:1026E00070BE10B50446006825F010FBC1B2A06FA3
:1026F000BDE8104004F065BE13B504460DF10701B6
:10270000006825F065F930B99DF80710A06F04F056
:1027100058FE02B010BDFFF723F8014604F178001F
:1027200005F0A9F9F5E713B502A90023044601F85D
:10273000013DA83004F027FF20B99DF9071020685B
:1027400025F050F902B010BDFEE7FEE710B50446D3
:1027500005F051FDFFF75AF90146A06FBDE81040A2
:1027600004F02FBE07B502A9002301F8013DA830EF
:1027700004F0E7FE60B99DF80730072B15D8DFE8B5
:1027800003F01212040A0A0C0E10012005F035FDA8
:1027900003B05DF804FB0220F8E70320F6E704200D
:1027A000F4E70520F2E70020F0E70720F0E700005B
:1027B0001346074A10B40446106828B10A46214659
:1027C0005DF8044BFFF7E4B80D205DF8044B70474B
:1027D000C00B00200822006804F005BEF8B50546CD
:1027E000087F0C46C0F3C003C0F34001C0F3800271
:1027F00000F0010000F04DFD05F178070646214686
:102800003846FFF7E7FF40BB218A384605F007F856
:1028100018BBA168384605F011F8F0B9E1683846F0
:1028200005F00CF8C8B9217DA86F04F0CAFDA0B965
:10283000617DA86F04F0C5FD78B9A17DA86F04F093
:10284000C0FD50B93146A86F04F0BBFD28B9E17D49
:10285000A86FBDE8F84004F0B4BDF8BD70B50546FA
:102860000C46002936D000F1780641F60D130622F9
:102870008021304605F0E1F860BB21463046FFF785
:10288000A9FF38BB2189304604F0C9FF10BBA17AEB
:10289000A86F04F096FDE8B9E17AA86F04F091FD05
:1028A000C0B9217BA86F04F08CFD98B9617BA86F3B
:1028B00004F087FD70B9A17BA86F04F082FD48B9D0
:1028C000E17BA86F04F07DFD20B93046BDE8704083
:1028D00005F096B870BD0B46014618B113B1184605
:1028E000FFF7BCBF7047F8B500F1E00604460D469F
:1028F00030465221174605F069F948BB3B7FDB069D
:1029000026D4C5B1012D23D1082204F17805522324
:102910008021284605F091F878B10123304684F8EB
:102920003D330B22002105F0BBF804F1D400BDE8D3
:10293000F84006F009BF0722E7E739462046FFF7CF
:102940004DFF0028E9D1284605F05AF80028E4D1C7
:10295000F8BD38B50D460446FEF7FAFF2A46214673
:10296000BDE83840FFF7BFBF10B50446006805F06A
:1029700043FF0146A06FBDE8104004F022BD10B532
:102980000446006805F053FE0146A06FBDE8104004
:1029900004F017BDF0B5044689B0064654F8780B2C
:1029A00005F012FF00250746E9B2B9421AD26A467D
:1029B000306805F070FF08B10135F5E79DF81C306F
:1029C000DB06F9D4204604F0D3FF48B96946304607
:1029D000FFF704FF20B9204604F0E9FF0028EBD000
:1029E00009B0F0BD0020FBE7F0B5054687B004460E
:1029F00055F8780B05F06CFF0026074601AAF1B2E6
:102A0000206805F067FF28B10136F3B29F42F5D286
:102A1000002044E09DF81430DB07F5D5284604F08B
:102A2000A7FF00283BD101A92846FFF7D3FEB0BB82
:102A3000BDF80C10284604F0F2FE80BB9DF80E1085
:102A4000A06F04F0BEFC50BB9DF80F10A06F04F007
:102A5000B8FC20BB9DF81010A06F04F0B2FCF0B9D8
:102A60009DF81110A06F04F0ACFCC0B99DF81210D5
:102A7000A06F04F0A6FC90B99DF81310A06F04F0AD
:102A8000A0FC60B99DF81410A06FC1F3400104F0E0
:102A900098FC20B9284604F08AFF0028B4D007B07B
:102AA000F0BD2DE9F04304468FB00746002554F8E9
:102AB000780BADF8065005F087FE80465FFA85F981
:102AC000C14534D206AA4946386805F0E4FE08B18B
:102AD0000135F3E79DF83430DB06F9D4204604F0E5
:102AE00047FFD8B906A92046FFF774FEB0B9BDF874
:102AF0002810204604F093FE80B90EAE26F8320D61
:102B000002AB32464946386805F0CDFE48B910227E
:102B100002A9B86F04F067FC0028F1D00FB0BDE83F
:102B2000F083204604F043FF0028D1D0F6E70020D0
:102B3000F4E710B50446006805F04FFE0146A06FAB
:102B4000BDE8104004F03DBC37B505460DF1070166
:102B5000A83004F006FD044620B99DF80710286847
:102B600005F040FE204603B030BD10B504460068B5
:102B700005F0C0FE10220146A06FBDE8104004F031
:102B800032BC13B5002304460DF1020201A9A8309E
:102B9000019304F0D3FD38B9BDF80230102B05D1F4
:102BA0000199206805F0ABFE02B010BD0620FBE7DE
:102BB00010B50446006805F007FE0146A06FBDE8A9
:102BC000104004F0FEBB13B502A90023044601F82F
:102BD000013DA83004F0B5FC20B99DF8071020682D
:102BE00005F0F6FD02B010BD10B50446006805F012
:102BF0001DFE0146A06FBDE8104004F0E2BB37B5F2
:102C000002A90023054601F8013DA83004F099FC13
:102C1000044620B99DF80710286805F00BFE2046F1
:102C200003B030BD10B50446006805F023FE014630
:102C3000A06FBDE8104004F0C4BB37B502A9002363
:102C4000054601F8013DA83004F07BFC044620B99C
:102C50009DF80710286805F011FE204603B030BD2E
:102C600010B50446006805F00DFE0146A06FBDE8F2
:102C7000104004F0A6BB37B502A90023054601F8B1
:102C8000013DA83004F05DFC044620B99DF8071012
:102C9000286805F0FBFD204603B030BD10B50446A2
:102CA00054F8780B05F0B0FD01462046BDE8104011
:102CB00004F0C4BD37B502A90023054641F8043D20
:102CC000A83004F080FC044618B90199286805F082
:102CD000A0FD204603B030BD10B50446006805F0E5
:102CE0009DFD0146A06FBDE8104004F06ABB37B5FA
:102CF00002A90023054601F8013DA83004F021FC9B
:102D0000044620B99DF80710286805F08BFD204681
:102D100003B030BD10B50446006805F07FF8012807
:102D200008D002280CBF02210021A06FBDE810408E
:102D300004F047BB0146F8E713B504460DF107015F
:102D4000A83004F0FEFB48B99DF807301BB1022BF8
:102D500006D0072002E0206805F01AF802B010BD86
:102D6000206805F006F8F9E730B500F1A80485B051
:102D70000546204604F002FD58B9B5F8AE20B5F876
:102D8000B0309A4207D0082201A9204604F098FCEE
:102D900010B105B030BD0190204604F00FFD0028B1
:102DA000F7D102A9204604F00EFC0028F1D103A9B6
:102DB000204604F0A6FC0028EBD1DDE9023201999F
:102DC000286804F0F6FFE4E737B500F1A8050446EB
:102DD000284604F0D3FC58B9B4F8AE20B4F8B030AB
:102DE0009A4207D0082201A9284604F069FC10B1D4
:102DF00003B030BD0190284604F0E0FC0028F7D174
:102E00000199206804F0D9FFF2E713B502A9002365
:102E100021F8023D0446006804F0D8FF014628B9B5
:102E20000021A06F04F0CDFA02B010BDBDF806205D
:102E3000002AF5D0A06F04F0D6FA0028F0D0F3E70E
:102E400013B5044601A9A83004F05BFC18B9019938
:102E5000206804F0B7FF02B010BD10B5044654F866
:102E6000780B04F0D7FF01462046BDE8104004F07F
:102E7000D6BC30B500F1A80487B0054604A92046A9
:102E800004F0A1FBD8B90DF10D01204604F059FB67
:102E9000A8B90DF10E01204604F081FB78B910228B
:102EA00005A9204604F00CFC48B905990091BDF82D
:102EB0000E309DF80D200499286804F08EFF07B0AD
:102EC00030BD000030B500F1A80489B0054606A960
:102ED000204604F078FB30BB0DF11301204604F0CE
:102EE00030FB00BB05A9204604F059FBD8B90DF111
:102EF0001601204604F053FBA8B9102207A920466A
:102F000004F0DEFB78B90949029107990191BDF8F7
:102F100016100091BDF814309DF813200395069902
:102F2000286804F05FFF09B030BD00BF912F00009A
:102F30002DE9F04100F178040546884616461F4603
:102F4000072241F602038021204604F076FD58B1A5
:102F500005F1E0000B22002104F0A2FD05F1D400F0
:102F6000BDE8F04106F0F0BB4146204604F066FCA7
:102F70000028EDD13A463146204604F0D1FC002825
:102F8000E6D1204604F03CFD0028E1D1BDE8F08107
:102F900010B41C4613460A46014620465DF8044B11
:102FA000FFF7C6BF30B500F1A80587B004460DF1A4
:102FB0000E01284604F0F3FAA0B904A9284604F04B
:102FC00002FB78B9102205A9284604F079FB48B91C
:102FD000054B0093BDF80E100194DDE90423206831
:102FE00004F00BFF07B030BD45300000F8B500F12C
:102FF000780405460F46164641F604030722802151
:10300000204604F01AFD58B105F1E0000B22002122
:1030100004F046FD05F1D400BDE8F84006F094BB8D
:103020003946204604F0FBFB0028EDD1314620460E
:1030300004F004FC0028E7D1204604F0E1FC00285D
:10304000E2D1F8BD13460A4601461846FFF7CEBF47
:1030500013B504460DF1020201A9A83004F079FB72
:1030600040B9BDF80220FF2A06D8D2B201992068E3
:1030700004F0C8FE02B010BD0720FBE730B58BB0EE
:1030800004460DF1060202A9A83004F062FB70B9F3
:10309000BDF80650FF2D0CD801461A2203A83BF0BC
:1030A000CEF8EBB2029A206803A904F0AFFE0BB091
:1030B00030BD0720FBE710B50446006804F0AEFE03
:1030C000831E5942A06F5941BDE8104004F079B900
:1030D00030B585B00D4604A90023044601F8013D32
:1030E000A83004F03EFA28B99DF80F30206863B983
:1030F00004F04EFEFEF734FB002300900122294627
:103100002046FEF78DFC05B030BD04F032FEF1E73D
:103110007FB500F1A8050023064602A92846CDE99F
:103120000133039304F0EDFA90B903A9284604F0A3
:103130004AFA044660B9082201A9284604F0C0FAF8
:1031400000B10194DDE902230199306804F031FEF9
:1031500004B070BD37B505460DF10701A83004F085
:10316000F0F9044620B99DF80710286805F048FBDF
:10317000204603B030BD90F83E13806F04F021B9B3
:1031800010B500F23E310446A83004F0DAF930B947
:1031900094F83E132068BDE8104005F028BB10BD30
:1031A00037B504460DF10701A83004F0CAF9054609
:1031B00038B99DF80710206805F040FB0D2808BFBE
:1031C000284603B030BD70B5044686B0002600F135
:1031D000780501AAF1B2206805F084FB10BB9DF8C8
:1031E0001730DB0701D40136F3E7284604F0C0FBB3
:1031F000B0B9102201A9A06F04F0F5F880B9BDF8AC
:103200001410284604F00BFB50B99DF81610A06F5F
:1032100004F0D7F820B9284604F0C9FB0028E2D012
:1032200006B070BD0020FBE7437C13F0040F14BF11
:1032300020200020190748BF40F01000DA0648BFE0
:1032400040F00800590648BF40F002009A0648BF07
:1032500040F00400DA0943F3010318BF40F0010015
:103260005BB240EA8310C0B2704704F0AAB80022F3
:1032700004F016BC0A46002104F012BC082204F037
:103280001FBAC9B2006804F09CB81022006804F0AC
:10329000AAB800280CBF0020082009B140F00400A3
:1032A0000AB140F002000BB140F00100704710B5C8
:1032B000044654F8780B04F001FF01462046BDE8AF
:1032C000104004F0BBBA37B5054601A9A83004F098
:1032D0007AF9044618B90199286804F0F4FE2046EA
:1032E00003B030BD10B5044654F8780B04F0AFFEBF
:1032F00001462046FFF76EFA10BD000010B50446E7
:10330000006804F06FFEB0B10A280CD84FF4FA61DF
:10331000414301F55C2101F5346104F17800BDE819
:10332000104004F08BBA192807D8054941F28833B8
:1033300003FB0011F1E70349EFE70021EDE700BFD0
:10334000B0DB2300CC3F0D0010B50446006804F04C
:1033500067FE01462046BDE81040FEF76ABE13B581
:1033600002A9002341F8043D0446FEF777FE18B990
:103370000199206804F058FE02B010BD07B5022381
:10338000009301220023FEF74BFB03B05DF804FB22
:1033900037B5044600680D4604F0A6FDFEF7E0F9D7
:1033A00000230090012229462046FEF739FB03B096
:1033B00030BDFFF7E3BF10B50446006804F03AFDE6
:1033C0000146A06FBDE81040FFF74FBF10B504469F
:1033D000006804F097FD0146A06FBDE81040FFF7BC
:1033E00044BF13B502A90023044601F8013DA830EB
:1033F00004F0B7F820B99DF80710206804F07AFDB2
:1034000002B010BD10B50446006805F004F9011CB7
:1034100018BF0121A06FBDE81040FFF726BF73B5AC
:1034200002A90023054601F8013DA83004F099F8EF
:10343000044688B928689DF8076005F0ECF800306C
:1034400018BF0120B04207D09DF80730286833B17B
:10345000012105F065F90446204602B070BD214601
:10346000F7E7000010B50446006805F0D4F802380C
:10347000C0B2022896BF044B0021195CA06FBDE8C2
:10348000104003F09EBF00BF01FB030013B502A96B
:103490000023044641F8043DA83004F0FAF848B986
:1034A000019B032B06D8DFE803F0020F070B20680F
:1034B00005F09DF802B010BD206805F0C4F9F9E7E9
:1034C000206805F0D2F9F5E7206805F095F8F1E7F6
:1034D00010B5044654F8780B05F05CF80146204618
:1034E000BDE8104004F02CBA37B502A90024054607
:1034F00041F8044DA83004F004F928B9019928686E
:1035000005F04CF803B030BD2046FBE710B504468B
:10351000006804F084FF08220146A06FBDE8104057
:1035200003F061BF13B5002304460DF1020201A9A7
:10353000A830019304F002F938B9BDF80230082B25
:1035400005D10199206804F06EFF02B010BD06207D
:10355000FBE710B50446006804F0D7FF10220146CF
:10356000A06FBDE8104003F03EBF13B50023044632
:103570000DF1020201A9A830019304F0DFF838B977
:10358000BDF80230102B05D10199206804F0C2FF6C
:1035900002B010BD0620FBE710B5044654F8780BC6
:1035A00005F014F801462046BDE8104004F046B985
:1035B00037B5054601A9A83004F005F8044618B946
:1035C0000199286805F006F8204603B030BD10B513
:1035D000044654F8780B05F032F801462046BDE861
:1035E000104004F02BB910B5044654F8780B04F0E1
:1035F000F6FF01462046BDE8104004F01FB937B57C
:10360000054601A9A83003F0DEFF044618B9019968
:10361000286804F0E8FF204603B030BD10B504462A
:10362000006804F0D7FE0146A06FBDE8104003F02B
:10363000C8BE10B50446006804F0D4FE0146A06F71
:10364000BDE8104003F0BDBE10B5C2B00446FF2374
:103650008DF8073002AA0DF107030021006804F07D
:103660001CFB9DF80720A06F02A903F0BCFE42B02E
:1036700010BD10B5C2B00446FF238DF8073002AA72
:103680000DF107030121006804F007FB9DF80720F6
:10369000A06F02A903F0A7FE42B010BD10B5C2B0E2
:1036A0000446FF238DF8073002AA0DF1070300211D
:1036B000006804F06FFE9DF80720A06F02A903F0D8
:1036C00092FE42B010BD10B5C2B00446FF238DF883
:1036D000073002AA0DF107030121006804F05AFE29
:1036E0009DF80720A06F02A903F07DFE42B010BD37
:1036F00010B50446006804F092FF0146A06FBDE8D3
:10370000104003F05EBE1FB50446694654F8780BBE
:1037100004F0B4FE28B969462046FFF7B6FD04B0B0
:1037200010BDFEF71DF80146204604F0A4F9F6E7A7
:1037300030B5044687B0054601A954F8780B04F06B
:103740008DFF00283CD19DF814309B0733D50DF137
:103750000201286804F0BFFF0DF10301286804F09E
:10376000CDFF01A92046FFF735F810BBBDF80C10BE
:10377000204604F054F8E0B99DF81310204604F0F8
:103780005DF8B0B99DF902102046FFF77AFD80B9C7
:103790009DF903102046FFF774FD50B99DF81110F4
:1037A000A86F03F00EFE20B99DF81210A86F03F069
:1037B00008FE07B030BD1421204604F05CF9F8E79C
:1037C000FDF7CEFF0146F7E770B58AB00023054646
:1037D000ADF8023000F1780401AA0DF10201286869
:1037E00004F010FF002852D19DF82400C0F3C0035C
:1037F000C0F38002C0F3400100F00100FFF749FD73
:103800000646204604F0B4F800283ED101A920461F
:10381000FEF7E0FF002838D1BDF81010204603F075
:10382000FEFF90BB0399204604F008F868BB9DF8A2
:103830001C10A86F03F0C5FD38BB9DF91D10204674
:10384000FFF71FFD08BB3146A86F03F0BAFDE0B9D2
:103850009DF82410A86FC1F30011FFF706FDA0B971
:103860000599204603F0EAFF78B90699204603F04F
:10387000E5FF50B99DF91E102046FFF702FD20B963
:10388000204604F094F80028A6D00AB070BD0020AD
:10389000FBE730B58BB000230546ADF8023000F1F0
:1038A000780401AA0DF10201286804F0ABFE68BBA0
:1038B000204604F05DF838BB01A92046FEF78AFFD8
:1038C00010BBBDF81010204603F0A9FFE0B9BDF809
:1038D0002010204603F0A3FFB0B9BDF82210204607
:1038E00003F09DFF80B99DF91D102046FFF7C9FC2C
:1038F00050B99DF91E102046FFF7C3FC20B92046A1
:1039000004F055F80028CCD00BB030BD0020FBE708
:1039100037B5044602A9002301F8013D54F8780B9D
:1039200004F039FB851E9DF8070058B135F8021FD9
:10393000204603F074FF28B99DF80730013B8DF84D
:103940000730F0E703B030BD73B50646044656F8BD
:10395000A80B04F01BFBB4F8B030B4F8AE209B1AEF
:103960009BB2012B16D90DF10601304603F017FE6C
:1039700080B9BDF80610206804F0FEFA054600285C
:10398000E9D001235C2280212046FEF7CAF82846B0
:1039900002B070BD0025FAE790F83813806FFFF78A
:1039A00064BC37B502A90023044601F8013DA830E4
:1039B00003F0D7FD054630B994F838239DF8073059
:1039C00022B984F83833284603B030BD002BFAD131
:1039D00084F83803206804F0C7F9F4E730B589B0FB
:1039E00000230446019300F1780502AA01A920688A
:1039F00004F0DEFC80BB284603F0BAFF50BB02A9EE
:103A00002846FFF742FC28BB9DF81810A06F03F072
:103A1000D8FCF8B99DF81A10A06F01F00101FFF76A
:103A200024FCB8B902A8FFF7FFFB0146A06F03F022
:103A3000C8FC78B90146A06F03F0C3FC50B9BDF8CB
:103A40001C10284603F0EBFE20B9284603F0AFFF18
:103A50000028CAD009B030BD0023019304F17805D5
:103A600002AA01A9206804F057F9002836D1284697
:103A700003F07EFF0028EDD102A92846FFF705FCE0
:103A80000028E7D19DF81810A06F03F09AFC0028D9
:103A9000E0D19DF81A10A06F01F00101FFF7E5FBDE
:103AA0000028D7D102A8FFF7BFFB0146A06F03F0A3
:103AB00088FC0028CED10121A06F03F082FC0028F1
:103AC000C8D1BDF81C10284603F0A9FE0028C1D1BA
:103AD000284603F06CFF0028C2D0BBE70020B9E7FE
:103AE00030B5044689B00021182202A88DF80510CF
:103AF0008DF806103AF0A3FB94F83833002B4AD027
:103B000004F1A80502A9284603F0E8FD002840D1E9
:103B10000DF10701284603F014FDD0BB0DF105019E
:103B2000284603F01EFDA0BB0DF10601284603F058
:103B300008FD70BB9DF807309DF805208DF8183002
:103B40009DF81A30206862F300039DF806208DF876
:103B50001A309DF81930910961F30103C2F3401145
:103B600061F38203C2F3001161F3C303C2F3C00126
:103B700061F30413C2F3800161F34513C2F3400102
:103B800061F3861362F3C71302A98DF8193004F0AC
:103B900092F809B030BD0D20FBE730B5044687B080
:103BA0001122002101A83AF04AFB94F83833D3B12E
:103BB00004F1A80501A9284603F090FD88B928461C
:103BC0000DF1030103F0BDFC054650B99DF803302B
:103BD00020688DF8143001A904F098F8172808BF60
:103BE000284607B030BD0D20FBE790F8CE10806F5F
:103BF000FFF73BBB00F1CE01A83003F0B2BC90F858
:103C0000CF10806FFFF731BB00F1CF01A83003F078
:103C1000A8BCB0F8D010783003F001BE00F1D0019C
:103C2000A83003F0BCBC7FB591F86430DB070546D3
:103C30000C4600F14F8194F864309E071DD505F1C4
:103C40007806304603F094FE002840F0498141F2A6
:103C50001D51304603F03FFE002840F04181D4E979
:103C60000223304603F005FE002840F0398130463B
:103C700003F09DFE002840F0338194F8643058072B
:103C80001CD505F17806304603F072FE002840F09E
:103C900027814621304603F01EFE002840F0208197
:103CA0001022A118A86F03F09EFB002840F0188195
:103CB000304603F07CFE002840F0128194F8643016
:103CC00019071CD505F17806304603F051FE00288F
:103CD00040F006814421304603F0FDFD002840F00D
:103CE000FF8004F12001304603F02AFE002840F056
:103CF000F780304603F05BFE002840F0F18094F836
:103D00006430DA061DD505F17806304603F030FE42
:103D1000002840F0E5804521304603F0DCFD002816
:103D200040F0DE80082204F13101A86F03F05BFB54
:103D3000002840F0D580304603F039FE002840F0DE
:103D4000CF8094F864309B062BD522466B4652F800
:103D5000390F516805F1780603C300233046CDE9D9
:103D6000023303F005FE002840F0BA80622130469D
:103D700003F0B1FD002840F0B38069463046FFF7FC
:103D800084FA002840F0AD804021A86F03F019FBB1
:103D9000002840F0A680304603F009FE002840F0DD
:103DA0009F8094F864305E0600F1B28094F864302D
:103DB000DB091AD005F17806304603F0D9FD00285A
:103DC00040F08E803621304603F085FD002840F01B
:103DD0008780B4F84810304603F021FD00287FD1D9
:103DE000304603F0E4FD00287AD194F86530D80716
:103DF00018D505F17806304603F0BAFD00286FD1DA
:103E00002121304603F067FD002869D194F84A105B
:103E1000A86F03F0D6FA002862D1304603F0C7FD40
:103E200000285DD194F86530990719D505F1780619
:103E3000304603F09DFD002852D14B21304603F05F
:103E40004AFD00284CD1102204F14C01A86F03F068
:103E5000CAFA002844D1304603F0A9FD00283FD11A
:103E600094F865305A071BD505F17806304603F003
:103E70007FFDA8BB41F21F51304603F02CFD78BBFB
:103E8000B4F85C10304603F0CAFC48BB94F85E10EE
:103E9000A86F03F096FA18BB304603F088FDF8B916
:103EA00094F865301B071BD505F17806304603F002
:103EB0005FFDA8B92221304603F00DFD80B9216EC7
:103EC0002846FEF7B6F8044650B9304603F06FFDB9
:103ED000204606E000F17806304603F049FD10B1B7
:103EE000002004B070BD41F21C51304603F0F3FCD9
:103EF0000028F5D1D4E90023304603F0BAFC0028AD
:103F0000EED1304603F053FD00283FF494AEE7E7CE
:103F100005F17806304603F02BFD0028E0D141F290
:103F20001E51304603F0D7FC0028D9D1616C3046D1
:103F300003F084FC0028D3D1304603F038FD00287C
:103F40003FF434AFCCE710B59AB004466946006838
:103F500003F068FF69462046FFF765FE1AB010BD02
:103F600010B59AB004466946006803F084FF6946BC
:103F70002046FFF758FE1AB010BD2DE9F04F0C4651
:103F800087B0904605466822002120469946DDF814
:103F900040A09DF844703AF052F9B8F1000F02D0F9
:103FA0000023C8F80030B9F1000F02D0002389F8CF
:103FB0000030BAF1000F02D00023CAF8003005F13A
:103FC000A8064FF0010BB5F8AE20B5F8B0309A4214
:103FD00000F0D381304603F0D1FB002840F0A980E7
:103FE00004A9304603F055FB002840F0A280049B52
:103FF0004B2B00F03A8137D8362B00F009810BD8D3
:10400000212B00F01981222B00F06F81304603F044
:10401000D5FB0028D7D08CE0452B00F0C580462B7F
:1040200000F09E80442BF1D12FB1B5F8AE20B5F849
:10403000B0309A4213D005A9304603F062FB002845
:1040400077D10599019108463AF042FD102800F217
:104050009281421C019904F120003AF0CCF894F8C6
:10406000643043F008035BE041F21E52934200F0DB
:10407000BB802CD841F21C52934246D05CD8622BB4
:10408000C4D12FB1B5F8AE20B5F8B0309A4219D0EE
:10409000102205A9304603F013FB002849D10DF189
:1040A0000E01304603F04DFA002842D19DF80E3043
:1040B000402B40F06081059A1368C4F8393053688A
:1040C000C4F83D3094F8643043F0200328E0B3F5A1
:1040D000A95F00F02E81C0F0EC8041F2275293429C
:1040E00094D12FB1B5F8AE20B5F8B0309A428DD04A
:1040F000102205A9304603F0E3FAD0B9BAF1000F57
:1041000084D0059BCAF8003080E767B1B5F8AE20CF
:10411000B5F8B0309A4206D194F8643043F0010308
:1041200084F8643072E72146304603F064FA0028D0
:10413000F2D007B0BDE8F08F57B1B5F8AE20B5F8B2
:10414000B0309A4204D194F8643043F00203E7E7B8
:1041500004F10801304603F04EFA0028F3D0E8E7F6
:104160002FB1B5F8AE20B5F8B0309A4217D00DF1A6
:104170000E0205A9304603F0E1FA0028D9D1BDF8B6
:104180000E30102B40F0F780059B04F1100203F174
:10419000100153F8040B42F8040B8B42F9D194F848
:1041A000643043F00403BBE72FB1B5F8AE20B5F897
:1041B000B0309A4213D00DF10E0205A9304603F03B
:1041C000BDFA0028B5D1BDF80E30082B40F0D380E1
:1041D000059A1368C4F831305368C4F8353094F840
:1041E000643043F010039BE757B1B5F8AE20B5F843
:1041F000B0309A4204D194F8643043F040038FE722
:1042000004F14401304603F0DEF90028F3D090E7D2
:1042100057B1B5F8AE20B5F8B0309A4204D194F851
:10422000643043F080037BE704F14801304603F03B
:10423000B6F90028F3D07CE72FB1B5F8AE20B5F879
:10424000B0309A420AD005A9304603F07AF9002826
:104250007FF46FAF9DF81430A4F84A3094F86530BD
:1042600043F0010384F86530D0E62FB1B5F8AE20F5
:10427000B5F8B0309A4217D00DF10E0205A93046BC
:1042800003F05CFA00287FF454AFBDF80E30102B19
:1042900071D1059B04F14C0203F1100153F8040B9A
:1042A00042F8040B8B42F9D194F8653043F00203D5
:1042B000D8E757B1B5F8AE20B5F8B0309A4204D17E
:1042C00094F8653043F00403CCE704F15C01304618
:1042D00003F065F900287FF42CAF04F15E0130464D
:1042E00003F02FF90028EBD023E72FB1B5F8AE206B
:1042F000B5F8B0309A4217D000232366B5F8AE2047
:10430000B5F8B0309A420FD005A9304603F019F93C
:1043100000287FF40EAF9DF814301F2B2BD8226E8F
:104320000BFA03F31343E8E794F8653043F008030E
:1043300098E737B1B5F8AE20B5F8B0309A423FF4FF
:1043400065AE0DF10E0205A9304603F0F7F900281D
:104350007FF4EFAEBDF80E30FF2B0CD8B8F1000F94
:1043600002D0059AC8F80020B9F1000F3FF44EAE14
:1043700089F800304AE60720DBE60020D9E610B5D0
:1043800000239CB0CDE900331A4602A90446FFF78A
:10439000F4FD18B902A9206803F065FD1CB010BD3A
:1043A00010B500239CB0CDE900331A4602A904469B
:1043B000FFF7E3FD18B902A9206803F064FD1CB003
:1043C00010BD10B500239EB0CDE9003303AA0DF156
:1043D0000B0304A90446FFF7D0FD30B99DF80B305C
:1043E000039A206804A903F05BFD1EB010BD10B550
:1043F00000239EB0CDE9003303AA0DF10B0304A9FD
:104400000446FFF7BAFD30B99DF80B30039A2068D7
:1044100004A903F04FFD1EB010BD10B5A0B00123DC
:10442000019305AB009304AA0DF10F0306A90446FE
:10443000FFF7A3FD40B9059A00929DF80F30049A4A
:1044400020681FA903F027FD20B010BD10B5A0B053
:104450000123019305AB009304AA0DF10F0306A9F4
:104460000446FFF78AFD40B9059A00929DF80F3087
:10447000049A20681FA903F018FD20B010BD10B5E4
:104480000446006803F096FD0146A06FBDE81040A9
:1044900002F097BF30B500F1A8058BB000230446A9
:1044A0000DF11F0128468DF81F30CDE9083303F0C8
:1044B00058F8D8B908A9284603F023F9B0B909A9D2
:1044C000284603F01EF988B99DF81F3025687BB196
:1044D000094B0494CDE90203084B0193084B009368
:1044E000DDE90812074B284603F05AFD0BB030BD3A
:1044F000284603F05AFDF9E79158000015FB030028
:104500002EFB03000AFB03001FB50446006804F0FD
:1045100020F8034680B1596800686A4603C2002348
:10452000694604F17800CDE90233FEF7AEFE18B912
:104530004021A06F02F045FF04B010BD37B500F177
:10454000A8050446102201A9284603F0B9F868B965
:104550000DF10301284602F0F4FF38B99DF803304D
:10456000402B05D10199206803F0F7FF03B030BD5F
:104570000720FBE710B50446006803F0E6FF20B112
:10458000014604F17800FEF780FE10BD10B5044628
:10459000006803F0FBFF20B1014604F17800FEF74C
:1045A00074FE10BD70B50546064655F8780B03F04D
:1045B000ADFC04460CB3284603F0DAF9F0B9214605
:1045C0002846FEF762FEC8B9217CB06F02F0F9FE02
:1045D000A0B9617C284641F3000103F02FF968B9C6
:1045E000617C284641F3400103F028F930B92846A0
:1045F00003F0DDF910B96469DCE7204670BD30B521
:1046000000F1A80489B0054602A9204603F066F827
:1046100010BB06A9204602F094FFE8B9694620467F
:1046200002F0D1FFC0B901A9204602F0CCFF98B931
:10463000009B28681A1C9DF8193018BF012262F3EC
:104640000003019A003218BF012262F3410302A95C
:104650008DF8193003F05EFC09B030BD37B5044663
:10466000102201A9A83003F02BF8054630B90199B2
:10467000206803F054FC172808BF284603B030BD5B
:104680000221783003F0F7B910B50446006803F052
:1046900016FC011C18BF0121A06FBDE81040FEF7F9
:1046A000E4BD37B502A90023054601F8013DA83055
:1046B00002F057FF044640B99DF807302868002BE8
:1046C00014BF0321002103F0FEFB204603B030BDE0
:1046D00038B5054655F8780B03F026FC044674B14E
:1046E000284603F045F958B921462846FEF7CDFD86
:1046F00030B9284603F05BF910B92469EFE720468A
:1047000038BD37B50446102201A9A83002F0D8FF01
:10471000054630B90199206803F00AFC182808BF43
:10472000284603B030BD37B50446102201A9A83091
:1047300002F0C6FF054630B90199206803F0FDFB81
:10474000172808BF284603B030BD000010B5044646
:10475000006803F0B4FB0138C0B2022896BF044BD6
:104760000021195CA06FBDE8104002F02ABE00BF16
:1047700004FB030037B505460DF10701A83002F030
:10478000E0FE044658B99DF80730013BDBB2022B2E
:1047900096BF044A0146D15C286803F094FB20468A
:1047A00003B030BD07FB030010B50446006803F0FA
:1047B000CEFB80F00101C9B2A06FBDE81040FEF74A
:1047C00054BD37B502A90023054601F8013DA830C4
:1047D00002F0C7FE044630B99DF80710286881F042
:1047E000010103F0B8FB204603B030BD70B588B0BE
:1047F0000023504E0193044602AA01A9206803F049
:10480000E0FD002841D104F17805284603F0B0F816
:10481000002838D102A92846FEF737FD98BB9DF83D
:104820001810A06F02F0CDFD68BB9DF81C10A06FA2
:10483000C1F38001FEF719FD28BB9DF81C3043F33E
:1048400001035BB20133022B8CBF0146F15CA06F08
:1048500002F0B7FDB8B90146A06F02F0B2FD90B901
:104860009DF81C10A06FC1F3C001FEF7FEFC50B90B
:10487000BDF81A10284602F0D2FF20B9284603F0EE
:1048800096F80028B8D008B070BD0023294E0193D7
:1048900004F1780502AA01A9206803F05CFA002857
:1048A00045D1284603F064F80028ECD102A9284637
:1048B000FEF7EBFC0028E6D19DF81810A06F02F07F
:1048C00080FD0028DFD19DF81C10A06FC1F380018E
:1048D000FEF7CBFC0028D6D19DF81C3043F3010332
:1048E0005BB20133022B8CBF0146F15CA06F02F07A
:1048F00068FD0028C7D10121A06F02F062FD0028E9
:10490000C1D19DF81C10A06FC1F3C001FEF7ADFC32
:104910000028B8D1BDF81A10284602F080FF002800
:10492000B1D1284603F043F80028B3D0ABE700200C
:10493000A9E700BFFEFA030030B5054689B00021A3
:10494000182202A88DF805108DF8061039F077FCB2
:1049500095F83833002B3DD005F1A80402A9204674
:1049600002F0BCFE90BB0DF10701204602F0E9FD0C
:1049700060BB0DF10501204602F0F3FD30BB0DF1E7
:104980000601204602F0DDFD00BB9DF807308DF8E2
:1049900018309DF805209DF81C3062F382038DF8D5
:1049A0001C309DF8063003F0C003402B10D0C02B04
:1049B0000CBF4FF0FF3200229DF81C30286862F3D4
:1049C000010302A98DF81C3003F0AFF909B030BD26
:1049D0000122F1E70D20F9E730B5044687B0112236
:1049E000002101A839F02BFC94F83833D3B104F13D
:1049F000A80501A9284602F071FE88B928460DF1E4
:104A0000030102F09EFD054650B99DF80330206871
:104A10008DF8143001A903F098F9172808BF28462B
:104A200007B030BD0D20FBE730B500F1A80585B01B
:104A30000023044601AA02A928460293ADF80430D7
:104A40000393ADF8063002F084FED8B90DF10602EA
:104A500003A9284602F072FEA0B903460299BDF8E8
:104A60000420206803F083FA014650B1206803F067
:104A700076FA38B9D4F844330133C4F8443305B076
:104A800030BD0320D4F858330133C4F85833F6E767
:104A900010B5044654F8780B03F0A9FB01462046F4
:104AA000BDE8104002F0BBBE10B5044654F8780BC8
:104AB00003F061FB01682046BDE8104002F0BEBE75
:104AC00010B5044654F8780B03F055FBC168204636
:104AD000BDE8104002F0B2BE10B5044654F8780BA1
:104AE00003F049FB01692046BDE8104002F0A6BE74
:104AF00010B5044654F8780B03F03DFB416920469D
:104B0000BDE8104002F09ABE10B5044654F8780B88
:104B100003F031FB81692046BDE8104002F08EBEF3
:104B200010B5044654F8780B03F025FBC169204604
:104B3000BDE8104002F082BE10B5044654F8780B70
:104B400003F019FB016A2046BDE8104002F076BE72
:104B500010B5044654F8780B03F00DFB416A20466B
:104B6000BDE8104002F06ABE10B5044654F8780B58
:104B700003F001FB816A2046BDE8104002F05EBEF2
:104B800010B5044654F8780B03F0F5FAC16A2046D4
:104B9000BDE8104002F052BE10B5044654F8780B40
:104BA00003F0E9FA016B2046BDE8104002F046BE72
:104BB00010B5044654F8780B03F0DDFA416820463E
:104BC000BDE8104002F03ABE10B5044654F8780B28
:104BD00003F0D1FA81682046BDE8104002F02EBEF5
:104BE00010B5044654F8780B03F0C5FA416B204623
:104BF000BDE8104002F022BE10B5044654F8780B10
:104C000003F0B9FAC16B2046BDE8104002F016BEB1
:104C100010B5044654F8780B03F0ADFA816C2046C9
:104C2000BDE8104002F00ABE10B5044654F8780BF7
:104C300003F0A1FAC16C2046BDE8104002F0FEBDB1
:104C400010B5044654F8780B03F095FA016D204630
:104C5000BDE8104002F0F2BD10B5044654F8780BE0
:104C600003F089FA416D2046BDE8104002F0E6BD30
:104C700010B5044654F8780B03F07DFA816D204698
:104C8000BDE8104002F0DABD10B5044654F8780BC8
:104C900003F071FAC16D2046BDE8104002F0CEBDB0
:104CA00010B5044654F8780B03F065FA016E2046FF
:104CB000BDE8104002F0C2BD10B5044654F8780BB0
:104CC00003F059FA416E2046BDE8104002F0B6BD2F
:104CD00010B5044654F8780B03F04DFA016C2046E9
:104CE000BDE8104002F0AABD10B5044654F8780B98
:104CF00003F041FA416C2046BDE8104002F09EBD31
:104D000010B5044654F8780B03F035FA816E20464E
:104D1000BDE8104002F092BD10B5044654F8780B7F
:104D200003F029FAC16E2046BDE8104002F086BDAE
:104D300010B5044654F8780B03F01DFA016F2046B5
:104D4000BDE8104002F07ABD10B5044654F8780B67
:104D500003F011FA416F2046BDE8104002F06EBD2D
:104D600010B5044654F8780B03F005FA816F20461D
:104D7000BDE8104002F062BD10B5044654F8780B4F
:104D800003F0F9F9C16F2046BDE8104002F056BDAE
:104D9000D0F84413783002F051BDD0F84813783081
:104DA00002F04CBDD0F85813783002F047BDD0F86F
:104DB0004C13783002F042BDD0F85013783002F036
:104DC0003DBDD0F85413783002F038BDD0F86813E8
:104DD000783002F033BDD0F86013783002F02EBD89
:104DE000D0F85C13783002F029BD10B5044654F8B1
:104DF000780B03F0DDFC01682046BDE8104002F0AE
:104E00001DBD10B5044654F8780B03F0D1FC416881
:104E10002046BDE8104002F011BD10B5044654F81C
:104E2000780B03F0C5FC81682046BDE8104002F015
:104E300005BD10B5044654F8780B03F0B9FCC16801
:104E40002046BDE8104002F0F9BC10B504468AB017
:104E500054F8780B694603F007FABDF800102046B5
:104E600002F0DDFC00285CD1BDF80210204602F003
:104E7000D6FC002855D1BDF80410204602F0CFFC26
:104E800000284ED1BDF80610204602F0C8FC0028CC
:104E900047D1BDF80810204602F0C1FC002840D1DF
:104EA000BDF80A10204602F0BAFCD0BBBDF80C10C9
:104EB000204602F0B4FCA0BBBDF80E10204602F064
:104EC000AEFC70BBBDF81010204602F0A8FC40BB41
:104ED000BDF81210204602F0A2FC10BBBDF8141061
:104EE000204602F09CFCE0B9BDF81610204602F006
:104EF00096FCB0B9BDF81810204602F090FC80B9BD
:104F0000BDF81A10204602F08AFC50B9BDF81C10FA
:104F1000204602F084FC20B9BDF81E10204602F0A5
:104F20007EFC00200AB010BD38B5044654F8780B5A
:104F300003F021F9054628B920461521BDE838407F
:104F400002F099BD204602F013FD002840F0D08009
:104F50002968204602F072FC002840F0C980696888
:104F6000204602F06BFC002840F0C280A968204671
:104F700002F064FC002840F0BB80E968204602F0A3
:104F80005DFC002840F0B4802969204602F056FC00
:104F9000002840F0AD806969204602F04FFC0028EF
:104FA00040F0A680A969204602F048FC002840F0A5
:104FB0009F80E969204602F041FC002840F098807B
:104FC000296A204602F03AFC002840F09180696A84
:104FD000204602F033FC002840F08A80A96A20466F
:104FE00002F02CFC002840F08380E96A204602F0A1
:104FF00025FC00287CD1296B204602F01FFC0028EC
:1050000076D1696B204602F019FC002870D1A96B9B
:10501000204602F013FC00286AD1204602F0C7FCAB
:10502000002865D1204602F0A3FC002860D1E96B7E
:10503000204602F003FC00285AD1296C204602F0D9
:10504000FDFB002854D1696C204602F0F7FB0028D4
:105050004ED1A96C204602F0F1FB002848D1E96C42
:10506000204602F0EBFB002842D1296D204602F0D9
:10507000E5FB00283CD1696D204602F0DFFB0028EB
:1050800036D1A96D204602F0D9FB88BBE96D2046D8
:1050900002F0D4FB60BB296E204602F0CFFB38BB88
:1050A000696E204602F0CAFB10BBA96E204602F0D2
:1050B000C5FBE8B9E96E204602F0C0FBC0B9296F14
:1050C000204602F0BBFB98B9696F204602F0B6FBA0
:1050D00070B9A96F204602F0B1FB48B9E96F2046CC
:1050E00002F0ACFB20B92046BDE8384002F05FBCBE
:1050F00038BD30B585B0002305468DF8033000F18A
:10510000780401AA0DF10301286803F003F8A8B997
:10511000204602F02DFC78B901A92046FDF75AFB84
:1051200050B99DF90C102046FEF7ABF820B9204687
:1051300002F03DFC0028E4D005B030BD0020FBE7C4
:1051400010B50446006802F0C7FF431E5942A06F25
:105150005941BDE81040FEF788B830B585B000234E
:1051600005468DF8033000F1780401AA0DF1030122
:10517000286802F0CFFF78B9204602F0F9FB48B961
:1051800001A92046FDF726FB20B9204602F00FFCBE
:105190000028EAD005B030BD0020FBE710B504467A
:1051A000006802F099FF831E5942A06F5941BDE883
:1051B0001040FEF75AB830B585B0002305468DF88B
:1051C000033000F1780401AA0DF10301286802F010
:1051D000B9FFA8B9204602F0CBFB78B901A9204657
:1051E000FDF7F8FA50B99DF90C102046FEF749F882
:1051F00020B9204602F0DBFB0028E4D005B030BD2A
:105200000020FBE7F7B50646054656F8A80B02F066
:105210007CFF0027B5F8AE20B5F8B0309A4240D0F8
:105220003046019702F0AAFA044690B901A9304627
:10523000FEF724F8044660B9B5F8AE20B5F8B030F2
:105240009A4210D00DF10301304602F09CF9044659
:1052500060B101234FF4985280212846FCF761FC8D
:10526000204603B0F0BD7F238DF80330304602F0B6
:10527000A5FA04460028ECD10199286802F035FF10
:105280001828044601D00028E3D19DF903207F2A85
:10529000C0D00199286802F046FF04460028B9D022
:1052A000D7E70024DCE713B504460DF10701A83069
:1052B00002F057F920B99DF80710206802F010FF9E
:1052C00002B010BDF7B50646054656F8A80B02F029
:1052D0001CFF0027B5F8AE20B5F8B0309A4223D0B5
:1052E0003046019702F04AFA044698B901A93046BF
:1052F000FDF7C4FF044668B9304602F05FFA044681
:1053000040B90199286802F0F8FE18280446E1D057
:105310000028DFD0012341F2063280212846FCF725
:1053200000FC204603B0F0BD0024FAE713B50446A4
:105330000DF10701A83002F014F940B99DF80730CB
:105340002068002B14BF0221002102F0C9FE02B028
:1053500010BD73B50646054656F8A80B02F0EDFEE3
:10536000B5F8AE20B5F8B0309A4235D0304602F0EC
:1053700005FA044668B9B5F8B030B5F8AE209B1A06
:105380009BB2082B0FD901A93046FDF777FF0446E1
:1053900050B1012341F2083280212846FCF7C1FBBD
:1053A000204602B070BD01900DF10301304602F0BD
:1053B000EAF804460028ECD1304602F0FFF9044632
:1053C0000028E6D19DF903200199286802F0ABFE80
:1053D00004460028C4D0DCE70024E1E710B5044609
:1053E000006803F053F8C0F34001C0F3C003C0F3FA
:1053F000800200F00100FDF74CFF0146A06FBDE800
:10540000104001F0DEBF37B502A90024054601F8BF
:10541000014DA83002F095F8B0B99DF80730286822
:10542000C3F3C0024FF0000162F30001C3F3800236
:1054300062F34101C3F3400262F3820163F3C301EB
:1054400003F04CF803B030BD2046FBE710B504462E
:1054500054F8780B02F0DAFF01462046BDE8104010
:1054600002F0ECB937B502A90023054641F8043D26
:10547000A83002F0A8F8044618B90199286802F08B
:10548000C9FF204603B030BD10B5044654F8780B70
:1054900003F0DFF801462046BDE8104002F0BFB936
:1054A00090F83913806FFDF7E0BE00F23931A83073
:1054B00002F057B87FB500F1A80600230446012585
:1054C00001AA02A930460293ADF804300393ADF867
:1054D00006308DF800308DF8015002F03AF938B1FD
:1054E000D4F848330133C4F84833002004B070BD09
:1054F0000DF1060203A9304602F020F90028EFD191
:105500006B46BDF804200299206802F030FD064683
:1055100070B1294602F07BFE3146206802F01FFD83
:105520000028DDD0D4F858330133C4F85833DDE710
:105530000320F7E707B502A9002301F8013DA830D1
:1055400001F0FFFF28B99DF80730012B14BF072099
:105550000C2003B05DF804FB13B504460DF1060101
:10556000A83002F01CF820B9BDF80610206802F03F
:1055700003FD02B010BD73B5002300F1A80601932E
:1055800005467F2301A930468DF80330FDF776FEEE
:105590000446E0B9B5F8AC20B5F8AE309A420ED169
:1055A0000199286802F0A1FD182813D19DF9032064
:1055B0007F2A0CD00199286802F0B5FD06E00DF1B4
:1055C0000301304601F0DFFF0028E9D00446204601
:1055D00002B070BD0028E9D0F8E737B502A9002372
:1055E000044641F8043DA830FDF748FE054630B9B1
:1055F0000199206802F079FD182808BF284603B0F9
:1056000030BD37B5002301937F238DF80330B0F808
:10561000AE20B0F8AC309B1A9BB2012B044600F1CF
:10562000A8050CD80DF10301284601F0ACFF60B9C4
:105630009DF903200199206802F075FD06E001A99B
:105640002846FDF71BFE0028ECD0002003B030BD3B
:1056500037B504460DF10601A83001F0A0FF05465C
:1056600038B9BDF80610206802F08BFC172808BF77
:10567000284603B030BD37B502A90023044641F8DF
:10568000043DA830FDF7FAFD054630B901992068C0
:1056900002F033FD172808BF284603B030BDFFF7DE
:1056A000EABF13B500230193B0F8AC20B0F8AE30D8
:1056B0009A42044608D10199206802F039FD172862
:1056C00008BF002002B010BD01A9A830FDF7D6FD2B
:1056D0000028F0D0F6E7F8B506460D46002978D048
:1056E00091F83930C3F303079A064FEA071700F120
:1056F000780448BF47F001070722DB064FF080011E
:105700004FF03303204648BF47F0080702F095F9F1
:10571000002858D195F83610B06F01F052FE0028DD
:1057200051D195F937102046FDF7ABFD00284AD13D
:10573000204602F01DF9002845D129462046FDF7F4
:1057400049F800283FD14FF6FF71204602F067F874
:10575000C8BB698E204602F062F8A0BB95F83810ED
:10576000B06F01F02EFE70BB204602F020F950BB56
:10577000204602F0FDF830BB0321204602F0ABF8D2
:1057800008BB3946B06F01F01CFEE0B905F1080115
:10579000204602F0D5F8B0B9082205F119012046DB
:1057A00002F0BEF878B995F8212005F122012046D3
:1057B00002F0B6F838B9204602F0F9F818B92046D8
:1057C00002F01EF978B10B2106F1E000FDF752FD61
:1057D00003E03021E030FDF74AFD06F1D400BDE8DA
:1057E000F84003F0B1BFF8BD0B4601461846FFF77D
:1057F00072BF70B504460E46E9B100F17805392351
:1058000007228021284602F018F970B93178A06F7C
:1058100001F0D7FD48B996F901102846FDF731FD92
:1058200018B9284602F0ECF878B10B2104F1E00039
:10583000FDF720FD03E03021E030FDF718FD04F115
:10584000D400BDE8704003F07FBF70BD0B46014639
:105850001846FFF7CEBF082910B5044600F1E00056
:1058600012D002D839B1682106E017290ED01C29C0
:10587000F9D16C2100E06D21FDF7FCFC04F1D400AE
:10588000BDE8104003F060BF6921F5E76A21F3E746
:105890000B4601461846FFF7DEBFF8B5044608463A
:1058A0000E4602F0B0FC04F178050746002814BF4C
:1058B0007223732306228021284602F0BEF8B0B975
:1058C000304602F09EFC0146284601F0A8FF70B960
:1058D0003146A06F01F046FD48B9284602F090F825
:1058E00028B92FB1D4F84C330133C4F84C33F8BD88
:1058F000D4F850330133C4F85033F8E7F8B507460D
:1059000000F55076304602F09FFC044680B1014617
:10591000304602F097FC21463846FFF7BEFF0546A9
:105920000028EFD02146304602F089FC2846F8BD19
:105930000546FBE710B5044679B100F5507002F05A
:105940007BFC50B994F8FA2294F8FB329A4204D1C5
:105950002046BDE81040FFF7D1BF10BD0B46014601
:105960001846FFF7E7BFF8B590F83B3307460D46FA
:10597000002B3CD08E7900F178047123062280211F
:10598000204606F0010602F058F880BB297920462F
:1059900001F045FF58BB2A792968B86F01F023FD53
:1059A00028BB95F90C102046FDF76BFCF8B96FF099
:1059B0007F012046FDF765FCC8B93146204601F05D
:1059C0002EFFA0B9204601F0D3FF80B9204601F098
:1059D000EEFF60B9204601F0CBFF40B9204601F050
:1059E000E6FF20B92046BDE8F84002F009B8F8BD4E
:1059F0000B4601461846FFF7B6BF90F83B13806F81
:105A0000FDF733BC37B504460DF10701A83001F0AE
:105A1000A8FD054668B99DF8073094F83B239A42E3
:105A200007D084F83B33206833B10549224602F0A1
:105A300092FB284603B030BD2A462946F7E700BF4F
:105A4000F1590000D1F8DC301843C1F8DC0001F155
:105A5000D40003F079BE00002DE9F041D0F8DC302D
:105A60000446002B5BD05B072CD590F839334BB341
:105A7000006802F0D0FD012807D9002384F83933EB
:105A8000492104F1E000FDF7F2FB206802F0C3FDBC
:105A9000042817D1206802F06EFE98B1D4F8DC30EB
:105AA000254623F08003C4F8DC3055F8E00B0021D4
:105AB00002F036FE42212846FDF7D9FB6821284630
:105AC000FDF7D8FBDFF86C80002504F1E00755F8FE
:105AD0000860D4F8DC301E4206D10835A02DF6D17E
:105AE0000023C4F8DC301AE008EB0503596852299A
:105AF00017D03846FDF7BBFBB6F5007F07D15A211A
:105B00003846FDF7B4FB5B213846FDF7B0FBD4F80F
:105B1000DC3023EA0603C4F8DC30002BDDD1BDE81D
:105B2000F08194F83D33002284F83D23002BE0D12E
:105B3000E2E700BF38FB030040F207539A4200F04F
:105B4000C684B2F5A16F80F05281472A00F01E840E
:105B500000F29C80262A00F0B58344D8082A00F081
:105B60005C831FD8032A00F09B830AD8012A4FF0D8
:105B7000000300F0B98340F29883CA4AC0E90023C9
:105B80007047052A4FF0000300F03983C0F0CE8340
:105B9000062A00F04C83072A00F09D830023C0E909
:105BA00000337047202A00F084830CD80C2A00F0C0
:105BB00039830D2A00F09383092AEFD1BA4B036091
:105BC000002343607047222A4FF0000300F0D68381
:105BD000C0F07483232A00F0D583252ADED1B34A8E
:105BE000C0E900237047372A00F08C8325D8312A7A
:105BF00000F08D830CD8282A4FF0000300F09A8320
:105C0000C0F06583302AC9D1A94AC0E90023704792
:105C1000342A00F06D8306D8322ABFD1A54B036029
:105C2000002343607047352A00F06783362AB5D1D8
:105C3000A14B0360002343607047422A00F0C083F9
:105C400014D83A2A00F07A8306D8382AA6D19B4B7A
:105C50000360002343607047402A00F0AC83412A70
:105C60009CD1974B0360002343607047442A4FF058
:105C7000000300F09083C0F09A83452A00F0A583CA
:105C8000462A8BD18F4AC0E9002370475E2A00F074
:105C9000B8834FD8542A00F0248525D84B2A00F029
:105CA0001B850AD8492A4FF0000300F07C8340F29C
:105CB0007683854AC0E900237047512A00F0BB83F0
:105CC00007D8502A7FF46AAF804B036000234360FB
:105CD0007047522A00F00A85532A7FF45FAF7C4B4D
:105CE0000360002343607047592A00F0B38310D843
:105CF000562A4FF0000300F0B283C0F0FC84572A0C
:105D000000F08D83582A7FF449AF724AC0E900231E
:105D100070475B2A4FF0000300F08583C0F0878353
:105D20005C2A00F056835D2A7FF438AF6A4AC0E9E6
:105D300000237047802A00F0F58422D8632A00F0FF
:105D40009C830DD8612A4FF0000300F0A38300F27A
:105D50009D83602A7FF422AF604AC0E90023704728
:105D6000652A4FF0000300F08D83C0F09B83662A04
:105D700000F09483672A7FF411AF594AC0E90023E9
:105D8000704740F202539A4200F0908318D8842A58
:105D900000F0CD8407D8822A7FF400AF514B036016
:105DA000002343607047852A00F0C68440F2015307
:105DB0009A427FF4F3AE4C4B03600023436070477C
:105DC00040F204539A424FF0000300F07883C0F091
:105DD000728340F205518A4200F0758340F2065109
:105DE0008A427FF4DBAE414AC0E900237047B2F536
:105DF000D26F00F0BE8200F20A8140F26F539A42E5
:105E000000F03384B2F5AE6F80F08F8040F26553BE
:105E10009A4200F0038429D840F20B539A4200F0D2
:105E20006B830CD840F209539A424FF0000300F004
:105E3000578340F251832E4AC0E90023704740F255
:105E40000D539A424FF0000300F05283C0F04C8390
:105E500040F20E518A4200F0DD8340F264518A42E2
:105E60007FF49CAE234AC0E90023704740F26A5396
:105E70009A4200F0E48341D840F267539A424FF0CF
:105E8000000300F0D483C0F0CE83B2F5AD6F00F014
:105E9000D28340F269518A427FF480AE164AC0E94B
:105EA0000023704759230000A5230000F9260000B5
:105EB000DB200000C7200000871F0000331F000008
:105EC000CD33000053350000E735000007370000F0
:105ED000F136000073360000993900008D4500004E
:105EE0004D470000152D0000A94A0000214B00007D
:105EF000814B0000F94B0000714C000040F26C53E4
:105F00009A424FF0000300F0A883C0F09D8340F256
:105F10006D518A4200F0A58340F26E518A427FF4AF
:105F20003DAEC54AC0E90023704740F2CB539A42C8
:105F300000F0B28330D840F273539A4200F0888365
:105F40000CD840F271539A424FF0000300F0968350
:105F500040F29083B94AC0E900237047B2F5B96FA7
:105F600000F0908309D840F274539A427FF416AE41
:105F7000B34B036000234360704740F2C9539A4219
:105F800000F0858340F2CA539A427FF407AEAD4BCE
:105F9000036000234360704740F22E639A4200F092
:105FA0008C8316D840F2CD539A424FF0000300F094
:105FB0007C83C0F0768340F22C618A4200F07983C2
:105FC00040F22D618A427FF4E9AD9F4AC0E9002387
:105FD000704740F231639A4200F0748308D8B2F5FA
:105FE000C66F7FF4DBAD994B0360002343607047BD
:105FF00040F232639A4200F06A8340F233639A427D
:106000007FF4CCAD924B036000234360704741F2B4
:1060100009539A4200F07D8378D841F208339A42BE
:1060200000F099812FD8B2F5985F00F0998113D8CC
:1060300041F208039A4200F06F8141F209039A424B
:1060400000F06F8140F291639A427FF4A7AD814BDB
:10605000036000234360704741F202339A424FF0DD
:10606000000300F07081C0F0808141F206318A4265
:1060700000F06D8141F207318A427FF48FAD764A9C
:10608000C0E90023704741F203539A4200F03C8379
:106090001DD8B2F5A85F00F0A08109D841F20933FC
:1060A0009A427FF47BAD6D4B0360002343607047E1
:1060B00041F201539A4200F0C38141F202539A42E5
:1060C0007FF46CAD664B036000234360704741F280
:1060D00006539A4200F0B98109D841F204539A421A
:1060E0007FF45CAD5F4B036000234360704741F277
:1060F00007539A4200F0038341F208539A427FF417
:106100004DAD594B036000234360704741F2155376
:106110009A4200F06C8131D841F20D539A4200F05E
:106120006B810CD841F20B539A424FF0000300F000
:106130006D8140F2F3824D4AC0E90023704741F27D
:1061400010539A4200F0FD8209D841F20E539A4250
:106150007FF424AD464B036000234360704741F257
:1061600013539A4200F03E8141F214539A427FF455
:1061700015AD404B036000234360704741F222534A
:106180009A4200F047811ED841F218539A4200F01B
:106190006A8109D841F217539A427FF4FFAC364B1B
:1061A000036000234360704741F219539A4200F0A4
:1061B0005F8141F221539A427FF4F0AC2F4B036090
:1061C000002343607047B2F5804F1CD009D841F2DC
:1061D00023539A427FF4E2AC294B036000234360CF
:1061E000704744F201039A4212D044F202039A42E9
:1061F0007FF4D4AC234B0360002343607047224AF2
:10620000C0E900237047214B0360002343607047BF
:106210001F4B03600023436070471E4B0360002345
:10622000436070471C4B03600023436070471B4A68
:10623000C0E90023704700BF314D0000B94C000099
:10624000E94C0000A54D0000D74D0000EB4D0000CB
:10625000334E0000294F00009D510000914A00007C
:10626000E92B0000D92C0000252C0000B12B0000E8
:10627000C7360000FF3B0000E9290000A32A000008
:10628000C73100004B270000C12200004927000051
:106290004D2700008B230000AD2300006F2300007A
:1062A000984B0360002343607047974AC0E900237E
:1062B0007047964B0360002343607047944AC0E9DF
:1062C00000237047934B0360002343607047924A5A
:1062D000C0E900237047914AC0E900237047904B02
:1062E00003600023436070478E4AC0E90023704773
:1062F0008D4B03600023436070478C4B0360002389
:10630000436070478A4B0360002343607047894BAA
:106310000360002343607047874B036000234360A2
:106320007047864B0360002343607047844AC0E98E
:1063300000237047834AC0E900237047824B036003
:10634000002343607047814AC0E900237047804AB8
:10635000C0E9002370477F4B036000234360704710
:106360007D4B03600023436070477C4AC0E90023F3
:1063700070477B4B0360002343607047794AC0E954
:1063800000237047784AC0E900237047774B0360C9
:10639000002343607047764AC0E900237047754A7E
:1063A000C0E900237047744AC0E900237047734A6C
:1063B000C0E900237047724B0360002343607047BD
:1063C000704B03600023436070476F4AC0E90023AD
:1063D00070476E4AC0E9002370476D4B036000238D
:1063E000436070476B4B03600023436070476A4B08
:1063F0000360002343607047684B036000234360E1
:106400007047674B0360002343607047654AC0E9EB
:1064100000237047644B0360002343607047634A66
:10642000C0E900237047624AC0E900237047614A0F
:10643000C0E900237047604B03600023436070474E
:106440005E4B03600023436070475D4B0360002395
:10645000436070475B4B03600023436070475A4AB8
:10646000C0E900237047594B036000234360704725
:10647000574B0360002343607047564B0360002373
:1064800043607047544AC0E900237047534AC0E94B
:1064900000237047524AC0E900237047514AC0E9BF
:1064A00000237047504AC0E9002370474F4B0360F8
:1064B0000023436070474E4AC0E9002370474D4AAD
:1064C000C0E9002370474C4AC0E9002370474B4B9A
:1064D0000360002343607047494AC0E900237047C6
:1064E000484AC0E900237047474AC0E90023704783
:1064F000464AC0E900237047454B036000234360D0
:10650000704700BFB122000089220000F31E000086
:10651000FB1E0000CD260000E32600007F230000C4
:106520007723000093220000BD1F0000F11F000030
:1065300009200000A320000091210000892600000E
:10654000B9220000FB590000AF320000E532000024
:106550005B510000B7510000F350000041510000B2
:106560004B4E000049330000FD3200009935000019
:10657000D1340000CF350000A15400006534000084
:10658000B7330000053400000D350000113900005C
:106590004D540000EB3B0000133C00009D36000012
:1065A000DD530000C9370000933800001D3600009D
:1065B000ED470000DD39000031370000895400004C
:1065C000A94700003336000049360000473F00006D
:1065D000613F0000A5450000894600000945000014
:1065E00075450000D146000081460000C14A000008
:1065F000D94A0000F14A0000094B0000394B000065
:10660000514B0000694B0000B14B0000C94B00002A
:10661000994B00004D4AC0E9002370474C4B036082
:106620000023436070474B4AC0E9002370474A4A41
:10663000C0E900237047494AC0E900237047484B2E
:106640000360002343607047464AC0E90023704757
:10665000454B0360002343607047444AC0E9002370
:106660007047434AC0E900237047424B0360002350
:1066700043607047404AC0E9002370473F4AC0E981
:10668000002370473E4B03600023436070473D4B3F
:1066900003600023436070473B4B0360002343606B
:1066A00070473A4AC0E900237047394AC0E90023DD
:1066B0007047384AC0E900237047374B0360002316
:1066C00043607047354B0360002343607047344B91
:1066D0000360002343607047324B03600023436034
:1066E0007047314B03600023436070472F4B0360BA
:1066F0000023436070472E4AC0E9002370472D4BAA
:1067000003600023436070472B4B0360002343600A
:1067100070472A4B0360002343607047284AC0E952
:1067200000237047274B0360002343607047264BCC
:106730000360002343607047244B036000234360E1
:106740007047234B0360002343607047E14B000018
:10675000114C0000294C0000414C0000594C000035
:10676000894C0000A14C0000D14C0000014D0000FC
:10677000194D0000494D0000614D0000794D0000A9
:10678000914D00009B4D0000AF4D0000B94D000041
:10679000C34D0000CD4D0000E14D0000034E000050
:1067A0001B4E00006B2B00007F2900009529000084
:1067B00069290000332B00009D2C0000612C000093
:1067C000773100007F4400000B2E00005B2E00009C
:1067D000B7300000812A00F0668178D8432A00F0A3
:1067E0004E813CD8312A00F03E8119D8222A00F08F
:1067F00040810BD80D2A00F02881212A00F0298140
:10680000072A22D1B54B036000233CE1282A00F07F
:106810002E81302A00F02981252A16D1B04BF2E7CB
:10682000372A00F01E8109D8342A00F01881362A50
:1068300000F01381322A08D1AA4BE4E73A2A00F08B
:106840001A8105D8382A00F00681002303601AE176
:10685000412A00F01281422AF7D1A34BD3E7552AEF
:1068600000F0AE8116D8472A00F0118108D8452AD9
:106870004FF0000300F0098140F203819B4A01E1DF
:106880004A2A00F006814B2A00F09881492ADCD17F
:10689000974BB8E7622A00F0008109D85D2A00F022
:1068A00012815E2A00F009815C2ACED1914BAAE7C1
:1068B000672A00F0F48003D8652AC6D18E4BA2E780
:1068C000722A00F0E880732ABFD18C4B9BE741F21B
:1068D00009539A4200F07E8154D841F207339A421C
:1068E00000F0E9801FD841F208039A4200F0AF801F
:1068F0000AD8842A00F07081B2F5A06F00F05C81A4
:10690000822AA2D17E4B7EE741F201339A4200F007
:10691000CE8041F206339A4200F0CB80B2F5985F08
:1069200093D1784B6FE741F203539A4200F05081C4
:106930000FD8B2F5A85F00F0B48041F202539A423A
:1069400000F0448141F208339A427FF47EAF6E4BEF
:1069500059E741F206539A4200F0A78006D841F267
:1069600004539A427FF471AF684B4CE741F20753EE
:106970009A4200F0278141F208539A427FF465AFB2
:10698000634B40E741F21B539A4200F0A2802ED89D
:1069900041F214539A4200F0948010D841F20C5303
:1069A0009A4200F0118141F213539A4200F087801D
:1069B00041F20A539A427FF448AF564B23E741F223
:1069C00018539A4200F0818006D841F215539A423A
:1069D0007FF43BAF504B16E741F219539A4276D001
:1069E00041F21A539A427FF430AF4C4B0BE741F619
:1069F00001039A4200F0F4800ED841F226539A42E5
:106A000069D0B2F5C05F00F0E98041F225539A42A7
:106A10007FF41BAF424BF6E641F605039A4200F0C5
:106A2000E18006D841F603039A427FF40EAF3D4B56
:106A3000E9E641F606039A4200F0D68044F20103EB
:106A40009A427FF402AF384BDDE6384BDBE6384B39
:106A5000D9E6384BD7E6384BD5E6384BD3E6384B3A
:106A6000D1E6384BCFE6384BCDE6384BCBE6384B4A
:106A7000C9E6384BC7E6384BC5E6384BC3E6384B5A
:106A8000C1E6384A026043607047374AFAE7374B3D
:106A9000B9E6374BB7E6374BB5E6374BB3E6374B7E
:106AA000B1E6374BAFE6374BADE6374BABE6374B8E
:106AB000A9E6374BA7E6374BA5E6374BA3E6374B9E
:106AC000A1E6374B9FE6374B9DE6374B9BE6374BAE
:106AD00099E6374B97E6374B95E600BF87230000D2
