:101000000000042051D8020079D802007BD80200E9
:101010007DD802007FD8020081D8020000000000C5
:1010200000000000000000000000000083D8020063
:1010300085D802000000000087D8020089D802008D
:1010400059A60200750A03008BD802008BD8020053
:101050008BD802008BD802008BD802008BD80200FC
:101060008BD802008BD802008BD802008BD80200EC
:101070008BD80200958502008BD802008BD8020025
:101080008BD802008BD802008BD802008BD80200CC
:101090008BD802008BD802008BD802008BD80200BC
:1010A0008BD802008BD802008BD802008BD80200AC
:1010B0008BD802008BD80200000000000000000066
:1010C0008BD802008BD802008BD802008BD802008C
:1010D000917E02008BD802008BD80200E1B502009D
:1010E0008BD802008BD80200ED380300000000000E
:1010F000000000008BD80200000000008BD8020026
:1011000000000000000000000000000000000000DF
:1011100000000000000000000000000000000000CF
:1011200000000000000000000000000000000000BF
:1011300000000000000000000000000000000000AF
:10114000000000000000000000000000000000009F
:10115000000000000000000000000000000000008F
:10116000000000000000000000000000000000007F
:10117000000000000000000000000000000000006F
:10118000000000000000000000000000000000005F
:10119000000000000000000000000000000000004F
:1011A000000000000000000000000000000000003F
:1011B000000000000000000000000000000000002F
:1011C000000000000000000000000000000000001F
:1011D000000000000000000000000000000000000F
:1011E00000000000000000000000000000000000FF
:1011F00000000000000000000000000000000000EF
:1012000010B5054C237833B9044B13B10448AFF340
:1012100000800123237010BD600200200000000048
:101220006867040008B5034B1BB103490348AFF3DB
:10123000008008BD00000000640200206867040010
:10124000154B002B08BF134B9D46A3F5803A002198
:101250008B460F461348144A121A3DF04EFE0F4BB0
:10126000002B00D098470E4B002B00D09847002051
:10127000002104000D000D48002802D00C48AFF3F7
:1012800000803DF0DBFD2000290000F015F83DF066
:10129000AFFD00BF000008000000042000000000B7
:1012A0000000000060020020100601200000000085
:1012B000000000007047000070B505460E4631463C
:1012C000284627F05BFA06F0C4FE044628B90C4B0A
:1012D0000C4A0D4866213DF06DFD00F057F82046A0
:1012E00039F065FC27F072FA18B1204606F0B7FE17
:1012F000E5E7204607F043F9204627F06DFAF1E7CD
:1013000049050400440504005205040038B50446AC
:101310000D4600F05BFA04F5637104F55C7000F0B3
:101320004AF9234604F58361154A04F55E7000F01E
:101330009CF904F29233C4F88C3304F21E428023E9
:10134000A4F89033C4F81824002340F2145284F80F
:10135000143484F81534A4F81C2484F8343929464C
:101360002346084A04F6381008F0BBFA224606491C
:10137000201D05F011FE27F04DFB204638BD00BFB3
:10138000991500008F140000BF13000010B5054C24
:1013900001462046FFF7BAFF00F0DCFA844200D095
:1013A000FEE710BD80020020D0F88C2300F29233BB
:1013B0009A4203D100F6381008F0BABA7047FFF726
:1013C000F3BF2DE9F8430446051D00F55C764FF0A8
:1013D00002080127284605F007FF94F8143490B15D
:1013E000022B18D1012B21D3022BF3D1304600F070
:1013F0001DF980B994F8343984F81404002BE9D02D
:1014000084F83409E5E7012BEDD194F81514304642
:1014100000F0DEF8F8B1D4F88C1304F29230091A17
:1014200089B291B327F0FEFA78B3FEE7204600F0C8
:1014300097FA08B126F09EFD204600F09BFA00289E
:10144000E9D1304600F0BBF80028E4D1284605F089
:1014500060FF84F81474284605F072FF28B9284606
:1014600005F077FF84F81504CFE794F8C09028467C
:1014700006F08AF8B9F1000F04D094F8C0300BB927
:1014800084F8347984F81484B0E7BDE8F88308B5AB
:1014900000F060FABDE80840FFF793BF00F2923316
:1014A000C0F88C338023A0F8903300F6381008F091
:1014B0003FBA08B500F04EFA18B1BDE80840FFF792
:1014C000EDBF08BD38B504460D4600F043FA38B10B
:1014D0002A46214600F55E70BDE8384000F0CEB8DF
:1014E00038BD0000F0B50C46A1B016461F4600F00E
:1014F0004BFA2346194A1A4D802168463EF0DEF821
:1015000068463EF043F969460246002001F04AF978
:101510000024BC42A0B20ED0292C0BD0A4EB840135
:1015200004EB4400335D2A46803168443EF0C6F83F
:101530000134EEE7204600EB4000C0F18001094A8B
:1015400068443EF0BBF868463EF020F90DF1010119
:10155000421E002001F026F921B0F0BD96050400DE
:10156000AA050400B005040038B5D0F8183400F21C
:101570001E455B1B04469BB251B91A46294601F031
:1015800024F840F21453C4F81854A4F81C3438BD9D
:101590002A46FFF7A7FFF4E7FFF7E6BF838843B1CA
:1015A00003685A1C026019708388013B8380002005
:1015B000704703207047002201608280704708B5A1
:1015C0004FF6FF7383807E210068FFF7E7FF08BDB9
:1015D0007E2938B505460C4600680AD87D2903D215
:1015E000112901D0132906D18388012B08D80320A3
:1015F00005E0F829F7E72146FFF7D0FF40B138BDF5
:101600007D21FFF7CBFF84F020012868FFF7C6FF9C
:10161000AA88054B5440E4B2002033F8143083EA22
:101620001223AB80EBE700BFB40504002DE9F041C5
:1016300086880368F543ADB2E9B204461F68B3F883
:101640000480FFF7C5FF48B9290A2046FFF7C0FF0D
:1016500020B97E212068FFF7A1FF20B123681F6019
:10166000A3F80480A680BDE8F08130B500250570A0
:10167000C0E90112C0E9033530BD00002DE9F8438F
:10168000374E04460D468F184FF00208AF4265D022
:10169000237815F8011B012B24D01BD3022BF5D185
:1016A0006068B0F80490B9F1000F50D0B4F810C0E1
:1016B00081F0200181EA0C02D2B236F8123083EABE
:1016C0001C232382FFF76AFF638A013363820123AD
:1016D0002370DBE77E29D9D1012323704FF6FF73F6
:1016E0002361D3E77D2917D07E2918D06068B0F830
:1016F0000490B9F1000F2AD0B4F810C081EA0C02AE
:10170000D2B236F8123083EA1C232382FFF746FF59
:10171000638A01336382B9E784F80080B6E7638A9D
:10172000002BDBD0012B10D9228A4FF2B8039A424A
:101730000BD163681A68023A1A609A8802329A805A
:101740000021D4E902309847C8E70621F9E7A368E9
:10175000E0680321984784F8009097E7BDE8F88394
:10176000B405040021282CD8DFE800F02E11131551
:101770002B17191B2B2B2B2B1D1F21232B2B2B2B1B
:101780002B2B2B27252B2B2B2B2B2B2B2B290120EA
:1017900070470E2070470B2070470C2070470920BF
:1017A00070470320704702207047042070471120C3
:1017B000704712207047132070471420704715207F
:1017C000704700F580407047002070472DE9F041D8
:1017D0000646044646F8041B4FF40072884600F1A2
:1017E000F901304605F0BDFB0025A66704F17C0336
:1017F00004F19C02C3E9005508339A42FAD1A4F8D7
:101800009C50C4E9285504F1A80005F025FF484B79
:10181000C4F8C830C823A4F8CC3004F1D4074FF67C
:10182000FF73A4F8D030434A84F8C0502346C4F86C
:10183000C45084F8CE5084F8CF504146384608F062
:1018400050F800230022C4E93823C4E93A230423D2
:1018500084F8F030384BC4F8DC501B68C4F8F4301E
:10186000236884F8F85084F8F95284F8FA5284F81E
:10187000FB5284F8385384F8395384F83A5384F887
:101880003B5384F83C5384F83D5384F83E53C4F8EA
:101890004453C4F84853C4F84C53C4F85053C4F8E4
:1018A0005453C4F85853C4F85C53C4F86053C4F894
:1018B0006453C4F8685384F86C5303B9FEE71F4BB4
:1018C0001F491C602246304605F069FB3C2200217E
:1018D00004F53F703DF011FB04F5507006F06FFD0C
:1018E00022461849206806F0BEFB224620681649A9
:1018F00006F0EEFB2068012106F0F3FB2546206888
:10190000002106F0A2FB2068104907F0E1F855F825
:10191000E00B0F49224607F01DF8772200212846E8
:1019200006F060F9384608F003F82046BDE8F0817B
:1019300000F8FF07E51C00009C080400C00B002015
:10194000531D0000095B0000255A000047290000D4
:10195000CB280000014B1868704700BFC00B002067
:1019600090F8F030042B1ABF90F8C00080F001000E
:101970000020704790F8F030012B06BF90F8C000AF
:1019800080F0010000207047D0F85C330133C0F8CC
:101990005C3370472DE9F843994690F83C33044690
:1019A0009046002914BF0F46702713B10D20BDE8E3
:1019B000F88300F1E0053946284606F0A9F9002829
:1019C000F4D194F8FA2294F8FB329A420AD00B220E
:1019D0000021284606F006F904F1D40007F0A8FF1C
:1019E0000320E4E704F178063B46062280213046D6
:1019F00006F0C6F848B91FFA89F24146A06F05F013
:101A000096FD10B9304606F09EF80328CFD1DEE7E8
:101A10000138C0B204289ABF014B185C00207047FF
:101A2000BD070400F8B511F00F0508D1022A04D152
:101A30001A462946E03006F0D5F828460CE090F822
:101A4000FB6290F8FA72F41B0E2C06DDE0300E22D9
:101A5000002106F0C7F80320F8BD90F8F942AC4227
:101A600017D0BE4215D93C460E2C02D90F3CE4B229
:101A7000FAE7BE3400EB840494F804C01CF0100FA5
:101A80000DD00CF00F0EAE4509D16FF3041C84F895
:101A900004C034460E2C05D90F3CE4B2FAE70137F6
:101AA000FFB2DEE7BE3400EB84040136257961F332
:101AB0000305E9B241F0100162F346112171626839
:101AC00063F3DE12626080F8FB620020C4E7134615
:101AD0000222FFF7A7BF38B511F0300F00F17804EC
:101AE00008BFC0F8C420154600230622204606F091
:101AF00047F848B92946204605F08AFF20B9204614
:101B0000BDE8384006F01FB838BD2DE9F74304465C
:101B10000E46014668469146984604F06FF8DDE9A6
:101B200000570DB9F90717D504F178084B4606227E
:101B30003146404606F024F8D8B97B10FA0704EB8A
:101B4000030044BFE3585D59A84790B9404603B02D
:101B5000BDE8F04305F0F7BFB8F1000F07D00D2244
:101B60003146204603B0BDE8F043FFF7B4BF42461C
:101B7000F6E703B0BDE8F08370B50446002694F89C
:101B8000FA5294F8FB32AB4237D0BE3504EB8502F3
:101B90001379D90616D404EB85052B796FF304135A
:101BA0002B7194F8FA320133DBB20F2B84F8FA323E
:101BB000E5D194F8FB3284F8FA620E2B1AD90F3B68
:101BC000DBB2FAE7C3F30301526803F06003402B72
:101BD00041F08001C2F3D71205D12046FFF77BFF09
:101BE0000028D8D070BDB3FA83F35B092046FFF715
:101BF0008CFFF5E784F8FB32C1E70020F2E7000034
:101C00002DE9F04F044685B003F088FFD4E938236E
:101C1000134352D004F1E00005F0E2FF2F4F019092
:101C20000025019AEBB2934247D2D4E93803C5F1BB
:101C3000200103FA01F1A5F1200220FA05FA23FAA6
:101C400002F24AEA010A4AEA020A00230AF0010201
:101C50001343A5F12003C5F12006029301D10135FC
:101C6000DFE70C236B43D919DA5962BB4A68772A3C
:101C700009D12068039226F063F9082898BF184B11
:101C8000039A98BF1A5C80212046FFF724FFA0B971
:101C9000029A012303FA02F923FA06F603FA05F879
:101CA000D4E9382349EA060922EA080023EA0901AF
:101CB00050EA0103C4E93801D1D1012384F86C331F
:101CC00005B0BDE8F08F94F86C33002BE0D0012311
:101CD00080212046FFF719FFD9E700BFA0080400C4
:101CE000B4070400014B1868FFF78ABFC00B00203F
:101CF00010B590F8C030044633B1D0F8F4308B42C0
:101D000004BF002380F8C0302046FFF735FFF8B944
:101D100094F8F81099B101230C222046FFF7F5FE44
:101D2000B0B994F8F03084F8F800042B07D0201DE7
:101D300005F058FA0123C4F8F40084F8C0302046B6
:101D400003F040FE20B92046BDE81040FFF758BF21
:101D500010BDFFF7CDBFF8B500F178040546204669
:101D6000069EBDF81C7005F00BFF50B93A4631468F
:101D7000A86F05F0DCFB20B92046BDE8F84005F06F
:101D8000E2BEF8BD2DE9F04F042B87B004460F46A4
:101D9000924602D0052B16D0FEE7014604A804F0B7
:101DA000E3FFDDE904654FF0070905F0010B9EB97B
:101DB000BBF1000F10D10D2239462046FFF787FEF8
:101DC00007B0BDE8F08F014604A805F021F84FF0F8
:101DD0000809DDE90465E8E704F1A808404605F0D4
:101DE000A7FD0DF10A0203A9404605F04AFD404651
:101DF00005F0A5FD6D10002384F83C336019BBF19C
:101E0000000F01D063599E59B047012384F83C3339
:101E1000054618B1FFF7A6FC0246CDE7BDF80A302B
:101E20000193039B00934A46534639462046FFF7E9
:101E300092FF0028C4D02A46BEE708B50022FFF76B
:101E400046FE08BD38B50446006806F00AF90021D0
:101E5000206806F02AFD0021206806F00DF97222A4
:101E600080212046FFF737FE054648B104F1E00027
:101E70007722002105F0B6FE04F1D40007F058FDEA
:101E8000284638BD30B5C3B004460D46002301A92D
:101E9000A830019305F0D8FC40B1FFF763FC294658
:101EA00002462046FFF717FE43B030BD8DF807010C
:101EB000FF2202A90198783438F07CFE4FF46F536A
:101EC00006222946204605F05BFE0028ECD102A937
:101ED000204605F0D8FD0028E6D1204605F033FE67
:101EE000E2E70021806F05F010BB10B504460068E2
:101EF00006F041F90146A06FBDE8104005F005BBB2
:101F000013B502A90023044641F8043DA83005F0AA
:101F100063FC20B99DF80410206806F030F902B087
:101F200010BD10B50446006826F01CF9002818BF43
:101F30000221A06F08BF0021BDE8104005F0E5BAFE
:101F400037B502A90023054601F8013DA83005F088
:101F50009BFB044650B99DF807301BB1022B08D8F3
:101F6000012100E00146286826F0FEF8204603B073
:101F700030BD0724FAE710B5044654F8780B06F094
:101F80004AF901462046BDE8104005F0E5BC13B50E
:101F900004460DF10601A83005F0A4FB20B9BDF8F8
:101FA0000610206806F03BF902B010BD10B50446DB
:101FB000006806F015F908220146A06FBDE8104040
:101FC00005F0B5BA13B50822044601A9A83005F0FA
:101FD0001AFC18B90199206806F006F902B010BD84
:101FE00010B5044654F8780B06F03AF9014620463D
:101FF000BDE8104005F0B0BC90F83A13806F05F0D2
:1020000084BA13B502A90023044601F8013DA830A3
:1020100005F04AFB18B99DF8073084F83A3302B04E
:1020200010BDF8B505460E460024012707FA04F353
:102030003342E1B204D10134202CF7D1002004E076
:10204000A86F05F062FA0028F5D0F8BD0023F7B5B7
:1020500005460C460B6000F1A8070126B5F8AE2036
:10206000B5F8B0309A420FD00DF10701384605F0AF
:102070000BFB50B99DF807301F2B08D8226806FAD1
:1020800003F313432360E9E7002003B0F0BD07200A
:10209000FBE7D0F8C810FFF7C4BF13B502A90023AF
:1020A00041F8043D0446FFF7D1FF10B9019BC4F885
:1020B000C83002B010BDB0F8CC10783005F04CBC80
:1020C00000F1CC01A83005F00DBB10B50446006846
:1020D00006F034F978B9206806F04AF968B9206842
:1020E00006F02CFC002814BF03210021A06FBDE8DE
:1020F000104005F00ABA0121F8E70221F6E70000D6
:1021000010B586B006A90023044601F8013DA830A9
:1021100005F0BAFA40B99DF81730032B03D8DFE871
:1021200003F029050F190C2006B010BDB4F8CC201F
:102130000094114BD4F8C810206806F0EBF8F3E7D0
:10214000B4F8CC2000940D4BD4F8C810206806F0E9
:10215000FBF8E9E70849019194F8CF10009194F851
:10216000CE30B4F8D0200294D4F8C810206806F01D
:10217000D1FBD9E70020D7E7B1580000155900007E
:102180002DE9F84F0546E03005F02AFDDFF85890BC
:10219000834600244FF00C0A05F17808E3B29B4512
:1021A0001FD9D5E93A23C4F1200022FA04F603FA34
:1021B00000F0A4F1200123FA01F106430E4306F0DA
:1021C00001020023134301D10134E7E70AFB04F3C2
:1021D000404653F8091005F01BFC0028F4D0BDE878
:1021E000F88F0020FBE700BFA0080400F7B500232C
:1021F0000022C0E93A23044600F1A80700F1E006F6
:10220000B4F8AE20B4F8B0309A420BD001A93846E9
:1022100005F0E2FA054648B901220199304605F079
:1022200023FDEDE70025284603B0F0BD012341F270
:10223000080280212046FFF768FCF4E713B5044646
:1022400001A9A83005F0C8FA28B90122019904F1C2
:10225000E00005F009FD02B010BD13B5044601A968
:10226000A83005F0B9FA28B90246019904F1E00056
:1022700005F0FAFC02B010BDD0F8C410783005F0BB
:10228000C7BB10B500F178040421204605F0C0FB5F
:1022900028B920460321BDE8104005F0B9BB10BDA8
:1022A0000321783005F0B4BB0021783005F0B0BBD5
:1022B00010B500F178040521204605F0A9FB00289F
:1022C00048D10C21204605F0A3FB002842D1202153
:1022D000204605F09DFBE8BB3521204605F098FB24
:1022E000C0BB0E21204605F093FB98BB4FF4007154
:1022F000204605F08DFB68BB4FF40271204605F0C7
:1023000087FB38BB4FF40171204605F081FB08BB09
:102310001821204605F07CFBE0B93021204605F06D
:1023200077FBB8B93121204605F072FB90B94FF424
:102330008061204605F06CFB60B940F20341204605
:1023400005F066FB30B9204640F20441BDE810407C
:1023500005F05EBB10BD10B5044605F089FE0146D0
:1023600004F17800BDE8104005F08DBB0121806FBD
:1023700005F0CBB8FFF7B5BD212070470421806F71
:1023800005F0C3B80C20704713B5044669460068D1
:1023900025F030FE08226946A06F05F0C8F802B0AB
:1023A00010BD0221783005F009BC90F8F010806F64
:1023B00005F0ABB873B504460E46A8300DF1070121
:1023C00005F062F9A0BB9DF80730042B07D8012265
:1023D00002FA03F111F01B0F02D14B0703D40323C0
:1023E00084F8F03001E084F8F020002384F8F8301D
:1023F0000C22012331462046FFF787FB94F8F0308A
:10240000042B054608D070B9201D04F0EBFEC4F87B
:10241000F400012384F8C03015B184F8F860002579
:10242000284602B070BD074B1B68C4F8F430F0E7D3
:10243000FFF798F9314602462046FFF74CFB054668
:10244000EEE700BF9C08040010B51C4641F2105393
:102450009A420CD0B2F56F5F06D00C2A0AD1FFF772
:10246000A9FF2070012010BDFFF70CFDF9E700F077
:1024700029FEF6E70020F6E7F0B585B004460D46E4
:102480000026014602A817468DF8076004F036FAC8
:10249000DDE9022303F0010102B9C1B15B1084F848
:1024A0003C63E01809B1E3589A58904701228DF82F
:1024B000070084F83C23C8B93B4629462046FFF76D
:1024C000B1FA8DF807009DF8070005B0F0BD0DF1D9
:1024D00007033A4629462046FFF7B6FF0028F2D107
:1024E0000D2229462046FFF7F2FAEAE7FFF73AF90C
:1024F0000246F6E773B50D4602A9002341F8043DF4
:102500000446A830164605F067F9014650B1FFF7BA
:1025100029F9294602462046FFF7D9FA014608461E
:1025200002B070BDB31E032BF9D8DFE803F0020937
:102530000F0F019B002229462046FFF773FAEDE7B3
:10254000019A29462046FFF797FFE7E73346019AAD
:1025500029462046FFF716FCE0E737B504460D464E
:10256000A83001A905F038F970B9019A0B2A26D8CC
:10257000DFE802F0060C11111111252525161B208C
:1025800029462046FFF759FC03B030BD29462046B6
:10259000FFF758FCF8E729462046FFF7ABFFF3E7C3
:1025A0002946204600F0FCFEEEE72946204600F0D2
:1025B000FBFEE9E72946204600F006FFE4E7052296
:1025C00029462046FFF783FADEE7F7B502AD01237F
:1025D000002700F1A806044680F83C3305F8017D89
:1025E000304605F046F8042384F8F03084F8C070D3
:1025F0002946304605F048F880B99DF807100B06CB
:102600000CD5D4F8603311F0300F03F10103C4F896
:10261000603308D006222046FFF75DFA002384F8D5
:102620003C3303B0F0BD2046FFF797FF38B19DF86B
:102630000710FFF797F802462046FFF748FA94F88C
:10264000FA2294F8FB329A4202D02046FFF794FA1D
:102650009DF8073094F8F92203F00F0332B19A4243
:102660001EBFD4F864230132C4F864230F2B14BFB7
:102670000133012384F8F932D0E700002DE9F0415D
:102680000446E03005F0ACFA0C4E074600254FF04A
:102690000C087834EBB29F420ED908FB05F39A1967
:1026A000127A0AB90135F5E79959204605F0B0F9D3
:1026B0000028F7D0BDE8F0810020FBE7A008040067
:1026C00010B50446006825F049FDC1B2A06FBDE811
:1026D000104004F01ABF10B50446006825F044FF0E
:1026E000C1B2A06FBDE8104004F00FBF13B504469F
:1026F0000DF10701006825F097FD30B99DF807102E
:10270000A06F04F002FF02B010BDFFF72BF80146E6
:1027100004F1780005F052FAF5E713B502A9002399
:10272000044601F8013DA83004F0D0FF20B99DF91E
:102730000710206825F082FD02B010BDFEE7FEE71D
:1027400010B5044605F01DFEFFF762F90146A06FC3
:10275000BDE8104004F0D9BE07B502A9002301F876
:10276000013DA83004F090FF60B99DF80730072BB9
:1027700015D8DFE803F01212040A0A0C0E1001202B
:1027800005F001FE03B05DF804FB0220F8E703202A
:10279000F6E70420F4E70520F2E70020F0E7072041
:1027A000F0E700001346074A10B40446106828B149
:1027B0000A4621465DF8044BFFF7ECB80D205DF8A2
:1027C000044B7047C00B00200822006804F0AFBE25
:1027D000F8B50546087F0C46C0F3C003C0F34001BE
:1027E000C0F3800200F0010000F068FD05F17807F9
:1027F000064621463846FFF7E7FF40BB218A3846A8
:1028000005F0AAF818BBA168384605F0B4F8F0B98D
:10281000E168384605F0AFF8C8B9217DA86F04F02B
:1028200074FEA0B9617DA86F04F06FFE78B9A17D38
:10283000A86F04F06AFE50B93146A86F04F065FE37
:1028400028B9E17DA86FBDE8F84004F05EBEF8BD90
:1028500070B505460C46002936D000F1780641F6E1
:102860000D1306228021304605F08AF960BB21460F
:102870003046FFF7A9FF38BB2189304605F06CF8D8
:1028800010BBA17AA86F04F040FEE8B9E17AA86F06
:1028900004F03BFEC0B9217BA86F04F036FE98B966
:1028A000617BA86F04F031FE70B9A17BA86F04F0C2
:1028B0002CFE48B9E17BA86F04F027FE20B9304612
:1028C000BDE8704005F03FB970BD0B46014618B138
:1028D00013B11846FFF7BCBF7047F8B500F1E0062A
:1028E00004460D4630465221174605F011FA48BB02
:1028F0003B7FDB0626D4C5B1012D23D1082204F18C
:10290000780552238021284605F03AF978B1012351
:10291000304684F83D330B22002105F063F904F1C1
:10292000D400BDE8F84007F003B80722E7E73946CE
:102930002046FFF74DFF0028E9D1284605F003F9AE
:102940000028E4D1F8BD38B50D460446FFF702F87B
:102950002A462146BDE83840FFF7BFBF10B5044600
:10296000006806F017F80146A06FBDE8104004F0BB
:10297000CCBD10B50446006805F01EFF0146A06FEF
:10298000BDE8104004F0C1BDF0B5044689B006466C
:1029900054F8780B05F0E6FF00250746E9B2B94286
:1029A0001AD26A46306806F048F808B10135F5E7F2
:1029B0009DF81C30DB06F9D4204605F07CF848B9B8
:1029C00069463046FFF704FF20B9204605F092F82B
:1029D0000028EBD009B0F0BD0020FBE7F0B50546BC
:1029E00087B0044655F8780B06F044F800260746F1
:1029F00001AAF1B2206806F03FF828B10136F3B21F
:102A00009F42F5D2002044E09DF81430DB07F5D555
:102A1000284605F050F800283BD101A92846FFF7C9
:102A2000D3FEB0BBBDF80C10284604F095FF80BB68
:102A30009DF80E10A06F04F068FD50BB9DF80F10BC
:102A4000A06F04F062FD20BB9DF81010A06F04F091
:102A50005CFDF0B99DF81110A06F04F056FDC0B9EF
:102A60009DF81210A06F04F050FD90B99DF813105E
:102A7000A06F04F04AFD60B99DF81410A06FC1F377
:102A8000400104F042FD20B9284605F033F8002843
:102A9000B4D007B0F0BD2DE9F04304468FB007462F
:102AA000002554F8780BADF8065005F05BFF804622
:102AB0005FFA85F9C14534D206AA4946386805F05F
:102AC000BCFF08B10135F3E79DF83430DB06F9D4DB
:102AD000204604F0F0FFD8B906A92046FFF774FE9F
:102AE000B0B9BDF82810204604F036FF80B90EAE0C
:102AF00026F8320D02AB32464946386805F0A5FF8C
:102B000048B9102202A9B86F04F011FD0028F1D0D5
:102B10000FB0BDE8F083204604F0ECFF0028D1D0D0
:102B2000F6E70020F4E710B50446006805F023FF3F
:102B30000146A06FBDE8104004F0E7BC37B505467C
:102B40000DF10701A83004F0AFFD044620B99DF84F
:102B50000710286805F014FF204603B030BD10B5FB
:102B60000446006805F098FF10220146A06FBDE8FA
:102B7000104004F0DCBC13B5002304460DF1020242
:102B800001A9A830019304F07CFE38B9BDF80230E9
:102B9000102B05D10199206805F083FF02B010BD0C
:102BA0000620FBE710B50446006805F0DBFE014691
:102BB000A06FBDE8104004F0A8BC13B502A9002323
:102BC000044601F8013DA83004F05EFD20B99DF8EF
:102BD0000710206805F0CAFE02B010BD10B504460B
:102BE000006805F0F1FE0146A06FBDE8104004F05A
:102BF0008CBC37B502A90023054601F8013DA83079
:102C000004F042FD044620B99DF80710286805F03D
:102C1000DFFE204603B030BD10B50446006805F065
:102C2000FBFE0146A06FBDE8104004F06EBC37B556
:102C300002A90023054601F8013DA83004F024FD57
:102C4000044620B99DF80710286805F0E9FE2046E3
:102C500003B030BD10B50446006805F0E5FE01463E
:102C6000A06FBDE8104004F050BC37B502A90023A6
:102C7000054601F8013DA83004F006FD044620B9E0
:102C80009DF80710286805F0D3FE204603B030BD3C
:102C900010B5044654F8780B05F084FE0146204632
:102CA000BDE8104004F067BE37B502A90023054611
:102CB00041F8043DA83004F029FD044618B90199F3
:102CC000286805F074FE204603B030BD10B50446F8
:102CD000006805F071FE0146A06FBDE8104004F0E9
:102CE00014BC37B502A90023054601F8013DA83000
:102CF00004F0CAFC044620B99DF80710286805F0C6
:102D00005FFE204603B030BD10B50446006805F0F4
:102D100046F9012808D002280CBF02210021A06F2B
:102D2000BDE8104004F0F1BB0146F8E713B50446D6
:102D30000DF10701A83004F0A7FC48B99DF8073051
:102D40001BB1022B06D0072002E0206805F0D9F85D
:102D500002B010BD206805F0C2F8F9E730B500F107
:102D6000A80485B00546204604F0ABFD58B9B5F877
:102D7000AE20B5F8B0309A4207D0082201A920460B
:102D800004F041FD10B105B030BD0190204604F0C3
:102D9000B8FD0028F7D102A9204604F0B7FC0028AE
:102DA000F1D103A9204604F04FFD0028EBD1DDE965
:102DB00002320199286805F0B6F8E4E737B500F16A
:102DC000A8050446284604F07CFD58B9B4F8AE20A6
:102DD000B4F8B0309A4207D0082201A9284604F07E
:102DE00012FD10B103B030BD0190284604F089FDFA
:102DF0000028F7D10199206805F09AF8F2E713B599
:102E000002A9002321F8023D0446006805F09BF862
:102E1000014628B90021A06F04F077FB02B010BD75
:102E2000BDF80620002AF5D0A06F04F080FB002832
:102E3000F0D0F3E713B5044601A9A83004F004FD6F
:102E400018B90199206805F079F802B010BD10B5E5
:102E5000044654F8780B05F09DF801462046BDE87D
:102E6000104004F079BD30B500F1A80487B00546E4
:102E700004A9204604F04AFCD8B90DF10D01204602
:102E800004F002FCA8B90DF10E01204604F02AFC62
:102E900078B9102205A9204604F0B5FC48B9059977
:102EA0000091BDF80E309DF80D200499286805F0BA
:102EB00052F807B030BD000030B500F1A80489B069
:102EC000054606A9204604F021FC30BB0DF1130194
:102ED000204604F0D9FB00BB05A9204604F002FC03
:102EE000D8B90DF11601204604F0FCFBA8B9102258
:102EF00007A9204604F087FC78B90949029107998F
:102F00000191BDF816100091BDF814309DF8132002
:102F100003950699286805F023F809B030BD00BF75
:102F2000852F00002DE9F04100F178040546884620
:102F300016461F46072241F602038021204604F070
:102F40001FFE58B105F1E0000B22002104F04AFEFB
:102F500005F1D400BDE8F04106F0EABC4146204648
:102F600004F009FD0028EDD13A463146204604F030
:102F70007AFD0028E6D1204604F0E5FD0028E1D1E5
:102F8000BDE8F08110B41C4613460A4601462046AF
:102F90005DF8044BFFF7C6BF30B500F1A80587B058
:102FA00004460DF10E01284604F09CFBA0B904A9CB
:102FB000284604F0ABFB78B9102205A9284604F096
:102FC00022FC48B9054B0093BDF80E100194DDE9D1
:102FD0000423206804F0CFFF07B030BD3930000073
:102FE000F8B500F1780405460F46164641F604038D
:102FF00007228021204604F0C3FD58B105F1E0000E
:103000000B22002104F0EEFD05F1D400BDE8F840EC
:1030100006F08EBC3946204604F09EFC0028EDD117
:103020003146204604F0A7FC0028E7D1204604F0F2
:103030008AFD0028E2D1F8BD13460A46014618462B
:10304000FFF7CEBF13B504460DF1020201A9A83067
:1030500004F022FC40B9BDF80220FF2A06D8D2B203
:103060000199206804F08CFF02B010BD0720FBE737
:1030700030B58BB004460DF1060202A9A83004F069
:103080000BFC70B9BDF80650FF2D0CD801461A2272
:1030900003A83BF032FFEBB2029A206803A904F0C8
:1030A00074FF0BB030BD0720FBE710B50446006885
:1030B00004F075FF831E5942A06F5941BDE81040CE
:1030C00004F023BA37B50D4602A90023044601F8DF
:1030D000013DA83004F0E8FA28B99DF807302068CF
:1030E0005BB904F00EFFFEF73DFB022203462946C2
:1030F0002046FEF797FC03B030BD04F0F0FEF2E787
:103100007FB500F1A8050023064602A92846CDE9AF
:103110000133039304F098FB90B903A9284604F007
:10312000F5FA044660B9082201A9284604F06BFBB1
:1031300000B10194DDE902230199306804F0F3FE47
:1031400004B070BD37B505460DF10701A83004F095
:103150009BFA044620B99DF80710286805F01EFC6C
:10316000204603B030BD90F83E13806F04F0CDB917
:1031700010B500F23E310446A83004F085FA30B9AB
:1031800094F83E132068BDE8104005F0FEBB10BD6A
:1031900037B504460DF10701A83004F075FA05466D
:1031A00038B99DF80710206805F016FC0D2808BFF7
:1031B000284603B030BD70B5044686B0002600F145
:1031C000780501AAF1B2206805F05EFC10BB9DF8FD
:1031D0001730DB0701D40136F3E7284604F06BFC17
:1031E000B0B9102201A9A06F04F0A1F980B9BDF80F
:1031F0001410284604F0B0FB50B99DF81610A06FCB
:1032000004F083F920B9284604F074FC0028E2D0C9
:1032100006B070BD0020FBE710B5044654F8780BEB
:1032200004F04BFE01462046BDE8104004F094BB7C
:1032300037B505460DF10601A83004F053FA0446EF
:1032400020B9BDF80610286804F03BFE204603B004
:1032500030BD437C13F0040F14BF20200020190759
:1032600048BF40F01000DA0648BF40F00800590699
:1032700048BF40F002009A0648BF40F00400DA0957
:1032800043F3010318BF40F00100DBB240EA8310B2
:10329000C0B2704704F039B9002204F0A3BC0A465A
:1032A000002104F09FBC082204F0ADBAC9B2006846
:1032B00004F02BB91022006804F039B900280CBFC3
:1032C0000020082009B140F004000AB140F00200DB
:1032D0000BB140F00100704710B5044654F8780B6C
:1032E00004F0B4FF01462046BDE8104004F043BBA3
:1032F00013B5044601A9A83004F008FA18B90199D9
:10330000206804F0A8FF02B010BD10B5044654F8C0
:10331000780B04F065FF01462046FFF755FA10BD13
:1033200010B50446006804F026FFB0B10A280CD896
:103330004FF4FA61414301F55C2101F5346104F178
:103340007800BDE8104004F016BB192807D80549DD
:1033500041F2883303FB0011F1E70349EFE7002155
:10336000EDE700BFB0DB2300CC3F0D0010B50446F5
:10337000006804F01EFF01462046BDE81040FEF73D
:1033800050BE13B502A9002341F8043D0446FEF7E0
:103390005DFE18B90199206804F00FFF02B010BD5E
:1033A00002231A46FEF73EBB70B5044600680D4680
:1033B00004F05CFEFEF7D6F92946034602222046B9
:1033C000BDE87040FEF72EBBFFF7EABF10B504461C
:1033D000006804F0F1FD0146A06FBDE81040FFF762
:1033E00059BF10B50446006804F052FE0146A06FB4
:1033F000BDE81040FFF74EBF13B502A900230446F5
:1034000001F8013DA83004F04FF920B99DF80710EC
:10341000206804F031FE02B010BD10B5044600680B
:1034200005F0BEF9011C18BF0121A06FBDE81040D6
:10343000FFF730BF73B502A90023054601F8013D2F
:10344000A83004F031F9044688B928689DF807606F
:1034500005F0A6F9003018BF0120B04207D09DF852
:103460000730286833B1012105F01FFA04462046D1
:1034700002B070BD2146F7E710B50446006805F0BC
:103480008FF90238C0B2022896BF044B0021195CA4
:10349000A06FBDE8104004F038B800BFC5070400B5
:1034A00013B502A90023044641F8043DA83004F0F6
:1034B00093F948B9019B032B06D8DFE803F0020F0C
:1034C000070B206805F058F902B010BD206805F020
:1034D0008CFAF9E7206805F09AFAF5E7206805F01C
:1034E00050F9F1E710B5044654F8780B05F017F9D8
:1034F00001462046BDE8104004F0C5BA37B502A920
:103500000024054641F8044DA83004F09DF928B97F
:103510000199286805F007F903B030BD2046FBE7A4
:1035200010B50446006805F03FF808220146A06F78
:10353000BDE8104003F0FBBF13B5002304460DF1B6
:10354000020201A9A830019304F09BF938B9BDF833
:103550000230082B05D10199206805F029F802B046
:1035600010BD0620FBE710B50446006805F092F890
:1035700010220146A06FBDE8104003F0D8BF13B57C
:10358000002304460DF1020201A9A830019304F0C2
:1035900078F938B9BDF80230102B05D101992068AF
:1035A00005F07DF802B010BD0620FBE710B504461B
:1035B00054F8780B05F0CFF801462046BDE81040DE
:1035C00004F0D9B937B5054601A9A83004F09EF832
:1035D000044618B90199286805F0C1F8204603B0DF
:1035E00030BD10B5044654F8780B05F0EDF80146EF
:1035F0002046BDE8104004F0BEB910B5044654F8AA
:10360000780B05F0B1F801462046BDE8104004F003
:10361000B2B937B5054601A9A83004F077F80446D9
:1036200018B90199286805F0A3F8204603B030BD09
:1036300010B50446006804F092FF0146A06FBDE893
:10364000104003F062BF10B50446006804F08FFF1D
:103650000146A06FBDE8104003F057BF10B5C2B0DF
:103660000446FF238DF8073002AA0DF1070300215D
:10367000006804F0B6FB9DF80720A06F02A903F0D4
:1036800056FF42B010BD10B5C2B00446FF238DF8FE
:10369000073002AA0DF107030121006804F0A1FB25
:1036A0009DF80720A06F02A903F041FF42B010BDB2
:1036B00010B5C2B00446FF238DF8073002AA0DF101
:1036C00007030021006804F02AFF9DF80720A06F7F
:1036D00002A903F02CFF42B010BD10B5C2B00446E1
:1036E000FF238DF8073002AA0DF1070301210068BE
:1036F00004F015FF9DF80720A06F02A903F017FF43
:1037000042B010BD10B50446006805F04DF8014602
:10371000A06FBDE8104003F0F8BE1FB5044669462F
:1037200054F8780B04F06FFF28B969462046FFF77C
:10373000C1FD04B010BDFEF715F80146204604F0A7
:103740003DFAF6E730B5044687B0054601A954F8BE
:10375000780B05F048F800283CD19DF814309B0701
:1037600033D50DF10201286805F07AF80DF1030157
:10377000286805F088F801A92046FFF725F810BB56
:10378000BDF80C10204604F0E7F8E0B99DF81310DE
:10379000204604F0F0F8B0B99DF902102046FFF77A
:1037A00085FD80B99DF903102046FFF77FFD50B9D4
:1037B0009DF81110A86F03F0A8FE20B99DF8121013
:1037C000A86F03F0A2FE07B030BD1421204604F01C
:1037D000F5F9F8E7FDF7C6FF0146F7E770B58AB0DF
:1037E00000230546ADF8023000F1780401AA0DF17E
:1037F0000201286804F0CBFF002852D19DF8240074
:10380000C0F3C003C0F38002C0F3400100F0010028
:10381000FFF754FD0646204604F04DF900283ED13E
:1038200001A92046FEF7D0FF002838D1BDF81010BE
:10383000204604F091F890BB0399204604F09BF8D1
:1038400068BB9DF81C10A86F03F05FFE38BB9DF9A4
:103850001D102046FFF72AFD08BB3146A86F03F074
:1038600054FEE0B99DF82410A86FC1F30011FFF7D2
:1038700011FDA0B90599204604F07DF878B90699A4
:10388000204604F078F850B99DF91E102046FFF745
:103890000DFD20B9204604F02DF90028A6D00AB06D
:1038A00070BD0020FBE730B58BB000230546ADF8B6
:1038B000023000F1780401AA0DF10201286804F039
:1038C00066FF68BB204604F0F6F838BB01A9204625
:1038D000FEF77AFF10BBBDF81010204604F03CF84C
:1038E000E0B9BDF82010204604F036F8B0B9BDF8B4
:1038F0002210204604F030F880B99DF91D102046B2
:10390000FFF7D4FC50B99DF91E102046FFF7CEFCFE
:1039100020B9204604F0EEF80028CCD00BB030BD22
:103920000020FBE737B5044602A9002301F8013D5A
:1039300054F8780B04F0F5FB851E9DF8070058B18C
:1039400035F8021F204604F007F828B99DF8073023
:10395000013B8DF80730F0E703B030BD73B5064684
:10396000044656F8A80B04F0D7FBB4F8B030B4F80E
:10397000AE209B1A9BB2012B16D90DF106013046E1
:1039800003F0B0FE80B9BDF80610206804F0BAFB61
:1039900005460028E9D001235C2280212046FEF75D
:1039A000B4F8284602B070BD0025FAE790F8381345
:1039B000806FFFF76FBC37B502A90023044601F8FA
:1039C000013DA83003F070FE054630B994F8382365
:1039D0009DF8073022B984F83833284603B030BD4B
:1039E000002BFAD184F83803206804F061FAF4E778
:1039F00030B589B000230446019300F1780502AA8E
:103A000001A9206804F099FD80BB284604F053F812
:103A100050BB02A92846FFF74DFC28BB9DF81810A3
:103A2000A06F03F072FDF8B99DF81A10A06F01F0B5
:103A30000101FFF72FFCB8B902A8FFF70AFC014605
:103A4000A06F03F062FD78B90146A06F03F05DFD41
:103A500050B9BDF81C10284603F07EFF20B9284657
:103A600004F048F80028CAD009B030BD0023019303
:103A700004F1780502AA01A9206804F0F1F90028F0
:103A800036D1284604F017F80028EDD102A92846BF
:103A9000FFF710FC0028E7D19DF81810A06F03F085
:103AA00034FD0028E0D19DF81A10A06F01F001014B
:103AB000FFF7F0FB0028D7D102A8FFF7CAFB0146A9
:103AC000A06F03F022FD0028CED10121A06F03F0EA
:103AD0001CFD0028C8D1BDF81C10284603F03CFF8F
:103AE0000028C1D1284604F005F80028C2D0BBE761
:103AF0000020B9E730B5044689B00021182202A899
:103B00008DF805108DF806103BF0F7F994F838336E
:103B1000002B4AD004F1A80502A9284603F081FE33
:103B2000002840D10DF10701284603F0ADFDD0BBC0
:103B30000DF10501284603F0B7FDA0BB0DF106010C
:103B4000284603F0A1FD70BB9DF807309DF80520C5
:103B50008DF818309DF81A30206862F300039DF844
:103B600006208DF81A309DF81930910961F3010390
:103B7000C2F3401161F38203C2F3001161F3C30386
:103B8000C2F3C00161F30413C2F3800161F3451372
:103B9000C2F3400161F3861362F3C71302A98DF8E3
:103BA000193004F02CF909B030BD0D20FBE730B519
:103BB000044687B01122002101A83BF09EF994F839
:103BC0003833D3B104F1A80501A9284603F029FE32
:103BD00088B928460DF1030103F056FD054650B99A
:103BE0009DF8033020688DF8143001A904F032F9F3
:103BF000172808BF284607B030BD0D20FBE790F816
:103C0000CE10806FFFF746BB00F1CE01A83003F065
:103C10004BBD90F8CF10806FFFF73CBB00F1CF0198
:103C2000A83003F041BDB0F8D010783003F094BE56
:103C300000F1D001A83003F055BD7FB591F8643094
:103C4000DB0705460C4600F14F8194F864309E076F
:103C50001DD505F17806304603F02DFF002840F011
:103C6000498141F21D51304603F0D2FE002840F058
:103C70004181D4E90223304603F098FE002840F049
:103C80003981304603F036FF002840F0338194F844
:103C9000643058071CD505F17806304603F00BFF59
:103CA000002840F027814621304603F0B1FE00286D
:103CB00040F020811022A118A86F03F038FC0028E2
:103CC00040F01881304603F015FF002840F01281C3
:103CD00094F8643019071CD505F17806304603F0D6
:103CE000EAFE002840F006814421304603F090FEB1
:103CF000002840F0FF8004F12001304603F0C3FEAD
:103D0000002840F0F780304603F0F4FE002840F031
:103D1000F18094F86430DA061DD505F17806304656
:103D200003F0C9FE002840F0E5804521304603F04D
:103D30006FFE002840F0DE80082204F13101A86FF8
:103D400003F0F5FB002840F0D580304603F0D2FEAA
:103D5000002840F0CF8094F864309B062BD5224693
:103D60006B4652F8390F516805F1780603C30023FA
:103D70003046CDE9023303F09EFE002840F0BA80C1
:103D80006221304603F044FE002840F0B3806946CB
:103D90003046FFF78FFA002840F0AD804021A86F31
:103DA00003F0B3FB002840F0A680304603F0A2FEEB
:103DB000002840F09F8094F864305E0600F1B280E5
:103DC00094F86430DB091AD005F17806304603F028
:103DD00072FE002840F08E803621304603F018FE37
:103DE000002840F08780B4F84810304603F0B4FD56
:103DF00000287FD1304603F07DFE00287AD194F868
:103E00006530D80718D505F17806304603F053FE23
:103E100000286FD12121304603F0FAFD002869D136
:103E200094F84A10A86F03F070FB002862D1304666
:103E300003F060FE00285DD194F86530990719D52C
:103E400005F17806304603F036FE002852D14B21AA
:103E5000304603F0DDFD00284CD1102204F14C0166
:103E6000A86F03F064FB002844D1304603F042FE03
:103E700000283FD194F865305A071BD505F1780624
:103E8000304603F018FEA8BB41F21F51304603F044
:103E9000BFFD78BBB4F85C10304603F05DFD48BB55
:103EA00094F85E10A86F03F030FB18BB304603F0A7
:103EB00021FEF8B994F865301B071BD505F178068B
:103EC000304603F0F8FDA8B92221304603F0A0FDEA
:103ED00080B9216E2846FEF7A4F8044650B9304652
:103EE00003F008FE204606E000F17806304603F0B5
:103EF000E2FD10B1002004B070BD41F21C5130460B
:103F000003F086FD0028F5D1D4E90023304603F004
:103F10004DFD0028EED1304603F0ECFD00283FF4C3
:103F200094AEE7E705F17806304603F0C4FD0028BB
:103F3000E0D141F21E51304603F06AFD0028D9D18C
:103F4000616C304603F017FD0028D3D1304603F0F2
:103F5000D1FD00283FF434AFCCE710B59AB0044649
:103F60006946006804F020F869462046FFF765FEC0
:103F70001AB010BD10B59AB004466946006804F046
:103F80003CF869462046FFF758FE1AB010BD2DE9EF
:103F9000F04F0C4687B09046054668220021204627
:103FA0009946DDF840A09DF844703AF0A6FFB8F1BC
:103FB000000F02D00023C8F80030B9F1000F02D082
:103FC000002389F80030BAF1000F02D00023CAF8AC
:103FD000003005F1A8064FF0010BB5F8AE20B5F89A
:103FE000B0309A4200F0D381304603F06AFC0028DA
:103FF00040F0A98004A9304603F0EEFB002840F011
:10400000A280049B4B2B00F03A8137D8362B00F06E
:1040100009810BD8212B00F01981222B00F06F8130
:10402000304603F06EFC0028D7D08CE0452B00F022
:10403000C580462B00F09E80442BF1D12FB1B5F8FE
:10404000AE20B5F8B0309A4213D005A9304603F03F
:10405000FBFB002877D10599019108463BF096FBC0
:10406000102800F29281421C019904F120003AF0DC
:1040700020FF94F8643043F008035BE041F21E52E5
:10408000934200F0BB802CD841F21C52934246D0A0
:104090005CD8622BC4D12FB1B5F8AE20B5F8B030E2
:1040A0009A4219D0102205A9304603F0ACFB002833
:1040B00049D10DF10E01304603F0E6FA002842D155
:1040C0009DF80E30402B40F06081059A1368C4F8CB
:1040D00039305368C4F83D3094F8643043F020031D
:1040E00028E0B3F5A95F00F02E81C0F0EC8041F22A
:1040F0002752934294D12FB1B5F8AE20B5F8B03025
:104100009A428DD0102205A9304603F07CFBD0B92D
:10411000BAF1000F84D0059BCAF8003080E767B180
:10412000B5F8AE20B5F8B0309A4206D194F86430B4
:1041300043F0010384F8643072E72146304603F00F
:10414000FDFA0028F2D007B0BDE8F08F57B1B5F8FE
:10415000AE20B5F8B0309A4204D194F8643043F000
:104160000203E7E704F10801304603F0E7FA00280C
:10417000F3D0E8E72FB1B5F8AE20B5F8B0309A42E9
:1041800017D00DF10E0205A9304603F07AFB002886
:10419000D9D1BDF80E30102B40F0F780059B04F10B
:1041A000100203F1100153F8040B42F8040B8B4288
:1041B000F9D194F8643043F00403BBE72FB1B5F8AC
:1041C000AE20B5F8B0309A4213D00DF10E0205A919
:1041D000304603F056FB0028B5D1BDF80E30082B51
:1041E00040F0D380059A1368C4F831305368C4F89E
:1041F000353094F8643043F010039BE757B1B5F8BD
:10420000AE20B5F8B0309A4204D194F8643043F04F
:1042100040038FE704F14401304603F077FA0028A9
:10422000F3D090E757B1B5F8AE20B5F8B0309A4268
:1042300004D194F8643043F080037BE704F1480133
:10424000304603F04FFA0028F3D07CE72FB1B5F8E1
:10425000AE20B5F8B0309A420AD005A9304603F036
:1042600013FA00287FF46FAF9DF81430A4F84A3099
:1042700094F8653043F0010384F86530D0E62FB13F
:10428000B5F8AE20B5F8B0309A4217D00DF10E0255
:1042900005A9304603F0F5FA00287FF454AFBDF8C5
:1042A0000E30102B71D1059B04F14C0203F110016B
:1042B00053F8040B42F8040B8B42F9D194F86530A3
:1042C00043F00203D8E757B1B5F8AE20B5F8B030E7
:1042D0009A4204D194F8653043F00403CCE704F12A
:1042E0005C01304603F0FEF900287FF42CAF04F1A6
:1042F0005E01304603F0C8F90028EBD023E72FB168
:10430000B5F8AE20B5F8B0309A4217D00023236636
:10431000B5F8AE20B5F8B0309A420FD005A93046B6
:1043200003F0B2F900287FF40EAF9DF814301F2B74
:104330002BD8226E0BFA03F31343E8E794F86530A9
:1043400043F0080398E737B1B5F8AE20B5F8B030C0
:104350009A423FF465AE0DF10E0205A9304603F016
:1043600090FA00287FF4EFAEBDF80E30FF2B0CD88A
:10437000B8F1000F02D0059AC8F80020B9F1000F7B
:104380003FF44EAE89F800304AE60720DBE6002015
:10439000D9E610B500239CB0CDE900331A4602A936
:1043A0000446FFF7F4FD18B902A9206803F01DFECA
:1043B0001CB010BD10B500239CB0CDE900331A46E7
:1043C00002A90446FFF7E3FD18B902A9206803F02B
:1043D0001CFE1CB010BD10B500239EB0CDE900330B
:1043E00003AA0DF10B0304A90446FFF7D0FD30B971
:1043F0009DF80B30039A206804A903F013FE1EB049
:1044000010BD10B500239EB0CDE9003303AA0DF115
:104410000B0304A90446FFF7BAFD30B99DF80B3031
:10442000039A206804A903F007FE1EB010BD10B562
:10443000A0B00123019305AB009304AA0DF10F0373
:1044400006A90446FFF7A3FD40B9059A00929DF81E
:104450000F30049A20681FA903F0DFFD20B010BDC3
:1044600010B5A0B00123019305AB009304AA0DF190
:104470000F0306A90446FFF78AFD40B9059A00928A
:104480009DF80F30049A20681FA903F0D0FD20B0DA
:1044900010BD10B50446006803F055FE0146A06F3C
:1044A000BDE8104003F031B830B500F1A8058BB07D
:1044B000002304460DF11F0128468DF81F30CDE979
:1044C000083303F0F1F8D8B908A9284603F0BCF97D
:1044D000B0B909A9284603F0B7F988B99DF81F308B
:1044E00025687BB1094B0494CDE90203084B019385
:1044F000084B0093DDE90812074B284603F016FE2F
:104500000BB030BD284603F016FEF9E759590000FC
:10451000D9070400F2070400CE0704001FB50446C3
:10452000006804F0DBF8034680B1596800686A4609
:1045300003C20023694604F17800CDE90233FEF797
:10454000B9FE18B94021A06F02F0DFFF04B010BD22
:1045500037B500F1A8050446102201A9284603F04A
:1045600052F968B90DF10301284603F08DF838B906
:104570009DF80330402B05D10199206804F0B2F872
:1045800003B030BD0720FBE710B50446006804F017
:10459000A1F820B1014604F17800FEF78BFE10BDB2
:1045A00010B50446006804F0B6F820B1014604F1E5
:1045B0007800FEF77FFE10BD70B50546064655F83B
:1045C000780B03F069FD04460CB3284603F073FA38
:1045D000F0B921462846FEF76DFEC8B9217CB06FC0
:1045E00002F093FFA0B9617C284641F3000103F07B
:1045F000C2F968B9617C284641F3400103F0BBF978
:1046000030B9284603F076FA10B96469DCE7204631
:1046100070BD30B500F1A80489B0054602A9204656
:1046200003F0FFF810BB06A9204603F02DF8E8B907
:104630006946204603F06AF8C0B901A9204603F094
:1046400065F898B9009B28681A1C9DF8193018BFA6
:10465000012262F30003019A003218BF012262F3C3
:10466000410302A98DF8193003F01AFD09B030BDDD
:1046700037B50446102201A9A83003F0C4F8054656
:1046800030B90199206803F010FD172808BF2846AB
:1046900003B030BD0221783003F090BA10B5044663
:1046A000006803F0CEFC011C18BF0121A06FBDE81B
:1046B0001040FEF7EFBD37B502A90023054601F80B
:1046C000013DA83002F0F0FF044640B99DF80730E4
:1046D0002868002B14BF0321002103F0B6FC2046FC
:1046E00003B030BD38B5054655F8780B03F0E2FC51
:1046F000044674B1284603F0DEF958B9214628462D
:10470000FEF7D8FD30B9284603F0F4F910B9246952
:10471000EFE7204638BD37B50446102201A9A8307E
:1047200003F071F8054630B90199206803F0C6FC22
:10473000182808BF284603B030BD37B504461022FC
:1047400001A9A83003F05FF8054630B90199206847
:1047500003F0B9FC172808BF284603B030BD00009D
:1047600010B50446006803F06CFC0138C0B20228A2
:1047700096BF044B0021195CA06FBDE8104002F009
:10478000C4BE00BFC807040037B505460DF10701D8
:10479000A83002F079FF044658B99DF80730013B74
:1047A000DBB2022B96BF044A0146D15C286803F0B5
:1047B0004CFC204603B030BDCB07040010B50446C6
:1047C000006803F08AFC80F00101C9B2A06FBDE867
:1047D0001040FEF75FBD37B502A90023054601F87A
:1047E000013DA83002F060FF044630B99DF8071083
:1047F000286881F0010103F074FC204603B030BD4D
:1048000070B588B00023504E0193044602AA01A956
:10481000206803F09BFE002841D104F1780528466A
:1048200003F049F9002838D102A92846FEF742FDD5
:1048300098BB9DF81810A06F02F067FE68BB9DF84A
:104840001C10A06FC1F38001FEF724FD28BB9DF86A
:104850001C3043F301035BB20133022B8CBF0146D2
:10486000F15CA06F02F051FEB8B90146A06F02F0F2
:104870004CFE90B99DF81C10A06FC1F3C001FEF76B
:1048800009FD50B9BDF81A10284603F065F820B9A3
:10489000284603F02FF90028B8D008B070BD0023D7
:1048A000294E019304F1780502AA01A9206803F0BA
:1048B000F6FA002845D1284603F0FDF80028ECD18F
:1048C00002A92846FEF7F6FC0028E6D19DF818104C
:1048D000A06F02F01AFE0028DFD19DF81C10A06F17
:1048E000C1F38001FEF7D6FC0028D6D19DF81C301C
:1048F00043F301035BB20133022B8CBF0146F15C31
:10490000A06F02F002FE0028C7D10121A06F02F0C3
:10491000FCFD0028C1D19DF81C10A06FC1F3C0019F
:10492000FEF7B8FC0028B8D1BDF81A10284603F0ED
:1049300013F80028B1D1284603F0DCF80028B3D0E2
:10494000ABE70020A9E700BFC207040030B5054669
:1049500089B00021182202A88DF805108DF80610E4
:104960003AF0CBFA95F83833002B3DD005F1A80486
:1049700002A9204602F055FF90BB0DF10701204629
:1049800002F082FE60BB0DF10501204602F08CFEB4
:1049900030BB0DF10601204602F076FE00BB9DF80B
:1049A00007308DF818309DF805209DF81C3062F313
:1049B00082038DF81C309DF8063003F0C003402BB5
:1049C00010D0C02B0CBF4FF0FF3200229DF81C30DE
:1049D000286862F3010302A98DF81C3003F049FA3C
:1049E00009B030BD0122F1E70D20F9E730B50446EA
:1049F00087B01122002101A83AF07FFA94F83833E9
:104A0000D3B104F1A80501A9284602F00AFF88B92C
:104A100028460DF1030102F037FE054650B99DF816
:104A2000033020688DF8143001A903F032FA1728FA
:104A300008BF284607B030BD0D20FBE730B500F1B8
:104A4000A80585B00023044601AA02A928460293BE
:104A5000ADF804300393ADF8063002F01DFFD8B96D
:104A60000DF1060203A9284602F00BFFA0B9034688
:104A70000299BDF80420206803F03FFB014650B1C5
:104A8000206803F032FB38B9D4F844330133C4F85A
:104A9000443305B030BD0320D4F858330133C4F893
:104AA0005833F6E710B5044654F8780B03F00EFAC5
:104AB00001462046BDE8104002F04EBF37B505461E
:104AC0000DF10601A83002F00DFE044620B9BDF834
:104AD0000610286803F0FEF9204603B030BD10B57B
:104AE000044654F8780B03F048FC01462046BDE824
:104AF000104002F031BF10B5044654F8780B03F0B3
:104B000005FC01682046BDE8104002F034BF10B536
:104B1000044654F8780B03F0F9FBC1682046BDE861
:104B2000104002F028BF10B5044654F8780B03F08B
:104B3000EDFB01692046BDE8104002F01CBF10B536
:104B4000044654F8780B03F0E1FB41692046BDE8C8
:104B5000104002F010BF10B5044654F8780B03F073
:104B6000D5FB81692046BDE8104002F004BF10B5B6
:104B7000044654F8780B03F0C9FBC1692046BDE830
:104B8000104002F0F8BE10B5044654F8780B03F05C
:104B9000BDFB016A2046BDE8104002F0ECBE10B536
:104BA000044654F8780B03F0B1FB416A2046BDE897
:104BB000104002F0E0BE10B5044654F8780B03F044
:104BC000A5FB816A2046BDE8104002F0D4BE10B5B6
:104BD000044654F8780B03F099FBC16A2046BDE8FF
:104BE000104002F0C8BE10B5044654F8780B03F02C
:104BF0008DFB016B2046BDE8104002F0BCBE10B535
:104C0000044654F8780B03F081FB41682046BDE868
:104C1000104002F0B0BE10B5044654F8780B03F013
:104C200075FB81682046BDE8104002F0A4BE10B5B7
:104C3000044654F8780B03F069FB416B2046BDE84D
:104C4000104002F098BE10B5044654F8780B03F0FB
:104C50005DFBC16B2046BDE8104002F08CBE10B574
:104C6000044654F8780B03F051FB816C2046BDE8F4
:104C7000104002F080BE10B5044654F8780B03F0E3
:104C800045FBC16C2046BDE8104002F074BE10B573
:104C9000044654F8780B03F039FB016D2046BDE85B
:104CA000104002F068BE10B5044654F8780B03F0CB
:104CB0002DFB416D2046BDE8104002F05CBE10B5F2
:104CC000044654F8780B03F021FB816D2046BDE8C3
:104CD000104002F050BE10B5044654F8780B03F0B3
:104CE00015FBC16D2046BDE8104002F044BE10B572
:104CF000044654F8780B03F009FB016E2046BDE82A
:104D0000104002F038BE10B5044654F8780B03F09A
:104D1000FDFA416E2046BDE8104002F02CBE10B5F1
:104D2000044654F8780B03F0F1FA016C2046BDE814
:104D3000104002F020BE10B5044654F8780B03F082
:104D4000E5FA416C2046BDE8104002F014BE10B5F3
:104D5000044654F8780B03F0D9FA816E2046BDE87A
:104D6000104002F008BE10B5044654F8780B03F06A
:104D7000CDFAC16E2046BDE8104002F0FCBD10B572
:104D8000044654F8780B03F0C1FA016F2046BDE8E1
:104D9000104002F0F0BD10B5044654F8780B03F053
:104DA000B5FA416F2046BDE8104002F0E4BD10B5F1
:104DB000044654F8780B03F0A9FA816F2046BDE849
:104DC000104002F0D8BD10B5044654F8780B03F03B
:104DD0009DFAC16F2046BDE8104002F0CCBDD0F86E
:104DE0004413783002F0C7BDD0F84813783002F091
:104DF000C2BDD0F85813783002F0BDBDD0F84C13C6
:104E0000783002F0B8BDD0F85013783002F0B3BD5E
:104E1000D0F85413783002F0AEBDD0F86813783073
:104E200002F0A9BDD0F86013783002F0A4BDD0F82C
:104E30005C13783002F09FBD10B5044654F8780B2F
:104E400003F080FD01682046BDE8104002F093BDEC
:104E500010B5044654F8780B03F074FD4168204601
:104E6000BDE8104002F087BD10B5044654F8780B39
:104E700003F068FD81682046BDE8104002F07BBD6C
:104E800010B5044654F8780B03F05CFDC168204669
:104E9000BDE8104002F06FBD10B504468AB054F86A
:104EA000780B694603F0A6FABDF80010204602F020
:104EB00053FD00285CD1BDF80210204602F04CFDE5
:104EC000002855D1BDF80410204602F045FD002809
:104ED0004ED1BDF80610204602F03EFD002847D115
:104EE000BDF80810204602F037FD002840D1BDF87B
:104EF0000A10204602F030FDD0BBBDF80C10204651
:104F000002F02AFDA0BBBDF80E10204602F024FDE1
:104F100070BBBDF81010204602F01EFD40BBBDF86E
:104F20001210204602F018FD10BBBDF814102046E8
:104F300002F012FDE0B9BDF81610204602F00CFD9B
:104F4000B0B9BDF81810204602F006FD80B9BDF8D2
:104F50001A10204602F000FD50B9BDF81C10204682
:104F600002F0FAFC20B9BDF81E10204602F0F4FC55
:104F700000200AB010BD38B5044654F8780B03F091
:104F8000C5F9054628B920461521BDE8384002F08C
:104F900015BE204602F08FFD002840F0D080296821
:104FA000204602F0E8FC002840F0C98069682046ED
:104FB00002F0E1FC002840F0C280A968204602F01F
:104FC000DAFC002840F0BB80E968204602F0D3FC00
:104FD000002840F0B4802969204602F0CCFC00286B
:104FE00040F0AD806969204602F0C5FC002840F021
:104FF000A680A969204602F0BEFC002840F09F80F0
:10500000E969204602F0B7FC002840F09880296A40
:10501000204602F0B0FC002840F09180696A2046EA
:1050200002F0A9FC002840F08A80A96A204602F01C
:10503000A2FC002840F08380E96A204602F09BFC35
:1050400000287CD1296B204602F095FC002876D1FF
:10505000696B204602F08FFC002870D1A96B2046B6
:1050600002F089FC00286AD1204602F043FD0028A6
:1050700065D1204602F01FFD002860D1E96B204673
:1050800002F079FC00285AD1296C204602F073FC0A
:10509000002854D1696C204602F06DFC00284ED1E6
:1050A000A96C204602F067FC002848D1E96C204634
:1050B00002F061FC002842D1296D204602F05BFC21
:1050C00000283CD1696D204602F055FC002836D1FD
:1050D000A96D204602F04FFC88BBE96D204602F026
:1050E0004AFC60BB296E204602F045FC38BB696E65
:1050F000204602F040FC10BBA96E204602F03BFCAB
:10510000E8B9E96E204602F036FCC0B9296F2046A6
:1051100002F031FC98B9696F204602F02CFC70B99E
:10512000A96F204602F027FC48B9E96F204602F03B
:1051300022FC20B92046BDE8384002F0DBBC38BD77
:1051400038B5044654F8780B03F000FC054628B93E
:1051500020461521BDE8384002F030BD01882046C8
:1051600002F0FAFB40BB6988204602F0F5FB18BB51
:10517000A988204602F0F0FBF0B9E988204602F049
:10518000EBFBC8B92989204602F0E6FBA0B9698982
:10519000204602F0E1FB78B9A989204602F0DCFB49
:1051A00050B9E989204602F0D7FB28B9298A204660
:1051B000BDE8384002F0D0BB38BD30B585B0002323
:1051C00005468DF8033000F1780401AA0DF10301C2
:1051D000286803F067F8A8B9204602F06CFC78B99B
:1051E00001A92046FDF7F0FA50B99DF90C102046B0
:1051F000FEF75CF820B9204602F07CFC0028E4D0E1
:1052000005B030BD0020FBE710B50446006803F090
:105210002BF8431E5942A06F5941BDE81040FEF7DC
:1052200039B830B585B0002305468DF8033000F15C
:10523000780401AA0DF10301286803F033F878B966
:10524000204602F038FC48B901A92046FDF7BCFA17
:1052500020B9204602F04EFC0028EAD005B030BD4F
:105260000020FBE710B50446006802F0FDFF831E36
:105270005942A06F5941BDE81040FEF70BB830B558
:1052800085B0002305468DF8033000F1780401AAAB
:105290000DF10301286803F01DF8A8B9204602F0BB
:1052A0000AFC78B901A92046FDF78EFA50B99DF99C
:1052B0000C102046FDF7FAFF20B9204602F01AFC38
:1052C0000028E4D005B030BD0020FBE7F7B5064666
:1052D000054656F8A80B02F0E0FF0027B5F8AE200F
:1052E000B5F8B0309A4240D03046019702F0E9FA62
:1052F000044690B901A93046FDF7D5FF044660B9D0
:10530000B5F8AE20B5F8B0309A4210D00DF10301D7
:10531000304602F0DBF9044660B101234FF49852A5
:1053200080212846FCF7F1FB204603B0F0BD7F2327
:105330008DF80330304602F0E4FA04460028ECD140
:105340000199286802F099FF1828044601D0002826
:10535000E3D19DF903207F2AC0D00199286802F08B
:10536000AAFF04460028B9D0D7E70024DCE713B52C
:1053700004460DF10701A83002F096F920B99DF816
:105380000710206802F074FF02B010BDF7B50646A2
:10539000054656F8A80B02F080FF0027B5F8AE20AE
:1053A000B5F8B0309A4223D03046019702F089FA1E
:1053B000044698B901A93046FDF775FF044668B95F
:1053C000304602F09EFA044640B90199286802F07E
:1053D0005CFF18280446E1D00028DFD0012341F209
:1053E000063280212846FCF790FB204603B0F0BD32
:1053F0000024FAE713B504460DF10701A83002F0C6
:1054000053F940B99DF807302068002B14BF0221E2
:10541000002102F02DFF02B010BD73B5064605460F
:1054200056F8A80B02F051FFB5F8AE20B5F8B03031
:105430009A4235D0304602F044FA044668B9B5F8CD
:10544000B030B5F8AE209B1A9BB2082B0FD901A93A
:105450003046FDF728FF044650B1012341F20832DF
:1054600080212846FCF751FB204602B070BD019018
:105470000DF10301304602F029F904460028ECD171
:10548000304602F03EFA04460028E6D19DF903209A
:105490000199286802F00FFF04460028C4D0DCE719
:1054A0000024E1E710B50446006803F0B4F8C0F347
:1054B0004001C0F3C003C0F3800200F00100FDF71B
:1054C000FDFE0146A06FBDE8104002F01EB837B5E2
:1054D00002A90024054601F8014DA83002F0D4F8D5
:1054E000B0B99DF807302868C3F3C0024FF000013F
:1054F00062F30001C3F3800262F34101C3F340028F
:1055000062F3820163F3C30103F0ADF803B030BD71
:105510002046FBE710B5044654F8780B03F03BF83F
:1055200001462046BDE8104002F025BA37B502A971
:105530000023054641F8043DA83002F0E7F8044690
:1055400018B90199286803F02AF8204603B030BD45
:1055500010B5044654F8780B03F040F90146204694
:10556000BDE8104002F0F8B990F83913806FFDF7EC
:1055700091BE00F23931A83002F096B87FB500F143
:10558000A80600230446012501AA02A93046029379
:10559000ADF804300393ADF806308DF800308DF887
:1055A000015002F079F938B1D4F848330133C4F826
:1055B0004833002004B070BD0DF1060203A9304647
:1055C00002F05FF90028EFD16B46BDF80420029984
:1055D000206802F092FD064670B1294602F0DDFE19
:1055E0003146206802F081FD0028DDD0D4F8583320
:1055F0000133C4F85833DDE70320F7E707B502A904
:10560000002301F8013DA83002F03EF828B99DF8CA
:105610000730012B14BF07200C2003B05DF804FBFA
:1056200013B504460DF10601A83002F05BF820B96D
:10563000BDF80610206802F065FD02B010BD73B51C
:10564000002300F1A806019305467F2301A93046F7
:105650008DF80330FDF727FE0446E0B9B5F8AC201D
:10566000B5F8AE309A420ED10199286802F005FED5
:10567000182813D19DF903207F2A0CD0019928689E
:1056800002F019FE06E00DF10301304602F01EF8AB
:105690000028E9D00446204602B070BD0028E9D0B9
:1056A000F8E737B502A90023044641F8043DA830C5
:1056B000FDF7F9FD054630B90199206802F0DDFDDE
:1056C000182808BF284603B030BD37B50023019322
:1056D0007F238DF80330B0F8AE20B0F8AC309B1AC1
:1056E0009BB2012B044600F1A8050CD80DF1030173
:1056F000284601F0EBFF60B99DF90320019920686D
:1057000002F0D9FD06E001A92846FDF7CCFD0028EE
:10571000ECD0002003B030BD37B504460DF10601D2
:10572000A83001F0DFFF054638B9BDF80610206843
:1057300002F0EDFC172808BF284603B030BD37B58E
:1057400002A90023044641F8043DA830FDF7ABFD53
:10575000054630B90199206802F097FD172808BF67
:10576000284603B030BDFFF7EABF13B5002301930D
:10577000B0F8AC20B0F8AE309A42044608D1019996
:10578000206802F09DFD172808BF002002B010BD60
:1057900001A9A830FDF787FD0028F0D0F6E7F8B59D
:1057A00006460D46002978D091F83930C3F3030737
:1057B0009A064FEA071700F1780448BF47F001073F
:1057C0000722DB064FF080014FF03303204648BF2D
:1057D00047F0080702F0D4F9002858D195F83610A0
:1057E000B06F01F092FE002851D195F93710204694
:1057F000FDF75CFD00284AD1204602F05CF9002844
:1058000045D129462046FCF7DFFF00283FD14FF65F
:10581000FF71204602F0A0F8C8BB698E204602F056
:105820009BF8A0BB95F83810B06F01F06EFE70BB0E
:10583000204602F05FF950BB204602F03CF930BB35
:105840000321204602F0E4F808BB3946B06F01F0AE
:105850005CFEE0B905F10801204602F014F9B0B988
:10586000082205F11901204602F0FDF878B995F8F3
:10587000212005F12201204602F0F5F838B9204632
:1058800002F038F918B9204602F05DF978B10B2121
:1058900006F1E000FDF703FD03E03021E030FDF705
:1058A000FBFC06F1D400BDE8F84004F041B8F8BDB7
:1058B0000B4601461846FFF772BF70B504460E4608
:1058C000E9B100F17805392307228021284602F04A
:1058D00057F970B93178A06F01F017FE48B996F901
:1058E00001102846FDF7E2FC18B9284602F02BF912
:1058F00078B10B2104F1E000FDF7D1FC03E0302189
:10590000E030FDF7C9FC04F1D400BDE8704004F0BC
:105910000FB870BD0B4601461846FFF7CEBF0829E9
:1059200010B5044600F1E00012D002D839B1682168
:1059300006E017290ED01C29F9D16C2100E06D2159
:10594000FDF7ADFC04F1D400BDE8104003F0F0BF5A
:105950006921F5E76A21F3E70B4601461846FFF790
:10596000DEBFF8B5044608460E4602F012FD04F10B
:1059700078050746002814BF72237323062280216E
:10598000284602F0FDF8B0B9304602F000FD0146AD
:10599000284601F0E1FF70B93146A06F01F086FDA5
:1059A00048B9284602F0CFF828B92FB1D4F84C33C3
:1059B0000133C4F84C33F8BDD4F850330133C4F884
:1059C0005033F8E7F8B5074600F55076304602F058
:1059D00001FD044680B10146304602F0F9FC214643
:1059E0003846FFF7BEFF05460028EFD02146304677
:1059F00002F0EBFC2846F8BD0546FBE710B504466F
:105A000079B100F5507002F0DDFC50B994F8FA223B
:105A100094F8FB329A4204D12046BDE81040FFF7CB
:105A2000D1BF10BD0B4601461846FFF7E7BFF8B5DA
:105A300090F83B3306460D461746CBB300F1780489
:105A4000712306228021204602F09AF880BB297932
:105A5000204601F081FF58BB2A792968B06F01F018
:105A600066FD28BB95F90C102046FDF71FFCF8B920
:105A70006FF07F012046FDF719FCC8B93946204672
:105A800001F06AFFA0B9204602F015F880B920465F
:105A900002F030F860B9204602F00DF840B9204617
:105AA00002F028F820B92046BDE8F84002F04BB8D3
:105AB000F8BD13460A4601461846FFF7B8BF90F8EE
:105AC0003B13806FFDF7E6BB37B504460DF10701C8
:105AD000A83001F0E9FD054668B99DF8073094F853
:105AE0003B239A4207D084F83B33206833B1054901
:105AF000224602F0F8FB284603B030BD2A4629466C
:105B0000F7E700BFB35A0000D1F8DC301843C1F802
:105B1000DC0001F1D40003F00BBF00002DE9F041DF
:105B2000D0F8DC300446002B5BD05B072CD590F816
:105B300039334BB3006802F033FE012807D9002344
:105B400084F83933492104F1E000FDF7A5FB206812
:105B500002F026FE042817D1206802F0D6FE98B184
:105B6000D4F8DC30254623F08003C4F8DC3055F847
:105B7000E00B002102F099FE42212846FDF78CFB44
:105B800068212846FDF78BFBDFF86C80002504F1C7
:105B9000E00755F80860D4F8DC301E4206D108351D
:105BA000A02DF6D10023C4F8DC301AE008EB050381
:105BB0005968522917D03846FDF76EFBB6F5007FBD
:105BC00007D15A213846FDF767FB5B213846FDF7C0
:105BD00063FBD4F8DC3023EA0603C4F8DC30002B86
:105BE000DDD1BDE8F08194F83D33002284F83D23F7
:105BF000002BE0D1E2E700BFFC07040040F20953AC
:105C00009A4200F0698500F25D81482A00F04384E1
:105C100000F2A480272A00F0CD834CD8082A00F097
:105C2000AD831FD8032A00F0B7830AD8012A4FF0AA
:105C3000000300F0D18340F2B483C64AC0E90023D8
:105C40007047052A4FF0000300F05D83C0F0E98340
:105C5000062A00F09D83072A00F0B5830023C0E9DF
:105C600000337047212A00F0A08314D80C2A00F0DA
:105C70008A8306D8092AF1D1B74B03600023436019
:105C800070470D2A00F0A383202AE7D1B34B0360AD
:105C9000002343607047232A4FF0000300F0E6839F
:105CA000C0F0E083252A00F08A83262AD6D1AC4AA8
:105CB000C0E900237047382A00F09C8325D8322A97
:105CC00000F0A5830CD8302A4FF0000300F0978332
:105CD00000F29983282AC1D1A24AC0E90023704763
:105CE000352A00F0828306D8342AB7D19E4B036050
:105CF000002343607047362A00F07283372AADD103
:105D00009A4B0360002343607047432A00F0CC8322
:105D100014D8402A00F0CD8306D83A2A9ED1944B5D
:105D20000360002343607047412A00F0A383422AA6
:105D300094D1904B0360002343607047452A4FF095
:105D4000000300F0BB83C0F0A283462A00F09B83CF
:105D5000472A83D1884AC0E900237047602A00F0AF
:105D600009844CD8552A00F0408522D8502A00F0EA
:105D7000BB830DD84A2A4FF0000300F08083C0F0A7
:105D80008F834B2A7FF46AAF7C4AC0E900237047B7
:105D9000522A4FF0000300F01F85C0F0C883532A39
:105DA00000F0AB83542A7FF459AF754AC0E9002351
:105DB00070475A2A00F0B68310D8572A4FF00003D4
:105DC00000F0A883C0F0BC83582A00F0BD83592A94
:105DD0007FF444AF6B4AC0E9002370475C2A4FF060
:105DE000000300F07383C0F099835D2A00F06A839A
:105DF0005E2A7FF433AF644AC0E900237047842AE7
:105E000000F0198525D8652A00F0AB8310D8622AE6
:105E10004FF0000300F0B383C0F0B583632A00F0B5
:105E20009C83642A7FF41AAF584AC0E90023704764
:105E3000672A4FF0000300F09983C0F0A883802AFE
:105E400000F0F584822A7FF409AF514AC0E90023AB
:105E5000704740F204539A4200F0A7831CD840F2E6
:105E600001539A4200F0978307D8852A7FF4F6AE53
:105E7000484B036000234360704740F202539A424C
:105E800000F08E8340F203539A427FF4E7AE424B18
:105E9000036000234360704740F206539A424FF07C
:105EA000000300F08B83C0F0858340F207518A42E3
:105EB00000F00E84B2F5A16F7FF4D0AE374AC0E98E
:105EC0000023704740F292639A4200F0538400F23C
:105ED0000F8140F271539A4200F0438400F29A809D
:105EE00040F267539A4200F01384B2F5AD6F5DD271
:105EF00040F20D539A4200F0F8830CD840F20B5355
:105F00009A424FF0000300F0F58340F2EA83244AFE
:105F1000C0E90023704740F264539A4200F0EE83D8
:105F200009D840F20E539A427FF498AE1D4B03609D
:105F300000234360704740F265539A4200F0E383C8
:105F400040F266539A427FF489AE174B03600023F8
:105F50004360704757230000A3230000E31E0000A6
:105F6000C1260000BF5A0000AD1F0000F91F00004D
:105F7000D93200001B340000AD3500005F2B00005B
:105F80007329000047360000A55400009546000024
:105F9000092D00004F2E0000274B00009F4B0000F2
:105FA000FF4B00002F4C0000774C000040F26C5378
:105FB0009A4200F0C58317D840F269539A4200F024
:105FC000B183B2F5AD6F40F2A88340F26A539A42B2
:105FD00000F0AD8340F26B539A427FF43FAECC4B5E
:105FE000036000234360704740F26E539A424FF0C3
:105FF000000300F0AE83C0F0A88340F26F518A42E4
:1060000000F0AB83B2F5AE6F7FF428AEC14AC0E9B1
:106010000023704740F2CD539A4200F0C1832DD83F
:10602000B2F5B96F00F0AB8311D840F273539A42C6
:106030004FF0000300F08083C0F0988340F2745169
:106040008A427FF40BAEB44AC0E90023704740F2A5
:10605000CA539A424FF0000300F09A83C0F0948331
:1060600040F2CB518A4200F0978340F2CC518A42F1
:106070007FF4F4ADA94AC0E90023704740F23163D0
:106080009A4200F09C831DD840F22D639A4200F0A2
:106090008C8309D840F22C639A427FF4DFADA04B89
:1060A000036000234360704740F22E639A4200F081
:1060B0008183B2F5C66F7FF4D1AD9A4B03600023A4
:1060C0004360704740F233639A424FF0000300F0A0
:1060D0007F83C0F07983B2F5D26F00F0BF8140F2C8
:1060E00091618A427FF4BAAD8F4AC0E900237047BC
:1060F00041F20A539A4200F0958300F2818041F206
:1061000009339A4200F0918137D841F201339A4223
:1061100000F09F8112D841F209039A4200F07C817D
:10612000B2F5985F00F0908141F208039A427FF443
:1061300095AD7E4B036000234360704741F2063308
:106140009A4200F0778109D841F202339A427FF4F3
:1061500085AD774B036000234360704741F20733FE
:106160009A4200F06C8141F208339A427FF476AD96
:10617000704B036000234360704741F204539A421E
:1061800000F04B831DD841F201539A4200F0D381B5
:1061900008D8B2F5A85F7FF461AD674B03600023B8
:1061A0004360704741F202539A4200F02C8341F25F
:1061B00003539A427FF452AD604B03600023436067
:1061C000704741F207539A4200F0148309D841F214
:1061D00006539A427FF442AD594B0360002343605B
:1061E000704741F208539A4200F0128341F209537A
:1061F0009A427FF433AD534B0360002343607047F2
:1062000041F218539A4200F0A3813BD841F2105357
:106210009A4200F0158316D841F20C539A424FF07F
:10622000000300F0EC82C0F06C8141F20D518A4213
:1062300000F05F8141F20E518A427FF40FAD424A75
:10624000C0E90023704741F214539A4200F04281A2
:1062500009D841F213539A427FF400AD3B4B0360DF
:1062600000234360704741F215539A4200F0378192
:1062700041F217539A427FF4F1AC354B036000238F
:106280004360704741F60A139A4200F0DE821ED83E
:1062900041F221539A4200F0A38209D841F21953E6
:1062A0009A427FF4DBAC2B4B0360002343607047C2
:1062B00041F222539A4200F0288141F223539A423C
:1062C0007FF4CCAC244B0360002343607047B2F5ED
:1062D000804F49D009D841F60B139A427FF4BEACE7
:1062E0001E4B036000234360704744F201039A424F
:1062F0003FD044F202039A427FF4B0AC184B0360E3
:10630000002343607047174AC0E90023704700BF6D
:10631000EF4C0000AF4D0000374D0000074E00006D
:106320001B4E0000394E0000774F00008121000015
:106330000B3300007F52000015550000912C000027
:10634000BD470000552C0000DB360000FF3B00007D
:10635000DD290000753F0000B7310000A54A0000AC
:106360003F270000B1220000964B036000234360EA
:106370007047954B0360002343607047934B036065
:10638000002343607047924B0360002343607047D3
:10639000904AC0E9002370478F4B0360002343609D
:1063A00070478E4AC0E9002370478D4B036000237D
:1063B000436070478B4B03600023436070478A4AF9
:1063C000C0E900237047894AC0E900237047884B21
:1063D0000360002343607047864AC0E9002370478A
:1063E000854B0360002343607047844B03600023A8
:1063F00043607047824B0360002343607047814ACB
:10640000C0E900237047804AC0E9002370477F4BF2
:1064100003600023436070477D4B036000234360AB
:1064200070477C4AC0E9002370477B4B0360002320
:1064300043607047794B0360002343607047784B9B
:106440000360002343607047764B03600023436082
:106450007047754B0360002343607047734AC0E97F
:1064600000237047724AC0E900237047714AC0E9AF
:1064700000237047704B03600023436070476F4AEE
:10648000C0E9002370476E4AC0E9002370476D4A97
:10649000C0E9002370476C4B0360002343607047E2
:1064A0006A4AC0E900237047694B036000234360D8
:1064B0007047684B0360002343607047664AC0E939
:1064C00000237047654AC0E900237047644AC0E969
:1064D00000237047634B0360002343607047624BA7
:1064E0000360002343607047604B036000234360F8
:1064F00070475F4AC0E9002370475E4AC0E9002345
:1065000070475D4AC0E9002370475C4B036000237D
:10651000436070475A4AC0E900237047594AC0E9AE
:1065200000237047584B0360002343607047574A6D
:10653000C0E900237047564B036000234360704757
:10654000544AC0E900237047534AC0E9002370470A
:10655000524B0360002343607047514AC0E9002357
:106560007047504B03600023436070474E4AC0E9B8
:10657000002370474D4B03600023436070474C4A33
:10658000C0E9002370474B4AC0E9002370474A4ADC
:10659000C0E900237047494B036000234360704704
:1065A000474B0360002343607047464B0360002362
:1065B00043607047444AC0E900237047434AC0E93A
:1065C000002370473D270000412700008923000079
:1065D000AB2300006D230000A122000079220000FF
:1065E000EB1E0000D7260000ED2600007D230000F2
:1065F0007523000083220000771F0000E11F0000C8
:10660000231F0000CB20000093200000B7200000D3
:106610007D260000A9220000DF4A0000235200006E
:1066200065520000BB51000009520000994E000065
:106630006D33000021330000E3330000FB35000020
:1066400067350000E5340000E335000069550000BF
:1066500079340000CD33000021350000AD39000051
:1066600025390000133C0000273C00001B370000C8
:10667000B136000005370000DD370000A738000004
:106680003136000001480000F139000045370000B4
:10669000515500005D360000873600005B3F00006A
:1066A000B94500009D46000061470000A14500007B
:1066B0001D45000089450000E5460000F74A00003E
:1066C0000F4B00003F4B0000574B00006F4B00008A
:1066D000604AC0E9002370475F4B036000234360BA
:1066E00070475E4AC0E9002370475D4B036000239A
:1066F000436070475B4AC0E9002370475A4B036010
:10670000002343607047594B036000234360704788
:10671000574B0360002343607047564B03600023D0
:1067200043607047544B0360002343607047534BF2
:106730000360002343607047514AC0E9002370475B
:10674000504B03600023436070474F4AC0E9002369
:1067500070474E4AC0E9002370474D4AC0E9002304
:1067600070474C4B03600023436070474A4AC0E9BE
:1067700000237047494B0360002343607047484B38
:106780000360002343607047464AC0E90023704716
:10679000454AC0E900237047444AC0E900237047D6
:1067A000434B0360002343607047424B0360002368
:1067B00043607047404B03600023436070473F4B8A
:1067C00003600023436070473D4AC0E900237047DF
:1067D0003C4AC0E9002370473B4AC0E900237047A8
:1067E0003A4B0360002343607047394B036000233A
:1067F00043607047374B0360002343607047364A5D
:10680000C0E900237047354B0360002343607047A5
:10681000334B0360002343607047324B0360002317
:1068200043607047304B03600023436070472F4A3A
:10683000C0E9002370472E4B03600023436070477C
:106840002C4B03600023436070472B4B03600023F5
:1068500043607047874B0000B74B0000CF4B0000F0
:10686000174C0000E74B0000474C00005F4C000055
:106870008F4C0000A74C0000BF4C0000D74C00001C
:106880001F4D00004F4D0000674D00007F4D000080
:10689000974D0000C74D0000074D0000415100001A
:1068A000DF4D0000E94D0000F34D0000FD4D0000FC
:1068B000114E0000254E00002F4E0000514E0000EA
:1068C000694E0000814E000089290000972A0000CF
:1068D0005D290000272B0000A52B0000DD2B000008
:1068E000192C0000CD2C00006731000093440000FB
:1068F000FF2D0000AB30000019320000822A00F0AA
:1069000009827ED8432A00F056813CD8312A00F013
:10691000468119D8222A00F048810BD80D2A00F0B0
:106920003081212A00F03181072A22D1B74B036040
:10693000002344E1282A00F03681302A00F031811A
:10694000252A16D1B24BF2E7372A00F0268109D862
:10695000342A00F02081362A00F01B81322A08D127
:10696000AC4BE4E73A2A00F0228105D8382A00F03F
:106970000E810023036022E1412A00F01A81422A9D
:10698000F7D1A54BD3E75C2A00F021811BD8472A19
:1069900000F0198108D8452A4FF0000300F011815A
:1069A00040F20B819D4A09E14A2A00F00E8103D88A
:1069B000492ADED19A4BBAE74B2A00F09B81552A2F
:1069C000D7D1984BB3E7652A00F007810AD85E2A31
:1069D0004FF0000300F00D81C0F01181622AC8D190
:1069E000914BA4E7722A00F0F68003D8672AC0D141
:1069F0008E4B9CE7732A00F0EC80812AB9D18C4B36
:106A000095E741F20C539A4200F07A8159D8B2F5D9
:106A1000A85F00F0E48028D8B2F5985F00F0E3802A
:106A20000CD8B2F5A06F00F0618141F208039A42E0
:106A300000F0A980842A9CD17E4B78E741F206338E
:106A40009A4200F0D28005D841F201339A4290D1A7
:106A5000794B6CE741F207339A4200F0C88041F26B
:106A600008339A4285D1754B61E741F206539A4249
:106A700000F0B78010D841F203539A4200F04481ED
:106A800041F204539A4200F0378141F202539A4294
:106A90007FF46FAF6A4B4AE741F208539A424FF0D6
:106AA000000300F02F81C0F0298141F209539A427E
:106AB00000F02C8141F20A539A427FF45AAF614BA5
:106AC00035E741F226539A4200F00E812AD841F26E
:106AD00018539A4200F0958010D841F214539A420C
